{
	"data": {
		"bytecode": {
			"linkReferences": {},
			"object": "608060405261012c5f806101000a81548163ffffffff021916908363ffffffff1602179055506101f45f60046101000a81548163ffffffff021916908363ffffffff160217905550335f60086101000a81548173ffffffffffffffffffffffffffffffffffffffff021916908373ffffffffffffffffffffffffffffffffffffffff16021790555061408f806100945f395ff3fe6080604052600436106100c1575f3560e01c80638ac52d7f1161007e578063b34e97e811610058578063b34e97e8146102c6578063ca26e03a146102f0578063ca91da621461032f578063cecccf7c1461034b576100c1565b80638ac52d7f146102245780639c17d712146102605780639d98f1c61461028a576100c1565b80630635950f146100c5578063082e089414610101578063107046bd1461013d5780634208066e1461018057806370330e07146101bc578063873a4ad6146101e6575b5f80fd5b3480156100d0575f80fd5b506100eb60048036038101906100e69190612a9c565b610387565b6040516100f89190612b67565b60405180910390f35b34801561010c575f80fd5b5061012760048036038101906101229190612b80565b610731565b6040516101349190612b67565b60405180910390f35b348015610148575f80fd5b50610163600480360381019061015e9190612c31565b610a85565b604051610177989796959493929190612dde565b60405180910390f35b34801561018b575f80fd5b506101a660048036038101906101a19190612e8f565b610b60565b6040516101b39190613048565b60405180910390f35b3480156101c7575f80fd5b506101d061122a565b6040516101dd919061313d565b60405180910390f35b3480156101f1575f80fd5b5061020c60048036038101906102079190612c31565b61136d565b60405161021b9392919061315d565b60405180910390f35b34801561022f575f80fd5b5061024a600480360381019061024591906131e6565b6113d9565b6040516102579190612b67565b60405180910390f35b34801561026b575f80fd5b506102746115fd565b604051610281919061332c565b60405180910390f35b348015610295575f80fd5b506102b060048036038101906102ab91906133cb565b6117dc565b6040516102bd9190612b67565b60405180910390f35b3480156102d1575f80fd5b506102da611ffc565b6040516102e7919061352e565b60405180910390f35b3480156102fb575f80fd5b5061031660048036038101906103119190612c31565b61211d565b6040516103269493929190613547565b60405180910390f35b6103496004803603810190610344919061358a565b61219b565b005b348015610356575f80fd5b50610371600480360381019061036c91906135b5565b61258f565b60405161037e9190612b67565b60405180910390f35b5f8060025f3373ffffffffffffffffffffffffffffffffffffffff1673ffffffffffffffffffffffffffffffffffffffff1681526020019081526020015f205f9054906101000a900461ffff1661ffff1614801561043257505f60045f3373ffffffffffffffffffffffffffffffffffffffff1673ffffffffffffffffffffffffffffffffffffffff1681526020019081526020015f205f9054906101000a900461ffff1661ffff16145b610471576040517f08c379a00000000000000000000000000000000000000000000000000000000081526004016104689061364d565b60405180910390fd5b5f8054906101000a900463ffffffff1663ffffffff16600180549050106104cd576040517f08c379a00000000000000000000000000000000000000000000000000000000081526004016104c4906136b5565b60405180910390fd5b60016040518060a001604052808989906104e791906136e9565b6bffffffffffffffffffffffff191681526020013373ffffffffffffffffffffffffffffffffffffffff16815260200187879061052491906136e9565b6bffffffffffffffffffffffff1916815260200185859061054591906136e9565b6bffffffffffffffffffffffff191681526020015f67ffffffffffffffff81111561057357610572613747565b5b6040519080825280602002602001820160405280156105a15781602001602082028036833780820191505090505b50815250908060018154018082558091505060019003905f5260205f2090600502015f909190919091505f820151815f015f6101000a81548173ffffffffffffffffffffffffffffffffffffffff021916908360601c02179055506020820151816001015f6101000a81548173ffffffffffffffffffffffffffffffffffffffff021916908373ffffffffffffffffffffffffffffffffffffffff1602179055506040820151816002015f6101000a81548173ffffffffffffffffffffffffffffffffffffffff021916908360601c02179055506060820151816003015f6101000a81548173ffffffffffffffffffffffffffffffffffffffff021916908360601c021790555060808201518160040190805190602001906106c4929190612885565b50505060018054905060025f3373ffffffffffffffffffffffffffffffffffffffff1673ffffffffffffffffffffffffffffffffffffffff1681526020019081526020015f205f6101000a81548161ffff021916908361ffff160217905550600290509695505050505050565b5f8060025f3373ffffffffffffffffffffffffffffffffffffffff1673ffffffffffffffffffffffffffffffffffffffff1681526020019081526020015f205f9054906101000a900461ffff1661ffff161480156107dc57505f60045f3373ffffffffffffffffffffffffffffffffffffffff1673ffffffffffffffffffffffffffffffffffffffff1681526020019081526020015f205f9054906101000a900461ffff1661ffff16145b61081b576040517f08c379a00000000000000000000000000000000000000000000000000000000081526004016108129061364d565b60405180910390fd5b5f8054906101000a900463ffffffff1663ffffffff1660038054905010610877576040517f08c379a000000000000000000000000000000000000000000000000000000000815260040161086e906136b5565b60405180910390fd5b6003604051806080016040528087879061089191906136e9565b6bffffffffffffffffffffffff191681526020013373ffffffffffffffffffffffffffffffffffffffff1681526020018585906108ce91906136e9565b6bffffffffffffffffffffffff191681526020015f67ffffffffffffffff8111156108fc576108fb613747565b5b60405190808252806020026020018201604052801561092a5781602001602082028036833780820191505090505b50815250908060018154018082558091505060019003905f5260205f2090600402015f909190919091505f820151815f015f6101000a81548173ffffffffffffffffffffffffffffffffffffffff021916908360601c02179055506020820151816001015f6101000a81548173ffffffffffffffffffffffffffffffffffffffff021916908373ffffffffffffffffffffffffffffffffffffffff1602179055506040820151816002015f6101000a81548173ffffffffffffffffffffffffffffffffffffffff021916908360601c02179055506060820151816003019080519060200190610a1a929190612885565b50505060038054905060045f3373ffffffffffffffffffffffffffffffffffffffff1673ffffffffffffffffffffffffffffffffffffffff1681526020019081526020015f205f6101000a81548161ffff021916908361ffff16021790555060029050949350505050565b60058181548110610a94575f80fd5b905f5260205f2090600602015f91509050805f015f9054906101000a900461ffff1690805f0160029054906101000a900460601b90806001015f9054906101000a900460101b9080600101601e9054906101000a900460ff1690806002015f9054906101000a900467ffffffffffffffff16908060020160089054906101000a900467ffffffffffffffff16908060020160109054906101000a900463ffffffff1690806005015f9054906101000a900473ffffffffffffffffffffffffffffffffffffffff16905088565b60608115610e06575f60058054905067ffffffffffffffff811115610b8857610b87613747565b5b604051908082528060200260200182016040528015610bc157816020015b610bae61292c565b815260200190600190039081610ba65790505b5090505f5b6005805490508161ffff161015610dfc576040518060e0016040528060058361ffff1681548110610bfa57610bf9613774565b5b905f5260205f2090600602015f015f9054906101000a900461ffff1661ffff16815260200160058361ffff1681548110610c3757610c36613774565b5b905f5260205f2090600602015f0160029054906101000a900460601b6bffffffffffffffffffffffff1916815260200160058361ffff1681548110610c7f57610c7e613774565b5b905f5260205f2090600602016001015f9054906101000a900460101b61ffff1916815260200160058361ffff1681548110610cbd57610cbc613774565b5b905f5260205f209060060201600101601e9054906101000a900460ff166004811115610cec57610ceb612cec565b5b815260200160058361ffff1681548110610d0957610d08613774565b5b905f5260205f2090600602016002015f9054906101000a900467ffffffffffffffff1667ffffffffffffffff16815260200160058361ffff1681548110610d5357610d52613774565b5b905f5260205f20906006020160020160089054906101000a900467ffffffffffffffff1667ffffffffffffffff16815260200160058361ffff1681548110610d9e57610d9d613774565b5b905f5260205f20906006020160020160109054906101000a900463ffffffff1663ffffffff16815250828261ffff1681518110610dde57610ddd613774565b5b60200260200101819052508080610df4906137ce565b915050610bc6565b5080915050611225565b5f8060025f3373ffffffffffffffffffffffffffffffffffffffff1673ffffffffffffffffffffffffffffffffffffffff1681526020019081526020015f205f9054906101000a900461ffff1661ffff1614610edf5760018060025f3373ffffffffffffffffffffffffffffffffffffffff1673ffffffffffffffffffffffffffffffffffffffff1681526020019081526020015f205f9054906101000a900461ffff16610eb491906137f7565b61ffff1681548110610ec957610ec8613774565b5b905f5260205f2090600502016004019050611015565b5f60045f3373ffffffffffffffffffffffffffffffffffffffff1673ffffffffffffffffffffffffffffffffffffffff1681526020019081526020015f205f9054906101000a900461ffff1661ffff1614610fb8576003600160045f3373ffffffffffffffffffffffffffffffffffffffff1673ffffffffffffffffffffffffffffffffffffffff1681526020019081526020015f205f9054906101000a900461ffff16610f8d91906137f7565b61ffff1681548110610fa257610fa1613774565b5b905f5260205f2090600402016003019050611014565b5f67ffffffffffffffff811115610fd257610fd1613747565b5b60405190808252806020026020018201604052801561100b57816020015b610ff861292c565b815260200190600190039081610ff05790505b50915050611225565b5b5f818054905067ffffffffffffffff81111561103457611033613747565b5b60405190808252806020026020018201604052801561106d57816020015b61105a61292c565b8152602001906001900390816110525790505b5090505f5b82805490508161ffff16101561121e575f60056001858461ffff168154811061109e5761109d613774565b5b905f5260205f2090601091828204019190066002029054906101000a900461ffff166110ca91906137f7565b61ffff16815481106110df576110de613774565b5b905f5260205f20906006020190506040518060e00160405280825f015f9054906101000a900461ffff1661ffff168152602001825f0160029054906101000a900460601b6bffffffffffffffffffffffff19168152602001826001015f9054906101000a900460101b61ffff1916815260200182600101601e9054906101000a900460ff16600481111561117657611175612cec565b5b8152602001826002015f9054906101000a900467ffffffffffffffff1667ffffffffffffffff1681526020018260020160089054906101000a900467ffffffffffffffff1667ffffffffffffffff1681526020018260020160109054906101000a900463ffffffff1663ffffffff16815250838361ffff16815181106111ff576111fe613774565b5b6020026020010181905250508080611216906137ce565b915050611072565b5080925050505b919050565b60605f60018054905067ffffffffffffffff81111561124c5761124b613747565b5b60405190808252806020026020018201604052801561128557816020015b6112726129a6565b81526020019060019003908161126a5790505b5090505f5b6001805490508161ffff161015611365576001816112a8919061382c565b828261ffff16815181106112bf576112be613774565b5b60200260200101515f019061ffff16908161ffff168152505060018161ffff16815481106112f0576112ef613774565b5b905f5260205f2090600502015f015f9054906101000a900460601b828261ffff168151811061132257611321613774565b5b6020026020010151602001906bffffffffffffffffffffffff191690816bffffffffffffffffffffffff191681525050808061135d906137ce565b91505061128a565b508091505090565b6003818154811061137c575f80fd5b905f5260205f2090600402015f91509050805f015f9054906101000a900460601b90806001015f9054906101000a900473ffffffffffffffffffffffffffffffffffffffff1690806002015f9054906101000a900460601b905083565b5f8060045f3373ffffffffffffffffffffffffffffffffffffffff1673ffffffffffffffffffffffffffffffffffffffff1681526020019081526020015f205f9054906101000a900461ffff1661ffff161415801561144157506005805490508361ffff1611155b611480576040517f08c379a0000000000000000000000000000000000000000000000000000000008152600401611477906138ab565b60405180910390fd5b5f600560018561149091906137f7565b61ffff16815481106114a5576114a4613774565b5b905f5260205f2090600602019050600160048111156114c7576114c6612cec565b5b81600101601e9054906101000a900460ff1660048111156114eb576114ea612cec565b5b1461152b576040517f08c379a000000000000000000000000000000000000000000000000000000000815260040161152290613913565b60405180910390fd5b8267ffffffffffffffff168160020160089054906101000a900467ffffffffffffffff1667ffffffffffffffff16111561159a576040517f08c379a00000000000000000000000000000000000000000000000000000000081526004016115919061397b565b60405180910390fd5b600481600101601e6101000a81548160ff021916908360048111156115c2576115c1612cec565b5b0217905550828160020160086101000a81548167ffffffffffffffff021916908367ffffffffffffffff160217905550600291505092915050565b60605f60038054905067ffffffffffffffff81111561161f5761161e613747565b5b60405190808252806020026020018201604052801561165857816020015b6116456129d1565b81526020019060019003908161163d5790505b5090505f5b6003805490508161ffff1610156117d45760018161167b919061382c565b828261ffff168151811061169257611691613774565b5b60200260200101515f019061ffff16908161ffff168152505060038161ffff16815481106116c3576116c2613774565b5b905f5260205f2090600402015f015f9054906101000a900460601b828261ffff16815181106116f5576116f4613774565b5b6020026020010151602001906bffffffffffffffffffffffff191690816bffffffffffffffffffffffff19168152505060038161ffff168154811061173d5761173c613774565b5b905f5260205f2090600402016001015f9054906101000a900473ffffffffffffffffffffffffffffffffffffffff16828261ffff168151811061178357611782613774565b5b60200260200101516040019073ffffffffffffffffffffffffffffffffffffffff16908173ffffffffffffffffffffffffffffffffffffffff168152505080806117cc906137ce565b91505061165d565b508091505090565b5f8060045f3373ffffffffffffffffffffffffffffffffffffffff1673ffffffffffffffffffffffffffffffffffffffff1681526020019081526020015f205f9054906101000a900461ffff1661ffff160361186d576040517f08c379a0000000000000000000000000000000000000000000000000000000008152600401611864906139e3565b60405180910390fd5b8667ffffffffffffffff168867ffffffffffffffff1611156118c4576040517f08c379a00000000000000000000000000000000000000000000000000000000081526004016118bb90613a4b565b60405180910390fd5b5f60049054906101000a900463ffffffff1663ffffffff1660058054905010611922576040517f08c379a000000000000000000000000000000000000000000000000000000000815260040161191990613ad9565b60405180910390fd5b828290506001108015611939575060048383905011155b8015611949575084849050600111155b8015611959575060048585905011155b611998576040517f08c379a000000000000000000000000000000000000000000000000000000000815260040161198f90613b67565b60405180910390fd5b5f5b838390508161ffff161015611ac1575f600185858461ffff168181106119c3576119c2613774565b5b90506020020160208101906119d8919061358a565b6119e291906137f7565b90506001805490508161ffff1610611a2f576040517f08c379a0000000000000000000000000000000000000000000000000000000008152600401611a2690613bcf565b60405180910390fd5b60018161ffff1681548110611a4757611a46613774565b5b905f5260205f2090600502016004016001600580549050611a689190613bed565b908060018154018082558091505060019003905f5260205f2090601091828204019190066002029091909190916101000a81548161ffff021916908361ffff160217905550508080611ab9906137ce565b91505061199a565b505f5b858590508161ffff161015611beb575f600187878461ffff16818110611aed57611aec613774565b5b9050602002016020810190611b02919061358a565b611b0c91906137f7565b90506003805490508161ffff1610611b59576040517f08c379a0000000000000000000000000000000000000000000000000000000008152600401611b5090613bcf565b60405180910390fd5b60038161ffff1681548110611b7157611b70613774565b5b905f5260205f2090600402016003016001600580549050611b929190613bed565b908060018154018082558091505060019003905f5260205f2090601091828204019190066002029091909190916101000a81548161ffff021916908361ffff160217905550508080611be3906137ce565b915050611ac4565b5060056040518061014001604052806001600580549050611c0c9190613bed565b61ffff1681526020018e8e90611c2291906136e9565b6bffffffffffffffffffffffff191681526020018c8c90611c439190613c20565b61ffff191681526020015f6004811115611c6057611c5f612cec565b5b81526020018a67ffffffffffffffff1681526020018967ffffffffffffffff1681526020018863ffffffff1681526020018787808060200260200160405190810160405280939291908181526020018383602002808284375f81840152601f19601f8201169050808301925050505050505081526020018585808060200260200160405190810160405280939291908181526020018383602002808284375f81840152601f19601f8201169050808301925050505050505081526020015f73ffffffffffffffffffffffffffffffffffffffff16815250908060018154018082558091505060019003905f5260205f2090600602015f909190919091505f820151815f015f6101000a81548161ffff021916908361ffff1602179055506020820151815f0160026101000a81548173ffffffffffffffffffffffffffffffffffffffff021916908360601c02179055506040820151816001015f6101000a8154817dffffffffffffffffffffffffffffffffffffffffffffffffffffffffffff021916908360101c0217905550606082015181600101601e6101000a81548160ff02191690836004811115611e1857611e17612cec565b5b02179055506080820151816002015f6101000a81548167ffffffffffffffff021916908367ffffffffffffffff16021790555060a08201518160020160086101000a81548167ffffffffffffffff021916908367ffffffffffffffff16021790555060c08201518160020160106101000a81548163ffffffff021916908363ffffffff16021790555060e0820151816003019080519060200190611ebd929190612885565b50610100820151816004019080519060200190611edb929190612885565b50610120820151816005015f6101000a81548173ffffffffffffffffffffffffffffffffffffffff021916908373ffffffffffffffffffffffffffffffffffffffff160217905550505060056001600580549050611f399190613c7e565b81548110611f4a57611f49613774565b5b905f5260205f20906006020160030160045f3373ffffffffffffffffffffffffffffffffffffffff1673ffffffffffffffffffffffffffffffffffffffff1681526020019081526020015f205f9054906101000a900461ffff16908060018154018082558091505060019003905f5260205f2090601091828204019190066002029091909190916101000a81548161ffff021916908361ffff160217905550600290509b9a5050505050505050505050565b5f8060089054906101000a900473ffffffffffffffffffffffffffffffffffffffff1673ffffffffffffffffffffffffffffffffffffffff163373ffffffffffffffffffffffffffffffffffffffff1603612059575f905061211a565b5f60025f3373ffffffffffffffffffffffffffffffffffffffff1673ffffffffffffffffffffffffffffffffffffffff1681526020019081526020015f205f9054906101000a900461ffff1661ffff16146120b7576001905061211a565b5f60045f3373ffffffffffffffffffffffffffffffffffffffff1673ffffffffffffffffffffffffffffffffffffffff1681526020019081526020015f205f9054906101000a900461ffff1661ffff1614612115576002905061211a565b600390505b90565b6001818154811061212c575f80fd5b905f5260205f2090600502015f91509050805f015f9054906101000a900460601b90806001015f9054906101000a900473ffffffffffffffffffffffffffffffffffffffff1690806002015f9054906101000a900460601b90806003015f9054906101000a900460601b905084565b3373ffffffffffffffffffffffffffffffffffffffff165f60089054906101000a900473ffffffffffffffffffffffffffffffffffffffff1673ffffffffffffffffffffffffffffffffffffffff161461222a576040517f08c379a000000000000000000000000000000000000000000000000000000000815260040161222190613cfb565b60405180910390fd5b6005805490508161ffff161115612276576040517f08c379a000000000000000000000000000000000000000000000000000000000815260040161226d90613d63565b60405180910390fd5b5f600560018361228691906137f7565b61ffff168154811061229b5761229a613774565b5b905f5260205f2090600602019050600160048111156122bd576122bc612cec565b5b81600101601e9054906101000a900460ff1660048111156122e1576122e0612cec565b5b14612321576040517f08c379a000000000000000000000000000000000000000000000000000000000815260040161231890613dcb565b60405180910390fd5b8060020160089054906101000a900467ffffffffffffffff1667ffffffffffffffff16421015612386576040517f08c379a000000000000000000000000000000000000000000000000000000000815260040161237d90613e33565b60405180910390fd5b348160020160109054906101000a900463ffffffff1663ffffffff16146123e2576040517f08c379a00000000000000000000000000000000000000000000000000000000081526004016123d990613e9b565b60405180910390fd5b5f5b81600301805490508161ffff16101561258a57345f60089054906101000a900473ffffffffffffffffffffffffffffffffffffffff1673ffffffffffffffffffffffffffffffffffffffff16311015612472576040517f08c379a000000000000000000000000000000000000000000000000000000000815260040161246990613f03565b60405180910390fd5b5f60036001846003018461ffff168154811061249157612490613774565b5b905f5260205f2090601091828204019190066002029054906101000a900461ffff166124bd91906137f7565b61ffff16815481106124d2576124d1613774565b5b905f5260205f2090600402016001015f9054906101000a900473ffffffffffffffffffffffffffffffffffffffff1673ffffffffffffffffffffffffffffffffffffffff166108fc3490811502906040515f60405180830381858888f19350505050905080612576576040517f08c379a000000000000000000000000000000000000000000000000000000000815260040161256d90613f6b565b60405180910390fd5b508080612582906137ce565b9150506123e4565b505050565b5f8060025f3373ffffffffffffffffffffffffffffffffffffffff1673ffffffffffffffffffffffffffffffffffffffff1681526020019081526020015f205f9054906101000a900461ffff1661ffff16141580156125f357506005805490508311155b612632576040517f08c379a000000000000000000000000000000000000000000000000000000000815260040161262990613fd3565b60405180910390fd5b5f60056001856126429190613c7e565b8154811061265357612652613774565b5b905f5260205f20906006020190505f600481111561267457612673612cec565b5b81600101601e9054906101000a900460ff16600481111561269857612697612cec565b5b14806126d857506004808111156126b2576126b1612cec565b5b81600101601e9054906101000a900460ff1660048111156126d6576126d5612cec565b5b145b612717576040517f08c379a000000000000000000000000000000000000000000000000000000000815260040161270e9061403b565b60405180910390fd5b5f5b81600401805490508110156128785760025f3373ffffffffffffffffffffffffffffffffffffffff1673ffffffffffffffffffffffffffffffffffffffff1681526020019081526020015f205f9054906101000a900461ffff1661ffff1682600401828154811061278d5761278c613774565b5b905f5260205f2090601091828204019190066002029054906101000a900461ffff1661ffff160361286b5733826005015f6101000a81548173ffffffffffffffffffffffffffffffffffffffff021916908373ffffffffffffffffffffffffffffffffffffffff160217905550831561283257600182600101601e6101000a81548160ff0219169083600481111561282857612827612cec565b5b0217905550612860565b600282600101601e6101000a81548160ff0219169083600481111561285a57612859612cec565b5b02179055505b60029250505061287f565b8080600101915050612719565b5060069150505b92915050565b828054828255905f5260205f2090600f0160109004810192821561291b579160200282015f5b838211156128eb57835183826101000a81548161ffff021916908361ffff16021790555092602001926002016020816001010492830192600103026128ab565b80156129195782816101000a81549061ffff02191690556002016020816001010492830192600103026128eb565b505b5090506129289190612a18565b5090565b6040518060e001604052805f61ffff1681526020015f6bffffffffffffffffffffffff191681526020015f61ffff191681526020015f600481111561297457612973612cec565b5b81526020015f67ffffffffffffffff1681526020015f67ffffffffffffffff1681526020015f63ffffffff1681525090565b60405180604001604052805f61ffff1681526020015f6bffffffffffffffffffffffff191681525090565b60405180606001604052805f61ffff1681526020015f6bffffffffffffffffffffffff191681526020015f73ffffffffffffffffffffffffffffffffffffffff1681525090565b5b80821115612a2f575f815f905550600101612a19565b5090565b5f80fd5b5f80fd5b5f80fd5b5f80fd5b5f80fd5b5f8083601f840112612a5c57612a5b612a3b565b5b8235905067ffffffffffffffff811115612a7957612a78612a3f565b5b602083019150836001820283011115612a9557612a94612a43565b5b9250929050565b5f805f805f8060608789031215612ab657612ab5612a33565b5b5f87013567ffffffffffffffff811115612ad357612ad2612a37565b5b612adf89828a01612a47565b9650965050602087013567ffffffffffffffff811115612b0257612b01612a37565b5b612b0e89828a01612a47565b9450945050604087013567ffffffffffffffff811115612b3157612b30612a37565b5b612b3d89828a01612a47565b92509250509295509295509295565b5f60ff82169050919050565b612b6181612b4c565b82525050565b5f602082019050612b7a5f830184612b58565b92915050565b5f805f8060408587031215612b9857612b97612a33565b5b5f85013567ffffffffffffffff811115612bb557612bb4612a37565b5b612bc187828801612a47565b9450945050602085013567ffffffffffffffff811115612be457612be3612a37565b5b612bf087828801612a47565b925092505092959194509250565b5f819050919050565b612c1081612bfe565b8114612c1a575f80fd5b50565b5f81359050612c2b81612c07565b92915050565b5f60208284031215612c4657612c45612a33565b5b5f612c5384828501612c1d565b91505092915050565b5f61ffff82169050919050565b612c7281612c5c565b82525050565b5f7fffffffffffffffffffffffffffffffffffffffff00000000000000000000000082169050919050565b612cac81612c78565b82525050565b5f7fffffffffffffffffffffffffffffffffffffffffffffffffffffffffffff000082169050919050565b612ce681612cb2565b82525050565b7f4e487b71000000000000000000000000000000000000000000000000000000005f52602160045260245ffd5b60058110612d2a57612d29612cec565b5b50565b5f819050612d3a82612d19565b919050565b5f612d4982612d2d565b9050919050565b612d5981612d3f565b82525050565b5f67ffffffffffffffff82169050919050565b612d7b81612d5f565b82525050565b5f63ffffffff82169050919050565b612d9981612d81565b82525050565b5f73ffffffffffffffffffffffffffffffffffffffff82169050919050565b5f612dc882612d9f565b9050919050565b612dd881612dbe565b82525050565b5f61010082019050612df25f83018b612c69565b612dff602083018a612ca3565b612e0c6040830189612cdd565b612e196060830188612d50565b612e266080830187612d72565b612e3360a0830186612d72565b612e4060c0830185612d90565b612e4d60e0830184612dcf565b9998505050505050505050565b5f8115159050919050565b612e6e81612e5a565b8114612e78575f80fd5b50565b5f81359050612e8981612e65565b92915050565b5f60208284031215612ea457612ea3612a33565b5b5f612eb184828501612e7b565b91505092915050565b5f81519050919050565b5f82825260208201905092915050565b5f819050602082019050919050565b612eec81612c5c565b82525050565b612efb81612c78565b82525050565b612f0a81612cb2565b82525050565b612f1981612d3f565b82525050565b612f2881612d5f565b82525050565b612f3781612d81565b82525050565b60e082015f820151612f515f850182612ee3565b506020820151612f646020850182612ef2565b506040820151612f776040850182612f01565b506060820151612f8a6060850182612f10565b506080820151612f9d6080850182612f1f565b5060a0820151612fb060a0850182612f1f565b5060c0820151612fc360c0850182612f2e565b50505050565b5f612fd48383612f3d565b60e08301905092915050565b5f602082019050919050565b5f612ff682612eba565b6130008185612ec4565b935061300b83612ed4565b805f5b8381101561303b5781516130228882612fc9565b975061302d83612fe0565b92505060018101905061300e565b5085935050505092915050565b5f6020820190508181035f8301526130608184612fec565b905092915050565b5f81519050919050565b5f82825260208201905092915050565b5f819050602082019050919050565b604082015f8201516130a55f850182612ee3565b5060208201516130b86020850182612ef2565b50505050565b5f6130c98383613091565b60408301905092915050565b5f602082019050919050565b5f6130eb82613068565b6130f58185613072565b935061310083613082565b805f5b8381101561313057815161311788826130be565b9750613122836130d5565b925050600181019050613103565b5085935050505092915050565b5f6020820190508181035f83015261315581846130e1565b905092915050565b5f6060820190506131705f830186612ca3565b61317d6020830185612dcf565b61318a6040830184612ca3565b949350505050565b61319b81612c5c565b81146131a5575f80fd5b50565b5f813590506131b681613192565b92915050565b6131c581612d5f565b81146131cf575f80fd5b50565b5f813590506131e0816131bc565b92915050565b5f80604083850312156131fc576131fb612a33565b5b5f613209858286016131a8565b925050602061321a858286016131d2565b9150509250929050565b5f81519050919050565b5f82825260208201905092915050565b5f819050602082019050919050565b5f61325782612d9f565b9050919050565b6132678161324d565b82525050565b606082015f8201516132815f850182612ee3565b5060208201516132946020850182612ef2565b5060408201516132a7604085018261325e565b50505050565b5f6132b8838361326d565b60608301905092915050565b5f602082019050919050565b5f6132da82613224565b6132e4818561322e565b93506132ef8361323e565b805f5b8381101561331f57815161330688826132ad565b9750613311836132c4565b9250506001810190506132f2565b5085935050505092915050565b5f6020820190508181035f83015261334481846132d0565b905092915050565b61335581612d81565b811461335f575f80fd5b50565b5f813590506133708161334c565b92915050565b5f8083601f84011261338b5761338a612a3b565b5b8235905067ffffffffffffffff8111156133a8576133a7612a3f565b5b6020830191508360208202830111156133c4576133c3612a43565b5b9250929050565b5f805f805f805f805f805f60e08c8e0312156133ea576133e9612a33565b5b5f8c013567ffffffffffffffff81111561340757613406612a37565b5b6134138e828f01612a47565b9b509b505060208c013567ffffffffffffffff81111561343657613435612a37565b5b6134428e828f01612a47565b995099505060406134558e828f016131d2565b97505060606134668e828f016131d2565b96505060806134778e828f01613362565b95505060a08c013567ffffffffffffffff81111561349857613497612a37565b5b6134a48e828f01613376565b945094505060c08c013567ffffffffffffffff8111156134c7576134c6612a37565b5b6134d38e828f01613376565b92509250509295989b509295989b9093969950565b600481106134f9576134f8612cec565b5b50565b5f819050613509826134e8565b919050565b5f613518826134fc565b9050919050565b6135288161350e565b82525050565b5f6020820190506135415f83018461351f565b92915050565b5f60808201905061355a5f830187612ca3565b6135676020830186612dcf565b6135746040830185612ca3565b6135816060830184612ca3565b95945050505050565b5f6020828403121561359f5761359e612a33565b5b5f6135ac848285016131a8565b91505092915050565b5f80604083850312156135cb576135ca612a33565b5b5f6135d885828601612c1d565b92505060206135e985828601612e7b565b9150509250929050565b5f82825260208201905092915050565b7f34203a207573657220616c7265616479206578697374730000000000000000005f82015250565b5f6136376017836135f3565b915061364282613603565b602082019050919050565b5f6020820190508181035f8301526136648161362b565b9050919050565b7f35203a206d6178206361706163697479207265616368656400000000000000005f82015250565b5f61369f6018836135f3565b91506136aa8261366b565b602082019050919050565b5f6020820190508181035f8301526136cc81613693565b9050919050565b5f82905092915050565b5f82821b905092915050565b5f6136f483836136d3565b826136ff8135612c78565b9250601482101561373f5761373a7fffffffffffffffffffffffffffffffffffffffff000000000000000000000000836014036008026136dd565b831692505b505092915050565b7f4e487b71000000000000000000000000000000000000000000000000000000005f52604160045260245ffd5b7f4e487b71000000000000000000000000000000000000000000000000000000005f52603260045260245ffd5b7f4e487b71000000000000000000000000000000000000000000000000000000005f52601160045260245ffd5b5f6137d882612c5c565b915061ffff82036137ec576137eb6137a1565b5b600182019050919050565b5f61380182612c5c565b915061380c83612c5c565b9250828203905061ffff811115613826576138256137a1565b5b92915050565b5f61383682612c5c565b915061384183612c5c565b9250828201905061ffff81111561385b5761385a6137a1565b5b92915050565b7f34203a20696e76616c69642075736572000000000000000000000000000000005f82015250565b5f6138956010836135f3565b91506138a082613861565b602082019050919050565b5f6020820190508181035f8301526138c281613889565b9050919050565b7f35203a2070726f6a656374206973206e6f7420617070726f76656400000000005f82015250565b5f6138fd601b836135f3565b9150613908826138c9565b602082019050919050565b5f6020820190508181035f83015261392a816138f1565b9050919050565b7f35203a20696e76616c696420656e6420646174650000000000000000000000005f82015250565b5f6139656014836135f3565b915061397082613931565b602082019050919050565b5f6020820190508181035f83015261399281613959565b9050919050565b7f34203a20496e76616c69642075736572000000000000000000000000000000005f82015250565b5f6139cd6010836135f3565b91506139d882613999565b602082019050919050565b5f6020820190508181035f8301526139fa816139c1565b9050919050565b7f37203a20696e76616c69642064617465730000000000000000000000000000005f82015250565b5f613a356011836135f3565b9150613a4082613a01565b602082019050919050565b5f6020820190508181035f830152613a6281613a29565b9050919050565b7f35203a206d6178206e756d626572206f662070726f6a656374732072656163685f8201527f6564000000000000000000000000000000000000000000000000000000000000602082015250565b5f613ac36022836135f3565b9150613ace82613a69565b604082019050919050565b5f6020820190508181035f830152613af081613ab7565b9050919050565b7f35203a20646f6573206e6f74207361746973667920737461666620616e6420665f8201527f6163756c747920726571756972656d656e740000000000000000000000000000602082015250565b5f613b516032836135f3565b9150613b5c82613af7565b604082019050919050565b5f6020820190508181035f830152613b7e81613b45565b9050919050565b7f36203a204e6f20696420657869737473000000000000000000000000000000005f82015250565b5f613bb96010836135f3565b9150613bc482613b85565b602082019050919050565b5f6020820190508181035f830152613be681613bad565b9050919050565b5f613bf782612bfe565b9150613c0283612bfe565b9250828201905080821115613c1a57613c196137a1565b5b92915050565b5f613c2b83836136d3565b82613c368135612cb2565b9250601e821015613c7657613c717fffffffffffffffffffffffffffffffffffffffffffffffffffffffffffff000083601e036008026136dd565b831692505b505092915050565b5f613c8882612bfe565b9150613c9383612bfe565b9250828203905081811115613cab57613caa6137a1565b5b92915050565b7f34203a204e6f742061646d696e000000000000000000000000000000000000005f82015250565b5f613ce5600d836135f3565b9150613cf082613cb1565b602082019050919050565b5f6020820190508181035f830152613d1281613cd9565b9050919050565b7f34203a2050726f6a65637420696420646f6573206e6f742065786973747300005f82015250565b5f613d4d601e836135f3565b9150613d5882613d19565b602082019050919050565b5f6020820190508181035f830152613d7a81613d41565b9050919050565b7f34203a207468652070726f6a6563742069732070656e64696e670000000000005f82015250565b5f613db5601a836135f3565b9150613dc082613d81565b602082019050919050565b5f6020820190508181035f830152613de281613da9565b9050919050565b7f35203a2050726f6a656374206973206e6f7420636f6d706c65746564000000005f82015250565b5f613e1d601c836135f3565b9150613e2882613de9565b602082019050919050565b5f6020820190508181035f830152613e4a81613e11565b9050919050565b7f35203a20696e636f727265637420616d6f756e7420746f207472616e736665725f82015250565b5f613e856020836135f3565b9150613e9082613e51565b602082019050919050565b5f6020820190508181035f830152613eb281613e79565b9050919050565b7f35203a20696e73756666696369656e742062616c616e636500000000000000005f82015250565b5f613eed6018836135f3565b9150613ef882613eb9565b602082019050919050565b5f6020820190508181035f830152613f1a81613ee1565b9050919050565b7f35203a205061796d656e74206661696c656400000000000000000000000000005f82015250565b5f613f556012836135f3565b9150613f6082613f21565b602082019050919050565b5f6020820190508181035f830152613f8281613f49565b9050919050565b7f34203a20496e76616c69642075736572206f722070726f6a65637400000000005f82015250565b5f613fbd601b836135f3565b9150613fc882613f89565b602082019050919050565b5f6020820190508181035f830152613fea81613fb1565b9050919050565b7f35203a2070726f6a656374206973206e6f742070656e64696e670000000000005f82015250565b5f614025601a836135f3565b915061403082613ff1565b602082019050919050565b5f6020820190508181035f83015261405281614019565b905091905056fea2646970667358221220cb8bd75e4e74cf5c56b09725ee5409daa58920be0b3cada97c158733f06a13a664736f6c63430008190033",
			"opcodes": "PUSH1 0x80 PUSH1 0x40 MSTORE PUSH2 0x12C PUSH0 DUP1 PUSH2 0x100 EXP DUP2 SLOAD DUP2 PUSH4 0xFFFFFFFF MUL NOT AND SWAP1 DUP4 PUSH4 0xFFFFFFFF AND MUL OR SWAP1 SSTORE POP PUSH2 0x1F4 PUSH0 PUSH1 0x4 PUSH2 0x100 EXP DUP2 SLOAD DUP2 PUSH4 0xFFFFFFFF MUL NOT AND SWAP1 DUP4 PUSH4 0xFFFFFFFF AND MUL OR SWAP1 SSTORE POP CALLER PUSH0 PUSH1 0x8 PUSH2 0x100 EXP DUP2 SLOAD DUP2 PUSH20 0xFFFFFFFFFFFFFFFFFFFFFFFFFFFFFFFFFFFFFFFF MUL NOT AND SWAP1 DUP4 PUSH20 0xFFFFFFFFFFFFFFFFFFFFFFFFFFFFFFFFFFFFFFFF AND MUL OR SWAP1 SSTORE POP PUSH2 0x408F DUP1 PUSH2 0x94 PUSH0 CODECOPY PUSH0 RETURN INVALID PUSH1 0x80 PUSH1 0x40 MSTORE PUSH1 0x4 CALLDATASIZE LT PUSH2 0xC1 JUMPI PUSH0 CALLDATALOAD PUSH1 0xE0 SHR DUP1 PUSH4 0x8AC52D7F GT PUSH2 0x7E JUMPI DUP1 PUSH4 0xB34E97E8 GT PUSH2 0x58 JUMPI DUP1 PUSH4 0xB34E97E8 EQ PUSH2 0x2C6 JUMPI DUP1 PUSH4 0xCA26E03A EQ PUSH2 0x2F0 JUMPI DUP1 PUSH4 0xCA91DA62 EQ PUSH2 0x32F JUMPI DUP1 PUSH4 0xCECCCF7C EQ PUSH2 0x34B JUMPI PUSH2 0xC1 JUMP JUMPDEST DUP1 PUSH4 0x8AC52D7F EQ PUSH2 0x224 JUMPI DUP1 PUSH4 0x9C17D712 EQ PUSH2 0x260 JUMPI DUP1 PUSH4 0x9D98F1C6 EQ PUSH2 0x28A JUMPI PUSH2 0xC1 JUMP JUMPDEST DUP1 PUSH4 0x635950F EQ PUSH2 0xC5 JUMPI DUP1 PUSH4 0x82E0894 EQ PUSH2 0x101 JUMPI DUP1 PUSH4 0x107046BD EQ PUSH2 0x13D JUMPI DUP1 PUSH4 0x4208066E EQ PUSH2 0x180 JUMPI DUP1 PUSH4 0x70330E07 EQ PUSH2 0x1BC JUMPI DUP1 PUSH4 0x873A4AD6 EQ PUSH2 0x1E6 JUMPI JUMPDEST PUSH0 DUP1 REVERT JUMPDEST CALLVALUE DUP1 ISZERO PUSH2 0xD0 JUMPI PUSH0 DUP1 REVERT JUMPDEST POP PUSH2 0xEB PUSH1 0x4 DUP1 CALLDATASIZE SUB DUP2 ADD SWAP1 PUSH2 0xE6 SWAP2 SWAP1 PUSH2 0x2A9C JUMP JUMPDEST PUSH2 0x387 JUMP JUMPDEST PUSH1 0x40 MLOAD PUSH2 0xF8 SWAP2 SWAP1 PUSH2 0x2B67 JUMP JUMPDEST PUSH1 0x40 MLOAD DUP1 SWAP2 SUB SWAP1 RETURN JUMPDEST CALLVALUE DUP1 ISZERO PUSH2 0x10C JUMPI PUSH0 DUP1 REVERT JUMPDEST POP PUSH2 0x127 PUSH1 0x4 DUP1 CALLDATASIZE SUB DUP2 ADD SWAP1 PUSH2 0x122 SWAP2 SWAP1 PUSH2 0x2B80 JUMP JUMPDEST PUSH2 0x731 JUMP JUMPDEST PUSH1 0x40 MLOAD PUSH2 0x134 SWAP2 SWAP1 PUSH2 0x2B67 JUMP JUMPDEST PUSH1 0x40 MLOAD DUP1 SWAP2 SUB SWAP1 RETURN JUMPDEST CALLVALUE DUP1 ISZERO PUSH2 0x148 JUMPI PUSH0 DUP1 REVERT JUMPDEST POP PUSH2 0x163 PUSH1 0x4 DUP1 CALLDATASIZE SUB DUP2 ADD SWAP1 PUSH2 0x15E SWAP2 SWAP1 PUSH2 0x2C31 JUMP JUMPDEST PUSH2 0xA85 JUMP JUMPDEST PUSH1 0x40 MLOAD PUSH2 0x177 SWAP9 SWAP8 SWAP7 SWAP6 SWAP5 SWAP4 SWAP3 SWAP2 SWAP1 PUSH2 0x2DDE JUMP JUMPDEST PUSH1 0x40 MLOAD DUP1 SWAP2 SUB SWAP1 RETURN JUMPDEST CALLVALUE DUP1 ISZERO PUSH2 0x18B JUMPI PUSH0 DUP1 REVERT JUMPDEST POP PUSH2 0x1A6 PUSH1 0x4 DUP1 CALLDATASIZE SUB DUP2 ADD SWAP1 PUSH2 0x1A1 SWAP2 SWAP1 PUSH2 0x2E8F JUMP JUMPDEST PUSH2 0xB60 JUMP JUMPDEST PUSH1 0x40 MLOAD PUSH2 0x1B3 SWAP2 SWAP1 PUSH2 0x3048 JUMP JUMPDEST PUSH1 0x40 MLOAD DUP1 SWAP2 SUB SWAP1 RETURN JUMPDEST CALLVALUE DUP1 ISZERO PUSH2 0x1C7 JUMPI PUSH0 DUP1 REVERT JUMPDEST POP PUSH2 0x1D0 PUSH2 0x122A JUMP JUMPDEST PUSH1 0x40 MLOAD PUSH2 0x1DD SWAP2 SWAP1 PUSH2 0x313D JUMP JUMPDEST PUSH1 0x40 MLOAD DUP1 SWAP2 SUB SWAP1 RETURN JUMPDEST CALLVALUE DUP1 ISZERO PUSH2 0x1F1 JUMPI PUSH0 DUP1 REVERT JUMPDEST POP PUSH2 0x20C PUSH1 0x4 DUP1 CALLDATASIZE SUB DUP2 ADD SWAP1 PUSH2 0x207 SWAP2 SWAP1 PUSH2 0x2C31 JUMP JUMPDEST PUSH2 0x136D JUMP JUMPDEST PUSH1 0x40 MLOAD PUSH2 0x21B SWAP4 SWAP3 SWAP2 SWAP1 PUSH2 0x315D JUMP JUMPDEST PUSH1 0x40 MLOAD DUP1 SWAP2 SUB SWAP1 RETURN JUMPDEST CALLVALUE DUP1 ISZERO PUSH2 0x22F JUMPI PUSH0 DUP1 REVERT JUMPDEST POP PUSH2 0x24A PUSH1 0x4 DUP1 CALLDATASIZE SUB DUP2 ADD SWAP1 PUSH2 0x245 SWAP2 SWAP1 PUSH2 0x31E6 JUMP JUMPDEST PUSH2 0x13D9 JUMP JUMPDEST PUSH1 0x40 MLOAD PUSH2 0x257 SWAP2 SWAP1 PUSH2 0x2B67 JUMP JUMPDEST PUSH1 0x40 MLOAD DUP1 SWAP2 SUB SWAP1 RETURN JUMPDEST CALLVALUE DUP1 ISZERO PUSH2 0x26B JUMPI PUSH0 DUP1 REVERT JUMPDEST POP PUSH2 0x274 PUSH2 0x15FD JUMP JUMPDEST PUSH1 0x40 MLOAD PUSH2 0x281 SWAP2 SWAP1 PUSH2 0x332C JUMP JUMPDEST PUSH1 0x40 MLOAD DUP1 SWAP2 SUB SWAP1 RETURN JUMPDEST CALLVALUE DUP1 ISZERO PUSH2 0x295 JUMPI PUSH0 DUP1 REVERT JUMPDEST POP PUSH2 0x2B0 PUSH1 0x4 DUP1 CALLDATASIZE SUB DUP2 ADD SWAP1 PUSH2 0x2AB SWAP2 SWAP1 PUSH2 0x33CB JUMP JUMPDEST PUSH2 0x17DC JUMP JUMPDEST PUSH1 0x40 MLOAD PUSH2 0x2BD SWAP2 SWAP1 PUSH2 0x2B67 JUMP JUMPDEST PUSH1 0x40 MLOAD DUP1 SWAP2 SUB SWAP1 RETURN JUMPDEST CALLVALUE DUP1 ISZERO PUSH2 0x2D1 JUMPI PUSH0 DUP1 REVERT JUMPDEST POP PUSH2 0x2DA PUSH2 0x1FFC JUMP JUMPDEST PUSH1 0x40 MLOAD PUSH2 0x2E7 SWAP2 SWAP1 PUSH2 0x352E JUMP JUMPDEST PUSH1 0x40 MLOAD DUP1 SWAP2 SUB SWAP1 RETURN JUMPDEST CALLVALUE DUP1 ISZERO PUSH2 0x2FB JUMPI PUSH0 DUP1 REVERT JUMPDEST POP PUSH2 0x316 PUSH1 0x4 DUP1 CALLDATASIZE SUB DUP2 ADD SWAP1 PUSH2 0x311 SWAP2 SWAP1 PUSH2 0x2C31 JUMP JUMPDEST PUSH2 0x211D JUMP JUMPDEST PUSH1 0x40 MLOAD PUSH2 0x326 SWAP5 SWAP4 SWAP3 SWAP2 SWAP1 PUSH2 0x3547 JUMP JUMPDEST PUSH1 0x40 MLOAD DUP1 SWAP2 SUB SWAP1 RETURN JUMPDEST PUSH2 0x349 PUSH1 0x4 DUP1 CALLDATASIZE SUB DUP2 ADD SWAP1 PUSH2 0x344 SWAP2 SWAP1 PUSH2 0x358A JUMP JUMPDEST PUSH2 0x219B JUMP JUMPDEST STOP JUMPDEST CALLVALUE DUP1 ISZERO PUSH2 0x356 JUMPI PUSH0 DUP1 REVERT JUMPDEST POP PUSH2 0x371 PUSH1 0x4 DUP1 CALLDATASIZE SUB DUP2 ADD SWAP1 PUSH2 0x36C SWAP2 SWAP1 PUSH2 0x35B5 JUMP JUMPDEST PUSH2 0x258F JUMP JUMPDEST PUSH1 0x40 MLOAD PUSH2 0x37E SWAP2 SWAP1 PUSH2 0x2B67 JUMP JUMPDEST PUSH1 0x40 MLOAD DUP1 SWAP2 SUB SWAP1 RETURN JUMPDEST PUSH0 DUP1 PUSH1 0x2 PUSH0 CALLER PUSH20 0xFFFFFFFFFFFFFFFFFFFFFFFFFFFFFFFFFFFFFFFF AND PUSH20 0xFFFFFFFFFFFFFFFFFFFFFFFFFFFFFFFFFFFFFFFF AND DUP2 MSTORE PUSH1 0x20 ADD SWAP1 DUP2 MSTORE PUSH1 0x20 ADD PUSH0 KECCAK256 PUSH0 SWAP1 SLOAD SWAP1 PUSH2 0x100 EXP SWAP1 DIV PUSH2 0xFFFF AND PUSH2 0xFFFF AND EQ DUP1 ISZERO PUSH2 0x432 JUMPI POP PUSH0 PUSH1 0x4 PUSH0 CALLER PUSH20 0xFFFFFFFFFFFFFFFFFFFFFFFFFFFFFFFFFFFFFFFF AND PUSH20 0xFFFFFFFFFFFFFFFFFFFFFFFFFFFFFFFFFFFFFFFF AND DUP2 MSTORE PUSH1 0x20 ADD SWAP1 DUP2 MSTORE PUSH1 0x20 ADD PUSH0 KECCAK256 PUSH0 SWAP1 SLOAD SWAP1 PUSH2 0x100 EXP SWAP1 DIV PUSH2 0xFFFF AND PUSH2 0xFFFF AND EQ JUMPDEST PUSH2 0x471 JUMPI PUSH1 0x40 MLOAD PUSH32 0x8C379A000000000000000000000000000000000000000000000000000000000 DUP2 MSTORE PUSH1 0x4 ADD PUSH2 0x468 SWAP1 PUSH2 0x364D JUMP JUMPDEST PUSH1 0x40 MLOAD DUP1 SWAP2 SUB SWAP1 REVERT JUMPDEST PUSH0 DUP1 SLOAD SWAP1 PUSH2 0x100 EXP SWAP1 DIV PUSH4 0xFFFFFFFF AND PUSH4 0xFFFFFFFF AND PUSH1 0x1 DUP1 SLOAD SWAP1 POP LT PUSH2 0x4CD JUMPI PUSH1 0x40 MLOAD PUSH32 0x8C379A000000000000000000000000000000000000000000000000000000000 DUP2 MSTORE PUSH1 0x4 ADD PUSH2 0x4C4 SWAP1 PUSH2 0x36B5 JUMP JUMPDEST PUSH1 0x40 MLOAD DUP1 SWAP2 SUB SWAP1 REVERT JUMPDEST PUSH1 0x1 PUSH1 0x40 MLOAD DUP1 PUSH1 0xA0 ADD PUSH1 0x40 MSTORE DUP1 DUP10 DUP10 SWAP1 PUSH2 0x4E7 SWAP2 SWAP1 PUSH2 0x36E9 JUMP JUMPDEST PUSH12 0xFFFFFFFFFFFFFFFFFFFFFFFF NOT AND DUP2 MSTORE PUSH1 0x20 ADD CALLER PUSH20 0xFFFFFFFFFFFFFFFFFFFFFFFFFFFFFFFFFFFFFFFF AND DUP2 MSTORE PUSH1 0x20 ADD DUP8 DUP8 SWAP1 PUSH2 0x524 SWAP2 SWAP1 PUSH2 0x36E9 JUMP JUMPDEST PUSH12 0xFFFFFFFFFFFFFFFFFFFFFFFF NOT AND DUP2 MSTORE PUSH1 0x20 ADD DUP6 DUP6 SWAP1 PUSH2 0x545 SWAP2 SWAP1 PUSH2 0x36E9 JUMP JUMPDEST PUSH12 0xFFFFFFFFFFFFFFFFFFFFFFFF NOT AND DUP2 MSTORE PUSH1 0x20 ADD PUSH0 PUSH8 0xFFFFFFFFFFFFFFFF DUP2 GT ISZERO PUSH2 0x573 JUMPI PUSH2 0x572 PUSH2 0x3747 JUMP JUMPDEST JUMPDEST PUSH1 0x40 MLOAD SWAP1 DUP1 DUP3 MSTORE DUP1 PUSH1 0x20 MUL PUSH1 0x20 ADD DUP3 ADD PUSH1 0x40 MSTORE DUP1 ISZERO PUSH2 0x5A1 JUMPI DUP2 PUSH1 0x20 ADD PUSH1 0x20 DUP3 MUL DUP1 CALLDATASIZE DUP4 CALLDATACOPY DUP1 DUP3 ADD SWAP2 POP POP SWAP1 POP JUMPDEST POP DUP2 MSTORE POP SWAP1 DUP1 PUSH1 0x1 DUP2 SLOAD ADD DUP1 DUP3 SSTORE DUP1 SWAP2 POP POP PUSH1 0x1 SWAP1 SUB SWAP1 PUSH0 MSTORE PUSH1 0x20 PUSH0 KECCAK256 SWAP1 PUSH1 0x5 MUL ADD PUSH0 SWAP1 SWAP2 SWAP1 SWAP2 SWAP1 SWAP2 POP PUSH0 DUP3 ADD MLOAD DUP2 PUSH0 ADD PUSH0 PUSH2 0x100 EXP DUP2 SLOAD DUP2 PUSH20 0xFFFFFFFFFFFFFFFFFFFFFFFFFFFFFFFFFFFFFFFF MUL NOT AND SWAP1 DUP4 PUSH1 0x60 SHR MUL OR SWAP1 SSTORE POP PUSH1 0x20 DUP3 ADD MLOAD DUP2 PUSH1 0x1 ADD PUSH0 PUSH2 0x100 EXP DUP2 SLOAD DUP2 PUSH20 0xFFFFFFFFFFFFFFFFFFFFFFFFFFFFFFFFFFFFFFFF MUL NOT AND SWAP1 DUP4 PUSH20 0xFFFFFFFFFFFFFFFFFFFFFFFFFFFFFFFFFFFFFFFF AND MUL OR SWAP1 SSTORE POP PUSH1 0x40 DUP3 ADD MLOAD DUP2 PUSH1 0x2 ADD PUSH0 PUSH2 0x100 EXP DUP2 SLOAD DUP2 PUSH20 0xFFFFFFFFFFFFFFFFFFFFFFFFFFFFFFFFFFFFFFFF MUL NOT AND SWAP1 DUP4 PUSH1 0x60 SHR MUL OR SWAP1 SSTORE POP PUSH1 0x60 DUP3 ADD MLOAD DUP2 PUSH1 0x3 ADD PUSH0 PUSH2 0x100 EXP DUP2 SLOAD DUP2 PUSH20 0xFFFFFFFFFFFFFFFFFFFFFFFFFFFFFFFFFFFFFFFF MUL NOT AND SWAP1 DUP4 PUSH1 0x60 SHR MUL OR SWAP1 SSTORE POP PUSH1 0x80 DUP3 ADD MLOAD DUP2 PUSH1 0x4 ADD SWAP1 DUP1 MLOAD SWAP1 PUSH1 0x20 ADD SWAP1 PUSH2 0x6C4 SWAP3 SWAP2 SWAP1 PUSH2 0x2885 JUMP JUMPDEST POP POP POP PUSH1 0x1 DUP1 SLOAD SWAP1 POP PUSH1 0x2 PUSH0 CALLER PUSH20 0xFFFFFFFFFFFFFFFFFFFFFFFFFFFFFFFFFFFFFFFF AND PUSH20 0xFFFFFFFFFFFFFFFFFFFFFFFFFFFFFFFFFFFFFFFF AND DUP2 MSTORE PUSH1 0x20 ADD SWAP1 DUP2 MSTORE PUSH1 0x20 ADD PUSH0 KECCAK256 PUSH0 PUSH2 0x100 EXP DUP2 SLOAD DUP2 PUSH2 0xFFFF MUL NOT AND SWAP1 DUP4 PUSH2 0xFFFF AND MUL OR SWAP1 SSTORE POP PUSH1 0x2 SWAP1 POP SWAP7 SWAP6 POP POP POP POP POP POP JUMP JUMPDEST PUSH0 DUP1 PUSH1 0x2 PUSH0 CALLER PUSH20 0xFFFFFFFFFFFFFFFFFFFFFFFFFFFFFFFFFFFFFFFF AND PUSH20 0xFFFFFFFFFFFFFFFFFFFFFFFFFFFFFFFFFFFFFFFF AND DUP2 MSTORE PUSH1 0x20 ADD SWAP1 DUP2 MSTORE PUSH1 0x20 ADD PUSH0 KECCAK256 PUSH0 SWAP1 SLOAD SWAP1 PUSH2 0x100 EXP SWAP1 DIV PUSH2 0xFFFF AND PUSH2 0xFFFF AND EQ DUP1 ISZERO PUSH2 0x7DC JUMPI POP PUSH0 PUSH1 0x4 PUSH0 CALLER PUSH20 0xFFFFFFFFFFFFFFFFFFFFFFFFFFFFFFFFFFFFFFFF AND PUSH20 0xFFFFFFFFFFFFFFFFFFFFFFFFFFFFFFFFFFFFFFFF AND DUP2 MSTORE PUSH1 0x20 ADD SWAP1 DUP2 MSTORE PUSH1 0x20 ADD PUSH0 KECCAK256 PUSH0 SWAP1 SLOAD SWAP1 PUSH2 0x100 EXP SWAP1 DIV PUSH2 0xFFFF AND PUSH2 0xFFFF AND EQ JUMPDEST PUSH2 0x81B JUMPI PUSH1 0x40 MLOAD PUSH32 0x8C379A000000000000000000000000000000000000000000000000000000000 DUP2 MSTORE PUSH1 0x4 ADD PUSH2 0x812 SWAP1 PUSH2 0x364D JUMP JUMPDEST PUSH1 0x40 MLOAD DUP1 SWAP2 SUB SWAP1 REVERT JUMPDEST PUSH0 DUP1 SLOAD SWAP1 PUSH2 0x100 EXP SWAP1 DIV PUSH4 0xFFFFFFFF AND PUSH4 0xFFFFFFFF AND PUSH1 0x3 DUP1 SLOAD SWAP1 POP LT PUSH2 0x877 JUMPI PUSH1 0x40 MLOAD PUSH32 0x8C379A000000000000000000000000000000000000000000000000000000000 DUP2 MSTORE PUSH1 0x4 ADD PUSH2 0x86E SWAP1 PUSH2 0x36B5 JUMP JUMPDEST PUSH1 0x40 MLOAD DUP1 SWAP2 SUB SWAP1 REVERT JUMPDEST PUSH1 0x3 PUSH1 0x40 MLOAD DUP1 PUSH1 0x80 ADD PUSH1 0x40 MSTORE DUP1 DUP8 DUP8 SWAP1 PUSH2 0x891 SWAP2 SWAP1 PUSH2 0x36E9 JUMP JUMPDEST PUSH12 0xFFFFFFFFFFFFFFFFFFFFFFFF NOT AND DUP2 MSTORE PUSH1 0x20 ADD CALLER PUSH20 0xFFFFFFFFFFFFFFFFFFFFFFFFFFFFFFFFFFFFFFFF AND DUP2 MSTORE PUSH1 0x20 ADD DUP6 DUP6 SWAP1 PUSH2 0x8CE SWAP2 SWAP1 PUSH2 0x36E9 JUMP JUMPDEST PUSH12 0xFFFFFFFFFFFFFFFFFFFFFFFF NOT AND DUP2 MSTORE PUSH1 0x20 ADD PUSH0 PUSH8 0xFFFFFFFFFFFFFFFF DUP2 GT ISZERO PUSH2 0x8FC JUMPI PUSH2 0x8FB PUSH2 0x3747 JUMP JUMPDEST JUMPDEST PUSH1 0x40 MLOAD SWAP1 DUP1 DUP3 MSTORE DUP1 PUSH1 0x20 MUL PUSH1 0x20 ADD DUP3 ADD PUSH1 0x40 MSTORE DUP1 ISZERO PUSH2 0x92A JUMPI DUP2 PUSH1 0x20 ADD PUSH1 0x20 DUP3 MUL DUP1 CALLDATASIZE DUP4 CALLDATACOPY DUP1 DUP3 ADD SWAP2 POP POP SWAP1 POP JUMPDEST POP DUP2 MSTORE POP SWAP1 DUP1 PUSH1 0x1 DUP2 SLOAD ADD DUP1 DUP3 SSTORE DUP1 SWAP2 POP POP PUSH1 0x1 SWAP1 SUB SWAP1 PUSH0 MSTORE PUSH1 0x20 PUSH0 KECCAK256 SWAP1 PUSH1 0x4 MUL ADD PUSH0 SWAP1 SWAP2 SWAP1 SWAP2 SWAP1 SWAP2 POP PUSH0 DUP3 ADD MLOAD DUP2 PUSH0 ADD PUSH0 PUSH2 0x100 EXP DUP2 SLOAD DUP2 PUSH20 0xFFFFFFFFFFFFFFFFFFFFFFFFFFFFFFFFFFFFFFFF MUL NOT AND SWAP1 DUP4 PUSH1 0x60 SHR MUL OR SWAP1 SSTORE POP PUSH1 0x20 DUP3 ADD MLOAD DUP2 PUSH1 0x1 ADD PUSH0 PUSH2 0x100 EXP DUP2 SLOAD DUP2 PUSH20 0xFFFFFFFFFFFFFFFFFFFFFFFFFFFFFFFFFFFFFFFF MUL NOT AND SWAP1 DUP4 PUSH20 0xFFFFFFFFFFFFFFFFFFFFFFFFFFFFFFFFFFFFFFFF AND MUL OR SWAP1 SSTORE POP PUSH1 0x40 DUP3 ADD MLOAD DUP2 PUSH1 0x2 ADD PUSH0 PUSH2 0x100 EXP DUP2 SLOAD DUP2 PUSH20 0xFFFFFFFFFFFFFFFFFFFFFFFFFFFFFFFFFFFFFFFF MUL NOT AND SWAP1 DUP4 PUSH1 0x60 SHR MUL OR SWAP1 SSTORE POP PUSH1 0x60 DUP3 ADD MLOAD DUP2 PUSH1 0x3 ADD SWAP1 DUP1 MLOAD SWAP1 PUSH1 0x20 ADD SWAP1 PUSH2 0xA1A SWAP3 SWAP2 SWAP1 PUSH2 0x2885 JUMP JUMPDEST POP POP POP PUSH1 0x3 DUP1 SLOAD SWAP1 POP PUSH1 0x4 PUSH0 CALLER PUSH20 0xFFFFFFFFFFFFFFFFFFFFFFFFFFFFFFFFFFFFFFFF AND PUSH20 0xFFFFFFFFFFFFFFFFFFFFFFFFFFFFFFFFFFFFFFFF AND DUP2 MSTORE PUSH1 0x20 ADD SWAP1 DUP2 MSTORE PUSH1 0x20 ADD PUSH0 KECCAK256 PUSH0 PUSH2 0x100 EXP DUP2 SLOAD DUP2 PUSH2 0xFFFF MUL NOT AND SWAP1 DUP4 PUSH2 0xFFFF AND MUL OR SWAP1 SSTORE POP PUSH1 0x2 SWAP1 POP SWAP5 SWAP4 POP POP POP POP JUMP JUMPDEST PUSH1 0x5 DUP2 DUP2 SLOAD DUP2 LT PUSH2 0xA94 JUMPI PUSH0 DUP1 REVERT JUMPDEST SWAP1 PUSH0 MSTORE PUSH1 0x20 PUSH0 KECCAK256 SWAP1 PUSH1 0x6 MUL ADD PUSH0 SWAP2 POP SWAP1 POP DUP1 PUSH0 ADD PUSH0 SWAP1 SLOAD SWAP1 PUSH2 0x100 EXP SWAP1 DIV PUSH2 0xFFFF AND SWAP1 DUP1 PUSH0 ADD PUSH1 0x2 SWAP1 SLOAD SWAP1 PUSH2 0x100 EXP SWAP1 DIV PUSH1 0x60 SHL SWAP1 DUP1 PUSH1 0x1 ADD PUSH0 SWAP1 SLOAD SWAP1 PUSH2 0x100 EXP SWAP1 DIV PUSH1 0x10 SHL SWAP1 DUP1 PUSH1 0x1 ADD PUSH1 0x1E SWAP1 SLOAD SWAP1 PUSH2 0x100 EXP SWAP1 DIV PUSH1 0xFF AND SWAP1 DUP1 PUSH1 0x2 ADD PUSH0 SWAP1 SLOAD SWAP1 PUSH2 0x100 EXP SWAP1 DIV PUSH8 0xFFFFFFFFFFFFFFFF AND SWAP1 DUP1 PUSH1 0x2 ADD PUSH1 0x8 SWAP1 SLOAD SWAP1 PUSH2 0x100 EXP SWAP1 DIV PUSH8 0xFFFFFFFFFFFFFFFF AND SWAP1 DUP1 PUSH1 0x2 ADD PUSH1 0x10 SWAP1 SLOAD SWAP1 PUSH2 0x100 EXP SWAP1 DIV PUSH4 0xFFFFFFFF AND SWAP1 DUP1 PUSH1 0x5 ADD PUSH0 SWAP1 SLOAD SWAP1 PUSH2 0x100 EXP SWAP1 DIV PUSH20 0xFFFFFFFFFFFFFFFFFFFFFFFFFFFFFFFFFFFFFFFF AND SWAP1 POP DUP9 JUMP JUMPDEST PUSH1 0x60 DUP2 ISZERO PUSH2 0xE06 JUMPI PUSH0 PUSH1 0x5 DUP1 SLOAD SWAP1 POP PUSH8 0xFFFFFFFFFFFFFFFF DUP2 GT ISZERO PUSH2 0xB88 JUMPI PUSH2 0xB87 PUSH2 0x3747 JUMP JUMPDEST JUMPDEST PUSH1 0x40 MLOAD SWAP1 DUP1 DUP3 MSTORE DUP1 PUSH1 0x20 MUL PUSH1 0x20 ADD DUP3 ADD PUSH1 0x40 MSTORE DUP1 ISZERO PUSH2 0xBC1 JUMPI DUP2 PUSH1 0x20 ADD JUMPDEST PUSH2 0xBAE PUSH2 0x292C JUMP JUMPDEST DUP2 MSTORE PUSH1 0x20 ADD SWAP1 PUSH1 0x1 SWAP1 SUB SWAP1 DUP2 PUSH2 0xBA6 JUMPI SWAP1 POP JUMPDEST POP SWAP1 POP PUSH0 JUMPDEST PUSH1 0x5 DUP1 SLOAD SWAP1 POP DUP2 PUSH2 0xFFFF AND LT ISZERO PUSH2 0xDFC JUMPI PUSH1 0x40 MLOAD DUP1 PUSH1 0xE0 ADD PUSH1 0x40 MSTORE DUP1 PUSH1 0x5 DUP4 PUSH2 0xFFFF AND DUP2 SLOAD DUP2 LT PUSH2 0xBFA JUMPI PUSH2 0xBF9 PUSH2 0x3774 JUMP JUMPDEST JUMPDEST SWAP1 PUSH0 MSTORE PUSH1 0x20 PUSH0 KECCAK256 SWAP1 PUSH1 0x6 MUL ADD PUSH0 ADD PUSH0 SWAP1 SLOAD SWAP1 PUSH2 0x100 EXP SWAP1 DIV PUSH2 0xFFFF AND PUSH2 0xFFFF AND DUP2 MSTORE PUSH1 0x20 ADD PUSH1 0x5 DUP4 PUSH2 0xFFFF AND DUP2 SLOAD DUP2 LT PUSH2 0xC37 JUMPI PUSH2 0xC36 PUSH2 0x3774 JUMP JUMPDEST JUMPDEST SWAP1 PUSH0 MSTORE PUSH1 0x20 PUSH0 KECCAK256 SWAP1 PUSH1 0x6 MUL ADD PUSH0 ADD PUSH1 0x2 SWAP1 SLOAD SWAP1 PUSH2 0x100 EXP SWAP1 DIV PUSH1 0x60 SHL PUSH12 0xFFFFFFFFFFFFFFFFFFFFFFFF NOT AND DUP2 MSTORE PUSH1 0x20 ADD PUSH1 0x5 DUP4 PUSH2 0xFFFF AND DUP2 SLOAD DUP2 LT PUSH2 0xC7F JUMPI PUSH2 0xC7E PUSH2 0x3774 JUMP JUMPDEST JUMPDEST SWAP1 PUSH0 MSTORE PUSH1 0x20 PUSH0 KECCAK256 SWAP1 PUSH1 0x6 MUL ADD PUSH1 0x1 ADD PUSH0 SWAP1 SLOAD SWAP1 PUSH2 0x100 EXP SWAP1 DIV PUSH1 0x10 SHL PUSH2 0xFFFF NOT AND DUP2 MSTORE PUSH1 0x20 ADD PUSH1 0x5 DUP4 PUSH2 0xFFFF AND DUP2 SLOAD DUP2 LT PUSH2 0xCBD JUMPI PUSH2 0xCBC PUSH2 0x3774 JUMP JUMPDEST JUMPDEST SWAP1 PUSH0 MSTORE PUSH1 0x20 PUSH0 KECCAK256 SWAP1 PUSH1 0x6 MUL ADD PUSH1 0x1 ADD PUSH1 0x1E SWAP1 SLOAD SWAP1 PUSH2 0x100 EXP SWAP1 DIV PUSH1 0xFF AND PUSH1 0x4 DUP2 GT ISZERO PUSH2 0xCEC JUMPI PUSH2 0xCEB PUSH2 0x2CEC JUMP JUMPDEST JUMPDEST DUP2 MSTORE PUSH1 0x20 ADD PUSH1 0x5 DUP4 PUSH2 0xFFFF AND DUP2 SLOAD DUP2 LT PUSH2 0xD09 JUMPI PUSH2 0xD08 PUSH2 0x3774 JUMP JUMPDEST JUMPDEST SWAP1 PUSH0 MSTORE PUSH1 0x20 PUSH0 KECCAK256 SWAP1 PUSH1 0x6 MUL ADD PUSH1 0x2 ADD PUSH0 SWAP1 SLOAD SWAP1 PUSH2 0x100 EXP SWAP1 DIV PUSH8 0xFFFFFFFFFFFFFFFF AND PUSH8 0xFFFFFFFFFFFFFFFF AND DUP2 MSTORE PUSH1 0x20 ADD PUSH1 0x5 DUP4 PUSH2 0xFFFF AND DUP2 SLOAD DUP2 LT PUSH2 0xD53 JUMPI PUSH2 0xD52 PUSH2 0x3774 JUMP JUMPDEST JUMPDEST SWAP1 PUSH0 MSTORE PUSH1 0x20 PUSH0 KECCAK256 SWAP1 PUSH1 0x6 MUL ADD PUSH1 0x2 ADD PUSH1 0x8 SWAP1 SLOAD SWAP1 PUSH2 0x100 EXP SWAP1 DIV PUSH8 0xFFFFFFFFFFFFFFFF AND PUSH8 0xFFFFFFFFFFFFFFFF AND DUP2 MSTORE PUSH1 0x20 ADD PUSH1 0x5 DUP4 PUSH2 0xFFFF AND DUP2 SLOAD DUP2 LT PUSH2 0xD9E JUMPI PUSH2 0xD9D PUSH2 0x3774 JUMP JUMPDEST JUMPDEST SWAP1 PUSH0 MSTORE PUSH1 0x20 PUSH0 KECCAK256 SWAP1 PUSH1 0x6 MUL ADD PUSH1 0x2 ADD PUSH1 0x10 SWAP1 SLOAD SWAP1 PUSH2 0x100 EXP SWAP1 DIV PUSH4 0xFFFFFFFF AND PUSH4 0xFFFFFFFF AND DUP2 MSTORE POP DUP3 DUP3 PUSH2 0xFFFF AND DUP2 MLOAD DUP2 LT PUSH2 0xDDE JUMPI PUSH2 0xDDD PUSH2 0x3774 JUMP JUMPDEST JUMPDEST PUSH1 0x20 MUL PUSH1 0x20 ADD ADD DUP2 SWAP1 MSTORE POP DUP1 DUP1 PUSH2 0xDF4 SWAP1 PUSH2 0x37CE JUMP JUMPDEST SWAP2 POP POP PUSH2 0xBC6 JUMP JUMPDEST POP DUP1 SWAP2 POP POP PUSH2 0x1225 JUMP JUMPDEST PUSH0 DUP1 PUSH1 0x2 PUSH0 CALLER PUSH20 0xFFFFFFFFFFFFFFFFFFFFFFFFFFFFFFFFFFFFFFFF AND PUSH20 0xFFFFFFFFFFFFFFFFFFFFFFFFFFFFFFFFFFFFFFFF AND DUP2 MSTORE PUSH1 0x20 ADD SWAP1 DUP2 MSTORE PUSH1 0x20 ADD PUSH0 KECCAK256 PUSH0 SWAP1 SLOAD SWAP1 PUSH2 0x100 EXP SWAP1 DIV PUSH2 0xFFFF AND PUSH2 0xFFFF AND EQ PUSH2 0xEDF JUMPI PUSH1 0x1 DUP1 PUSH1 0x2 PUSH0 CALLER PUSH20 0xFFFFFFFFFFFFFFFFFFFFFFFFFFFFFFFFFFFFFFFF AND PUSH20 0xFFFFFFFFFFFFFFFFFFFFFFFFFFFFFFFFFFFFFFFF AND DUP2 MSTORE PUSH1 0x20 ADD SWAP1 DUP2 MSTORE PUSH1 0x20 ADD PUSH0 KECCAK256 PUSH0 SWAP1 SLOAD SWAP1 PUSH2 0x100 EXP SWAP1 DIV PUSH2 0xFFFF AND PUSH2 0xEB4 SWAP2 SWAP1 PUSH2 0x37F7 JUMP JUMPDEST PUSH2 0xFFFF AND DUP2 SLOAD DUP2 LT PUSH2 0xEC9 JUMPI PUSH2 0xEC8 PUSH2 0x3774 JUMP JUMPDEST JUMPDEST SWAP1 PUSH0 MSTORE PUSH1 0x20 PUSH0 KECCAK256 SWAP1 PUSH1 0x5 MUL ADD PUSH1 0x4 ADD SWAP1 POP PUSH2 0x1015 JUMP JUMPDEST PUSH0 PUSH1 0x4 PUSH0 CALLER PUSH20 0xFFFFFFFFFFFFFFFFFFFFFFFFFFFFFFFFFFFFFFFF AND PUSH20 0xFFFFFFFFFFFFFFFFFFFFFFFFFFFFFFFFFFFFFFFF AND DUP2 MSTORE PUSH1 0x20 ADD SWAP1 DUP2 MSTORE PUSH1 0x20 ADD PUSH0 KECCAK256 PUSH0 SWAP1 SLOAD SWAP1 PUSH2 0x100 EXP SWAP1 DIV PUSH2 0xFFFF AND PUSH2 0xFFFF AND EQ PUSH2 0xFB8 JUMPI PUSH1 0x3 PUSH1 0x1 PUSH1 0x4 PUSH0 CALLER PUSH20 0xFFFFFFFFFFFFFFFFFFFFFFFFFFFFFFFFFFFFFFFF AND PUSH20 0xFFFFFFFFFFFFFFFFFFFFFFFFFFFFFFFFFFFFFFFF AND DUP2 MSTORE PUSH1 0x20 ADD SWAP1 DUP2 MSTORE PUSH1 0x20 ADD PUSH0 KECCAK256 PUSH0 SWAP1 SLOAD SWAP1 PUSH2 0x100 EXP SWAP1 DIV PUSH2 0xFFFF AND PUSH2 0xF8D SWAP2 SWAP1 PUSH2 0x37F7 JUMP JUMPDEST PUSH2 0xFFFF AND DUP2 SLOAD DUP2 LT PUSH2 0xFA2 JUMPI PUSH2 0xFA1 PUSH2 0x3774 JUMP JUMPDEST JUMPDEST SWAP1 PUSH0 MSTORE PUSH1 0x20 PUSH0 KECCAK256 SWAP1 PUSH1 0x4 MUL ADD PUSH1 0x3 ADD SWAP1 POP PUSH2 0x1014 JUMP JUMPDEST PUSH0 PUSH8 0xFFFFFFFFFFFFFFFF DUP2 GT ISZERO PUSH2 0xFD2 JUMPI PUSH2 0xFD1 PUSH2 0x3747 JUMP JUMPDEST JUMPDEST PUSH1 0x40 MLOAD SWAP1 DUP1 DUP3 MSTORE DUP1 PUSH1 0x20 MUL PUSH1 0x20 ADD DUP3 ADD PUSH1 0x40 MSTORE DUP1 ISZERO PUSH2 0x100B JUMPI DUP2 PUSH1 0x20 ADD JUMPDEST PUSH2 0xFF8 PUSH2 0x292C JUMP JUMPDEST DUP2 MSTORE PUSH1 0x20 ADD SWAP1 PUSH1 0x1 SWAP1 SUB SWAP1 DUP2 PUSH2 0xFF0 JUMPI SWAP1 POP JUMPDEST POP SWAP2 POP POP PUSH2 0x1225 JUMP JUMPDEST JUMPDEST PUSH0 DUP2 DUP1 SLOAD SWAP1 POP PUSH8 0xFFFFFFFFFFFFFFFF DUP2 GT ISZERO PUSH2 0x1034 JUMPI PUSH2 0x1033 PUSH2 0x3747 JUMP JUMPDEST JUMPDEST PUSH1 0x40 MLOAD SWAP1 DUP1 DUP3 MSTORE DUP1 PUSH1 0x20 MUL PUSH1 0x20 ADD DUP3 ADD PUSH1 0x40 MSTORE DUP1 ISZERO PUSH2 0x106D JUMPI DUP2 PUSH1 0x20 ADD JUMPDEST PUSH2 0x105A PUSH2 0x292C JUMP JUMPDEST DUP2 MSTORE PUSH1 0x20 ADD SWAP1 PUSH1 0x1 SWAP1 SUB SWAP1 DUP2 PUSH2 0x1052 JUMPI SWAP1 POP JUMPDEST POP SWAP1 POP PUSH0 JUMPDEST DUP3 DUP1 SLOAD SWAP1 POP DUP2 PUSH2 0xFFFF AND LT ISZERO PUSH2 0x121E JUMPI PUSH0 PUSH1 0x5 PUSH1 0x1 DUP6 DUP5 PUSH2 0xFFFF AND DUP2 SLOAD DUP2 LT PUSH2 0x109E JUMPI PUSH2 0x109D PUSH2 0x3774 JUMP JUMPDEST JUMPDEST SWAP1 PUSH0 MSTORE PUSH1 0x20 PUSH0 KECCAK256 SWAP1 PUSH1 0x10 SWAP2 DUP3 DUP3 DIV ADD SWAP2 SWAP1 MOD PUSH1 0x2 MUL SWAP1 SLOAD SWAP1 PUSH2 0x100 EXP SWAP1 DIV PUSH2 0xFFFF AND PUSH2 0x10CA SWAP2 SWAP1 PUSH2 0x37F7 JUMP JUMPDEST PUSH2 0xFFFF AND DUP2 SLOAD DUP2 LT PUSH2 0x10DF JUMPI PUSH2 0x10DE PUSH2 0x3774 JUMP JUMPDEST JUMPDEST SWAP1 PUSH0 MSTORE PUSH1 0x20 PUSH0 KECCAK256 SWAP1 PUSH1 0x6 MUL ADD SWAP1 POP PUSH1 0x40 MLOAD DUP1 PUSH1 0xE0 ADD PUSH1 0x40 MSTORE DUP1 DUP3 PUSH0 ADD PUSH0 SWAP1 SLOAD SWAP1 PUSH2 0x100 EXP SWAP1 DIV PUSH2 0xFFFF AND PUSH2 0xFFFF AND DUP2 MSTORE PUSH1 0x20 ADD DUP3 PUSH0 ADD PUSH1 0x2 SWAP1 SLOAD SWAP1 PUSH2 0x100 EXP SWAP1 DIV PUSH1 0x60 SHL PUSH12 0xFFFFFFFFFFFFFFFFFFFFFFFF NOT AND DUP2 MSTORE PUSH1 0x20 ADD DUP3 PUSH1 0x1 ADD PUSH0 SWAP1 SLOAD SWAP1 PUSH2 0x100 EXP SWAP1 DIV PUSH1 0x10 SHL PUSH2 0xFFFF NOT AND DUP2 MSTORE PUSH1 0x20 ADD DUP3 PUSH1 0x1 ADD PUSH1 0x1E SWAP1 SLOAD SWAP1 PUSH2 0x100 EXP SWAP1 DIV PUSH1 0xFF AND PUSH1 0x4 DUP2 GT ISZERO PUSH2 0x1176 JUMPI PUSH2 0x1175 PUSH2 0x2CEC JUMP JUMPDEST JUMPDEST DUP2 MSTORE PUSH1 0x20 ADD DUP3 PUSH1 0x2 ADD PUSH0 SWAP1 SLOAD SWAP1 PUSH2 0x100 EXP SWAP1 DIV PUSH8 0xFFFFFFFFFFFFFFFF AND PUSH8 0xFFFFFFFFFFFFFFFF AND DUP2 MSTORE PUSH1 0x20 ADD DUP3 PUSH1 0x2 ADD PUSH1 0x8 SWAP1 SLOAD SWAP1 PUSH2 0x100 EXP SWAP1 DIV PUSH8 0xFFFFFFFFFFFFFFFF AND PUSH8 0xFFFFFFFFFFFFFFFF AND DUP2 MSTORE PUSH1 0x20 ADD DUP3 PUSH1 0x2 ADD PUSH1 0x10 SWAP1 SLOAD SWAP1 PUSH2 0x100 EXP SWAP1 DIV PUSH4 0xFFFFFFFF AND PUSH4 0xFFFFFFFF AND DUP2 MSTORE POP DUP4 DUP4 PUSH2 0xFFFF AND DUP2 MLOAD DUP2 LT PUSH2 0x11FF JUMPI PUSH2 0x11FE PUSH2 0x3774 JUMP JUMPDEST JUMPDEST PUSH1 0x20 MUL PUSH1 0x20 ADD ADD DUP2 SWAP1 MSTORE POP POP DUP1 DUP1 PUSH2 0x1216 SWAP1 PUSH2 0x37CE JUMP JUMPDEST SWAP2 POP POP PUSH2 0x1072 JUMP JUMPDEST POP DUP1 SWAP3 POP POP POP JUMPDEST SWAP2 SWAP1 POP JUMP JUMPDEST PUSH1 0x60 PUSH0 PUSH1 0x1 DUP1 SLOAD SWAP1 POP PUSH8 0xFFFFFFFFFFFFFFFF DUP2 GT ISZERO PUSH2 0x124C JUMPI PUSH2 0x124B PUSH2 0x3747 JUMP JUMPDEST JUMPDEST PUSH1 0x40 MLOAD SWAP1 DUP1 DUP3 MSTORE DUP1 PUSH1 0x20 MUL PUSH1 0x20 ADD DUP3 ADD PUSH1 0x40 MSTORE DUP1 ISZERO PUSH2 0x1285 JUMPI DUP2 PUSH1 0x20 ADD JUMPDEST PUSH2 0x1272 PUSH2 0x29A6 JUMP JUMPDEST DUP2 MSTORE PUSH1 0x20 ADD SWAP1 PUSH1 0x1 SWAP1 SUB SWAP1 DUP2 PUSH2 0x126A JUMPI SWAP1 POP JUMPDEST POP SWAP1 POP PUSH0 JUMPDEST PUSH1 0x1 DUP1 SLOAD SWAP1 POP DUP2 PUSH2 0xFFFF AND LT ISZERO PUSH2 0x1365 JUMPI PUSH1 0x1 DUP2 PUSH2 0x12A8 SWAP2 SWAP1 PUSH2 0x382C JUMP JUMPDEST DUP3 DUP3 PUSH2 0xFFFF AND DUP2 MLOAD DUP2 LT PUSH2 0x12BF JUMPI PUSH2 0x12BE PUSH2 0x3774 JUMP JUMPDEST JUMPDEST PUSH1 0x20 MUL PUSH1 0x20 ADD ADD MLOAD PUSH0 ADD SWAP1 PUSH2 0xFFFF AND SWAP1 DUP2 PUSH2 0xFFFF AND DUP2 MSTORE POP POP PUSH1 0x1 DUP2 PUSH2 0xFFFF AND DUP2 SLOAD DUP2 LT PUSH2 0x12F0 JUMPI PUSH2 0x12EF PUSH2 0x3774 JUMP JUMPDEST JUMPDEST SWAP1 PUSH0 MSTORE PUSH1 0x20 PUSH0 KECCAK256 SWAP1 PUSH1 0x5 MUL ADD PUSH0 ADD PUSH0 SWAP1 SLOAD SWAP1 PUSH2 0x100 EXP SWAP1 DIV PUSH1 0x60 SHL DUP3 DUP3 PUSH2 0xFFFF AND DUP2 MLOAD DUP2 LT PUSH2 0x1322 JUMPI PUSH2 0x1321 PUSH2 0x3774 JUMP JUMPDEST JUMPDEST PUSH1 0x20 MUL PUSH1 0x20 ADD ADD MLOAD PUSH1 0x20 ADD SWAP1 PUSH12 0xFFFFFFFFFFFFFFFFFFFFFFFF NOT AND SWAP1 DUP2 PUSH12 0xFFFFFFFFFFFFFFFFFFFFFFFF NOT AND DUP2 MSTORE POP POP DUP1 DUP1 PUSH2 0x135D SWAP1 PUSH2 0x37CE JUMP JUMPDEST SWAP2 POP POP PUSH2 0x128A JUMP JUMPDEST POP DUP1 SWAP2 POP POP SWAP1 JUMP JUMPDEST PUSH1 0x3 DUP2 DUP2 SLOAD DUP2 LT PUSH2 0x137C JUMPI PUSH0 DUP1 REVERT JUMPDEST SWAP1 PUSH0 MSTORE PUSH1 0x20 PUSH0 KECCAK256 SWAP1 PUSH1 0x4 MUL ADD PUSH0 SWAP2 POP SWAP1 POP DUP1 PUSH0 ADD PUSH0 SWAP1 SLOAD SWAP1 PUSH2 0x100 EXP SWAP1 DIV PUSH1 0x60 SHL SWAP1 DUP1 PUSH1 0x1 ADD PUSH0 SWAP1 SLOAD SWAP1 PUSH2 0x100 EXP SWAP1 DIV PUSH20 0xFFFFFFFFFFFFFFFFFFFFFFFFFFFFFFFFFFFFFFFF AND SWAP1 DUP1 PUSH1 0x2 ADD PUSH0 SWAP1 SLOAD SWAP1 PUSH2 0x100 EXP SWAP1 DIV PUSH1 0x60 SHL SWAP1 POP DUP4 JUMP JUMPDEST PUSH0 DUP1 PUSH1 0x4 PUSH0 CALLER PUSH20 0xFFFFFFFFFFFFFFFFFFFFFFFFFFFFFFFFFFFFFFFF AND PUSH20 0xFFFFFFFFFFFFFFFFFFFFFFFFFFFFFFFFFFFFFFFF AND DUP2 MSTORE PUSH1 0x20 ADD SWAP1 DUP2 MSTORE PUSH1 0x20 ADD PUSH0 KECCAK256 PUSH0 SWAP1 SLOAD SWAP1 PUSH2 0x100 EXP SWAP1 DIV PUSH2 0xFFFF AND PUSH2 0xFFFF AND EQ ISZERO DUP1 ISZERO PUSH2 0x1441 JUMPI POP PUSH1 0x5 DUP1 SLOAD SWAP1 POP DUP4 PUSH2 0xFFFF AND GT ISZERO JUMPDEST PUSH2 0x1480 JUMPI PUSH1 0x40 MLOAD PUSH32 0x8C379A000000000000000000000000000000000000000000000000000000000 DUP2 MSTORE PUSH1 0x4 ADD PUSH2 0x1477 SWAP1 PUSH2 0x38AB JUMP JUMPDEST PUSH1 0x40 MLOAD DUP1 SWAP2 SUB SWAP1 REVERT JUMPDEST PUSH0 PUSH1 0x5 PUSH1 0x1 DUP6 PUSH2 0x1490 SWAP2 SWAP1 PUSH2 0x37F7 JUMP JUMPDEST PUSH2 0xFFFF AND DUP2 SLOAD DUP2 LT PUSH2 0x14A5 JUMPI PUSH2 0x14A4 PUSH2 0x3774 JUMP JUMPDEST JUMPDEST SWAP1 PUSH0 MSTORE PUSH1 0x20 PUSH0 KECCAK256 SWAP1 PUSH1 0x6 MUL ADD SWAP1 POP PUSH1 0x1 PUSH1 0x4 DUP2 GT ISZERO PUSH2 0x14C7 JUMPI PUSH2 0x14C6 PUSH2 0x2CEC JUMP JUMPDEST JUMPDEST DUP2 PUSH1 0x1 ADD PUSH1 0x1E SWAP1 SLOAD SWAP1 PUSH2 0x100 EXP SWAP1 DIV PUSH1 0xFF AND PUSH1 0x4 DUP2 GT ISZERO PUSH2 0x14EB JUMPI PUSH2 0x14EA PUSH2 0x2CEC JUMP JUMPDEST JUMPDEST EQ PUSH2 0x152B JUMPI PUSH1 0x40 MLOAD PUSH32 0x8C379A000000000000000000000000000000000000000000000000000000000 DUP2 MSTORE PUSH1 0x4 ADD PUSH2 0x1522 SWAP1 PUSH2 0x3913 JUMP JUMPDEST PUSH1 0x40 MLOAD DUP1 SWAP2 SUB SWAP1 REVERT JUMPDEST DUP3 PUSH8 0xFFFFFFFFFFFFFFFF AND DUP2 PUSH1 0x2 ADD PUSH1 0x8 SWAP1 SLOAD SWAP1 PUSH2 0x100 EXP SWAP1 DIV PUSH8 0xFFFFFFFFFFFFFFFF AND PUSH8 0xFFFFFFFFFFFFFFFF AND GT ISZERO PUSH2 0x159A JUMPI PUSH1 0x40 MLOAD PUSH32 0x8C379A000000000000000000000000000000000000000000000000000000000 DUP2 MSTORE PUSH1 0x4 ADD PUSH2 0x1591 SWAP1 PUSH2 0x397B JUMP JUMPDEST PUSH1 0x40 MLOAD DUP1 SWAP2 SUB SWAP1 REVERT JUMPDEST PUSH1 0x4 DUP2 PUSH1 0x1 ADD PUSH1 0x1E PUSH2 0x100 EXP DUP2 SLOAD DUP2 PUSH1 0xFF MUL NOT AND SWAP1 DUP4 PUSH1 0x4 DUP2 GT ISZERO PUSH2 0x15C2 JUMPI PUSH2 0x15C1 PUSH2 0x2CEC JUMP JUMPDEST JUMPDEST MUL OR SWAP1 SSTORE POP DUP3 DUP2 PUSH1 0x2 ADD PUSH1 0x8 PUSH2 0x100 EXP DUP2 SLOAD DUP2 PUSH8 0xFFFFFFFFFFFFFFFF MUL NOT AND SWAP1 DUP4 PUSH8 0xFFFFFFFFFFFFFFFF AND MUL OR SWAP1 SSTORE POP PUSH1 0x2 SWAP2 POP POP SWAP3 SWAP2 POP POP JUMP JUMPDEST PUSH1 0x60 PUSH0 PUSH1 0x3 DUP1 SLOAD SWAP1 POP PUSH8 0xFFFFFFFFFFFFFFFF DUP2 GT ISZERO PUSH2 0x161F JUMPI PUSH2 0x161E PUSH2 0x3747 JUMP JUMPDEST JUMPDEST PUSH1 0x40 MLOAD SWAP1 DUP1 DUP3 MSTORE DUP1 PUSH1 0x20 MUL PUSH1 0x20 ADD DUP3 ADD PUSH1 0x40 MSTORE DUP1 ISZERO PUSH2 0x1658 JUMPI DUP2 PUSH1 0x20 ADD JUMPDEST PUSH2 0x1645 PUSH2 0x29D1 JUMP JUMPDEST DUP2 MSTORE PUSH1 0x20 ADD SWAP1 PUSH1 0x1 SWAP1 SUB SWAP1 DUP2 PUSH2 0x163D JUMPI SWAP1 POP JUMPDEST POP SWAP1 POP PUSH0 JUMPDEST PUSH1 0x3 DUP1 SLOAD SWAP1 POP DUP2 PUSH2 0xFFFF AND LT ISZERO PUSH2 0x17D4 JUMPI PUSH1 0x1 DUP2 PUSH2 0x167B SWAP2 SWAP1 PUSH2 0x382C JUMP JUMPDEST DUP3 DUP3 PUSH2 0xFFFF AND DUP2 MLOAD DUP2 LT PUSH2 0x1692 JUMPI PUSH2 0x1691 PUSH2 0x3774 JUMP JUMPDEST JUMPDEST PUSH1 0x20 MUL PUSH1 0x20 ADD ADD MLOAD PUSH0 ADD SWAP1 PUSH2 0xFFFF AND SWAP1 DUP2 PUSH2 0xFFFF AND DUP2 MSTORE POP POP PUSH1 0x3 DUP2 PUSH2 0xFFFF AND DUP2 SLOAD DUP2 LT PUSH2 0x16C3 JUMPI PUSH2 0x16C2 PUSH2 0x3774 JUMP JUMPDEST JUMPDEST SWAP1 PUSH0 MSTORE PUSH1 0x20 PUSH0 KECCAK256 SWAP1 PUSH1 0x4 MUL ADD PUSH0 ADD PUSH0 SWAP1 SLOAD SWAP1 PUSH2 0x100 EXP SWAP1 DIV PUSH1 0x60 SHL DUP3 DUP3 PUSH2 0xFFFF AND DUP2 MLOAD DUP2 LT PUSH2 0x16F5 JUMPI PUSH2 0x16F4 PUSH2 0x3774 JUMP JUMPDEST JUMPDEST PUSH1 0x20 MUL PUSH1 0x20 ADD ADD MLOAD PUSH1 0x20 ADD SWAP1 PUSH12 0xFFFFFFFFFFFFFFFFFFFFFFFF NOT AND SWAP1 DUP2 PUSH12 0xFFFFFFFFFFFFFFFFFFFFFFFF NOT AND DUP2 MSTORE POP POP PUSH1 0x3 DUP2 PUSH2 0xFFFF AND DUP2 SLOAD DUP2 LT PUSH2 0x173D JUMPI PUSH2 0x173C PUSH2 0x3774 JUMP JUMPDEST JUMPDEST SWAP1 PUSH0 MSTORE PUSH1 0x20 PUSH0 KECCAK256 SWAP1 PUSH1 0x4 MUL ADD PUSH1 0x1 ADD PUSH0 SWAP1 SLOAD SWAP1 PUSH2 0x100 EXP SWAP1 DIV PUSH20 0xFFFFFFFFFFFFFFFFFFFFFFFFFFFFFFFFFFFFFFFF AND DUP3 DUP3 PUSH2 0xFFFF AND DUP2 MLOAD DUP2 LT PUSH2 0x1783 JUMPI PUSH2 0x1782 PUSH2 0x3774 JUMP JUMPDEST JUMPDEST PUSH1 0x20 MUL PUSH1 0x20 ADD ADD MLOAD PUSH1 0x40 ADD SWAP1 PUSH20 0xFFFFFFFFFFFFFFFFFFFFFFFFFFFFFFFFFFFFFFFF AND SWAP1 DUP2 PUSH20 0xFFFFFFFFFFFFFFFFFFFFFFFFFFFFFFFFFFFFFFFF AND DUP2 MSTORE POP POP DUP1 DUP1 PUSH2 0x17CC SWAP1 PUSH2 0x37CE JUMP JUMPDEST SWAP2 POP POP PUSH2 0x165D JUMP JUMPDEST POP DUP1 SWAP2 POP POP SWAP1 JUMP JUMPDEST PUSH0 DUP1 PUSH1 0x4 PUSH0 CALLER PUSH20 0xFFFFFFFFFFFFFFFFFFFFFFFFFFFFFFFFFFFFFFFF AND PUSH20 0xFFFFFFFFFFFFFFFFFFFFFFFFFFFFFFFFFFFFFFFF AND DUP2 MSTORE PUSH1 0x20 ADD SWAP1 DUP2 MSTORE PUSH1 0x20 ADD PUSH0 KECCAK256 PUSH0 SWAP1 SLOAD SWAP1 PUSH2 0x100 EXP SWAP1 DIV PUSH2 0xFFFF AND PUSH2 0xFFFF AND SUB PUSH2 0x186D JUMPI PUSH1 0x40 MLOAD PUSH32 0x8C379A000000000000000000000000000000000000000000000000000000000 DUP2 MSTORE PUSH1 0x4 ADD PUSH2 0x1864 SWAP1 PUSH2 0x39E3 JUMP JUMPDEST PUSH1 0x40 MLOAD DUP1 SWAP2 SUB SWAP1 REVERT JUMPDEST DUP7 PUSH8 0xFFFFFFFFFFFFFFFF AND DUP9 PUSH8 0xFFFFFFFFFFFFFFFF AND GT ISZERO PUSH2 0x18C4 JUMPI PUSH1 0x40 MLOAD PUSH32 0x8C379A000000000000000000000000000000000000000000000000000000000 DUP2 MSTORE PUSH1 0x4 ADD PUSH2 0x18BB SWAP1 PUSH2 0x3A4B JUMP JUMPDEST PUSH1 0x40 MLOAD DUP1 SWAP2 SUB SWAP1 REVERT JUMPDEST PUSH0 PUSH1 0x4 SWAP1 SLOAD SWAP1 PUSH2 0x100 EXP SWAP1 DIV PUSH4 0xFFFFFFFF AND PUSH4 0xFFFFFFFF AND PUSH1 0x5 DUP1 SLOAD SWAP1 POP LT PUSH2 0x1922 JUMPI PUSH1 0x40 MLOAD PUSH32 0x8C379A000000000000000000000000000000000000000000000000000000000 DUP2 MSTORE PUSH1 0x4 ADD PUSH2 0x1919 SWAP1 PUSH2 0x3AD9 JUMP JUMPDEST PUSH1 0x40 MLOAD DUP1 SWAP2 SUB SWAP1 REVERT JUMPDEST DUP3 DUP3 SWAP1 POP PUSH1 0x1 LT DUP1 ISZERO PUSH2 0x1939 JUMPI POP PUSH1 0x4 DUP4 DUP4 SWAP1 POP GT ISZERO JUMPDEST DUP1 ISZERO PUSH2 0x1949 JUMPI POP DUP5 DUP5 SWAP1 POP PUSH1 0x1 GT ISZERO JUMPDEST DUP1 ISZERO PUSH2 0x1959 JUMPI POP PUSH1 0x4 DUP6 DUP6 SWAP1 POP GT ISZERO JUMPDEST PUSH2 0x1998 JUMPI PUSH1 0x40 MLOAD PUSH32 0x8C379A000000000000000000000000000000000000000000000000000000000 DUP2 MSTORE PUSH1 0x4 ADD PUSH2 0x198F SWAP1 PUSH2 0x3B67 JUMP JUMPDEST PUSH1 0x40 MLOAD DUP1 SWAP2 SUB SWAP1 REVERT JUMPDEST PUSH0 JUMPDEST DUP4 DUP4 SWAP1 POP DUP2 PUSH2 0xFFFF AND LT ISZERO PUSH2 0x1AC1 JUMPI PUSH0 PUSH1 0x1 DUP6 DUP6 DUP5 PUSH2 0xFFFF AND DUP2 DUP2 LT PUSH2 0x19C3 JUMPI PUSH2 0x19C2 PUSH2 0x3774 JUMP JUMPDEST JUMPDEST SWAP1 POP PUSH1 0x20 MUL ADD PUSH1 0x20 DUP2 ADD SWAP1 PUSH2 0x19D8 SWAP2 SWAP1 PUSH2 0x358A JUMP JUMPDEST PUSH2 0x19E2 SWAP2 SWAP1 PUSH2 0x37F7 JUMP JUMPDEST SWAP1 POP PUSH1 0x1 DUP1 SLOAD SWAP1 POP DUP2 PUSH2 0xFFFF AND LT PUSH2 0x1A2F JUMPI PUSH1 0x40 MLOAD PUSH32 0x8C379A000000000000000000000000000000000000000000000000000000000 DUP2 MSTORE PUSH1 0x4 ADD PUSH2 0x1A26 SWAP1 PUSH2 0x3BCF JUMP JUMPDEST PUSH1 0x40 MLOAD DUP1 SWAP2 SUB SWAP1 REVERT JUMPDEST PUSH1 0x1 DUP2 PUSH2 0xFFFF AND DUP2 SLOAD DUP2 LT PUSH2 0x1A47 JUMPI PUSH2 0x1A46 PUSH2 0x3774 JUMP JUMPDEST JUMPDEST SWAP1 PUSH0 MSTORE PUSH1 0x20 PUSH0 KECCAK256 SWAP1 PUSH1 0x5 MUL ADD PUSH1 0x4 ADD PUSH1 0x1 PUSH1 0x5 DUP1 SLOAD SWAP1 POP PUSH2 0x1A68 SWAP2 SWAP1 PUSH2 0x3BED JUMP JUMPDEST SWAP1 DUP1 PUSH1 0x1 DUP2 SLOAD ADD DUP1 DUP3 SSTORE DUP1 SWAP2 POP POP PUSH1 0x1 SWAP1 SUB SWAP1 PUSH0 MSTORE PUSH1 0x20 PUSH0 KECCAK256 SWAP1 PUSH1 0x10 SWAP2 DUP3 DUP3 DIV ADD SWAP2 SWAP1 MOD PUSH1 0x2 MUL SWAP1 SWAP2 SWAP1 SWAP2 SWAP1 SWAP2 PUSH2 0x100 EXP DUP2 SLOAD DUP2 PUSH2 0xFFFF MUL NOT AND SWAP1 DUP4 PUSH2 0xFFFF AND MUL OR SWAP1 SSTORE POP POP DUP1 DUP1 PUSH2 0x1AB9 SWAP1 PUSH2 0x37CE JUMP JUMPDEST SWAP2 POP POP PUSH2 0x199A JUMP JUMPDEST POP PUSH0 JUMPDEST DUP6 DUP6 SWAP1 POP DUP2 PUSH2 0xFFFF AND LT ISZERO PUSH2 0x1BEB JUMPI PUSH0 PUSH1 0x1 DUP8 DUP8 DUP5 PUSH2 0xFFFF AND DUP2 DUP2 LT PUSH2 0x1AED JUMPI PUSH2 0x1AEC PUSH2 0x3774 JUMP JUMPDEST JUMPDEST SWAP1 POP PUSH1 0x20 MUL ADD PUSH1 0x20 DUP2 ADD SWAP1 PUSH2 0x1B02 SWAP2 SWAP1 PUSH2 0x358A JUMP JUMPDEST PUSH2 0x1B0C SWAP2 SWAP1 PUSH2 0x37F7 JUMP JUMPDEST SWAP1 POP PUSH1 0x3 DUP1 SLOAD SWAP1 POP DUP2 PUSH2 0xFFFF AND LT PUSH2 0x1B59 JUMPI PUSH1 0x40 MLOAD PUSH32 0x8C379A000000000000000000000000000000000000000000000000000000000 DUP2 MSTORE PUSH1 0x4 ADD PUSH2 0x1B50 SWAP1 PUSH2 0x3BCF JUMP JUMPDEST PUSH1 0x40 MLOAD DUP1 SWAP2 SUB SWAP1 REVERT JUMPDEST PUSH1 0x3 DUP2 PUSH2 0xFFFF AND DUP2 SLOAD DUP2 LT PUSH2 0x1B71 JUMPI PUSH2 0x1B70 PUSH2 0x3774 JUMP JUMPDEST JUMPDEST SWAP1 PUSH0 MSTORE PUSH1 0x20 PUSH0 KECCAK256 SWAP1 PUSH1 0x4 MUL ADD PUSH1 0x3 ADD PUSH1 0x1 PUSH1 0x5 DUP1 SLOAD SWAP1 POP PUSH2 0x1B92 SWAP2 SWAP1 PUSH2 0x3BED JUMP JUMPDEST SWAP1 DUP1 PUSH1 0x1 DUP2 SLOAD ADD DUP1 DUP3 SSTORE DUP1 SWAP2 POP POP PUSH1 0x1 SWAP1 SUB SWAP1 PUSH0 MSTORE PUSH1 0x20 PUSH0 KECCAK256 SWAP1 PUSH1 0x10 SWAP2 DUP3 DUP3 DIV ADD SWAP2 SWAP1 MOD PUSH1 0x2 MUL SWAP1 SWAP2 SWAP1 SWAP2 SWAP1 SWAP2 PUSH2 0x100 EXP DUP2 SLOAD DUP2 PUSH2 0xFFFF MUL NOT AND SWAP1 DUP4 PUSH2 0xFFFF AND MUL OR SWAP1 SSTORE POP POP DUP1 DUP1 PUSH2 0x1BE3 SWAP1 PUSH2 0x37CE JUMP JUMPDEST SWAP2 POP POP PUSH2 0x1AC4 JUMP JUMPDEST POP PUSH1 0x5 PUSH1 0x40 MLOAD DUP1 PUSH2 0x140 ADD PUSH1 0x40 MSTORE DUP1 PUSH1 0x1 PUSH1 0x5 DUP1 SLOAD SWAP1 POP PUSH2 0x1C0C SWAP2 SWAP1 PUSH2 0x3BED JUMP JUMPDEST PUSH2 0xFFFF AND DUP2 MSTORE PUSH1 0x20 ADD DUP15 DUP15 SWAP1 PUSH2 0x1C22 SWAP2 SWAP1 PUSH2 0x36E9 JUMP JUMPDEST PUSH12 0xFFFFFFFFFFFFFFFFFFFFFFFF NOT AND DUP2 MSTORE PUSH1 0x20 ADD DUP13 DUP13 SWAP1 PUSH2 0x1C43 SWAP2 SWAP1 PUSH2 0x3C20 JUMP JUMPDEST PUSH2 0xFFFF NOT AND DUP2 MSTORE PUSH1 0x20 ADD PUSH0 PUSH1 0x4 DUP2 GT ISZERO PUSH2 0x1C60 JUMPI PUSH2 0x1C5F PUSH2 0x2CEC JUMP JUMPDEST JUMPDEST DUP2 MSTORE PUSH1 0x20 ADD DUP11 PUSH8 0xFFFFFFFFFFFFFFFF AND DUP2 MSTORE PUSH1 0x20 ADD DUP10 PUSH8 0xFFFFFFFFFFFFFFFF AND DUP2 MSTORE PUSH1 0x20 ADD DUP9 PUSH4 0xFFFFFFFF AND DUP2 MSTORE PUSH1 0x20 ADD DUP8 DUP8 DUP1 DUP1 PUSH1 0x20 MUL PUSH1 0x20 ADD PUSH1 0x40 MLOAD SWAP1 DUP2 ADD PUSH1 0x40 MSTORE DUP1 SWAP4 SWAP3 SWAP2 SWAP1 DUP2 DUP2 MSTORE PUSH1 0x20 ADD DUP4 DUP4 PUSH1 0x20 MUL DUP1 DUP3 DUP5 CALLDATACOPY PUSH0 DUP2 DUP5 ADD MSTORE PUSH1 0x1F NOT PUSH1 0x1F DUP3 ADD AND SWAP1 POP DUP1 DUP4 ADD SWAP3 POP POP POP POP POP POP POP DUP2 MSTORE PUSH1 0x20 ADD DUP6 DUP6 DUP1 DUP1 PUSH1 0x20 MUL PUSH1 0x20 ADD PUSH1 0x40 MLOAD SWAP1 DUP2 ADD PUSH1 0x40 MSTORE DUP1 SWAP4 SWAP3 SWAP2 SWAP1 DUP2 DUP2 MSTORE PUSH1 0x20 ADD DUP4 DUP4 PUSH1 0x20 MUL DUP1 DUP3 DUP5 CALLDATACOPY PUSH0 DUP2 DUP5 ADD MSTORE PUSH1 0x1F NOT PUSH1 0x1F DUP3 ADD AND SWAP1 POP DUP1 DUP4 ADD SWAP3 POP POP POP POP POP POP POP DUP2 MSTORE PUSH1 0x20 ADD PUSH0 PUSH20 0xFFFFFFFFFFFFFFFFFFFFFFFFFFFFFFFFFFFFFFFF AND DUP2 MSTORE POP SWAP1 DUP1 PUSH1 0x1 DUP2 SLOAD ADD DUP1 DUP3 SSTORE DUP1 SWAP2 POP POP PUSH1 0x1 SWAP1 SUB SWAP1 PUSH0 MSTORE PUSH1 0x20 PUSH0 KECCAK256 SWAP1 PUSH1 0x6 MUL ADD PUSH0 SWAP1 SWAP2 SWAP1 SWAP2 SWAP1 SWAP2 POP PUSH0 DUP3 ADD MLOAD DUP2 PUSH0 ADD PUSH0 PUSH2 0x100 EXP DUP2 SLOAD DUP2 PUSH2 0xFFFF MUL NOT AND SWAP1 DUP4 PUSH2 0xFFFF AND MUL OR SWAP1 SSTORE POP PUSH1 0x20 DUP3 ADD MLOAD DUP2 PUSH0 ADD PUSH1 0x2 PUSH2 0x100 EXP DUP2 SLOAD DUP2 PUSH20 0xFFFFFFFFFFFFFFFFFFFFFFFFFFFFFFFFFFFFFFFF MUL NOT AND SWAP1 DUP4 PUSH1 0x60 SHR MUL OR SWAP1 SSTORE POP PUSH1 0x40 DUP3 ADD MLOAD DUP2 PUSH1 0x1 ADD PUSH0 PUSH2 0x100 EXP DUP2 SLOAD DUP2 PUSH30 0xFFFFFFFFFFFFFFFFFFFFFFFFFFFFFFFFFFFFFFFFFFFFFFFFFFFFFFFFFFFF MUL NOT AND SWAP1 DUP4 PUSH1 0x10 SHR MUL OR SWAP1 SSTORE POP PUSH1 0x60 DUP3 ADD MLOAD DUP2 PUSH1 0x1 ADD PUSH1 0x1E PUSH2 0x100 EXP DUP2 SLOAD DUP2 PUSH1 0xFF MUL NOT AND SWAP1 DUP4 PUSH1 0x4 DUP2 GT ISZERO PUSH2 0x1E18 JUMPI PUSH2 0x1E17 PUSH2 0x2CEC JUMP JUMPDEST JUMPDEST MUL OR SWAP1 SSTORE POP PUSH1 0x80 DUP3 ADD MLOAD DUP2 PUSH1 0x2 ADD PUSH0 PUSH2 0x100 EXP DUP2 SLOAD DUP2 PUSH8 0xFFFFFFFFFFFFFFFF MUL NOT AND SWAP1 DUP4 PUSH8 0xFFFFFFFFFFFFFFFF AND MUL OR SWAP1 SSTORE POP PUSH1 0xA0 DUP3 ADD MLOAD DUP2 PUSH1 0x2 ADD PUSH1 0x8 PUSH2 0x100 EXP DUP2 SLOAD DUP2 PUSH8 0xFFFFFFFFFFFFFFFF MUL NOT AND SWAP1 DUP4 PUSH8 0xFFFFFFFFFFFFFFFF AND MUL OR SWAP1 SSTORE POP PUSH1 0xC0 DUP3 ADD MLOAD DUP2 PUSH1 0x2 ADD PUSH1 0x10 PUSH2 0x100 EXP DUP2 SLOAD DUP2 PUSH4 0xFFFFFFFF MUL NOT AND SWAP1 DUP4 PUSH4 0xFFFFFFFF AND MUL OR SWAP1 SSTORE POP PUSH1 0xE0 DUP3 ADD MLOAD DUP2 PUSH1 0x3 ADD SWAP1 DUP1 MLOAD SWAP1 PUSH1 0x20 ADD SWAP1 PUSH2 0x1EBD SWAP3 SWAP2 SWAP1 PUSH2 0x2885 JUMP JUMPDEST POP PUSH2 0x100 DUP3 ADD MLOAD DUP2 PUSH1 0x4 ADD SWAP1 DUP1 MLOAD SWAP1 PUSH1 0x20 ADD SWAP1 PUSH2 0x1EDB SWAP3 SWAP2 SWAP1 PUSH2 0x2885 JUMP JUMPDEST POP PUSH2 0x120 DUP3 ADD MLOAD DUP2 PUSH1 0x5 ADD PUSH0 PUSH2 0x100 EXP DUP2 SLOAD DUP2 PUSH20 0xFFFFFFFFFFFFFFFFFFFFFFFFFFFFFFFFFFFFFFFF MUL NOT AND SWAP1 DUP4 PUSH20 0xFFFFFFFFFFFFFFFFFFFFFFFFFFFFFFFFFFFFFFFF AND MUL OR SWAP1 SSTORE POP POP POP PUSH1 0x5 PUSH1 0x1 PUSH1 0x5 DUP1 SLOAD SWAP1 POP PUSH2 0x1F39 SWAP2 SWAP1 PUSH2 0x3C7E JUMP JUMPDEST DUP2 SLOAD DUP2 LT PUSH2 0x1F4A JUMPI PUSH2 0x1F49 PUSH2 0x3774 JUMP JUMPDEST JUMPDEST SWAP1 PUSH0 MSTORE PUSH1 0x20 PUSH0 KECCAK256 SWAP1 PUSH1 0x6 MUL ADD PUSH1 0x3 ADD PUSH1 0x4 PUSH0 CALLER PUSH20 0xFFFFFFFFFFFFFFFFFFFFFFFFFFFFFFFFFFFFFFFF AND PUSH20 0xFFFFFFFFFFFFFFFFFFFFFFFFFFFFFFFFFFFFFFFF AND DUP2 MSTORE PUSH1 0x20 ADD SWAP1 DUP2 MSTORE PUSH1 0x20 ADD PUSH0 KECCAK256 PUSH0 SWAP1 SLOAD SWAP1 PUSH2 0x100 EXP SWAP1 DIV PUSH2 0xFFFF AND SWAP1 DUP1 PUSH1 0x1 DUP2 SLOAD ADD DUP1 DUP3 SSTORE DUP1 SWAP2 POP POP PUSH1 0x1 SWAP1 SUB SWAP1 PUSH0 MSTORE PUSH1 0x20 PUSH0 KECCAK256 SWAP1 PUSH1 0x10 SWAP2 DUP3 DUP3 DIV ADD SWAP2 SWAP1 MOD PUSH1 0x2 MUL SWAP1 SWAP2 SWAP1 SWAP2 SWAP1 SWAP2 PUSH2 0x100 EXP DUP2 SLOAD DUP2 PUSH2 0xFFFF MUL NOT AND SWAP1 DUP4 PUSH2 0xFFFF AND MUL OR SWAP1 SSTORE POP PUSH1 0x2 SWAP1 POP SWAP12 SWAP11 POP POP POP POP POP POP POP POP POP POP POP JUMP JUMPDEST PUSH0 DUP1 PUSH1 0x8 SWAP1 SLOAD SWAP1 PUSH2 0x100 EXP SWAP1 DIV PUSH20 0xFFFFFFFFFFFFFFFFFFFFFFFFFFFFFFFFFFFFFFFF AND PUSH20 0xFFFFFFFFFFFFFFFFFFFFFFFFFFFFFFFFFFFFFFFF AND CALLER PUSH20 0xFFFFFFFFFFFFFFFFFFFFFFFFFFFFFFFFFFFFFFFF AND SUB PUSH2 0x2059 JUMPI PUSH0 SWAP1 POP PUSH2 0x211A JUMP JUMPDEST PUSH0 PUSH1 0x2 PUSH0 CALLER PUSH20 0xFFFFFFFFFFFFFFFFFFFFFFFFFFFFFFFFFFFFFFFF AND PUSH20 0xFFFFFFFFFFFFFFFFFFFFFFFFFFFFFFFFFFFFFFFF AND DUP2 MSTORE PUSH1 0x20 ADD SWAP1 DUP2 MSTORE PUSH1 0x20 ADD PUSH0 KECCAK256 PUSH0 SWAP1 SLOAD SWAP1 PUSH2 0x100 EXP SWAP1 DIV PUSH2 0xFFFF AND PUSH2 0xFFFF AND EQ PUSH2 0x20B7 JUMPI PUSH1 0x1 SWAP1 POP PUSH2 0x211A JUMP JUMPDEST PUSH0 PUSH1 0x4 PUSH0 CALLER PUSH20 0xFFFFFFFFFFFFFFFFFFFFFFFFFFFFFFFFFFFFFFFF AND PUSH20 0xFFFFFFFFFFFFFFFFFFFFFFFFFFFFFFFFFFFFFFFF AND DUP2 MSTORE PUSH1 0x20 ADD SWAP1 DUP2 MSTORE PUSH1 0x20 ADD PUSH0 KECCAK256 PUSH0 SWAP1 SLOAD SWAP1 PUSH2 0x100 EXP SWAP1 DIV PUSH2 0xFFFF AND PUSH2 0xFFFF AND EQ PUSH2 0x2115 JUMPI PUSH1 0x2 SWAP1 POP PUSH2 0x211A JUMP JUMPDEST PUSH1 0x3 SWAP1 POP JUMPDEST SWAP1 JUMP JUMPDEST PUSH1 0x1 DUP2 DUP2 SLOAD DUP2 LT PUSH2 0x212C JUMPI PUSH0 DUP1 REVERT JUMPDEST SWAP1 PUSH0 MSTORE PUSH1 0x20 PUSH0 KECCAK256 SWAP1 PUSH1 0x5 MUL ADD PUSH0 SWAP2 POP SWAP1 POP DUP1 PUSH0 ADD PUSH0 SWAP1 SLOAD SWAP1 PUSH2 0x100 EXP SWAP1 DIV PUSH1 0x60 SHL SWAP1 DUP1 PUSH1 0x1 ADD PUSH0 SWAP1 SLOAD SWAP1 PUSH2 0x100 EXP SWAP1 DIV PUSH20 0xFFFFFFFFFFFFFFFFFFFFFFFFFFFFFFFFFFFFFFFF AND SWAP1 DUP1 PUSH1 0x2 ADD PUSH0 SWAP1 SLOAD SWAP1 PUSH2 0x100 EXP SWAP1 DIV PUSH1 0x60 SHL SWAP1 DUP1 PUSH1 0x3 ADD PUSH0 SWAP1 SLOAD SWAP1 PUSH2 0x100 EXP SWAP1 DIV PUSH1 0x60 SHL SWAP1 POP DUP5 JUMP JUMPDEST CALLER PUSH20 0xFFFFFFFFFFFFFFFFFFFFFFFFFFFFFFFFFFFFFFFF AND PUSH0 PUSH1 0x8 SWAP1 SLOAD SWAP1 PUSH2 0x100 EXP SWAP1 DIV PUSH20 0xFFFFFFFFFFFFFFFFFFFFFFFFFFFFFFFFFFFFFFFF AND PUSH20 0xFFFFFFFFFFFFFFFFFFFFFFFFFFFFFFFFFFFFFFFF AND EQ PUSH2 0x222A JUMPI PUSH1 0x40 MLOAD PUSH32 0x8C379A000000000000000000000000000000000000000000000000000000000 DUP2 MSTORE PUSH1 0x4 ADD PUSH2 0x2221 SWAP1 PUSH2 0x3CFB JUMP JUMPDEST PUSH1 0x40 MLOAD DUP1 SWAP2 SUB SWAP1 REVERT JUMPDEST PUSH1 0x5 DUP1 SLOAD SWAP1 POP DUP2 PUSH2 0xFFFF AND GT ISZERO PUSH2 0x2276 JUMPI PUSH1 0x40 MLOAD PUSH32 0x8C379A000000000000000000000000000000000000000000000000000000000 DUP2 MSTORE PUSH1 0x4 ADD PUSH2 0x226D SWAP1 PUSH2 0x3D63 JUMP JUMPDEST PUSH1 0x40 MLOAD DUP1 SWAP2 SUB SWAP1 REVERT JUMPDEST PUSH0 PUSH1 0x5 PUSH1 0x1 DUP4 PUSH2 0x2286 SWAP2 SWAP1 PUSH2 0x37F7 JUMP JUMPDEST PUSH2 0xFFFF AND DUP2 SLOAD DUP2 LT PUSH2 0x229B JUMPI PUSH2 0x229A PUSH2 0x3774 JUMP JUMPDEST JUMPDEST SWAP1 PUSH0 MSTORE PUSH1 0x20 PUSH0 KECCAK256 SWAP1 PUSH1 0x6 MUL ADD SWAP1 POP PUSH1 0x1 PUSH1 0x4 DUP2 GT ISZERO PUSH2 0x22BD JUMPI PUSH2 0x22BC PUSH2 0x2CEC JUMP JUMPDEST JUMPDEST DUP2 PUSH1 0x1 ADD PUSH1 0x1E SWAP1 SLOAD SWAP1 PUSH2 0x100 EXP SWAP1 DIV PUSH1 0xFF AND PUSH1 0x4 DUP2 GT ISZERO PUSH2 0x22E1 JUMPI PUSH2 0x22E0 PUSH2 0x2CEC JUMP JUMPDEST JUMPDEST EQ PUSH2 0x2321 JUMPI PUSH1 0x40 MLOAD PUSH32 0x8C379A000000000000000000000000000000000000000000000000000000000 DUP2 MSTORE PUSH1 0x4 ADD PUSH2 0x2318 SWAP1 PUSH2 0x3DCB JUMP JUMPDEST PUSH1 0x40 MLOAD DUP1 SWAP2 SUB SWAP1 REVERT JUMPDEST DUP1 PUSH1 0x2 ADD PUSH1 0x8 SWAP1 SLOAD SWAP1 PUSH2 0x100 EXP SWAP1 DIV PUSH8 0xFFFFFFFFFFFFFFFF AND PUSH8 0xFFFFFFFFFFFFFFFF AND TIMESTAMP LT ISZERO PUSH2 0x2386 JUMPI PUSH1 0x40 MLOAD PUSH32 0x8C379A000000000000000000000000000000000000000000000000000000000 DUP2 MSTORE PUSH1 0x4 ADD PUSH2 0x237D SWAP1 PUSH2 0x3E33 JUMP JUMPDEST PUSH1 0x40 MLOAD DUP1 SWAP2 SUB SWAP1 REVERT JUMPDEST CALLVALUE DUP2 PUSH1 0x2 ADD PUSH1 0x10 SWAP1 SLOAD SWAP1 PUSH2 0x100 EXP SWAP1 DIV PUSH4 0xFFFFFFFF AND PUSH4 0xFFFFFFFF AND EQ PUSH2 0x23E2 JUMPI PUSH1 0x40 MLOAD PUSH32 0x8C379A000000000000000000000000000000000000000000000000000000000 DUP2 MSTORE PUSH1 0x4 ADD PUSH2 0x23D9 SWAP1 PUSH2 0x3E9B JUMP JUMPDEST PUSH1 0x40 MLOAD DUP1 SWAP2 SUB SWAP1 REVERT JUMPDEST PUSH0 JUMPDEST DUP2 PUSH1 0x3 ADD DUP1 SLOAD SWAP1 POP DUP2 PUSH2 0xFFFF AND LT ISZERO PUSH2 0x258A JUMPI CALLVALUE PUSH0 PUSH1 0x8 SWAP1 SLOAD SWAP1 PUSH2 0x100 EXP SWAP1 DIV PUSH20 0xFFFFFFFFFFFFFFFFFFFFFFFFFFFFFFFFFFFFFFFF AND PUSH20 0xFFFFFFFFFFFFFFFFFFFFFFFFFFFFFFFFFFFFFFFF AND BALANCE LT ISZERO PUSH2 0x2472 JUMPI PUSH1 0x40 MLOAD PUSH32 0x8C379A000000000000000000000000000000000000000000000000000000000 DUP2 MSTORE PUSH1 0x4 ADD PUSH2 0x2469 SWAP1 PUSH2 0x3F03 JUMP JUMPDEST PUSH1 0x40 MLOAD DUP1 SWAP2 SUB SWAP1 REVERT JUMPDEST PUSH0 PUSH1 0x3 PUSH1 0x1 DUP5 PUSH1 0x3 ADD DUP5 PUSH2 0xFFFF AND DUP2 SLOAD DUP2 LT PUSH2 0x2491 JUMPI PUSH2 0x2490 PUSH2 0x3774 JUMP JUMPDEST JUMPDEST SWAP1 PUSH0 MSTORE PUSH1 0x20 PUSH0 KECCAK256 SWAP1 PUSH1 0x10 SWAP2 DUP3 DUP3 DIV ADD SWAP2 SWAP1 MOD PUSH1 0x2 MUL SWAP1 SLOAD SWAP1 PUSH2 0x100 EXP SWAP1 DIV PUSH2 0xFFFF AND PUSH2 0x24BD SWAP2 SWAP1 PUSH2 0x37F7 JUMP JUMPDEST PUSH2 0xFFFF AND DUP2 SLOAD DUP2 LT PUSH2 0x24D2 JUMPI PUSH2 0x24D1 PUSH2 0x3774 JUMP JUMPDEST JUMPDEST SWAP1 PUSH0 MSTORE PUSH1 0x20 PUSH0 KECCAK256 SWAP1 PUSH1 0x4 MUL ADD PUSH1 0x1 ADD PUSH0 SWAP1 SLOAD SWAP1 PUSH2 0x100 EXP SWAP1 DIV PUSH20 0xFFFFFFFFFFFFFFFFFFFFFFFFFFFFFFFFFFFFFFFF AND PUSH20 0xFFFFFFFFFFFFFFFFFFFFFFFFFFFFFFFFFFFFFFFF AND PUSH2 0x8FC CALLVALUE SWAP1 DUP2 ISZERO MUL SWAP1 PUSH1 0x40 MLOAD PUSH0 PUSH1 0x40 MLOAD DUP1 DUP4 SUB DUP2 DUP6 DUP9 DUP9 CALL SWAP4 POP POP POP POP SWAP1 POP DUP1 PUSH2 0x2576 JUMPI PUSH1 0x40 MLOAD PUSH32 0x8C379A000000000000000000000000000000000000000000000000000000000 DUP2 MSTORE PUSH1 0x4 ADD PUSH2 0x256D SWAP1 PUSH2 0x3F6B JUMP JUMPDEST PUSH1 0x40 MLOAD DUP1 SWAP2 SUB SWAP1 REVERT JUMPDEST POP DUP1 DUP1 PUSH2 0x2582 SWAP1 PUSH2 0x37CE JUMP JUMPDEST SWAP2 POP POP PUSH2 0x23E4 JUMP JUMPDEST POP POP POP JUMP JUMPDEST PUSH0 DUP1 PUSH1 0x2 PUSH0 CALLER PUSH20 0xFFFFFFFFFFFFFFFFFFFFFFFFFFFFFFFFFFFFFFFF AND PUSH20 0xFFFFFFFFFFFFFFFFFFFFFFFFFFFFFFFFFFFFFFFF AND DUP2 MSTORE PUSH1 0x20 ADD SWAP1 DUP2 MSTORE PUSH1 0x20 ADD PUSH0 KECCAK256 PUSH0 SWAP1 SLOAD SWAP1 PUSH2 0x100 EXP SWAP1 DIV PUSH2 0xFFFF AND PUSH2 0xFFFF AND EQ ISZERO DUP1 ISZERO PUSH2 0x25F3 JUMPI POP PUSH1 0x5 DUP1 SLOAD SWAP1 POP DUP4 GT ISZERO JUMPDEST PUSH2 0x2632 JUMPI PUSH1 0x40 MLOAD PUSH32 0x8C379A000000000000000000000000000000000000000000000000000000000 DUP2 MSTORE PUSH1 0x4 ADD PUSH2 0x2629 SWAP1 PUSH2 0x3FD3 JUMP JUMPDEST PUSH1 0x40 MLOAD DUP1 SWAP2 SUB SWAP1 REVERT JUMPDEST PUSH0 PUSH1 0x5 PUSH1 0x1 DUP6 PUSH2 0x2642 SWAP2 SWAP1 PUSH2 0x3C7E JUMP JUMPDEST DUP2 SLOAD DUP2 LT PUSH2 0x2653 JUMPI PUSH2 0x2652 PUSH2 0x3774 JUMP JUMPDEST JUMPDEST SWAP1 PUSH0 MSTORE PUSH1 0x20 PUSH0 KECCAK256 SWAP1 PUSH1 0x6 MUL ADD SWAP1 POP PUSH0 PUSH1 0x4 DUP2 GT ISZERO PUSH2 0x2674 JUMPI PUSH2 0x2673 PUSH2 0x2CEC JUMP JUMPDEST JUMPDEST DUP2 PUSH1 0x1 ADD PUSH1 0x1E SWAP1 SLOAD SWAP1 PUSH2 0x100 EXP SWAP1 DIV PUSH1 0xFF AND PUSH1 0x4 DUP2 GT ISZERO PUSH2 0x2698 JUMPI PUSH2 0x2697 PUSH2 0x2CEC JUMP JUMPDEST JUMPDEST EQ DUP1 PUSH2 0x26D8 JUMPI POP PUSH1 0x4 DUP1 DUP2 GT ISZERO PUSH2 0x26B2 JUMPI PUSH2 0x26B1 PUSH2 0x2CEC JUMP JUMPDEST JUMPDEST DUP2 PUSH1 0x1 ADD PUSH1 0x1E SWAP1 SLOAD SWAP1 PUSH2 0x100 EXP SWAP1 DIV PUSH1 0xFF AND PUSH1 0x4 DUP2 GT ISZERO PUSH2 0x26D6 JUMPI PUSH2 0x26D5 PUSH2 0x2CEC JUMP JUMPDEST JUMPDEST EQ JUMPDEST PUSH2 0x2717 JUMPI PUSH1 0x40 MLOAD PUSH32 0x8C379A000000000000000000000000000000000000000000000000000000000 DUP2 MSTORE PUSH1 0x4 ADD PUSH2 0x270E SWAP1 PUSH2 0x403B JUMP JUMPDEST PUSH1 0x40 MLOAD DUP1 SWAP2 SUB SWAP1 REVERT JUMPDEST PUSH0 JUMPDEST DUP2 PUSH1 0x4 ADD DUP1 SLOAD SWAP1 POP DUP2 LT ISZERO PUSH2 0x2878 JUMPI PUSH1 0x2 PUSH0 CALLER PUSH20 0xFFFFFFFFFFFFFFFFFFFFFFFFFFFFFFFFFFFFFFFF AND PUSH20 0xFFFFFFFFFFFFFFFFFFFFFFFFFFFFFFFFFFFFFFFF AND DUP2 MSTORE PUSH1 0x20 ADD SWAP1 DUP2 MSTORE PUSH1 0x20 ADD PUSH0 KECCAK256 PUSH0 SWAP1 SLOAD SWAP1 PUSH2 0x100 EXP SWAP1 DIV PUSH2 0xFFFF AND PUSH2 0xFFFF AND DUP3 PUSH1 0x4 ADD DUP3 DUP2 SLOAD DUP2 LT PUSH2 0x278D JUMPI PUSH2 0x278C PUSH2 0x3774 JUMP JUMPDEST JUMPDEST SWAP1 PUSH0 MSTORE PUSH1 0x20 PUSH0 KECCAK256 SWAP1 PUSH1 0x10 SWAP2 DUP3 DUP3 DIV ADD SWAP2 SWAP1 MOD PUSH1 0x2 MUL SWAP1 SLOAD SWAP1 PUSH2 0x100 EXP SWAP1 DIV PUSH2 0xFFFF AND PUSH2 0xFFFF AND SUB PUSH2 0x286B JUMPI CALLER DUP3 PUSH1 0x5 ADD PUSH0 PUSH2 0x100 EXP DUP2 SLOAD DUP2 PUSH20 0xFFFFFFFFFFFFFFFFFFFFFFFFFFFFFFFFFFFFFFFF MUL NOT AND SWAP1 DUP4 PUSH20 0xFFFFFFFFFFFFFFFFFFFFFFFFFFFFFFFFFFFFFFFF AND MUL OR SWAP1 SSTORE POP DUP4 ISZERO PUSH2 0x2832 JUMPI PUSH1 0x1 DUP3 PUSH1 0x1 ADD PUSH1 0x1E PUSH2 0x100 EXP DUP2 SLOAD DUP2 PUSH1 0xFF MUL NOT AND SWAP1 DUP4 PUSH1 0x4 DUP2 GT ISZERO PUSH2 0x2828 JUMPI PUSH2 0x2827 PUSH2 0x2CEC JUMP JUMPDEST JUMPDEST MUL OR SWAP1 SSTORE POP PUSH2 0x2860 JUMP JUMPDEST PUSH1 0x2 DUP3 PUSH1 0x1 ADD PUSH1 0x1E PUSH2 0x100 EXP DUP2 SLOAD DUP2 PUSH1 0xFF MUL NOT AND SWAP1 DUP4 PUSH1 0x4 DUP2 GT ISZERO PUSH2 0x285A JUMPI PUSH2 0x2859 PUSH2 0x2CEC JUMP JUMPDEST JUMPDEST MUL OR SWAP1 SSTORE POP JUMPDEST PUSH1 0x2 SWAP3 POP POP POP PUSH2 0x287F JUMP JUMPDEST DUP1 DUP1 PUSH1 0x1 ADD SWAP2 POP POP PUSH2 0x2719 JUMP JUMPDEST POP PUSH1 0x6 SWAP2 POP POP JUMPDEST SWAP3 SWAP2 POP POP JUMP JUMPDEST DUP3 DUP1 SLOAD DUP3 DUP3 SSTORE SWAP1 PUSH0 MSTORE PUSH1 0x20 PUSH0 KECCAK256 SWAP1 PUSH1 0xF ADD PUSH1 0x10 SWAP1 DIV DUP2 ADD SWAP3 DUP3 ISZERO PUSH2 0x291B JUMPI SWAP2 PUSH1 0x20 MUL DUP3 ADD PUSH0 JUMPDEST DUP4 DUP3 GT ISZERO PUSH2 0x28EB JUMPI DUP4 MLOAD DUP4 DUP3 PUSH2 0x100 EXP DUP2 SLOAD DUP2 PUSH2 0xFFFF MUL NOT AND SWAP1 DUP4 PUSH2 0xFFFF AND MUL OR SWAP1 SSTORE POP SWAP3 PUSH1 0x20 ADD SWAP3 PUSH1 0x2 ADD PUSH1 0x20 DUP2 PUSH1 0x1 ADD DIV SWAP3 DUP4 ADD SWAP3 PUSH1 0x1 SUB MUL PUSH2 0x28AB JUMP JUMPDEST DUP1 ISZERO PUSH2 0x2919 JUMPI DUP3 DUP2 PUSH2 0x100 EXP DUP2 SLOAD SWAP1 PUSH2 0xFFFF MUL NOT AND SWAP1 SSTORE PUSH1 0x2 ADD PUSH1 0x20 DUP2 PUSH1 0x1 ADD DIV SWAP3 DUP4 ADD SWAP3 PUSH1 0x1 SUB MUL PUSH2 0x28EB JUMP JUMPDEST POP JUMPDEST POP SWAP1 POP PUSH2 0x2928 SWAP2 SWAP1 PUSH2 0x2A18 JUMP JUMPDEST POP SWAP1 JUMP JUMPDEST PUSH1 0x40 MLOAD DUP1 PUSH1 0xE0 ADD PUSH1 0x40 MSTORE DUP1 PUSH0 PUSH2 0xFFFF AND DUP2 MSTORE PUSH1 0x20 ADD PUSH0 PUSH12 0xFFFFFFFFFFFFFFFFFFFFFFFF NOT AND DUP2 MSTORE PUSH1 0x20 ADD PUSH0 PUSH2 0xFFFF NOT AND DUP2 MSTORE PUSH1 0x20 ADD PUSH0 PUSH1 0x4 DUP2 GT ISZERO PUSH2 0x2974 JUMPI PUSH2 0x2973 PUSH2 0x2CEC JUMP JUMPDEST JUMPDEST DUP2 MSTORE PUSH1 0x20 ADD PUSH0 PUSH8 0xFFFFFFFFFFFFFFFF AND DUP2 MSTORE PUSH1 0x20 ADD PUSH0 PUSH8 0xFFFFFFFFFFFFFFFF AND DUP2 MSTORE PUSH1 0x20 ADD PUSH0 PUSH4 0xFFFFFFFF AND DUP2 MSTORE POP SWAP1 JUMP JUMPDEST PUSH1 0x40 MLOAD DUP1 PUSH1 0x40 ADD PUSH1 0x40 MSTORE DUP1 PUSH0 PUSH2 0xFFFF AND DUP2 MSTORE PUSH1 0x20 ADD PUSH0 PUSH12 0xFFFFFFFFFFFFFFFFFFFFFFFF NOT AND DUP2 MSTORE POP SWAP1 JUMP JUMPDEST PUSH1 0x40 MLOAD DUP1 PUSH1 0x60 ADD PUSH1 0x40 MSTORE DUP1 PUSH0 PUSH2 0xFFFF AND DUP2 MSTORE PUSH1 0x20 ADD PUSH0 PUSH12 0xFFFFFFFFFFFFFFFFFFFFFFFF NOT AND DUP2 MSTORE PUSH1 0x20 ADD PUSH0 PUSH20 0xFFFFFFFFFFFFFFFFFFFFFFFFFFFFFFFFFFFFFFFF AND DUP2 MSTORE POP SWAP1 JUMP JUMPDEST JUMPDEST DUP1 DUP3 GT ISZERO PUSH2 0x2A2F JUMPI PUSH0 DUP2 PUSH0 SWAP1 SSTORE POP PUSH1 0x1 ADD PUSH2 0x2A19 JUMP JUMPDEST POP SWAP1 JUMP JUMPDEST PUSH0 DUP1 REVERT JUMPDEST PUSH0 DUP1 REVERT JUMPDEST PUSH0 DUP1 REVERT JUMPDEST PUSH0 DUP1 REVERT JUMPDEST PUSH0 DUP1 REVERT JUMPDEST PUSH0 DUP1 DUP4 PUSH1 0x1F DUP5 ADD SLT PUSH2 0x2A5C JUMPI PUSH2 0x2A5B PUSH2 0x2A3B JUMP JUMPDEST JUMPDEST DUP3 CALLDATALOAD SWAP1 POP PUSH8 0xFFFFFFFFFFFFFFFF DUP2 GT ISZERO PUSH2 0x2A79 JUMPI PUSH2 0x2A78 PUSH2 0x2A3F JUMP JUMPDEST JUMPDEST PUSH1 0x20 DUP4 ADD SWAP2 POP DUP4 PUSH1 0x1 DUP3 MUL DUP4 ADD GT ISZERO PUSH2 0x2A95 JUMPI PUSH2 0x2A94 PUSH2 0x2A43 JUMP JUMPDEST JUMPDEST SWAP3 POP SWAP3 SWAP1 POP JUMP JUMPDEST PUSH0 DUP1 PUSH0 DUP1 PUSH0 DUP1 PUSH1 0x60 DUP8 DUP10 SUB SLT ISZERO PUSH2 0x2AB6 JUMPI PUSH2 0x2AB5 PUSH2 0x2A33 JUMP JUMPDEST JUMPDEST PUSH0 DUP8 ADD CALLDATALOAD PUSH8 0xFFFFFFFFFFFFFFFF DUP2 GT ISZERO PUSH2 0x2AD3 JUMPI PUSH2 0x2AD2 PUSH2 0x2A37 JUMP JUMPDEST JUMPDEST PUSH2 0x2ADF DUP10 DUP3 DUP11 ADD PUSH2 0x2A47 JUMP JUMPDEST SWAP7 POP SWAP7 POP POP PUSH1 0x20 DUP8 ADD CALLDATALOAD PUSH8 0xFFFFFFFFFFFFFFFF DUP2 GT ISZERO PUSH2 0x2B02 JUMPI PUSH2 0x2B01 PUSH2 0x2A37 JUMP JUMPDEST JUMPDEST PUSH2 0x2B0E DUP10 DUP3 DUP11 ADD PUSH2 0x2A47 JUMP JUMPDEST SWAP5 POP SWAP5 POP POP PUSH1 0x40 DUP8 ADD CALLDATALOAD PUSH8 0xFFFFFFFFFFFFFFFF DUP2 GT ISZERO PUSH2 0x2B31 JUMPI PUSH2 0x2B30 PUSH2 0x2A37 JUMP JUMPDEST JUMPDEST PUSH2 0x2B3D DUP10 DUP3 DUP11 ADD PUSH2 0x2A47 JUMP JUMPDEST SWAP3 POP SWAP3 POP POP SWAP3 SWAP6 POP SWAP3 SWAP6 POP SWAP3 SWAP6 JUMP JUMPDEST PUSH0 PUSH1 0xFF DUP3 AND SWAP1 POP SWAP2 SWAP1 POP JUMP JUMPDEST PUSH2 0x2B61 DUP2 PUSH2 0x2B4C JUMP JUMPDEST DUP3 MSTORE POP POP JUMP JUMPDEST PUSH0 PUSH1 0x20 DUP3 ADD SWAP1 POP PUSH2 0x2B7A PUSH0 DUP4 ADD DUP5 PUSH2 0x2B58 JUMP JUMPDEST SWAP3 SWAP2 POP POP JUMP JUMPDEST PUSH0 DUP1 PUSH0 DUP1 PUSH1 0x40 DUP6 DUP8 SUB SLT ISZERO PUSH2 0x2B98 JUMPI PUSH2 0x2B97 PUSH2 0x2A33 JUMP JUMPDEST JUMPDEST PUSH0 DUP6 ADD CALLDATALOAD PUSH8 0xFFFFFFFFFFFFFFFF DUP2 GT ISZERO PUSH2 0x2BB5 JUMPI PUSH2 0x2BB4 PUSH2 0x2A37 JUMP JUMPDEST JUMPDEST PUSH2 0x2BC1 DUP8 DUP3 DUP9 ADD PUSH2 0x2A47 JUMP JUMPDEST SWAP5 POP SWAP5 POP POP PUSH1 0x20 DUP6 ADD CALLDATALOAD PUSH8 0xFFFFFFFFFFFFFFFF DUP2 GT ISZERO PUSH2 0x2BE4 JUMPI PUSH2 0x2BE3 PUSH2 0x2A37 JUMP JUMPDEST JUMPDEST PUSH2 0x2BF0 DUP8 DUP3 DUP9 ADD PUSH2 0x2A47 JUMP JUMPDEST SWAP3 POP SWAP3 POP POP SWAP3 SWAP6 SWAP2 SWAP5 POP SWAP3 POP JUMP JUMPDEST PUSH0 DUP2 SWAP1 POP SWAP2 SWAP1 POP JUMP JUMPDEST PUSH2 0x2C10 DUP2 PUSH2 0x2BFE JUMP JUMPDEST DUP2 EQ PUSH2 0x2C1A JUMPI PUSH0 DUP1 REVERT JUMPDEST POP JUMP JUMPDEST PUSH0 DUP2 CALLDATALOAD SWAP1 POP PUSH2 0x2C2B DUP2 PUSH2 0x2C07 JUMP JUMPDEST SWAP3 SWAP2 POP POP JUMP JUMPDEST PUSH0 PUSH1 0x20 DUP3 DUP5 SUB SLT ISZERO PUSH2 0x2C46 JUMPI PUSH2 0x2C45 PUSH2 0x2A33 JUMP JUMPDEST JUMPDEST PUSH0 PUSH2 0x2C53 DUP5 DUP3 DUP6 ADD PUSH2 0x2C1D JUMP JUMPDEST SWAP2 POP POP SWAP3 SWAP2 POP POP JUMP JUMPDEST PUSH0 PUSH2 0xFFFF DUP3 AND SWAP1 POP SWAP2 SWAP1 POP JUMP JUMPDEST PUSH2 0x2C72 DUP2 PUSH2 0x2C5C JUMP JUMPDEST DUP3 MSTORE POP POP JUMP JUMPDEST PUSH0 PUSH32 0xFFFFFFFFFFFFFFFFFFFFFFFFFFFFFFFFFFFFFFFF000000000000000000000000 DUP3 AND SWAP1 POP SWAP2 SWAP1 POP JUMP JUMPDEST PUSH2 0x2CAC DUP2 PUSH2 0x2C78 JUMP JUMPDEST DUP3 MSTORE POP POP JUMP JUMPDEST PUSH0 PUSH32 0xFFFFFFFFFFFFFFFFFFFFFFFFFFFFFFFFFFFFFFFFFFFFFFFFFFFFFFFFFFFF0000 DUP3 AND SWAP1 POP SWAP2 SWAP1 POP JUMP JUMPDEST PUSH2 0x2CE6 DUP2 PUSH2 0x2CB2 JUMP JUMPDEST DUP3 MSTORE POP POP JUMP JUMPDEST PUSH32 0x4E487B7100000000000000000000000000000000000000000000000000000000 PUSH0 MSTORE PUSH1 0x21 PUSH1 0x4 MSTORE PUSH1 0x24 PUSH0 REVERT JUMPDEST PUSH1 0x5 DUP2 LT PUSH2 0x2D2A JUMPI PUSH2 0x2D29 PUSH2 0x2CEC JUMP JUMPDEST JUMPDEST POP JUMP JUMPDEST PUSH0 DUP2 SWAP1 POP PUSH2 0x2D3A DUP3 PUSH2 0x2D19 JUMP JUMPDEST SWAP2 SWAP1 POP JUMP JUMPDEST PUSH0 PUSH2 0x2D49 DUP3 PUSH2 0x2D2D JUMP JUMPDEST SWAP1 POP SWAP2 SWAP1 POP JUMP JUMPDEST PUSH2 0x2D59 DUP2 PUSH2 0x2D3F JUMP JUMPDEST DUP3 MSTORE POP POP JUMP JUMPDEST PUSH0 PUSH8 0xFFFFFFFFFFFFFFFF DUP3 AND SWAP1 POP SWAP2 SWAP1 POP JUMP JUMPDEST PUSH2 0x2D7B DUP2 PUSH2 0x2D5F JUMP JUMPDEST DUP3 MSTORE POP POP JUMP JUMPDEST PUSH0 PUSH4 0xFFFFFFFF DUP3 AND SWAP1 POP SWAP2 SWAP1 POP JUMP JUMPDEST PUSH2 0x2D99 DUP2 PUSH2 0x2D81 JUMP JUMPDEST DUP3 MSTORE POP POP JUMP JUMPDEST PUSH0 PUSH20 0xFFFFFFFFFFFFFFFFFFFFFFFFFFFFFFFFFFFFFFFF DUP3 AND SWAP1 POP SWAP2 SWAP1 POP JUMP JUMPDEST PUSH0 PUSH2 0x2DC8 DUP3 PUSH2 0x2D9F JUMP JUMPDEST SWAP1 POP SWAP2 SWAP1 POP JUMP JUMPDEST PUSH2 0x2DD8 DUP2 PUSH2 0x2DBE JUMP JUMPDEST DUP3 MSTORE POP POP JUMP JUMPDEST PUSH0 PUSH2 0x100 DUP3 ADD SWAP1 POP PUSH2 0x2DF2 PUSH0 DUP4 ADD DUP12 PUSH2 0x2C69 JUMP JUMPDEST PUSH2 0x2DFF PUSH1 0x20 DUP4 ADD DUP11 PUSH2 0x2CA3 JUMP JUMPDEST PUSH2 0x2E0C PUSH1 0x40 DUP4 ADD DUP10 PUSH2 0x2CDD JUMP JUMPDEST PUSH2 0x2E19 PUSH1 0x60 DUP4 ADD DUP9 PUSH2 0x2D50 JUMP JUMPDEST PUSH2 0x2E26 PUSH1 0x80 DUP4 ADD DUP8 PUSH2 0x2D72 JUMP JUMPDEST PUSH2 0x2E33 PUSH1 0xA0 DUP4 ADD DUP7 PUSH2 0x2D72 JUMP JUMPDEST PUSH2 0x2E40 PUSH1 0xC0 DUP4 ADD DUP6 PUSH2 0x2D90 JUMP JUMPDEST PUSH2 0x2E4D PUSH1 0xE0 DUP4 ADD DUP5 PUSH2 0x2DCF JUMP JUMPDEST SWAP10 SWAP9 POP POP POP POP POP POP POP POP POP JUMP JUMPDEST PUSH0 DUP2 ISZERO ISZERO SWAP1 POP SWAP2 SWAP1 POP JUMP JUMPDEST PUSH2 0x2E6E DUP2 PUSH2 0x2E5A JUMP JUMPDEST DUP2 EQ PUSH2 0x2E78 JUMPI PUSH0 DUP1 REVERT JUMPDEST POP JUMP JUMPDEST PUSH0 DUP2 CALLDATALOAD SWAP1 POP PUSH2 0x2E89 DUP2 PUSH2 0x2E65 JUMP JUMPDEST SWAP3 SWAP2 POP POP JUMP JUMPDEST PUSH0 PUSH1 0x20 DUP3 DUP5 SUB SLT ISZERO PUSH2 0x2EA4 JUMPI PUSH2 0x2EA3 PUSH2 0x2A33 JUMP JUMPDEST JUMPDEST PUSH0 PUSH2 0x2EB1 DUP5 DUP3 DUP6 ADD PUSH2 0x2E7B JUMP JUMPDEST SWAP2 POP POP SWAP3 SWAP2 POP POP JUMP JUMPDEST PUSH0 DUP2 MLOAD SWAP1 POP SWAP2 SWAP1 POP JUMP JUMPDEST PUSH0 DUP3 DUP3 MSTORE PUSH1 0x20 DUP3 ADD SWAP1 POP SWAP3 SWAP2 POP POP JUMP JUMPDEST PUSH0 DUP2 SWAP1 POP PUSH1 0x20 DUP3 ADD SWAP1 POP SWAP2 SWAP1 POP JUMP JUMPDEST PUSH2 0x2EEC DUP2 PUSH2 0x2C5C JUMP JUMPDEST DUP3 MSTORE POP POP JUMP JUMPDEST PUSH2 0x2EFB DUP2 PUSH2 0x2C78 JUMP JUMPDEST DUP3 MSTORE POP POP JUMP JUMPDEST PUSH2 0x2F0A DUP2 PUSH2 0x2CB2 JUMP JUMPDEST DUP3 MSTORE POP POP JUMP JUMPDEST PUSH2 0x2F19 DUP2 PUSH2 0x2D3F JUMP JUMPDEST DUP3 MSTORE POP POP JUMP JUMPDEST PUSH2 0x2F28 DUP2 PUSH2 0x2D5F JUMP JUMPDEST DUP3 MSTORE POP POP JUMP JUMPDEST PUSH2 0x2F37 DUP2 PUSH2 0x2D81 JUMP JUMPDEST DUP3 MSTORE POP POP JUMP JUMPDEST PUSH1 0xE0 DUP3 ADD PUSH0 DUP3 ADD MLOAD PUSH2 0x2F51 PUSH0 DUP6 ADD DUP3 PUSH2 0x2EE3 JUMP JUMPDEST POP PUSH1 0x20 DUP3 ADD MLOAD PUSH2 0x2F64 PUSH1 0x20 DUP6 ADD DUP3 PUSH2 0x2EF2 JUMP JUMPDEST POP PUSH1 0x40 DUP3 ADD MLOAD PUSH2 0x2F77 PUSH1 0x40 DUP6 ADD DUP3 PUSH2 0x2F01 JUMP JUMPDEST POP PUSH1 0x60 DUP3 ADD MLOAD PUSH2 0x2F8A PUSH1 0x60 DUP6 ADD DUP3 PUSH2 0x2F10 JUMP JUMPDEST POP PUSH1 0x80 DUP3 ADD MLOAD PUSH2 0x2F9D PUSH1 0x80 DUP6 ADD DUP3 PUSH2 0x2F1F JUMP JUMPDEST POP PUSH1 0xA0 DUP3 ADD MLOAD PUSH2 0x2FB0 PUSH1 0xA0 DUP6 ADD DUP3 PUSH2 0x2F1F JUMP JUMPDEST POP PUSH1 0xC0 DUP3 ADD MLOAD PUSH2 0x2FC3 PUSH1 0xC0 DUP6 ADD DUP3 PUSH2 0x2F2E JUMP JUMPDEST POP POP POP POP JUMP JUMPDEST PUSH0 PUSH2 0x2FD4 DUP4 DUP4 PUSH2 0x2F3D JUMP JUMPDEST PUSH1 0xE0 DUP4 ADD SWAP1 POP SWAP3 SWAP2 POP POP JUMP JUMPDEST PUSH0 PUSH1 0x20 DUP3 ADD SWAP1 POP SWAP2 SWAP1 POP JUMP JUMPDEST PUSH0 PUSH2 0x2FF6 DUP3 PUSH2 0x2EBA JUMP JUMPDEST PUSH2 0x3000 DUP2 DUP6 PUSH2 0x2EC4 JUMP JUMPDEST SWAP4 POP PUSH2 0x300B DUP4 PUSH2 0x2ED4 JUMP JUMPDEST DUP1 PUSH0 JUMPDEST DUP4 DUP2 LT ISZERO PUSH2 0x303B JUMPI DUP2 MLOAD PUSH2 0x3022 DUP9 DUP3 PUSH2 0x2FC9 JUMP JUMPDEST SWAP8 POP PUSH2 0x302D DUP4 PUSH2 0x2FE0 JUMP JUMPDEST SWAP3 POP POP PUSH1 0x1 DUP2 ADD SWAP1 POP PUSH2 0x300E JUMP JUMPDEST POP DUP6 SWAP4 POP POP POP POP SWAP3 SWAP2 POP POP JUMP JUMPDEST PUSH0 PUSH1 0x20 DUP3 ADD SWAP1 POP DUP2 DUP2 SUB PUSH0 DUP4 ADD MSTORE PUSH2 0x3060 DUP2 DUP5 PUSH2 0x2FEC JUMP JUMPDEST SWAP1 POP SWAP3 SWAP2 POP POP JUMP JUMPDEST PUSH0 DUP2 MLOAD SWAP1 POP SWAP2 SWAP1 POP JUMP JUMPDEST PUSH0 DUP3 DUP3 MSTORE PUSH1 0x20 DUP3 ADD SWAP1 POP SWAP3 SWAP2 POP POP JUMP JUMPDEST PUSH0 DUP2 SWAP1 POP PUSH1 0x20 DUP3 ADD SWAP1 POP SWAP2 SWAP1 POP JUMP JUMPDEST PUSH1 0x40 DUP3 ADD PUSH0 DUP3 ADD MLOAD PUSH2 0x30A5 PUSH0 DUP6 ADD DUP3 PUSH2 0x2EE3 JUMP JUMPDEST POP PUSH1 0x20 DUP3 ADD MLOAD PUSH2 0x30B8 PUSH1 0x20 DUP6 ADD DUP3 PUSH2 0x2EF2 JUMP JUMPDEST POP POP POP POP JUMP JUMPDEST PUSH0 PUSH2 0x30C9 DUP4 DUP4 PUSH2 0x3091 JUMP JUMPDEST PUSH1 0x40 DUP4 ADD SWAP1 POP SWAP3 SWAP2 POP POP JUMP JUMPDEST PUSH0 PUSH1 0x20 DUP3 ADD SWAP1 POP SWAP2 SWAP1 POP JUMP JUMPDEST PUSH0 PUSH2 0x30EB DUP3 PUSH2 0x3068 JUMP JUMPDEST PUSH2 0x30F5 DUP2 DUP6 PUSH2 0x3072 JUMP JUMPDEST SWAP4 POP PUSH2 0x3100 DUP4 PUSH2 0x3082 JUMP JUMPDEST DUP1 PUSH0 JUMPDEST DUP4 DUP2 LT ISZERO PUSH2 0x3130 JUMPI DUP2 MLOAD PUSH2 0x3117 DUP9 DUP3 PUSH2 0x30BE JUMP JUMPDEST SWAP8 POP PUSH2 0x3122 DUP4 PUSH2 0x30D5 JUMP JUMPDEST SWAP3 POP POP PUSH1 0x1 DUP2 ADD SWAP1 POP PUSH2 0x3103 JUMP JUMPDEST POP DUP6 SWAP4 POP POP POP POP SWAP3 SWAP2 POP POP JUMP JUMPDEST PUSH0 PUSH1 0x20 DUP3 ADD SWAP1 POP DUP2 DUP2 SUB PUSH0 DUP4 ADD MSTORE PUSH2 0x3155 DUP2 DUP5 PUSH2 0x30E1 JUMP JUMPDEST SWAP1 POP SWAP3 SWAP2 POP POP JUMP JUMPDEST PUSH0 PUSH1 0x60 DUP3 ADD SWAP1 POP PUSH2 0x3170 PUSH0 DUP4 ADD DUP7 PUSH2 0x2CA3 JUMP JUMPDEST PUSH2 0x317D PUSH1 0x20 DUP4 ADD DUP6 PUSH2 0x2DCF JUMP JUMPDEST PUSH2 0x318A PUSH1 0x40 DUP4 ADD DUP5 PUSH2 0x2CA3 JUMP JUMPDEST SWAP5 SWAP4 POP POP POP POP JUMP JUMPDEST PUSH2 0x319B DUP2 PUSH2 0x2C5C JUMP JUMPDEST DUP2 EQ PUSH2 0x31A5 JUMPI PUSH0 DUP1 REVERT JUMPDEST POP JUMP JUMPDEST PUSH0 DUP2 CALLDATALOAD SWAP1 POP PUSH2 0x31B6 DUP2 PUSH2 0x3192 JUMP JUMPDEST SWAP3 SWAP2 POP POP JUMP JUMPDEST PUSH2 0x31C5 DUP2 PUSH2 0x2D5F JUMP JUMPDEST DUP2 EQ PUSH2 0x31CF JUMPI PUSH0 DUP1 REVERT JUMPDEST POP JUMP JUMPDEST PUSH0 DUP2 CALLDATALOAD SWAP1 POP PUSH2 0x31E0 DUP2 PUSH2 0x31BC JUMP JUMPDEST SWAP3 SWAP2 POP POP JUMP JUMPDEST PUSH0 DUP1 PUSH1 0x40 DUP4 DUP6 SUB SLT ISZERO PUSH2 0x31FC JUMPI PUSH2 0x31FB PUSH2 0x2A33 JUMP JUMPDEST JUMPDEST PUSH0 PUSH2 0x3209 DUP6 DUP3 DUP7 ADD PUSH2 0x31A8 JUMP JUMPDEST SWAP3 POP POP PUSH1 0x20 PUSH2 0x321A DUP6 DUP3 DUP7 ADD PUSH2 0x31D2 JUMP JUMPDEST SWAP2 POP POP SWAP3 POP SWAP3 SWAP1 POP JUMP JUMPDEST PUSH0 DUP2 MLOAD SWAP1 POP SWAP2 SWAP1 POP JUMP JUMPDEST PUSH0 DUP3 DUP3 MSTORE PUSH1 0x20 DUP3 ADD SWAP1 POP SWAP3 SWAP2 POP POP JUMP JUMPDEST PUSH0 DUP2 SWAP1 POP PUSH1 0x20 DUP3 ADD SWAP1 POP SWAP2 SWAP1 POP JUMP JUMPDEST PUSH0 PUSH2 0x3257 DUP3 PUSH2 0x2D9F JUMP JUMPDEST SWAP1 POP SWAP2 SWAP1 POP JUMP JUMPDEST PUSH2 0x3267 DUP2 PUSH2 0x324D JUMP JUMPDEST DUP3 MSTORE POP POP JUMP JUMPDEST PUSH1 0x60 DUP3 ADD PUSH0 DUP3 ADD MLOAD PUSH2 0x3281 PUSH0 DUP6 ADD DUP3 PUSH2 0x2EE3 JUMP JUMPDEST POP PUSH1 0x20 DUP3 ADD MLOAD PUSH2 0x3294 PUSH1 0x20 DUP6 ADD DUP3 PUSH2 0x2EF2 JUMP JUMPDEST POP PUSH1 0x40 DUP3 ADD MLOAD PUSH2 0x32A7 PUSH1 0x40 DUP6 ADD DUP3 PUSH2 0x325E JUMP JUMPDEST POP POP POP POP JUMP JUMPDEST PUSH0 PUSH2 0x32B8 DUP4 DUP4 PUSH2 0x326D JUMP JUMPDEST PUSH1 0x60 DUP4 ADD SWAP1 POP SWAP3 SWAP2 POP POP JUMP JUMPDEST PUSH0 PUSH1 0x20 DUP3 ADD SWAP1 POP SWAP2 SWAP1 POP JUMP JUMPDEST PUSH0 PUSH2 0x32DA DUP3 PUSH2 0x3224 JUMP JUMPDEST PUSH2 0x32E4 DUP2 DUP6 PUSH2 0x322E JUMP JUMPDEST SWAP4 POP PUSH2 0x32EF DUP4 PUSH2 0x323E JUMP JUMPDEST DUP1 PUSH0 JUMPDEST DUP4 DUP2 LT ISZERO PUSH2 0x331F JUMPI DUP2 MLOAD PUSH2 0x3306 DUP9 DUP3 PUSH2 0x32AD JUMP JUMPDEST SWAP8 POP PUSH2 0x3311 DUP4 PUSH2 0x32C4 JUMP JUMPDEST SWAP3 POP POP PUSH1 0x1 DUP2 ADD SWAP1 POP PUSH2 0x32F2 JUMP JUMPDEST POP DUP6 SWAP4 POP POP POP POP SWAP3 SWAP2 POP POP JUMP JUMPDEST PUSH0 PUSH1 0x20 DUP3 ADD SWAP1 POP DUP2 DUP2 SUB PUSH0 DUP4 ADD MSTORE PUSH2 0x3344 DUP2 DUP5 PUSH2 0x32D0 JUMP JUMPDEST SWAP1 POP SWAP3 SWAP2 POP POP JUMP JUMPDEST PUSH2 0x3355 DUP2 PUSH2 0x2D81 JUMP JUMPDEST DUP2 EQ PUSH2 0x335F JUMPI PUSH0 DUP1 REVERT JUMPDEST POP JUMP JUMPDEST PUSH0 DUP2 CALLDATALOAD SWAP1 POP PUSH2 0x3370 DUP2 PUSH2 0x334C JUMP JUMPDEST SWAP3 SWAP2 POP POP JUMP JUMPDEST PUSH0 DUP1 DUP4 PUSH1 0x1F DUP5 ADD SLT PUSH2 0x338B JUMPI PUSH2 0x338A PUSH2 0x2A3B JUMP JUMPDEST JUMPDEST DUP3 CALLDATALOAD SWAP1 POP PUSH8 0xFFFFFFFFFFFFFFFF DUP2 GT ISZERO PUSH2 0x33A8 JUMPI PUSH2 0x33A7 PUSH2 0x2A3F JUMP JUMPDEST JUMPDEST PUSH1 0x20 DUP4 ADD SWAP2 POP DUP4 PUSH1 0x20 DUP3 MUL DUP4 ADD GT ISZERO PUSH2 0x33C4 JUMPI PUSH2 0x33C3 PUSH2 0x2A43 JUMP JUMPDEST JUMPDEST SWAP3 POP SWAP3 SWAP1 POP JUMP JUMPDEST PUSH0 DUP1 PUSH0 DUP1 PUSH0 DUP1 PUSH0 DUP1 PUSH0 DUP1 PUSH0 PUSH1 0xE0 DUP13 DUP15 SUB SLT ISZERO PUSH2 0x33EA JUMPI PUSH2 0x33E9 PUSH2 0x2A33 JUMP JUMPDEST JUMPDEST PUSH0 DUP13 ADD CALLDATALOAD PUSH8 0xFFFFFFFFFFFFFFFF DUP2 GT ISZERO PUSH2 0x3407 JUMPI PUSH2 0x3406 PUSH2 0x2A37 JUMP JUMPDEST JUMPDEST PUSH2 0x3413 DUP15 DUP3 DUP16 ADD PUSH2 0x2A47 JUMP JUMPDEST SWAP12 POP SWAP12 POP POP PUSH1 0x20 DUP13 ADD CALLDATALOAD PUSH8 0xFFFFFFFFFFFFFFFF DUP2 GT ISZERO PUSH2 0x3436 JUMPI PUSH2 0x3435 PUSH2 0x2A37 JUMP JUMPDEST JUMPDEST PUSH2 0x3442 DUP15 DUP3 DUP16 ADD PUSH2 0x2A47 JUMP JUMPDEST SWAP10 POP SWAP10 POP POP PUSH1 0x40 PUSH2 0x3455 DUP15 DUP3 DUP16 ADD PUSH2 0x31D2 JUMP JUMPDEST SWAP8 POP POP PUSH1 0x60 PUSH2 0x3466 DUP15 DUP3 DUP16 ADD PUSH2 0x31D2 JUMP JUMPDEST SWAP7 POP POP PUSH1 0x80 PUSH2 0x3477 DUP15 DUP3 DUP16 ADD PUSH2 0x3362 JUMP JUMPDEST SWAP6 POP POP PUSH1 0xA0 DUP13 ADD CALLDATALOAD PUSH8 0xFFFFFFFFFFFFFFFF DUP2 GT ISZERO PUSH2 0x3498 JUMPI PUSH2 0x3497 PUSH2 0x2A37 JUMP JUMPDEST JUMPDEST PUSH2 0x34A4 DUP15 DUP3 DUP16 ADD PUSH2 0x3376 JUMP JUMPDEST SWAP5 POP SWAP5 POP POP PUSH1 0xC0 DUP13 ADD CALLDATALOAD PUSH8 0xFFFFFFFFFFFFFFFF DUP2 GT ISZERO PUSH2 0x34C7 JUMPI PUSH2 0x34C6 PUSH2 0x2A37 JUMP JUMPDEST JUMPDEST PUSH2 0x34D3 DUP15 DUP3 DUP16 ADD PUSH2 0x3376 JUMP JUMPDEST SWAP3 POP SWAP3 POP POP SWAP3 SWAP6 SWAP9 SWAP12 POP SWAP3 SWAP6 SWAP9 SWAP12 SWAP1 SWAP4 SWAP7 SWAP10 POP JUMP JUMPDEST PUSH1 0x4 DUP2 LT PUSH2 0x34F9 JUMPI PUSH2 0x34F8 PUSH2 0x2CEC JUMP JUMPDEST JUMPDEST POP JUMP JUMPDEST PUSH0 DUP2 SWAP1 POP PUSH2 0x3509 DUP3 PUSH2 0x34E8 JUMP JUMPDEST SWAP2 SWAP1 POP JUMP JUMPDEST PUSH0 PUSH2 0x3518 DUP3 PUSH2 0x34FC JUMP JUMPDEST SWAP1 POP SWAP2 SWAP1 POP JUMP JUMPDEST PUSH2 0x3528 DUP2 PUSH2 0x350E JUMP JUMPDEST DUP3 MSTORE POP POP JUMP JUMPDEST PUSH0 PUSH1 0x20 DUP3 ADD SWAP1 POP PUSH2 0x3541 PUSH0 DUP4 ADD DUP5 PUSH2 0x351F JUMP JUMPDEST SWAP3 SWAP2 POP POP JUMP JUMPDEST PUSH0 PUSH1 0x80 DUP3 ADD SWAP1 POP PUSH2 0x355A PUSH0 DUP4 ADD DUP8 PUSH2 0x2CA3 JUMP JUMPDEST PUSH2 0x3567 PUSH1 0x20 DUP4 ADD DUP7 PUSH2 0x2DCF JUMP JUMPDEST PUSH2 0x3574 PUSH1 0x40 DUP4 ADD DUP6 PUSH2 0x2CA3 JUMP JUMPDEST PUSH2 0x3581 PUSH1 0x60 DUP4 ADD DUP5 PUSH2 0x2CA3 JUMP JUMPDEST SWAP6 SWAP5 POP POP POP POP POP JUMP JUMPDEST PUSH0 PUSH1 0x20 DUP3 DUP5 SUB SLT ISZERO PUSH2 0x359F JUMPI PUSH2 0x359E PUSH2 0x2A33 JUMP JUMPDEST JUMPDEST PUSH0 PUSH2 0x35AC DUP5 DUP3 DUP6 ADD PUSH2 0x31A8 JUMP JUMPDEST SWAP2 POP POP SWAP3 SWAP2 POP POP JUMP JUMPDEST PUSH0 DUP1 PUSH1 0x40 DUP4 DUP6 SUB SLT ISZERO PUSH2 0x35CB JUMPI PUSH2 0x35CA PUSH2 0x2A33 JUMP JUMPDEST JUMPDEST PUSH0 PUSH2 0x35D8 DUP6 DUP3 DUP7 ADD PUSH2 0x2C1D JUMP JUMPDEST SWAP3 POP POP PUSH1 0x20 PUSH2 0x35E9 DUP6 DUP3 DUP7 ADD PUSH2 0x2E7B JUMP JUMPDEST SWAP2 POP POP SWAP3 POP SWAP3 SWAP1 POP JUMP JUMPDEST PUSH0 DUP3 DUP3 MSTORE PUSH1 0x20 DUP3 ADD SWAP1 POP SWAP3 SWAP2 POP POP JUMP JUMPDEST PUSH32 0x34203A207573657220616C726561647920657869737473000000000000000000 PUSH0 DUP3 ADD MSTORE POP JUMP JUMPDEST PUSH0 PUSH2 0x3637 PUSH1 0x17 DUP4 PUSH2 0x35F3 JUMP JUMPDEST SWAP2 POP PUSH2 0x3642 DUP3 PUSH2 0x3603 JUMP JUMPDEST PUSH1 0x20 DUP3 ADD SWAP1 POP SWAP2 SWAP1 POP JUMP JUMPDEST PUSH0 PUSH1 0x20 DUP3 ADD SWAP1 POP DUP2 DUP2 SUB PUSH0 DUP4 ADD MSTORE PUSH2 0x3664 DUP2 PUSH2 0x362B JUMP JUMPDEST SWAP1 POP SWAP2 SWAP1 POP JUMP JUMPDEST PUSH32 0x35203A206D617820636170616369747920726561636865640000000000000000 PUSH0 DUP3 ADD MSTORE POP JUMP JUMPDEST PUSH0 PUSH2 0x369F PUSH1 0x18 DUP4 PUSH2 0x35F3 JUMP JUMPDEST SWAP2 POP PUSH2 0x36AA DUP3 PUSH2 0x366B JUMP JUMPDEST PUSH1 0x20 DUP3 ADD SWAP1 POP SWAP2 SWAP1 POP JUMP JUMPDEST PUSH0 PUSH1 0x20 DUP3 ADD SWAP1 POP DUP2 DUP2 SUB PUSH0 DUP4 ADD MSTORE PUSH2 0x36CC DUP2 PUSH2 0x3693 JUMP JUMPDEST SWAP1 POP SWAP2 SWAP1 POP JUMP JUMPDEST PUSH0 DUP3 SWAP1 POP SWAP3 SWAP2 POP POP JUMP JUMPDEST PUSH0 DUP3 DUP3 SHL SWAP1 POP SWAP3 SWAP2 POP POP JUMP JUMPDEST PUSH0 PUSH2 0x36F4 DUP4 DUP4 PUSH2 0x36D3 JUMP JUMPDEST DUP3 PUSH2 0x36FF DUP2 CALLDATALOAD PUSH2 0x2C78 JUMP JUMPDEST SWAP3 POP PUSH1 0x14 DUP3 LT ISZERO PUSH2 0x373F JUMPI PUSH2 0x373A PUSH32 0xFFFFFFFFFFFFFFFFFFFFFFFFFFFFFFFFFFFFFFFF000000000000000000000000 DUP4 PUSH1 0x14 SUB PUSH1 0x8 MUL PUSH2 0x36DD JUMP JUMPDEST DUP4 AND SWAP3 POP JUMPDEST POP POP SWAP3 SWAP2 POP POP JUMP JUMPDEST PUSH32 0x4E487B7100000000000000000000000000000000000000000000000000000000 PUSH0 MSTORE PUSH1 0x41 PUSH1 0x4 MSTORE PUSH1 0x24 PUSH0 REVERT JUMPDEST PUSH32 0x4E487B7100000000000000000000000000000000000000000000000000000000 PUSH0 MSTORE PUSH1 0x32 PUSH1 0x4 MSTORE PUSH1 0x24 PUSH0 REVERT JUMPDEST PUSH32 0x4E487B7100000000000000000000000000000000000000000000000000000000 PUSH0 MSTORE PUSH1 0x11 PUSH1 0x4 MSTORE PUSH1 0x24 PUSH0 REVERT JUMPDEST PUSH0 PUSH2 0x37D8 DUP3 PUSH2 0x2C5C JUMP JUMPDEST SWAP2 POP PUSH2 0xFFFF DUP3 SUB PUSH2 0x37EC JUMPI PUSH2 0x37EB PUSH2 0x37A1 JUMP JUMPDEST JUMPDEST PUSH1 0x1 DUP3 ADD SWAP1 POP SWAP2 SWAP1 POP JUMP JUMPDEST PUSH0 PUSH2 0x3801 DUP3 PUSH2 0x2C5C JUMP JUMPDEST SWAP2 POP PUSH2 0x380C DUP4 PUSH2 0x2C5C JUMP JUMPDEST SWAP3 POP DUP3 DUP3 SUB SWAP1 POP PUSH2 0xFFFF DUP2 GT ISZERO PUSH2 0x3826 JUMPI PUSH2 0x3825 PUSH2 0x37A1 JUMP JUMPDEST JUMPDEST SWAP3 SWAP2 POP POP JUMP JUMPDEST PUSH0 PUSH2 0x3836 DUP3 PUSH2 0x2C5C JUMP JUMPDEST SWAP2 POP PUSH2 0x3841 DUP4 PUSH2 0x2C5C JUMP JUMPDEST SWAP3 POP DUP3 DUP3 ADD SWAP1 POP PUSH2 0xFFFF DUP2 GT ISZERO PUSH2 0x385B JUMPI PUSH2 0x385A PUSH2 0x37A1 JUMP JUMPDEST JUMPDEST SWAP3 SWAP2 POP POP JUMP JUMPDEST PUSH32 0x34203A20696E76616C6964207573657200000000000000000000000000000000 PUSH0 DUP3 ADD MSTORE POP JUMP JUMPDEST PUSH0 PUSH2 0x3895 PUSH1 0x10 DUP4 PUSH2 0x35F3 JUMP JUMPDEST SWAP2 POP PUSH2 0x38A0 DUP3 PUSH2 0x3861 JUMP JUMPDEST PUSH1 0x20 DUP3 ADD SWAP1 POP SWAP2 SWAP1 POP JUMP JUMPDEST PUSH0 PUSH1 0x20 DUP3 ADD SWAP1 POP DUP2 DUP2 SUB PUSH0 DUP4 ADD MSTORE PUSH2 0x38C2 DUP2 PUSH2 0x3889 JUMP JUMPDEST SWAP1 POP SWAP2 SWAP1 POP JUMP JUMPDEST PUSH32 0x35203A2070726F6A656374206973206E6F7420617070726F7665640000000000 PUSH0 DUP3 ADD MSTORE POP JUMP JUMPDEST PUSH0 PUSH2 0x38FD PUSH1 0x1B DUP4 PUSH2 0x35F3 JUMP JUMPDEST SWAP2 POP PUSH2 0x3908 DUP3 PUSH2 0x38C9 JUMP JUMPDEST PUSH1 0x20 DUP3 ADD SWAP1 POP SWAP2 SWAP1 POP JUMP JUMPDEST PUSH0 PUSH1 0x20 DUP3 ADD SWAP1 POP DUP2 DUP2 SUB PUSH0 DUP4 ADD MSTORE PUSH2 0x392A DUP2 PUSH2 0x38F1 JUMP JUMPDEST SWAP1 POP SWAP2 SWAP1 POP JUMP JUMPDEST PUSH32 0x35203A20696E76616C696420656E642064617465000000000000000000000000 PUSH0 DUP3 ADD MSTORE POP JUMP JUMPDEST PUSH0 PUSH2 0x3965 PUSH1 0x14 DUP4 PUSH2 0x35F3 JUMP JUMPDEST SWAP2 POP PUSH2 0x3970 DUP3 PUSH2 0x3931 JUMP JUMPDEST PUSH1 0x20 DUP3 ADD SWAP1 POP SWAP2 SWAP1 POP JUMP JUMPDEST PUSH0 PUSH1 0x20 DUP3 ADD SWAP1 POP DUP2 DUP2 SUB PUSH0 DUP4 ADD MSTORE PUSH2 0x3992 DUP2 PUSH2 0x3959 JUMP JUMPDEST SWAP1 POP SWAP2 SWAP1 POP JUMP JUMPDEST PUSH32 0x34203A20496E76616C6964207573657200000000000000000000000000000000 PUSH0 DUP3 ADD MSTORE POP JUMP JUMPDEST PUSH0 PUSH2 0x39CD PUSH1 0x10 DUP4 PUSH2 0x35F3 JUMP JUMPDEST SWAP2 POP PUSH2 0x39D8 DUP3 PUSH2 0x3999 JUMP JUMPDEST PUSH1 0x20 DUP3 ADD SWAP1 POP SWAP2 SWAP1 POP JUMP JUMPDEST PUSH0 PUSH1 0x20 DUP3 ADD SWAP1 POP DUP2 DUP2 SUB PUSH0 DUP4 ADD MSTORE PUSH2 0x39FA DUP2 PUSH2 0x39C1 JUMP JUMPDEST SWAP1 POP SWAP2 SWAP1 POP JUMP JUMPDEST PUSH32 0x37203A20696E76616C6964206461746573000000000000000000000000000000 PUSH0 DUP3 ADD MSTORE POP JUMP JUMPDEST PUSH0 PUSH2 0x3A35 PUSH1 0x11 DUP4 PUSH2 0x35F3 JUMP JUMPDEST SWAP2 POP PUSH2 0x3A40 DUP3 PUSH2 0x3A01 JUMP JUMPDEST PUSH1 0x20 DUP3 ADD SWAP1 POP SWAP2 SWAP1 POP JUMP JUMPDEST PUSH0 PUSH1 0x20 DUP3 ADD SWAP1 POP DUP2 DUP2 SUB PUSH0 DUP4 ADD MSTORE PUSH2 0x3A62 DUP2 PUSH2 0x3A29 JUMP JUMPDEST SWAP1 POP SWAP2 SWAP1 POP JUMP JUMPDEST PUSH32 0x35203A206D6178206E756D626572206F662070726F6A65637473207265616368 PUSH0 DUP3 ADD MSTORE PUSH32 0x6564000000000000000000000000000000000000000000000000000000000000 PUSH1 0x20 DUP3 ADD MSTORE POP JUMP JUMPDEST PUSH0 PUSH2 0x3AC3 PUSH1 0x22 DUP4 PUSH2 0x35F3 JUMP JUMPDEST SWAP2 POP PUSH2 0x3ACE DUP3 PUSH2 0x3A69 JUMP JUMPDEST PUSH1 0x40 DUP3 ADD SWAP1 POP SWAP2 SWAP1 POP JUMP JUMPDEST PUSH0 PUSH1 0x20 DUP3 ADD SWAP1 POP DUP2 DUP2 SUB PUSH0 DUP4 ADD MSTORE PUSH2 0x3AF0 DUP2 PUSH2 0x3AB7 JUMP JUMPDEST SWAP1 POP SWAP2 SWAP1 POP JUMP JUMPDEST PUSH32 0x35203A20646F6573206E6F74207361746973667920737461666620616E642066 PUSH0 DUP3 ADD MSTORE PUSH32 0x6163756C747920726571756972656D656E740000000000000000000000000000 PUSH1 0x20 DUP3 ADD MSTORE POP JUMP JUMPDEST PUSH0 PUSH2 0x3B51 PUSH1 0x32 DUP4 PUSH2 0x35F3 JUMP JUMPDEST SWAP2 POP PUSH2 0x3B5C DUP3 PUSH2 0x3AF7 JUMP JUMPDEST PUSH1 0x40 DUP3 ADD SWAP1 POP SWAP2 SWAP1 POP JUMP JUMPDEST PUSH0 PUSH1 0x20 DUP3 ADD SWAP1 POP DUP2 DUP2 SUB PUSH0 DUP4 ADD MSTORE PUSH2 0x3B7E DUP2 PUSH2 0x3B45 JUMP JUMPDEST SWAP1 POP SWAP2 SWAP1 POP JUMP JUMPDEST PUSH32 0x36203A204E6F2069642065786973747300000000000000000000000000000000 PUSH0 DUP3 ADD MSTORE POP JUMP JUMPDEST PUSH0 PUSH2 0x3BB9 PUSH1 0x10 DUP4 PUSH2 0x35F3 JUMP JUMPDEST SWAP2 POP PUSH2 0x3BC4 DUP3 PUSH2 0x3B85 JUMP JUMPDEST PUSH1 0x20 DUP3 ADD SWAP1 POP SWAP2 SWAP1 POP JUMP JUMPDEST PUSH0 PUSH1 0x20 DUP3 ADD SWAP1 POP DUP2 DUP2 SUB PUSH0 DUP4 ADD MSTORE PUSH2 0x3BE6 DUP2 PUSH2 0x3BAD JUMP JUMPDEST SWAP1 POP SWAP2 SWAP1 POP JUMP JUMPDEST PUSH0 PUSH2 0x3BF7 DUP3 PUSH2 0x2BFE JUMP JUMPDEST SWAP2 POP PUSH2 0x3C02 DUP4 PUSH2 0x2BFE JUMP JUMPDEST SWAP3 POP DUP3 DUP3 ADD SWAP1 POP DUP1 DUP3 GT ISZERO PUSH2 0x3C1A JUMPI PUSH2 0x3C19 PUSH2 0x37A1 JUMP JUMPDEST JUMPDEST SWAP3 SWAP2 POP POP JUMP JUMPDEST PUSH0 PUSH2 0x3C2B DUP4 DUP4 PUSH2 0x36D3 JUMP JUMPDEST DUP3 PUSH2 0x3C36 DUP2 CALLDATALOAD PUSH2 0x2CB2 JUMP JUMPDEST SWAP3 POP PUSH1 0x1E DUP3 LT ISZERO PUSH2 0x3C76 JUMPI PUSH2 0x3C71 PUSH32 0xFFFFFFFFFFFFFFFFFFFFFFFFFFFFFFFFFFFFFFFFFFFFFFFFFFFFFFFFFFFF0000 DUP4 PUSH1 0x1E SUB PUSH1 0x8 MUL PUSH2 0x36DD JUMP JUMPDEST DUP4 AND SWAP3 POP JUMPDEST POP POP SWAP3 SWAP2 POP POP JUMP JUMPDEST PUSH0 PUSH2 0x3C88 DUP3 PUSH2 0x2BFE JUMP JUMPDEST SWAP2 POP PUSH2 0x3C93 DUP4 PUSH2 0x2BFE JUMP JUMPDEST SWAP3 POP DUP3 DUP3 SUB SWAP1 POP DUP2 DUP2 GT ISZERO PUSH2 0x3CAB JUMPI PUSH2 0x3CAA PUSH2 0x37A1 JUMP JUMPDEST JUMPDEST SWAP3 SWAP2 POP POP JUMP JUMPDEST PUSH32 0x34203A204E6F742061646D696E00000000000000000000000000000000000000 PUSH0 DUP3 ADD MSTORE POP JUMP JUMPDEST PUSH0 PUSH2 0x3CE5 PUSH1 0xD DUP4 PUSH2 0x35F3 JUMP JUMPDEST SWAP2 POP PUSH2 0x3CF0 DUP3 PUSH2 0x3CB1 JUMP JUMPDEST PUSH1 0x20 DUP3 ADD SWAP1 POP SWAP2 SWAP1 POP JUMP JUMPDEST PUSH0 PUSH1 0x20 DUP3 ADD SWAP1 POP DUP2 DUP2 SUB PUSH0 DUP4 ADD MSTORE PUSH2 0x3D12 DUP2 PUSH2 0x3CD9 JUMP JUMPDEST SWAP1 POP SWAP2 SWAP1 POP JUMP JUMPDEST PUSH32 0x34203A2050726F6A65637420696420646F6573206E6F74206578697374730000 PUSH0 DUP3 ADD MSTORE POP JUMP JUMPDEST PUSH0 PUSH2 0x3D4D PUSH1 0x1E DUP4 PUSH2 0x35F3 JUMP JUMPDEST SWAP2 POP PUSH2 0x3D58 DUP3 PUSH2 0x3D19 JUMP JUMPDEST PUSH1 0x20 DUP3 ADD SWAP1 POP SWAP2 SWAP1 POP JUMP JUMPDEST PUSH0 PUSH1 0x20 DUP3 ADD SWAP1 POP DUP2 DUP2 SUB PUSH0 DUP4 ADD MSTORE PUSH2 0x3D7A DUP2 PUSH2 0x3D41 JUMP JUMPDEST SWAP1 POP SWAP2 SWAP1 POP JUMP JUMPDEST PUSH32 0x34203A207468652070726F6A6563742069732070656E64696E67000000000000 PUSH0 DUP3 ADD MSTORE POP JUMP JUMPDEST PUSH0 PUSH2 0x3DB5 PUSH1 0x1A DUP4 PUSH2 0x35F3 JUMP JUMPDEST SWAP2 POP PUSH2 0x3DC0 DUP3 PUSH2 0x3D81 JUMP JUMPDEST PUSH1 0x20 DUP3 ADD SWAP1 POP SWAP2 SWAP1 POP JUMP JUMPDEST PUSH0 PUSH1 0x20 DUP3 ADD SWAP1 POP DUP2 DUP2 SUB PUSH0 DUP4 ADD MSTORE PUSH2 0x3DE2 DUP2 PUSH2 0x3DA9 JUMP JUMPDEST SWAP1 POP SWAP2 SWAP1 POP JUMP JUMPDEST PUSH32 0x35203A2050726F6A656374206973206E6F7420636F6D706C6574656400000000 PUSH0 DUP3 ADD MSTORE POP JUMP JUMPDEST PUSH0 PUSH2 0x3E1D PUSH1 0x1C DUP4 PUSH2 0x35F3 JUMP JUMPDEST SWAP2 POP PUSH2 0x3E28 DUP3 PUSH2 0x3DE9 JUMP JUMPDEST PUSH1 0x20 DUP3 ADD SWAP1 POP SWAP2 SWAP1 POP JUMP JUMPDEST PUSH0 PUSH1 0x20 DUP3 ADD SWAP1 POP DUP2 DUP2 SUB PUSH0 DUP4 ADD MSTORE PUSH2 0x3E4A DUP2 PUSH2 0x3E11 JUMP JUMPDEST SWAP1 POP SWAP2 SWAP1 POP JUMP JUMPDEST PUSH32 0x35203A20696E636F727265637420616D6F756E7420746F207472616E73666572 PUSH0 DUP3 ADD MSTORE POP JUMP JUMPDEST PUSH0 PUSH2 0x3E85 PUSH1 0x20 DUP4 PUSH2 0x35F3 JUMP JUMPDEST SWAP2 POP PUSH2 0x3E90 DUP3 PUSH2 0x3E51 JUMP JUMPDEST PUSH1 0x20 DUP3 ADD SWAP1 POP SWAP2 SWAP1 POP JUMP JUMPDEST PUSH0 PUSH1 0x20 DUP3 ADD SWAP1 POP DUP2 DUP2 SUB PUSH0 DUP4 ADD MSTORE PUSH2 0x3EB2 DUP2 PUSH2 0x3E79 JUMP JUMPDEST SWAP1 POP SWAP2 SWAP1 POP JUMP JUMPDEST PUSH32 0x35203A20696E73756666696369656E742062616C616E63650000000000000000 PUSH0 DUP3 ADD MSTORE POP JUMP JUMPDEST PUSH0 PUSH2 0x3EED PUSH1 0x18 DUP4 PUSH2 0x35F3 JUMP JUMPDEST SWAP2 POP PUSH2 0x3EF8 DUP3 PUSH2 0x3EB9 JUMP JUMPDEST PUSH1 0x20 DUP3 ADD SWAP1 POP SWAP2 SWAP1 POP JUMP JUMPDEST PUSH0 PUSH1 0x20 DUP3 ADD SWAP1 POP DUP2 DUP2 SUB PUSH0 DUP4 ADD MSTORE PUSH2 0x3F1A DUP2 PUSH2 0x3EE1 JUMP JUMPDEST SWAP1 POP SWAP2 SWAP1 POP JUMP JUMPDEST PUSH32 0x35203A205061796D656E74206661696C65640000000000000000000000000000 PUSH0 DUP3 ADD MSTORE POP JUMP JUMPDEST PUSH0 PUSH2 0x3F55 PUSH1 0x12 DUP4 PUSH2 0x35F3 JUMP JUMPDEST SWAP2 POP PUSH2 0x3F60 DUP3 PUSH2 0x3F21 JUMP JUMPDEST PUSH1 0x20 DUP3 ADD SWAP1 POP SWAP2 SWAP1 POP JUMP JUMPDEST PUSH0 PUSH1 0x20 DUP3 ADD SWAP1 POP DUP2 DUP2 SUB PUSH0 DUP4 ADD MSTORE PUSH2 0x3F82 DUP2 PUSH2 0x3F49 JUMP JUMPDEST SWAP1 POP SWAP2 SWAP1 POP JUMP JUMPDEST PUSH32 0x34203A20496E76616C69642075736572206F722070726F6A6563740000000000 PUSH0 DUP3 ADD MSTORE POP JUMP JUMPDEST PUSH0 PUSH2 0x3FBD PUSH1 0x1B DUP4 PUSH2 0x35F3 JUMP JUMPDEST SWAP2 POP PUSH2 0x3FC8 DUP3 PUSH2 0x3F89 JUMP JUMPDEST PUSH1 0x20 DUP3 ADD SWAP1 POP SWAP2 SWAP1 POP JUMP JUMPDEST PUSH0 PUSH1 0x20 DUP3 ADD SWAP1 POP DUP2 DUP2 SUB PUSH0 DUP4 ADD MSTORE PUSH2 0x3FEA DUP2 PUSH2 0x3FB1 JUMP JUMPDEST SWAP1 POP SWAP2 SWAP1 POP JUMP JUMPDEST PUSH32 0x35203A2070726F6A656374206973206E6F742070656E64696E67000000000000 PUSH0 DUP3 ADD MSTORE POP JUMP JUMPDEST PUSH0 PUSH2 0x4025 PUSH1 0x1A DUP4 PUSH2 0x35F3 JUMP JUMPDEST SWAP2 POP PUSH2 0x4030 DUP3 PUSH2 0x3FF1 JUMP JUMPDEST PUSH1 0x20 DUP3 ADD SWAP1 POP SWAP2 SWAP1 POP JUMP JUMPDEST PUSH0 PUSH1 0x20 DUP3 ADD SWAP1 POP DUP2 DUP2 SUB PUSH0 DUP4 ADD MSTORE PUSH2 0x4052 DUP2 PUSH2 0x4019 JUMP JUMPDEST SWAP1 POP SWAP2 SWAP1 POP JUMP INVALID LOG2 PUSH5 0x6970667358 0x22 SLT KECCAK256 0xCB DUP12 0xD7 MCOPY 0x4E PUSH21 0xCF5C56B09725EE5409DAA58920BE0B3CADA97C1587 CALLER CREATE PUSH11 0x13A664736F6C6343000819 STOP CALLER "
		},
		"gasEstimates": {
			"creation": {
				"codeDepositCost": "3305400",
				"executionCost": "76546",
				"totalCost": "3381946"
			},
			"external": {
				"addProject(string,string,uint64,uint64,uint32,uint16[],uint16[])": "infinite",
				"approveProject(uint256,bool)": "infinite",
				"faculties(uint256)": "infinite",
				"getAllFaculties()": "infinite",
				"getAllProjectStaffs()": "infinite",
				"getAllProjects(bool)": "infinite",
				"getExtendedPeriod(uint16,uint64)": "infinite",
				"login()": "7179",
				"projectStaffs(uint256)": "infinite",
				"projects(uint256)": "infinite",
				"registerFaculty(string,string,string)": "infinite",
				"registerProjectStaff(string,string)": "infinite",
				"salaryTransfer(uint16)": "infinite"
			}
		},
		"methodIdentifiers": {
			"addProject(string,string,uint64,uint64,uint32,uint16[],uint16[])": "9d98f1c6",
			"approveProject(uint256,bool)": "cecccf7c",
			"faculties(uint256)": "ca26e03a",
			"getAllFaculties()": "70330e07",
			"getAllProjectStaffs()": "9c17d712",
			"getAllProjects(bool)": "4208066e",
			"getExtendedPeriod(uint16,uint64)": "8ac52d7f",
			"login()": "b34e97e8",
			"projectStaffs(uint256)": "873a4ad6",
			"projects(uint256)": "107046bd",
			"registerFaculty(string,string,string)": "0635950f",
			"registerProjectStaff(string,string)": "082e0894",
			"salaryTransfer(uint16)": "ca91da62"
		}
	},
	"abi": [
		{
			"inputs": [],
			"stateMutability": "payable",
			"type": "constructor"
		},
		{
			"inputs": [
				{
					"internalType": "string",
					"name": "_title",
					"type": "string"
				},
				{
					"internalType": "string",
					"name": "_description",
					"type": "string"
				},
				{
					"internalType": "uint64",
					"name": "_startDate",
					"type": "uint64"
				},
				{
					"internalType": "uint64",
					"name": "_endDate",
					"type": "uint64"
				},
				{
					"internalType": "uint32",
					"name": "_salary",
					"type": "uint32"
				},
				{
					"internalType": "uint16[]",
					"name": "_projectStaffIds",
					"type": "uint16[]"
				},
				{
					"internalType": "uint16[]",
					"name": "_facultyIds",
					"type": "uint16[]"
				}
			],
			"name": "addProject",
			"outputs": [
				{
					"internalType": "uint8",
					"name": "",
					"type": "uint8"
				}
			],
			"stateMutability": "nonpayable",
			"type": "function"
		},
		{
			"inputs": [
				{
					"internalType": "uint256",
					"name": "_projectId",
					"type": "uint256"
				},
				{
					"internalType": "bool",
					"name": "_approval",
					"type": "bool"
				}
			],
			"name": "approveProject",
			"outputs": [
				{
					"internalType": "uint8",
					"name": "",
					"type": "uint8"
				}
			],
			"stateMutability": "nonpayable",
			"type": "function"
		},
		{
			"inputs": [
				{
					"internalType": "uint256",
					"name": "",
					"type": "uint256"
				}
			],
			"name": "faculties",
			"outputs": [
				{
					"internalType": "bytes20",
					"name": "name",
					"type": "bytes20"
				},
				{
					"internalType": "address payable",
					"name": "facultyAddress",
					"type": "address"
				},
				{
					"internalType": "bytes20",
					"name": "department",
					"type": "bytes20"
				},
				{
					"internalType": "bytes20",
					"name": "email",
					"type": "bytes20"
				}
			],
			"stateMutability": "view",
			"type": "function"
		},
		{
			"inputs": [],
			"name": "getAllFaculties",
			"outputs": [
				{
					"components": [
						{
							"internalType": "uint16",
							"name": "id",
							"type": "uint16"
						},
						{
							"internalType": "bytes20",
							"name": "name",
							"type": "bytes20"
						}
					],
					"internalType": "struct projectStaffContractIITM.ShowFaculty[]",
					"name": "",
					"type": "tuple[]"
				}
			],
			"stateMutability": "view",
			"type": "function"
		},
		{
			"inputs": [],
			"name": "getAllProjectStaffs",
			"outputs": [
				{
					"components": [
						{
							"internalType": "uint16",
							"name": "id",
							"type": "uint16"
						},
						{
							"internalType": "bytes20",
							"name": "name",
							"type": "bytes20"
						},
						{
							"internalType": "address",
							"name": "staffAddress",
							"type": "address"
						}
					],
					"internalType": "struct projectStaffContractIITM.ShowStaff[]",
					"name": "",
					"type": "tuple[]"
				}
			],
			"stateMutability": "view",
			"type": "function"
		},
		{
			"inputs": [
				{
					"internalType": "bool",
					"name": "needAll",
					"type": "bool"
				}
			],
			"name": "getAllProjects",
			"outputs": [
				{
					"components": [
						{
							"internalType": "uint16",
							"name": "id",
							"type": "uint16"
						},
						{
							"internalType": "bytes20",
							"name": "title",
							"type": "bytes20"
						},
						{
							"internalType": "bytes30",
							"name": "description",
							"type": "bytes30"
						},
						{
							"internalType": "enum projectStaffContractIITM.ProjectStatus",
							"name": "status",
							"type": "uint8"
						},
						{
							"internalType": "uint64",
							"name": "startDate",
							"type": "uint64"
						},
						{
							"internalType": "uint64",
							"name": "endDate",
							"type": "uint64"
						},
						{
							"internalType": "uint32",
							"name": "salary",
							"type": "uint32"
						}
					],
					"internalType": "struct projectStaffContractIITM.ShowProject[]",
					"name": "",
					"type": "tuple[]"
				}
			],
			"stateMutability": "view",
			"type": "function"
		},
		{
			"inputs": [
				{
					"internalType": "uint16",
					"name": "_projectId",
					"type": "uint16"
				},
				{
					"internalType": "uint64",
					"name": "_newEndDate",
					"type": "uint64"
				}
			],
			"name": "getExtendedPeriod",
			"outputs": [
				{
					"internalType": "uint8",
					"name": "",
					"type": "uint8"
				}
			],
			"stateMutability": "nonpayable",
			"type": "function"
		},
		{
			"inputs": [],
			"name": "login",
			"outputs": [
				{
					"internalType": "enum projectStaffContractIITM.UserType",
					"name": "",
					"type": "uint8"
				}
			],
			"stateMutability": "view",
			"type": "function"
		},
		{
			"inputs": [
				{
					"internalType": "uint256",
					"name": "",
					"type": "uint256"
				}
			],
			"name": "projectStaffs",
			"outputs": [
				{
					"internalType": "bytes20",
					"name": "name",
					"type": "bytes20"
				},
				{
					"internalType": "address payable",
					"name": "staffAddress",
					"type": "address"
				},
				{
					"internalType": "bytes20",
					"name": "email",
					"type": "bytes20"
				}
			],
			"stateMutability": "view",
			"type": "function"
		},
		{
			"inputs": [
				{
					"internalType": "uint256",
					"name": "",
					"type": "uint256"
				}
			],
			"name": "projects",
			"outputs": [
				{
					"internalType": "uint16",
					"name": "id",
					"type": "uint16"
				},
				{
					"internalType": "bytes20",
					"name": "title",
					"type": "bytes20"
				},
				{
					"internalType": "bytes30",
					"name": "description",
					"type": "bytes30"
				},
				{
					"internalType": "enum projectStaffContractIITM.ProjectStatus",
					"name": "status",
					"type": "uint8"
				},
				{
					"internalType": "uint64",
					"name": "startDate",
					"type": "uint64"
				},
				{
					"internalType": "uint64",
					"name": "endDate",
					"type": "uint64"
				},
				{
					"internalType": "uint32",
					"name": "salary",
					"type": "uint32"
				},
				{
					"internalType": "address payable",
					"name": "currentApprover",
					"type": "address"
				}
			],
			"stateMutability": "view",
			"type": "function"
		},
		{
			"inputs": [
				{
					"internalType": "string",
					"name": "_name",
					"type": "string"
				},
				{
					"internalType": "string",
					"name": "_department",
					"type": "string"
				},
				{
					"internalType": "string",
					"name": "_email",
					"type": "string"
				}
			],
			"name": "registerFaculty",
			"outputs": [
				{
					"internalType": "uint8",
					"name": "",
					"type": "uint8"
				}
			],
			"stateMutability": "nonpayable",
			"type": "function"
		},
		{
			"inputs": [
				{
					"internalType": "string",
					"name": "_name",
					"type": "string"
				},
				{
					"internalType": "string",
					"name": "_email",
					"type": "string"
				}
			],
			"name": "registerProjectStaff",
			"outputs": [
				{
					"internalType": "uint8",
					"name": "",
					"type": "uint8"
				}
			],
			"stateMutability": "nonpayable",
			"type": "function"
		},
		{
			"inputs": [
				{
					"internalType": "uint16",
					"name": "projectId",
					"type": "uint16"
				}
			],
			"name": "salaryTransfer",
			"outputs": [],
			"stateMutability": "payable",
			"type": "function"
		}
	]
}