{
	"data": {
		"bytecode": {
			"linkReferences": {},
			"object": "608060405261012c5f806101000a81548163ffffffff021916908363ffffffff1602179055506101f45f60046101000a81548163ffffffff021916908363ffffffff160217905550335f60086101000a81548173ffffffffffffffffffffffffffffffffffffffff021916908373ffffffffffffffffffffffffffffffffffffffff1602179055506146ff806100945f395ff3fe6080604052600436106100dc575f3560e01c80639c17d7121161007e578063bff5755511610058578063bff575551461030b578063ca26e03a14610329578063ca91da6214610368578063cecccf7c14610384576100dc565b80639c17d7121461027b5780639d98f1c6146102a5578063b34e97e8146102e1576100dc565b80634208066e116100ba5780634208066e1461019b57806370330e07146101d7578063873a4ad6146102015780638ac52d7f1461023f576100dc565b80630635950f146100e0578063082e08941461011c578063107046bd14610158575b5f80fd5b3480156100eb575f80fd5b5061010660048036038101906101019190612f53565b6103c0565b604051610113919061301e565b60405180910390f35b348015610127575f80fd5b50610142600480360381019061013d9190613037565b61076a565b60405161014f919061301e565b60405180910390f35b348015610163575f80fd5b5061017e600480360381019061017991906130e8565b610abe565b604051610192989796959493929190613295565b60405180910390f35b3480156101a6575f80fd5b506101c160048036038101906101bc9190613346565b610b99565b6040516101ce919061361b565b60405180910390f35b3480156101e2575f80fd5b506101eb611439565b6040516101f89190613710565b60405180910390f35b34801561020c575f80fd5b50610227600480360381019061022291906130e8565b61157c565b60405161023693929190613730565b60405180910390f35b34801561024a575f80fd5b50610265600480360381019061026091906137b9565b6115e8565b604051610272919061301e565b60405180910390f35b348015610286575f80fd5b5061028f61180c565b60405161029c91906138cc565b60405180910390f35b3480156102b0575f80fd5b506102cb60048036038101906102c6919061396b565b61194f565b6040516102d8919061301e565b60405180910390f35b3480156102ec575f80fd5b506102f561216f565b6040516103029190613ace565b60405180910390f35b610313612290565b604051610320919061301e565b60405180910390f35b348015610334575f80fd5b5061034f600480360381019061034a91906130e8565b6125c5565b60405161035f9493929190613ae7565b60405180910390f35b610382600480360381019061037d9190613b2a565b612643565b005b34801561038f575f80fd5b506103aa60048036038101906103a59190613b55565b612a37565b6040516103b7919061301e565b60405180910390f35b5f8060025f3373ffffffffffffffffffffffffffffffffffffffff1673ffffffffffffffffffffffffffffffffffffffff1681526020019081526020015f205f9054906101000a900461ffff1661ffff1614801561046b57505f60045f3373ffffffffffffffffffffffffffffffffffffffff1673ffffffffffffffffffffffffffffffffffffffff1681526020019081526020015f205f9054906101000a900461ffff1661ffff16145b6104aa576040517f08c379a00000000000000000000000000000000000000000000000000000000081526004016104a190613bed565b60405180910390fd5b5f8054906101000a900463ffffffff1663ffffffff1660018054905010610506576040517f08c379a00000000000000000000000000000000000000000000000000000000081526004016104fd90613c55565b60405180910390fd5b60016040518060a001604052808989906105209190613c89565b6bffffffffffffffffffffffff191681526020013373ffffffffffffffffffffffffffffffffffffffff16815260200187879061055d9190613c89565b6bffffffffffffffffffffffff1916815260200185859061057e9190613c89565b6bffffffffffffffffffffffff191681526020015f67ffffffffffffffff8111156105ac576105ab613ce7565b5b6040519080825280602002602001820160405280156105da5781602001602082028036833780820191505090505b50815250908060018154018082558091505060019003905f5260205f2090600502015f909190919091505f820151815f015f6101000a81548173ffffffffffffffffffffffffffffffffffffffff021916908360601c02179055506020820151816001015f6101000a81548173ffffffffffffffffffffffffffffffffffffffff021916908373ffffffffffffffffffffffffffffffffffffffff1602179055506040820151816002015f6101000a81548173ffffffffffffffffffffffffffffffffffffffff021916908360601c02179055506060820151816003015f6101000a81548173ffffffffffffffffffffffffffffffffffffffff021916908360601c021790555060808201518160040190805190602001906106fd929190612d2d565b50505060018054905060025f3373ffffffffffffffffffffffffffffffffffffffff1673ffffffffffffffffffffffffffffffffffffffff1681526020019081526020015f205f6101000a81548161ffff021916908361ffff160217905550600290509695505050505050565b5f8060025f3373ffffffffffffffffffffffffffffffffffffffff1673ffffffffffffffffffffffffffffffffffffffff1681526020019081526020015f205f9054906101000a900461ffff1661ffff1614801561081557505f60045f3373ffffffffffffffffffffffffffffffffffffffff1673ffffffffffffffffffffffffffffffffffffffff1681526020019081526020015f205f9054906101000a900461ffff1661ffff16145b610854576040517f08c379a000000000000000000000000000000000000000000000000000000000815260040161084b90613bed565b60405180910390fd5b5f8054906101000a900463ffffffff1663ffffffff16600380549050106108b0576040517f08c379a00000000000000000000000000000000000000000000000000000000081526004016108a790613c55565b60405180910390fd5b600360405180608001604052808787906108ca9190613c89565b6bffffffffffffffffffffffff191681526020013373ffffffffffffffffffffffffffffffffffffffff1681526020018585906109079190613c89565b6bffffffffffffffffffffffff191681526020015f67ffffffffffffffff81111561093557610934613ce7565b5b6040519080825280602002602001820160405280156109635781602001602082028036833780820191505090505b50815250908060018154018082558091505060019003905f5260205f2090600402015f909190919091505f820151815f015f6101000a81548173ffffffffffffffffffffffffffffffffffffffff021916908360601c02179055506020820151816001015f6101000a81548173ffffffffffffffffffffffffffffffffffffffff021916908373ffffffffffffffffffffffffffffffffffffffff1602179055506040820151816002015f6101000a81548173ffffffffffffffffffffffffffffffffffffffff021916908360601c02179055506060820151816003019080519060200190610a53929190612d2d565b50505060038054905060045f3373ffffffffffffffffffffffffffffffffffffffff1673ffffffffffffffffffffffffffffffffffffffff1681526020019081526020015f205f6101000a81548161ffff021916908361ffff16021790555060029050949350505050565b60058181548110610acd575f80fd5b905f5260205f2090600602015f91509050805f015f9054906101000a900461ffff1690805f0160029054906101000a900460601b90806001015f9054906101000a900460101b9080600101601e9054906101000a900460ff1690806002015f9054906101000a900467ffffffffffffffff16908060020160089054906101000a900467ffffffffffffffff16908060020160109054906101000a900463ffffffff1690806005015f9054906101000a900473ffffffffffffffffffffffffffffffffffffffff16905088565b60608115610e83576005805480602002602001604051908101604052809291908181526020015f905b82821015610e78578382905f5260205f209060060201604051806101400160405290815f82015f9054906101000a900461ffff1661ffff1661ffff1681526020015f820160029054906101000a900460601b6bffffffffffffffffffffffff19166bffffffffffffffffffffffff19168152602001600182015f9054906101000a900460101b61ffff191661ffff1916815260200160018201601e9054906101000a900460ff166004811115610c7b57610c7a6131a3565b5b6004811115610c8d57610c8c6131a3565b5b8152602001600282015f9054906101000a900467ffffffffffffffff1667ffffffffffffffff1667ffffffffffffffff1681526020016002820160089054906101000a900467ffffffffffffffff1667ffffffffffffffff1667ffffffffffffffff1681526020016002820160109054906101000a900463ffffffff1663ffffffff1663ffffffff16815260200160038201805480602002602001604051908101604052809291908181526020018280548015610d8e57602002820191905f5260205f20905f905b82829054906101000a900461ffff1661ffff1681526020019060020190602082600101049283019260010382029150808411610d555790505b5050505050815260200160048201805480602002602001604051908101604052809291908181526020018280548015610e0b57602002820191905f5260205f20905f905b82829054906101000a900461ffff1661ffff1681526020019060020190602082600101049283019260010382029150808411610dd25790505b50505050508152602001600582015f9054906101000a900473ffffffffffffffffffffffffffffffffffffffff1673ffffffffffffffffffffffffffffffffffffffff1673ffffffffffffffffffffffffffffffffffffffff168152505081526020019060010190610bc2565b505050509050611434565b5f8060025f3373ffffffffffffffffffffffffffffffffffffffff1673ffffffffffffffffffffffffffffffffffffffff1681526020019081526020015f205f9054906101000a900461ffff1661ffff1614610f5c5760018060025f3373ffffffffffffffffffffffffffffffffffffffff1673ffffffffffffffffffffffffffffffffffffffff1681526020019081526020015f205f9054906101000a900461ffff16610f319190613d41565b61ffff1681548110610f4657610f45613d76565b5b905f5260205f2090600502016004019050611092565b5f60045f3373ffffffffffffffffffffffffffffffffffffffff1673ffffffffffffffffffffffffffffffffffffffff1681526020019081526020015f205f9054906101000a900461ffff1661ffff1614611035576003600160045f3373ffffffffffffffffffffffffffffffffffffffff1673ffffffffffffffffffffffffffffffffffffffff1681526020019081526020015f205f9054906101000a900461ffff1661100a9190613d41565b61ffff168154811061101f5761101e613d76565b5b905f5260205f2090600402016003019050611091565b5f67ffffffffffffffff81111561104f5761104e613ce7565b5b60405190808252806020026020018201604052801561108857816020015b611075612dd4565b81526020019060019003908161106d5790505b50915050611434565b5b5f818054905067ffffffffffffffff8111156110b1576110b0613ce7565b5b6040519080825280602002602001820160405280156110ea57816020015b6110d7612dd4565b8152602001906001900390816110cf5790505b5090505f5b82805490508161ffff16101561142d5760056001848361ffff168154811061111a57611119613d76565b5b905f5260205f2090601091828204019190066002029054906101000a900461ffff166111469190613d41565b61ffff168154811061115b5761115a613d76565b5b905f5260205f209060060201604051806101400160405290815f82015f9054906101000a900461ffff1661ffff1661ffff1681526020015f820160029054906101000a900460601b6bffffffffffffffffffffffff19166bffffffffffffffffffffffff19168152602001600182015f9054906101000a900460101b61ffff191661ffff1916815260200160018201601e9054906101000a900460ff16600481111561120a576112096131a3565b5b600481111561121c5761121b6131a3565b5b8152602001600282015f9054906101000a900467ffffffffffffffff1667ffffffffffffffff1667ffffffffffffffff1681526020016002820160089054906101000a900467ffffffffffffffff1667ffffffffffffffff1667ffffffffffffffff1681526020016002820160109054906101000a900463ffffffff1663ffffffff1663ffffffff1681526020016003820180548060200260200160405190810160405280929190818152602001828054801561131d57602002820191905f5260205f20905f905b82829054906101000a900461ffff1661ffff16815260200190600201906020826001010492830192600103820291508084116112e45790505b505050505081526020016004820180548060200260200160405190810160405280929190818152602001828054801561139a57602002820191905f5260205f20905f905b82829054906101000a900461ffff1661ffff16815260200190600201906020826001010492830192600103820291508084116113615790505b50505050508152602001600582015f9054906101000a900473ffffffffffffffffffffffffffffffffffffffff1673ffffffffffffffffffffffffffffffffffffffff1673ffffffffffffffffffffffffffffffffffffffff1681525050828261ffff168151811061140f5761140e613d76565b5b6020026020010181905250808061142590613da3565b9150506110ef565b5080925050505b919050565b60605f60018054905067ffffffffffffffff81111561145b5761145a613ce7565b5b60405190808252806020026020018201604052801561149457816020015b611481612e79565b8152602001906001900390816114795790505b5090505f5b6001805490508161ffff161015611574576001816114b79190613dcc565b828261ffff16815181106114ce576114cd613d76565b5b60200260200101515f019061ffff16908161ffff168152505060018161ffff16815481106114ff576114fe613d76565b5b905f5260205f2090600502015f015f9054906101000a900460601b828261ffff168151811061153157611530613d76565b5b6020026020010151602001906bffffffffffffffffffffffff191690816bffffffffffffffffffffffff191681525050808061156c90613da3565b915050611499565b508091505090565b6003818154811061158b575f80fd5b905f5260205f2090600402015f91509050805f015f9054906101000a900460601b90806001015f9054906101000a900473ffffffffffffffffffffffffffffffffffffffff1690806002015f9054906101000a900460601b905083565b5f8060045f3373ffffffffffffffffffffffffffffffffffffffff1673ffffffffffffffffffffffffffffffffffffffff1681526020019081526020015f205f9054906101000a900461ffff1661ffff161415801561165057506005805490508361ffff1611155b61168f576040517f08c379a000000000000000000000000000000000000000000000000000000000815260040161168690613e4b565b60405180910390fd5b5f600560018561169f9190613d41565b61ffff16815481106116b4576116b3613d76565b5b905f5260205f2090600602019050600160048111156116d6576116d56131a3565b5b81600101601e9054906101000a900460ff1660048111156116fa576116f96131a3565b5b1461173a576040517f08c379a000000000000000000000000000000000000000000000000000000000815260040161173190613eb3565b60405180910390fd5b8267ffffffffffffffff168160020160089054906101000a900467ffffffffffffffff1667ffffffffffffffff1611156117a9576040517f08c379a00000000000000000000000000000000000000000000000000000000081526004016117a090613f1b565b60405180910390fd5b600481600101601e6101000a81548160ff021916908360048111156117d1576117d06131a3565b5b0217905550828160020160086101000a81548167ffffffffffffffff021916908367ffffffffffffffff160217905550600291505092915050565b60605f60038054905067ffffffffffffffff81111561182e5761182d613ce7565b5b60405190808252806020026020018201604052801561186757816020015b611854612ea4565b81526020019060019003908161184c5790505b5090505f5b6003805490508161ffff1610156119475760018161188a9190613dcc565b828261ffff16815181106118a1576118a0613d76565b5b60200260200101515f019061ffff16908161ffff168152505060038161ffff16815481106118d2576118d1613d76565b5b905f5260205f2090600402015f015f9054906101000a900460601b828261ffff168151811061190457611903613d76565b5b6020026020010151602001906bffffffffffffffffffffffff191690816bffffffffffffffffffffffff191681525050808061193f90613da3565b91505061186c565b508091505090565b5f8060045f3373ffffffffffffffffffffffffffffffffffffffff1673ffffffffffffffffffffffffffffffffffffffff1681526020019081526020015f205f9054906101000a900461ffff1661ffff16036119e0576040517f08c379a00000000000000000000000000000000000000000000000000000000081526004016119d790613f83565b60405180910390fd5b8667ffffffffffffffff168867ffffffffffffffff161115611a37576040517f08c379a0000000000000000000000000000000000000000000000000000000008152600401611a2e90613feb565b60405180910390fd5b5f60049054906101000a900463ffffffff1663ffffffff1660058054905010611a95576040517f08c379a0000000000000000000000000000000000000000000000000000000008152600401611a8c90614079565b60405180910390fd5b828290506001108015611aac575060048383905011155b8015611abc575084849050600111155b8015611acc575060048585905011155b611b0b576040517f08c379a0000000000000000000000000000000000000000000000000000000008152600401611b0290614107565b60405180910390fd5b5f5b838390508161ffff161015611c34575f600185858461ffff16818110611b3657611b35613d76565b5b9050602002016020810190611b4b9190613b2a565b611b559190613d41565b90506001805490508161ffff1610611ba2576040517f08c379a0000000000000000000000000000000000000000000000000000000008152600401611b999061416f565b60405180910390fd5b60018161ffff1681548110611bba57611bb9613d76565b5b905f5260205f2090600502016004016001600580549050611bdb919061418d565b908060018154018082558091505060019003905f5260205f2090601091828204019190066002029091909190916101000a81548161ffff021916908361ffff160217905550508080611c2c90613da3565b915050611b0d565b505f5b858590508161ffff161015611d5e575f600187878461ffff16818110611c6057611c5f613d76565b5b9050602002016020810190611c759190613b2a565b611c7f9190613d41565b90506003805490508161ffff1610611ccc576040517f08c379a0000000000000000000000000000000000000000000000000000000008152600401611cc39061416f565b60405180910390fd5b60038161ffff1681548110611ce457611ce3613d76565b5b905f5260205f2090600402016003016001600580549050611d05919061418d565b908060018154018082558091505060019003905f5260205f2090601091828204019190066002029091909190916101000a81548161ffff021916908361ffff160217905550508080611d5690613da3565b915050611c37565b5060056040518061014001604052806001600580549050611d7f919061418d565b61ffff1681526020018e8e90611d959190613c89565b6bffffffffffffffffffffffff191681526020018c8c90611db691906141c0565b61ffff191681526020015f6004811115611dd357611dd26131a3565b5b81526020018a67ffffffffffffffff1681526020018967ffffffffffffffff1681526020018863ffffffff1681526020018787808060200260200160405190810160405280939291908181526020018383602002808284375f81840152601f19601f8201169050808301925050505050505081526020018585808060200260200160405190810160405280939291908181526020018383602002808284375f81840152601f19601f8201169050808301925050505050505081526020015f73ffffffffffffffffffffffffffffffffffffffff16815250908060018154018082558091505060019003905f5260205f2090600602015f909190919091505f820151815f015f6101000a81548161ffff021916908361ffff1602179055506020820151815f0160026101000a81548173ffffffffffffffffffffffffffffffffffffffff021916908360601c02179055506040820151816001015f6101000a8154817dffffffffffffffffffffffffffffffffffffffffffffffffffffffffffff021916908360101c0217905550606082015181600101601e6101000a81548160ff02191690836004811115611f8b57611f8a6131a3565b5b02179055506080820151816002015f6101000a81548167ffffffffffffffff021916908367ffffffffffffffff16021790555060a08201518160020160086101000a81548167ffffffffffffffff021916908367ffffffffffffffff16021790555060c08201518160020160106101000a81548163ffffffff021916908363ffffffff16021790555060e0820151816003019080519060200190612030929190612d2d565b5061010082015181600401908051906020019061204e929190612d2d565b50610120820151816005015f6101000a81548173ffffffffffffffffffffffffffffffffffffffff021916908373ffffffffffffffffffffffffffffffffffffffff1602179055505050600560016005805490506120ac919061421e565b815481106120bd576120bc613d76565b5b905f5260205f20906006020160030160045f3373ffffffffffffffffffffffffffffffffffffffff1673ffffffffffffffffffffffffffffffffffffffff1681526020019081526020015f205f9054906101000a900461ffff16908060018154018082558091505060019003905f5260205f2090601091828204019190066002029091909190916101000a81548161ffff021916908361ffff160217905550600290509b9a5050505050505050505050565b5f8060089054906101000a900473ffffffffffffffffffffffffffffffffffffffff1673ffffffffffffffffffffffffffffffffffffffff163373ffffffffffffffffffffffffffffffffffffffff16036121cc575f905061228d565b5f60025f3373ffffffffffffffffffffffffffffffffffffffff1673ffffffffffffffffffffffffffffffffffffffff1681526020019081526020015f205f9054906101000a900461ffff1661ffff161461222a576001905061228d565b5f60045f3373ffffffffffffffffffffffffffffffffffffffff1673ffffffffffffffffffffffffffffffffffffffff1681526020019081526020015f205f9054906101000a900461ffff1661ffff1614612288576002905061228d565b600390505b90565b5f3373ffffffffffffffffffffffffffffffffffffffff165f60089054906101000a900473ffffffffffffffffffffffffffffffffffffffff1673ffffffffffffffffffffffffffffffffffffffff1614612320576040517f08c379a00000000000000000000000000000000000000000000000000000000081526004016123179061429b565b60405180910390fd5b5f5b6005805490508110156125bd575f6005828154811061234457612343613d76565b5b905f5260205f209060060201905060016004811115612366576123656131a3565b5b81600101601e9054906101000a900460ff16600481111561238a576123896131a3565b5b1480156123b957508060020160089054906101000a900467ffffffffffffffff1667ffffffffffffffff164210155b156125af575f5b81600301805490508161ffff161015612580578160020160109054906101000a900463ffffffff1663ffffffff165f60089054906101000a900473ffffffffffffffffffffffffffffffffffffffff1673ffffffffffffffffffffffffffffffffffffffff16311015612468576040517f08c379a000000000000000000000000000000000000000000000000000000000815260040161245f90614303565b60405180910390fd5b5f60036001846003018461ffff168154811061248757612486613d76565b5b905f5260205f2090601091828204019190066002029054906101000a900461ffff166124b39190613d41565b61ffff16815481106124c8576124c7613d76565b5b905f5260205f2090600402016001015f9054906101000a900473ffffffffffffffffffffffffffffffffffffffff1673ffffffffffffffffffffffffffffffffffffffff166108fc3490811502906040515f60405180830381858888f1935050505090508061256c576040517f08c379a00000000000000000000000000000000000000000000000000000000081526004016125639061436b565b60405180910390fd5b50808061257890613da3565b9150506123c0565b50600381600101601e6101000a81548160ff021916908360048111156125a9576125a86131a3565b5b02179055505b508080600101915050612322565b506002905090565b600181815481106125d4575f80fd5b905f5260205f2090600502015f91509050805f015f9054906101000a900460601b90806001015f9054906101000a900473ffffffffffffffffffffffffffffffffffffffff1690806002015f9054906101000a900460601b90806003015f9054906101000a900460601b905084565b3373ffffffffffffffffffffffffffffffffffffffff165f60089054906101000a900473ffffffffffffffffffffffffffffffffffffffff1673ffffffffffffffffffffffffffffffffffffffff16146126d2576040517f08c379a00000000000000000000000000000000000000000000000000000000081526004016126c99061429b565b60405180910390fd5b6005805490508161ffff16111561271e576040517f08c379a0000000000000000000000000000000000000000000000000000000008152600401612715906143d3565b60405180910390fd5b5f600560018361272e9190613d41565b61ffff168154811061274357612742613d76565b5b905f5260205f209060060201905060016004811115612765576127646131a3565b5b81600101601e9054906101000a900460ff166004811115612789576127886131a3565b5b146127c9576040517f08c379a00000000000000000000000000000000000000000000000000000000081526004016127c09061443b565b60405180910390fd5b8060020160089054906101000a900467ffffffffffffffff1667ffffffffffffffff1642101561282e576040517f08c379a0000000000000000000000000000000000000000000000000000000008152600401612825906144a3565b60405180910390fd5b348160020160109054906101000a900463ffffffff1663ffffffff161461288a576040517f08c379a00000000000000000000000000000000000000000000000000000000081526004016128819061450b565b60405180910390fd5b5f5b81600301805490508161ffff161015612a3257345f60089054906101000a900473ffffffffffffffffffffffffffffffffffffffff1673ffffffffffffffffffffffffffffffffffffffff1631101561291a576040517f08c379a000000000000000000000000000000000000000000000000000000000815260040161291190614573565b60405180910390fd5b5f60036001846003018461ffff168154811061293957612938613d76565b5b905f5260205f2090601091828204019190066002029054906101000a900461ffff166129659190613d41565b61ffff168154811061297a57612979613d76565b5b905f5260205f2090600402016001015f9054906101000a900473ffffffffffffffffffffffffffffffffffffffff1673ffffffffffffffffffffffffffffffffffffffff166108fc3490811502906040515f60405180830381858888f19350505050905080612a1e576040517f08c379a0000000000000000000000000000000000000000000000000000000008152600401612a15906145db565b60405180910390fd5b508080612a2a90613da3565b91505061288c565b505050565b5f8060025f3373ffffffffffffffffffffffffffffffffffffffff1673ffffffffffffffffffffffffffffffffffffffff1681526020019081526020015f205f9054906101000a900461ffff1661ffff1614158015612a9b57506005805490508311155b612ada576040517f08c379a0000000000000000000000000000000000000000000000000000000008152600401612ad190614643565b60405180910390fd5b5f6005600185612aea919061421e565b81548110612afb57612afa613d76565b5b905f5260205f20906006020190505f6004811115612b1c57612b1b6131a3565b5b81600101601e9054906101000a900460ff166004811115612b4057612b3f6131a3565b5b1480612b805750600480811115612b5a57612b596131a3565b5b81600101601e9054906101000a900460ff166004811115612b7e57612b7d6131a3565b5b145b612bbf576040517f08c379a0000000000000000000000000000000000000000000000000000000008152600401612bb6906146ab565b60405180910390fd5b5f5b8160040180549050811015612d205760025f3373ffffffffffffffffffffffffffffffffffffffff1673ffffffffffffffffffffffffffffffffffffffff1681526020019081526020015f205f9054906101000a900461ffff1661ffff16826004018281548110612c3557612c34613d76565b5b905f5260205f2090601091828204019190066002029054906101000a900461ffff1661ffff1603612d135733826005015f6101000a81548173ffffffffffffffffffffffffffffffffffffffff021916908373ffffffffffffffffffffffffffffffffffffffff1602179055508315612cda57600182600101601e6101000a81548160ff02191690836004811115612cd057612ccf6131a3565b5b0217905550612d08565b600282600101601e6101000a81548160ff02191690836004811115612d0257612d016131a3565b5b02179055505b600292505050612d27565b8080600101915050612bc1565b5060069150505b92915050565b828054828255905f5260205f2090600f01601090048101928215612dc3579160200282015f5b83821115612d9357835183826101000a81548161ffff021916908361ffff1602179055509260200192600201602081600101049283019260010302612d53565b8015612dc15782816101000a81549061ffff0219169055600201602081600101049283019260010302612d93565b505b509050612dd09190612ecf565b5090565b6040518061014001604052805f61ffff1681526020015f6bffffffffffffffffffffffff191681526020015f61ffff191681526020015f6004811115612e1d57612e1c6131a3565b5b81526020015f67ffffffffffffffff1681526020015f67ffffffffffffffff1681526020015f63ffffffff16815260200160608152602001606081526020015f73ffffffffffffffffffffffffffffffffffffffff1681525090565b60405180604001604052805f61ffff1681526020015f6bffffffffffffffffffffffff191681525090565b60405180604001604052805f61ffff1681526020015f6bffffffffffffffffffffffff191681525090565b5b80821115612ee6575f815f905550600101612ed0565b5090565b5f80fd5b5f80fd5b5f80fd5b5f80fd5b5f80fd5b5f8083601f840112612f1357612f12612ef2565b5b8235905067ffffffffffffffff811115612f3057612f2f612ef6565b5b602083019150836001820283011115612f4c57612f4b612efa565b5b9250929050565b5f805f805f8060608789031215612f6d57612f6c612eea565b5b5f87013567ffffffffffffffff811115612f8a57612f89612eee565b5b612f9689828a01612efe565b9650965050602087013567ffffffffffffffff811115612fb957612fb8612eee565b5b612fc589828a01612efe565b9450945050604087013567ffffffffffffffff811115612fe857612fe7612eee565b5b612ff489828a01612efe565b92509250509295509295509295565b5f60ff82169050919050565b61301881613003565b82525050565b5f6020820190506130315f83018461300f565b92915050565b5f805f806040858703121561304f5761304e612eea565b5b5f85013567ffffffffffffffff81111561306c5761306b612eee565b5b61307887828801612efe565b9450945050602085013567ffffffffffffffff81111561309b5761309a612eee565b5b6130a787828801612efe565b925092505092959194509250565b5f819050919050565b6130c7816130b5565b81146130d1575f80fd5b50565b5f813590506130e2816130be565b92915050565b5f602082840312156130fd576130fc612eea565b5b5f61310a848285016130d4565b91505092915050565b5f61ffff82169050919050565b61312981613113565b82525050565b5f7fffffffffffffffffffffffffffffffffffffffff00000000000000000000000082169050919050565b6131638161312f565b82525050565b5f7fffffffffffffffffffffffffffffffffffffffffffffffffffffffffffff000082169050919050565b61319d81613169565b82525050565b7f4e487b71000000000000000000000000000000000000000000000000000000005f52602160045260245ffd5b600581106131e1576131e06131a3565b5b50565b5f8190506131f1826131d0565b919050565b5f613200826131e4565b9050919050565b613210816131f6565b82525050565b5f67ffffffffffffffff82169050919050565b61323281613216565b82525050565b5f63ffffffff82169050919050565b61325081613238565b82525050565b5f73ffffffffffffffffffffffffffffffffffffffff82169050919050565b5f61327f82613256565b9050919050565b61328f81613275565b82525050565b5f610100820190506132a95f83018b613120565b6132b6602083018a61315a565b6132c36040830189613194565b6132d06060830188613207565b6132dd6080830187613229565b6132ea60a0830186613229565b6132f760c0830185613247565b61330460e0830184613286565b9998505050505050505050565b5f8115159050919050565b61332581613311565b811461332f575f80fd5b50565b5f813590506133408161331c565b92915050565b5f6020828403121561335b5761335a612eea565b5b5f61336884828501613332565b91505092915050565b5f81519050919050565b5f82825260208201905092915050565b5f819050602082019050919050565b6133a381613113565b82525050565b6133b28161312f565b82525050565b6133c181613169565b82525050565b6133d0816131f6565b82525050565b6133df81613216565b82525050565b6133ee81613238565b82525050565b5f81519050919050565b5f82825260208201905092915050565b5f819050602082019050919050565b5f613428838361339a565b60208301905092915050565b5f602082019050919050565b5f61344a826133f4565b61345481856133fe565b935061345f8361340e565b805f5b8381101561348f578151613476888261341d565b975061348183613434565b925050600181019050613462565b5085935050505092915050565b6134a581613275565b82525050565b5f61014083015f8301516134c15f86018261339a565b5060208301516134d460208601826133a9565b5060408301516134e760408601826133b8565b5060608301516134fa60608601826133c7565b50608083015161350d60808601826133d6565b5060a083015161352060a08601826133d6565b5060c083015161353360c08601826133e5565b5060e083015184820360e086015261354b8282613440565b9150506101008301518482036101008601526135678282613440565b91505061012083015161357e61012086018261349c565b508091505092915050565b5f61359483836134ab565b905092915050565b5f602082019050919050565b5f6135b282613371565b6135bc818561337b565b9350836020820285016135ce8561338b565b805f5b8581101561360957848403895281516135ea8582613589565b94506135f58361359c565b925060208a019950506001810190506135d1565b50829750879550505050505092915050565b5f6020820190508181035f83015261363381846135a8565b905092915050565b5f81519050919050565b5f82825260208201905092915050565b5f819050602082019050919050565b604082015f8201516136785f85018261339a565b50602082015161368b60208501826133a9565b50505050565b5f61369c8383613664565b60408301905092915050565b5f602082019050919050565b5f6136be8261363b565b6136c88185613645565b93506136d383613655565b805f5b838110156137035781516136ea8882613691565b97506136f5836136a8565b9250506001810190506136d6565b5085935050505092915050565b5f6020820190508181035f83015261372881846136b4565b905092915050565b5f6060820190506137435f83018661315a565b6137506020830185613286565b61375d604083018461315a565b949350505050565b61376e81613113565b8114613778575f80fd5b50565b5f8135905061378981613765565b92915050565b61379881613216565b81146137a2575f80fd5b50565b5f813590506137b38161378f565b92915050565b5f80604083850312156137cf576137ce612eea565b5b5f6137dc8582860161377b565b92505060206137ed858286016137a5565b9150509250929050565b5f81519050919050565b5f82825260208201905092915050565b5f819050602082019050919050565b604082015f8201516138345f85018261339a565b50602082015161384760208501826133a9565b50505050565b5f6138588383613820565b60408301905092915050565b5f602082019050919050565b5f61387a826137f7565b6138848185613801565b935061388f83613811565b805f5b838110156138bf5781516138a6888261384d565b97506138b183613864565b925050600181019050613892565b5085935050505092915050565b5f6020820190508181035f8301526138e48184613870565b905092915050565b6138f581613238565b81146138ff575f80fd5b50565b5f81359050613910816138ec565b92915050565b5f8083601f84011261392b5761392a612ef2565b5b8235905067ffffffffffffffff81111561394857613947612ef6565b5b60208301915083602082028301111561396457613963612efa565b5b9250929050565b5f805f805f805f805f805f60e08c8e03121561398a57613989612eea565b5b5f8c013567ffffffffffffffff8111156139a7576139a6612eee565b5b6139b38e828f01612efe565b9b509b505060208c013567ffffffffffffffff8111156139d6576139d5612eee565b5b6139e28e828f01612efe565b995099505060406139f58e828f016137a5565b9750506060613a068e828f016137a5565b9650506080613a178e828f01613902565b95505060a08c013567ffffffffffffffff811115613a3857613a37612eee565b5b613a448e828f01613916565b945094505060c08c013567ffffffffffffffff811115613a6757613a66612eee565b5b613a738e828f01613916565b92509250509295989b509295989b9093969950565b60048110613a9957613a986131a3565b5b50565b5f819050613aa982613a88565b919050565b5f613ab882613a9c565b9050919050565b613ac881613aae565b82525050565b5f602082019050613ae15f830184613abf565b92915050565b5f608082019050613afa5f83018761315a565b613b076020830186613286565b613b14604083018561315a565b613b21606083018461315a565b95945050505050565b5f60208284031215613b3f57613b3e612eea565b5b5f613b4c8482850161377b565b91505092915050565b5f8060408385031215613b6b57613b6a612eea565b5b5f613b78858286016130d4565b9250506020613b8985828601613332565b9150509250929050565b5f82825260208201905092915050565b7f34203a207573657220616c7265616479206578697374730000000000000000005f82015250565b5f613bd7601783613b93565b9150613be282613ba3565b602082019050919050565b5f6020820190508181035f830152613c0481613bcb565b9050919050565b7f35203a206d6178206361706163697479207265616368656400000000000000005f82015250565b5f613c3f601883613b93565b9150613c4a82613c0b565b602082019050919050565b5f6020820190508181035f830152613c6c81613c33565b9050919050565b5f82905092915050565b5f82821b905092915050565b5f613c948383613c73565b82613c9f813561312f565b92506014821015613cdf57613cda7fffffffffffffffffffffffffffffffffffffffff00000000000000000000000083601403600802613c7d565b831692505b505092915050565b7f4e487b71000000000000000000000000000000000000000000000000000000005f52604160045260245ffd5b7f4e487b71000000000000000000000000000000000000000000000000000000005f52601160045260245ffd5b5f613d4b82613113565b9150613d5683613113565b9250828203905061ffff811115613d7057613d6f613d14565b5b92915050565b7f4e487b71000000000000000000000000000000000000000000000000000000005f52603260045260245ffd5b5f613dad82613113565b915061ffff8203613dc157613dc0613d14565b5b600182019050919050565b5f613dd682613113565b9150613de183613113565b9250828201905061ffff811115613dfb57613dfa613d14565b5b92915050565b7f34203a20696e76616c69642075736572000000000000000000000000000000005f82015250565b5f613e35601083613b93565b9150613e4082613e01565b602082019050919050565b5f6020820190508181035f830152613e6281613e29565b9050919050565b7f35203a2070726f6a656374206973206e6f7420617070726f76656400000000005f82015250565b5f613e9d601b83613b93565b9150613ea882613e69565b602082019050919050565b5f6020820190508181035f830152613eca81613e91565b9050919050565b7f35203a20696e76616c696420656e6420646174650000000000000000000000005f82015250565b5f613f05601483613b93565b9150613f1082613ed1565b602082019050919050565b5f6020820190508181035f830152613f3281613ef9565b9050919050565b7f34203a20496e76616c69642075736572000000000000000000000000000000005f82015250565b5f613f6d601083613b93565b9150613f7882613f39565b602082019050919050565b5f6020820190508181035f830152613f9a81613f61565b9050919050565b7f37203a20696e76616c69642064617465730000000000000000000000000000005f82015250565b5f613fd5601183613b93565b9150613fe082613fa1565b602082019050919050565b5f6020820190508181035f83015261400281613fc9565b9050919050565b7f35203a206d6178206e756d626572206f662070726f6a656374732072656163685f8201527f6564000000000000000000000000000000000000000000000000000000000000602082015250565b5f614063602283613b93565b915061406e82614009565b604082019050919050565b5f6020820190508181035f83015261409081614057565b9050919050565b7f35203a20646f6573206e6f74207361746973667920737461666620616e6420665f8201527f6163756c747920726571756972656d656e740000000000000000000000000000602082015250565b5f6140f1603283613b93565b91506140fc82614097565b604082019050919050565b5f6020820190508181035f83015261411e816140e5565b9050919050565b7f36203a204e6f20696420657869737473000000000000000000000000000000005f82015250565b5f614159601083613b93565b915061416482614125565b602082019050919050565b5f6020820190508181035f8301526141868161414d565b9050919050565b5f614197826130b5565b91506141a2836130b5565b92508282019050808211156141ba576141b9613d14565b5b92915050565b5f6141cb8383613c73565b826141d68135613169565b9250601e821015614216576142117fffffffffffffffffffffffffffffffffffffffffffffffffffffffffffff000083601e03600802613c7d565b831692505b505092915050565b5f614228826130b5565b9150614233836130b5565b925082820390508181111561424b5761424a613d14565b5b92915050565b7f34203a204e6f742061646d696e000000000000000000000000000000000000005f82015250565b5f614285600d83613b93565b915061429082614251565b602082019050919050565b5f6020820190508181035f8301526142b281614279565b9050919050565b7f35203a204e6f7420656e6f7567682062616c616e6365000000000000000000005f82015250565b5f6142ed601683613b93565b91506142f8826142b9565b602082019050919050565b5f6020820190508181035f83015261431a816142e1565b9050919050565b7f35203a205472616e73666572206661696c6564000000000000000000000000005f82015250565b5f614355601383613b93565b915061436082614321565b602082019050919050565b5f6020820190508181035f83015261438281614349565b9050919050565b7f34203a2050726f6a65637420696420646f6573206e6f742065786973747300005f82015250565b5f6143bd601e83613b93565b91506143c882614389565b602082019050919050565b5f6020820190508181035f8301526143ea816143b1565b9050919050565b7f34203a207468652070726f6a6563742069732070656e64696e670000000000005f82015250565b5f614425601a83613b93565b9150614430826143f1565b602082019050919050565b5f6020820190508181035f83015261445281614419565b9050919050565b7f35203a2050726f6a656374206973206e6f7420636f6d706c65746564000000005f82015250565b5f61448d601c83613b93565b915061449882614459565b602082019050919050565b5f6020820190508181035f8301526144ba81614481565b9050919050565b7f35203a20696e636f727265637420616d6f756e7420746f207472616e736665725f82015250565b5f6144f5602083613b93565b9150614500826144c1565b602082019050919050565b5f6020820190508181035f830152614522816144e9565b9050919050565b7f35203a20696e73756666696369656e742062616c616e636500000000000000005f82015250565b5f61455d601883613b93565b915061456882614529565b602082019050919050565b5f6020820190508181035f83015261458a81614551565b9050919050565b7f35203a205061796d656e74206661696c656400000000000000000000000000005f82015250565b5f6145c5601283613b93565b91506145d082614591565b602082019050919050565b5f6020820190508181035f8301526145f2816145b9565b9050919050565b7f34203a20496e76616c69642075736572206f722070726f6a65637400000000005f82015250565b5f61462d601b83613b93565b9150614638826145f9565b602082019050919050565b5f6020820190508181035f83015261465a81614621565b9050919050565b7f35203a2070726f6a656374206973206e6f742070656e64696e670000000000005f82015250565b5f614695601a83613b93565b91506146a082614661565b602082019050919050565b5f6020820190508181035f8301526146c281614689565b905091905056fea26469706673582212208b50ed487b85554ce71f0177b449db233095218a1d9dcf144fb6dd2fb414af2264736f6c63430008190033",
			"opcodes": "PUSH1 0x80 PUSH1 0x40 MSTORE PUSH2 0x12C PUSH0 DUP1 PUSH2 0x100 EXP DUP2 SLOAD DUP2 PUSH4 0xFFFFFFFF MUL NOT AND SWAP1 DUP4 PUSH4 0xFFFFFFFF AND MUL OR SWAP1 SSTORE POP PUSH2 0x1F4 PUSH0 PUSH1 0x4 PUSH2 0x100 EXP DUP2 SLOAD DUP2 PUSH4 0xFFFFFFFF MUL NOT AND SWAP1 DUP4 PUSH4 0xFFFFFFFF AND MUL OR SWAP1 SSTORE POP CALLER PUSH0 PUSH1 0x8 PUSH2 0x100 EXP DUP2 SLOAD DUP2 PUSH20 0xFFFFFFFFFFFFFFFFFFFFFFFFFFFFFFFFFFFFFFFF MUL NOT AND SWAP1 DUP4 PUSH20 0xFFFFFFFFFFFFFFFFFFFFFFFFFFFFFFFFFFFFFFFF AND MUL OR SWAP1 SSTORE POP PUSH2 0x46FF DUP1 PUSH2 0x94 PUSH0 CODECOPY PUSH0 RETURN INVALID PUSH1 0x80 PUSH1 0x40 MSTORE PUSH1 0x4 CALLDATASIZE LT PUSH2 0xDC JUMPI PUSH0 CALLDATALOAD PUSH1 0xE0 SHR DUP1 PUSH4 0x9C17D712 GT PUSH2 0x7E JUMPI DUP1 PUSH4 0xBFF57555 GT PUSH2 0x58 JUMPI DUP1 PUSH4 0xBFF57555 EQ PUSH2 0x30B JUMPI DUP1 PUSH4 0xCA26E03A EQ PUSH2 0x329 JUMPI DUP1 PUSH4 0xCA91DA62 EQ PUSH2 0x368 JUMPI DUP1 PUSH4 0xCECCCF7C EQ PUSH2 0x384 JUMPI PUSH2 0xDC JUMP JUMPDEST DUP1 PUSH4 0x9C17D712 EQ PUSH2 0x27B JUMPI DUP1 PUSH4 0x9D98F1C6 EQ PUSH2 0x2A5 JUMPI DUP1 PUSH4 0xB34E97E8 EQ PUSH2 0x2E1 JUMPI PUSH2 0xDC JUMP JUMPDEST DUP1 PUSH4 0x4208066E GT PUSH2 0xBA JUMPI DUP1 PUSH4 0x4208066E EQ PUSH2 0x19B JUMPI DUP1 PUSH4 0x70330E07 EQ PUSH2 0x1D7 JUMPI DUP1 PUSH4 0x873A4AD6 EQ PUSH2 0x201 JUMPI DUP1 PUSH4 0x8AC52D7F EQ PUSH2 0x23F JUMPI PUSH2 0xDC JUMP JUMPDEST DUP1 PUSH4 0x635950F EQ PUSH2 0xE0 JUMPI DUP1 PUSH4 0x82E0894 EQ PUSH2 0x11C JUMPI DUP1 PUSH4 0x107046BD EQ PUSH2 0x158 JUMPI JUMPDEST PUSH0 DUP1 REVERT JUMPDEST CALLVALUE DUP1 ISZERO PUSH2 0xEB JUMPI PUSH0 DUP1 REVERT JUMPDEST POP PUSH2 0x106 PUSH1 0x4 DUP1 CALLDATASIZE SUB DUP2 ADD SWAP1 PUSH2 0x101 SWAP2 SWAP1 PUSH2 0x2F53 JUMP JUMPDEST PUSH2 0x3C0 JUMP JUMPDEST PUSH1 0x40 MLOAD PUSH2 0x113 SWAP2 SWAP1 PUSH2 0x301E JUMP JUMPDEST PUSH1 0x40 MLOAD DUP1 SWAP2 SUB SWAP1 RETURN JUMPDEST CALLVALUE DUP1 ISZERO PUSH2 0x127 JUMPI PUSH0 DUP1 REVERT JUMPDEST POP PUSH2 0x142 PUSH1 0x4 DUP1 CALLDATASIZE SUB DUP2 ADD SWAP1 PUSH2 0x13D SWAP2 SWAP1 PUSH2 0x3037 JUMP JUMPDEST PUSH2 0x76A JUMP JUMPDEST PUSH1 0x40 MLOAD PUSH2 0x14F SWAP2 SWAP1 PUSH2 0x301E JUMP JUMPDEST PUSH1 0x40 MLOAD DUP1 SWAP2 SUB SWAP1 RETURN JUMPDEST CALLVALUE DUP1 ISZERO PUSH2 0x163 JUMPI PUSH0 DUP1 REVERT JUMPDEST POP PUSH2 0x17E PUSH1 0x4 DUP1 CALLDATASIZE SUB DUP2 ADD SWAP1 PUSH2 0x179 SWAP2 SWAP1 PUSH2 0x30E8 JUMP JUMPDEST PUSH2 0xABE JUMP JUMPDEST PUSH1 0x40 MLOAD PUSH2 0x192 SWAP9 SWAP8 SWAP7 SWAP6 SWAP5 SWAP4 SWAP3 SWAP2 SWAP1 PUSH2 0x3295 JUMP JUMPDEST PUSH1 0x40 MLOAD DUP1 SWAP2 SUB SWAP1 RETURN JUMPDEST CALLVALUE DUP1 ISZERO PUSH2 0x1A6 JUMPI PUSH0 DUP1 REVERT JUMPDEST POP PUSH2 0x1C1 PUSH1 0x4 DUP1 CALLDATASIZE SUB DUP2 ADD SWAP1 PUSH2 0x1BC SWAP2 SWAP1 PUSH2 0x3346 JUMP JUMPDEST PUSH2 0xB99 JUMP JUMPDEST PUSH1 0x40 MLOAD PUSH2 0x1CE SWAP2 SWAP1 PUSH2 0x361B JUMP JUMPDEST PUSH1 0x40 MLOAD DUP1 SWAP2 SUB SWAP1 RETURN JUMPDEST CALLVALUE DUP1 ISZERO PUSH2 0x1E2 JUMPI PUSH0 DUP1 REVERT JUMPDEST POP PUSH2 0x1EB PUSH2 0x1439 JUMP JUMPDEST PUSH1 0x40 MLOAD PUSH2 0x1F8 SWAP2 SWAP1 PUSH2 0x3710 JUMP JUMPDEST PUSH1 0x40 MLOAD DUP1 SWAP2 SUB SWAP1 RETURN JUMPDEST CALLVALUE DUP1 ISZERO PUSH2 0x20C JUMPI PUSH0 DUP1 REVERT JUMPDEST POP PUSH2 0x227 PUSH1 0x4 DUP1 CALLDATASIZE SUB DUP2 ADD SWAP1 PUSH2 0x222 SWAP2 SWAP1 PUSH2 0x30E8 JUMP JUMPDEST PUSH2 0x157C JUMP JUMPDEST PUSH1 0x40 MLOAD PUSH2 0x236 SWAP4 SWAP3 SWAP2 SWAP1 PUSH2 0x3730 JUMP JUMPDEST PUSH1 0x40 MLOAD DUP1 SWAP2 SUB SWAP1 RETURN JUMPDEST CALLVALUE DUP1 ISZERO PUSH2 0x24A JUMPI PUSH0 DUP1 REVERT JUMPDEST POP PUSH2 0x265 PUSH1 0x4 DUP1 CALLDATASIZE SUB DUP2 ADD SWAP1 PUSH2 0x260 SWAP2 SWAP1 PUSH2 0x37B9 JUMP JUMPDEST PUSH2 0x15E8 JUMP JUMPDEST PUSH1 0x40 MLOAD PUSH2 0x272 SWAP2 SWAP1 PUSH2 0x301E JUMP JUMPDEST PUSH1 0x40 MLOAD DUP1 SWAP2 SUB SWAP1 RETURN JUMPDEST CALLVALUE DUP1 ISZERO PUSH2 0x286 JUMPI PUSH0 DUP1 REVERT JUMPDEST POP PUSH2 0x28F PUSH2 0x180C JUMP JUMPDEST PUSH1 0x40 MLOAD PUSH2 0x29C SWAP2 SWAP1 PUSH2 0x38CC JUMP JUMPDEST PUSH1 0x40 MLOAD DUP1 SWAP2 SUB SWAP1 RETURN JUMPDEST CALLVALUE DUP1 ISZERO PUSH2 0x2B0 JUMPI PUSH0 DUP1 REVERT JUMPDEST POP PUSH2 0x2CB PUSH1 0x4 DUP1 CALLDATASIZE SUB DUP2 ADD SWAP1 PUSH2 0x2C6 SWAP2 SWAP1 PUSH2 0x396B JUMP JUMPDEST PUSH2 0x194F JUMP JUMPDEST PUSH1 0x40 MLOAD PUSH2 0x2D8 SWAP2 SWAP1 PUSH2 0x301E JUMP JUMPDEST PUSH1 0x40 MLOAD DUP1 SWAP2 SUB SWAP1 RETURN JUMPDEST CALLVALUE DUP1 ISZERO PUSH2 0x2EC JUMPI PUSH0 DUP1 REVERT JUMPDEST POP PUSH2 0x2F5 PUSH2 0x216F JUMP JUMPDEST PUSH1 0x40 MLOAD PUSH2 0x302 SWAP2 SWAP1 PUSH2 0x3ACE JUMP JUMPDEST PUSH1 0x40 MLOAD DUP1 SWAP2 SUB SWAP1 RETURN JUMPDEST PUSH2 0x313 PUSH2 0x2290 JUMP JUMPDEST PUSH1 0x40 MLOAD PUSH2 0x320 SWAP2 SWAP1 PUSH2 0x301E JUMP JUMPDEST PUSH1 0x40 MLOAD DUP1 SWAP2 SUB SWAP1 RETURN JUMPDEST CALLVALUE DUP1 ISZERO PUSH2 0x334 JUMPI PUSH0 DUP1 REVERT JUMPDEST POP PUSH2 0x34F PUSH1 0x4 DUP1 CALLDATASIZE SUB DUP2 ADD SWAP1 PUSH2 0x34A SWAP2 SWAP1 PUSH2 0x30E8 JUMP JUMPDEST PUSH2 0x25C5 JUMP JUMPDEST PUSH1 0x40 MLOAD PUSH2 0x35F SWAP5 SWAP4 SWAP3 SWAP2 SWAP1 PUSH2 0x3AE7 JUMP JUMPDEST PUSH1 0x40 MLOAD DUP1 SWAP2 SUB SWAP1 RETURN JUMPDEST PUSH2 0x382 PUSH1 0x4 DUP1 CALLDATASIZE SUB DUP2 ADD SWAP1 PUSH2 0x37D SWAP2 SWAP1 PUSH2 0x3B2A JUMP JUMPDEST PUSH2 0x2643 JUMP JUMPDEST STOP JUMPDEST CALLVALUE DUP1 ISZERO PUSH2 0x38F JUMPI PUSH0 DUP1 REVERT JUMPDEST POP PUSH2 0x3AA PUSH1 0x4 DUP1 CALLDATASIZE SUB DUP2 ADD SWAP1 PUSH2 0x3A5 SWAP2 SWAP1 PUSH2 0x3B55 JUMP JUMPDEST PUSH2 0x2A37 JUMP JUMPDEST PUSH1 0x40 MLOAD PUSH2 0x3B7 SWAP2 SWAP1 PUSH2 0x301E JUMP JUMPDEST PUSH1 0x40 MLOAD DUP1 SWAP2 SUB SWAP1 RETURN JUMPDEST PUSH0 DUP1 PUSH1 0x2 PUSH0 CALLER PUSH20 0xFFFFFFFFFFFFFFFFFFFFFFFFFFFFFFFFFFFFFFFF AND PUSH20 0xFFFFFFFFFFFFFFFFFFFFFFFFFFFFFFFFFFFFFFFF AND DUP2 MSTORE PUSH1 0x20 ADD SWAP1 DUP2 MSTORE PUSH1 0x20 ADD PUSH0 KECCAK256 PUSH0 SWAP1 SLOAD SWAP1 PUSH2 0x100 EXP SWAP1 DIV PUSH2 0xFFFF AND PUSH2 0xFFFF AND EQ DUP1 ISZERO PUSH2 0x46B JUMPI POP PUSH0 PUSH1 0x4 PUSH0 CALLER PUSH20 0xFFFFFFFFFFFFFFFFFFFFFFFFFFFFFFFFFFFFFFFF AND PUSH20 0xFFFFFFFFFFFFFFFFFFFFFFFFFFFFFFFFFFFFFFFF AND DUP2 MSTORE PUSH1 0x20 ADD SWAP1 DUP2 MSTORE PUSH1 0x20 ADD PUSH0 KECCAK256 PUSH0 SWAP1 SLOAD SWAP1 PUSH2 0x100 EXP SWAP1 DIV PUSH2 0xFFFF AND PUSH2 0xFFFF AND EQ JUMPDEST PUSH2 0x4AA JUMPI PUSH1 0x40 MLOAD PUSH32 0x8C379A000000000000000000000000000000000000000000000000000000000 DUP2 MSTORE PUSH1 0x4 ADD PUSH2 0x4A1 SWAP1 PUSH2 0x3BED JUMP JUMPDEST PUSH1 0x40 MLOAD DUP1 SWAP2 SUB SWAP1 REVERT JUMPDEST PUSH0 DUP1 SLOAD SWAP1 PUSH2 0x100 EXP SWAP1 DIV PUSH4 0xFFFFFFFF AND PUSH4 0xFFFFFFFF AND PUSH1 0x1 DUP1 SLOAD SWAP1 POP LT PUSH2 0x506 JUMPI PUSH1 0x40 MLOAD PUSH32 0x8C379A000000000000000000000000000000000000000000000000000000000 DUP2 MSTORE PUSH1 0x4 ADD PUSH2 0x4FD SWAP1 PUSH2 0x3C55 JUMP JUMPDEST PUSH1 0x40 MLOAD DUP1 SWAP2 SUB SWAP1 REVERT JUMPDEST PUSH1 0x1 PUSH1 0x40 MLOAD DUP1 PUSH1 0xA0 ADD PUSH1 0x40 MSTORE DUP1 DUP10 DUP10 SWAP1 PUSH2 0x520 SWAP2 SWAP1 PUSH2 0x3C89 JUMP JUMPDEST PUSH12 0xFFFFFFFFFFFFFFFFFFFFFFFF NOT AND DUP2 MSTORE PUSH1 0x20 ADD CALLER PUSH20 0xFFFFFFFFFFFFFFFFFFFFFFFFFFFFFFFFFFFFFFFF AND DUP2 MSTORE PUSH1 0x20 ADD DUP8 DUP8 SWAP1 PUSH2 0x55D SWAP2 SWAP1 PUSH2 0x3C89 JUMP JUMPDEST PUSH12 0xFFFFFFFFFFFFFFFFFFFFFFFF NOT AND DUP2 MSTORE PUSH1 0x20 ADD DUP6 DUP6 SWAP1 PUSH2 0x57E SWAP2 SWAP1 PUSH2 0x3C89 JUMP JUMPDEST PUSH12 0xFFFFFFFFFFFFFFFFFFFFFFFF NOT AND DUP2 MSTORE PUSH1 0x20 ADD PUSH0 PUSH8 0xFFFFFFFFFFFFFFFF DUP2 GT ISZERO PUSH2 0x5AC JUMPI PUSH2 0x5AB PUSH2 0x3CE7 JUMP JUMPDEST JUMPDEST PUSH1 0x40 MLOAD SWAP1 DUP1 DUP3 MSTORE DUP1 PUSH1 0x20 MUL PUSH1 0x20 ADD DUP3 ADD PUSH1 0x40 MSTORE DUP1 ISZERO PUSH2 0x5DA JUMPI DUP2 PUSH1 0x20 ADD PUSH1 0x20 DUP3 MUL DUP1 CALLDATASIZE DUP4 CALLDATACOPY DUP1 DUP3 ADD SWAP2 POP POP SWAP1 POP JUMPDEST POP DUP2 MSTORE POP SWAP1 DUP1 PUSH1 0x1 DUP2 SLOAD ADD DUP1 DUP3 SSTORE DUP1 SWAP2 POP POP PUSH1 0x1 SWAP1 SUB SWAP1 PUSH0 MSTORE PUSH1 0x20 PUSH0 KECCAK256 SWAP1 PUSH1 0x5 MUL ADD PUSH0 SWAP1 SWAP2 SWAP1 SWAP2 SWAP1 SWAP2 POP PUSH0 DUP3 ADD MLOAD DUP2 PUSH0 ADD PUSH0 PUSH2 0x100 EXP DUP2 SLOAD DUP2 PUSH20 0xFFFFFFFFFFFFFFFFFFFFFFFFFFFFFFFFFFFFFFFF MUL NOT AND SWAP1 DUP4 PUSH1 0x60 SHR MUL OR SWAP1 SSTORE POP PUSH1 0x20 DUP3 ADD MLOAD DUP2 PUSH1 0x1 ADD PUSH0 PUSH2 0x100 EXP DUP2 SLOAD DUP2 PUSH20 0xFFFFFFFFFFFFFFFFFFFFFFFFFFFFFFFFFFFFFFFF MUL NOT AND SWAP1 DUP4 PUSH20 0xFFFFFFFFFFFFFFFFFFFFFFFFFFFFFFFFFFFFFFFF AND MUL OR SWAP1 SSTORE POP PUSH1 0x40 DUP3 ADD MLOAD DUP2 PUSH1 0x2 ADD PUSH0 PUSH2 0x100 EXP DUP2 SLOAD DUP2 PUSH20 0xFFFFFFFFFFFFFFFFFFFFFFFFFFFFFFFFFFFFFFFF MUL NOT AND SWAP1 DUP4 PUSH1 0x60 SHR MUL OR SWAP1 SSTORE POP PUSH1 0x60 DUP3 ADD MLOAD DUP2 PUSH1 0x3 ADD PUSH0 PUSH2 0x100 EXP DUP2 SLOAD DUP2 PUSH20 0xFFFFFFFFFFFFFFFFFFFFFFFFFFFFFFFFFFFFFFFF MUL NOT AND SWAP1 DUP4 PUSH1 0x60 SHR MUL OR SWAP1 SSTORE POP PUSH1 0x80 DUP3 ADD MLOAD DUP2 PUSH1 0x4 ADD SWAP1 DUP1 MLOAD SWAP1 PUSH1 0x20 ADD SWAP1 PUSH2 0x6FD SWAP3 SWAP2 SWAP1 PUSH2 0x2D2D JUMP JUMPDEST POP POP POP PUSH1 0x1 DUP1 SLOAD SWAP1 POP PUSH1 0x2 PUSH0 CALLER PUSH20 0xFFFFFFFFFFFFFFFFFFFFFFFFFFFFFFFFFFFFFFFF AND PUSH20 0xFFFFFFFFFFFFFFFFFFFFFFFFFFFFFFFFFFFFFFFF AND DUP2 MSTORE PUSH1 0x20 ADD SWAP1 DUP2 MSTORE PUSH1 0x20 ADD PUSH0 KECCAK256 PUSH0 PUSH2 0x100 EXP DUP2 SLOAD DUP2 PUSH2 0xFFFF MUL NOT AND SWAP1 DUP4 PUSH2 0xFFFF AND MUL OR SWAP1 SSTORE POP PUSH1 0x2 SWAP1 POP SWAP7 SWAP6 POP POP POP POP POP POP JUMP JUMPDEST PUSH0 DUP1 PUSH1 0x2 PUSH0 CALLER PUSH20 0xFFFFFFFFFFFFFFFFFFFFFFFFFFFFFFFFFFFFFFFF AND PUSH20 0xFFFFFFFFFFFFFFFFFFFFFFFFFFFFFFFFFFFFFFFF AND DUP2 MSTORE PUSH1 0x20 ADD SWAP1 DUP2 MSTORE PUSH1 0x20 ADD PUSH0 KECCAK256 PUSH0 SWAP1 SLOAD SWAP1 PUSH2 0x100 EXP SWAP1 DIV PUSH2 0xFFFF AND PUSH2 0xFFFF AND EQ DUP1 ISZERO PUSH2 0x815 JUMPI POP PUSH0 PUSH1 0x4 PUSH0 CALLER PUSH20 0xFFFFFFFFFFFFFFFFFFFFFFFFFFFFFFFFFFFFFFFF AND PUSH20 0xFFFFFFFFFFFFFFFFFFFFFFFFFFFFFFFFFFFFFFFF AND DUP2 MSTORE PUSH1 0x20 ADD SWAP1 DUP2 MSTORE PUSH1 0x20 ADD PUSH0 KECCAK256 PUSH0 SWAP1 SLOAD SWAP1 PUSH2 0x100 EXP SWAP1 DIV PUSH2 0xFFFF AND PUSH2 0xFFFF AND EQ JUMPDEST PUSH2 0x854 JUMPI PUSH1 0x40 MLOAD PUSH32 0x8C379A000000000000000000000000000000000000000000000000000000000 DUP2 MSTORE PUSH1 0x4 ADD PUSH2 0x84B SWAP1 PUSH2 0x3BED JUMP JUMPDEST PUSH1 0x40 MLOAD DUP1 SWAP2 SUB SWAP1 REVERT JUMPDEST PUSH0 DUP1 SLOAD SWAP1 PUSH2 0x100 EXP SWAP1 DIV PUSH4 0xFFFFFFFF AND PUSH4 0xFFFFFFFF AND PUSH1 0x3 DUP1 SLOAD SWAP1 POP LT PUSH2 0x8B0 JUMPI PUSH1 0x40 MLOAD PUSH32 0x8C379A000000000000000000000000000000000000000000000000000000000 DUP2 MSTORE PUSH1 0x4 ADD PUSH2 0x8A7 SWAP1 PUSH2 0x3C55 JUMP JUMPDEST PUSH1 0x40 MLOAD DUP1 SWAP2 SUB SWAP1 REVERT JUMPDEST PUSH1 0x3 PUSH1 0x40 MLOAD DUP1 PUSH1 0x80 ADD PUSH1 0x40 MSTORE DUP1 DUP8 DUP8 SWAP1 PUSH2 0x8CA SWAP2 SWAP1 PUSH2 0x3C89 JUMP JUMPDEST PUSH12 0xFFFFFFFFFFFFFFFFFFFFFFFF NOT AND DUP2 MSTORE PUSH1 0x20 ADD CALLER PUSH20 0xFFFFFFFFFFFFFFFFFFFFFFFFFFFFFFFFFFFFFFFF AND DUP2 MSTORE PUSH1 0x20 ADD DUP6 DUP6 SWAP1 PUSH2 0x907 SWAP2 SWAP1 PUSH2 0x3C89 JUMP JUMPDEST PUSH12 0xFFFFFFFFFFFFFFFFFFFFFFFF NOT AND DUP2 MSTORE PUSH1 0x20 ADD PUSH0 PUSH8 0xFFFFFFFFFFFFFFFF DUP2 GT ISZERO PUSH2 0x935 JUMPI PUSH2 0x934 PUSH2 0x3CE7 JUMP JUMPDEST JUMPDEST PUSH1 0x40 MLOAD SWAP1 DUP1 DUP3 MSTORE DUP1 PUSH1 0x20 MUL PUSH1 0x20 ADD DUP3 ADD PUSH1 0x40 MSTORE DUP1 ISZERO PUSH2 0x963 JUMPI DUP2 PUSH1 0x20 ADD PUSH1 0x20 DUP3 MUL DUP1 CALLDATASIZE DUP4 CALLDATACOPY DUP1 DUP3 ADD SWAP2 POP POP SWAP1 POP JUMPDEST POP DUP2 MSTORE POP SWAP1 DUP1 PUSH1 0x1 DUP2 SLOAD ADD DUP1 DUP3 SSTORE DUP1 SWAP2 POP POP PUSH1 0x1 SWAP1 SUB SWAP1 PUSH0 MSTORE PUSH1 0x20 PUSH0 KECCAK256 SWAP1 PUSH1 0x4 MUL ADD PUSH0 SWAP1 SWAP2 SWAP1 SWAP2 SWAP1 SWAP2 POP PUSH0 DUP3 ADD MLOAD DUP2 PUSH0 ADD PUSH0 PUSH2 0x100 EXP DUP2 SLOAD DUP2 PUSH20 0xFFFFFFFFFFFFFFFFFFFFFFFFFFFFFFFFFFFFFFFF MUL NOT AND SWAP1 DUP4 PUSH1 0x60 SHR MUL OR SWAP1 SSTORE POP PUSH1 0x20 DUP3 ADD MLOAD DUP2 PUSH1 0x1 ADD PUSH0 PUSH2 0x100 EXP DUP2 SLOAD DUP2 PUSH20 0xFFFFFFFFFFFFFFFFFFFFFFFFFFFFFFFFFFFFFFFF MUL NOT AND SWAP1 DUP4 PUSH20 0xFFFFFFFFFFFFFFFFFFFFFFFFFFFFFFFFFFFFFFFF AND MUL OR SWAP1 SSTORE POP PUSH1 0x40 DUP3 ADD MLOAD DUP2 PUSH1 0x2 ADD PUSH0 PUSH2 0x100 EXP DUP2 SLOAD DUP2 PUSH20 0xFFFFFFFFFFFFFFFFFFFFFFFFFFFFFFFFFFFFFFFF MUL NOT AND SWAP1 DUP4 PUSH1 0x60 SHR MUL OR SWAP1 SSTORE POP PUSH1 0x60 DUP3 ADD MLOAD DUP2 PUSH1 0x3 ADD SWAP1 DUP1 MLOAD SWAP1 PUSH1 0x20 ADD SWAP1 PUSH2 0xA53 SWAP3 SWAP2 SWAP1 PUSH2 0x2D2D JUMP JUMPDEST POP POP POP PUSH1 0x3 DUP1 SLOAD SWAP1 POP PUSH1 0x4 PUSH0 CALLER PUSH20 0xFFFFFFFFFFFFFFFFFFFFFFFFFFFFFFFFFFFFFFFF AND PUSH20 0xFFFFFFFFFFFFFFFFFFFFFFFFFFFFFFFFFFFFFFFF AND DUP2 MSTORE PUSH1 0x20 ADD SWAP1 DUP2 MSTORE PUSH1 0x20 ADD PUSH0 KECCAK256 PUSH0 PUSH2 0x100 EXP DUP2 SLOAD DUP2 PUSH2 0xFFFF MUL NOT AND SWAP1 DUP4 PUSH2 0xFFFF AND MUL OR SWAP1 SSTORE POP PUSH1 0x2 SWAP1 POP SWAP5 SWAP4 POP POP POP POP JUMP JUMPDEST PUSH1 0x5 DUP2 DUP2 SLOAD DUP2 LT PUSH2 0xACD JUMPI PUSH0 DUP1 REVERT JUMPDEST SWAP1 PUSH0 MSTORE PUSH1 0x20 PUSH0 KECCAK256 SWAP1 PUSH1 0x6 MUL ADD PUSH0 SWAP2 POP SWAP1 POP DUP1 PUSH0 ADD PUSH0 SWAP1 SLOAD SWAP1 PUSH2 0x100 EXP SWAP1 DIV PUSH2 0xFFFF AND SWAP1 DUP1 PUSH0 ADD PUSH1 0x2 SWAP1 SLOAD SWAP1 PUSH2 0x100 EXP SWAP1 DIV PUSH1 0x60 SHL SWAP1 DUP1 PUSH1 0x1 ADD PUSH0 SWAP1 SLOAD SWAP1 PUSH2 0x100 EXP SWAP1 DIV PUSH1 0x10 SHL SWAP1 DUP1 PUSH1 0x1 ADD PUSH1 0x1E SWAP1 SLOAD SWAP1 PUSH2 0x100 EXP SWAP1 DIV PUSH1 0xFF AND SWAP1 DUP1 PUSH1 0x2 ADD PUSH0 SWAP1 SLOAD SWAP1 PUSH2 0x100 EXP SWAP1 DIV PUSH8 0xFFFFFFFFFFFFFFFF AND SWAP1 DUP1 PUSH1 0x2 ADD PUSH1 0x8 SWAP1 SLOAD SWAP1 PUSH2 0x100 EXP SWAP1 DIV PUSH8 0xFFFFFFFFFFFFFFFF AND SWAP1 DUP1 PUSH1 0x2 ADD PUSH1 0x10 SWAP1 SLOAD SWAP1 PUSH2 0x100 EXP SWAP1 DIV PUSH4 0xFFFFFFFF AND SWAP1 DUP1 PUSH1 0x5 ADD PUSH0 SWAP1 SLOAD SWAP1 PUSH2 0x100 EXP SWAP1 DIV PUSH20 0xFFFFFFFFFFFFFFFFFFFFFFFFFFFFFFFFFFFFFFFF AND SWAP1 POP DUP9 JUMP JUMPDEST PUSH1 0x60 DUP2 ISZERO PUSH2 0xE83 JUMPI PUSH1 0x5 DUP1 SLOAD DUP1 PUSH1 0x20 MUL PUSH1 0x20 ADD PUSH1 0x40 MLOAD SWAP1 DUP2 ADD PUSH1 0x40 MSTORE DUP1 SWAP3 SWAP2 SWAP1 DUP2 DUP2 MSTORE PUSH1 0x20 ADD PUSH0 SWAP1 JUMPDEST DUP3 DUP3 LT ISZERO PUSH2 0xE78 JUMPI DUP4 DUP3 SWAP1 PUSH0 MSTORE PUSH1 0x20 PUSH0 KECCAK256 SWAP1 PUSH1 0x6 MUL ADD PUSH1 0x40 MLOAD DUP1 PUSH2 0x140 ADD PUSH1 0x40 MSTORE SWAP1 DUP2 PUSH0 DUP3 ADD PUSH0 SWAP1 SLOAD SWAP1 PUSH2 0x100 EXP SWAP1 DIV PUSH2 0xFFFF AND PUSH2 0xFFFF AND PUSH2 0xFFFF AND DUP2 MSTORE PUSH1 0x20 ADD PUSH0 DUP3 ADD PUSH1 0x2 SWAP1 SLOAD SWAP1 PUSH2 0x100 EXP SWAP1 DIV PUSH1 0x60 SHL PUSH12 0xFFFFFFFFFFFFFFFFFFFFFFFF NOT AND PUSH12 0xFFFFFFFFFFFFFFFFFFFFFFFF NOT AND DUP2 MSTORE PUSH1 0x20 ADD PUSH1 0x1 DUP3 ADD PUSH0 SWAP1 SLOAD SWAP1 PUSH2 0x100 EXP SWAP1 DIV PUSH1 0x10 SHL PUSH2 0xFFFF NOT AND PUSH2 0xFFFF NOT AND DUP2 MSTORE PUSH1 0x20 ADD PUSH1 0x1 DUP3 ADD PUSH1 0x1E SWAP1 SLOAD SWAP1 PUSH2 0x100 EXP SWAP1 DIV PUSH1 0xFF AND PUSH1 0x4 DUP2 GT ISZERO PUSH2 0xC7B JUMPI PUSH2 0xC7A PUSH2 0x31A3 JUMP JUMPDEST JUMPDEST PUSH1 0x4 DUP2 GT ISZERO PUSH2 0xC8D JUMPI PUSH2 0xC8C PUSH2 0x31A3 JUMP JUMPDEST JUMPDEST DUP2 MSTORE PUSH1 0x20 ADD PUSH1 0x2 DUP3 ADD PUSH0 SWAP1 SLOAD SWAP1 PUSH2 0x100 EXP SWAP1 DIV PUSH8 0xFFFFFFFFFFFFFFFF AND PUSH8 0xFFFFFFFFFFFFFFFF AND PUSH8 0xFFFFFFFFFFFFFFFF AND DUP2 MSTORE PUSH1 0x20 ADD PUSH1 0x2 DUP3 ADD PUSH1 0x8 SWAP1 SLOAD SWAP1 PUSH2 0x100 EXP SWAP1 DIV PUSH8 0xFFFFFFFFFFFFFFFF AND PUSH8 0xFFFFFFFFFFFFFFFF AND PUSH8 0xFFFFFFFFFFFFFFFF AND DUP2 MSTORE PUSH1 0x20 ADD PUSH1 0x2 DUP3 ADD PUSH1 0x10 SWAP1 SLOAD SWAP1 PUSH2 0x100 EXP SWAP1 DIV PUSH4 0xFFFFFFFF AND PUSH4 0xFFFFFFFF AND PUSH4 0xFFFFFFFF AND DUP2 MSTORE PUSH1 0x20 ADD PUSH1 0x3 DUP3 ADD DUP1 SLOAD DUP1 PUSH1 0x20 MUL PUSH1 0x20 ADD PUSH1 0x40 MLOAD SWAP1 DUP2 ADD PUSH1 0x40 MSTORE DUP1 SWAP3 SWAP2 SWAP1 DUP2 DUP2 MSTORE PUSH1 0x20 ADD DUP3 DUP1 SLOAD DUP1 ISZERO PUSH2 0xD8E JUMPI PUSH1 0x20 MUL DUP3 ADD SWAP2 SWAP1 PUSH0 MSTORE PUSH1 0x20 PUSH0 KECCAK256 SWAP1 PUSH0 SWAP1 JUMPDEST DUP3 DUP3 SWAP1 SLOAD SWAP1 PUSH2 0x100 EXP SWAP1 DIV PUSH2 0xFFFF AND PUSH2 0xFFFF AND DUP2 MSTORE PUSH1 0x20 ADD SWAP1 PUSH1 0x2 ADD SWAP1 PUSH1 0x20 DUP3 PUSH1 0x1 ADD DIV SWAP3 DUP4 ADD SWAP3 PUSH1 0x1 SUB DUP3 MUL SWAP2 POP DUP1 DUP5 GT PUSH2 0xD55 JUMPI SWAP1 POP JUMPDEST POP POP POP POP POP DUP2 MSTORE PUSH1 0x20 ADD PUSH1 0x4 DUP3 ADD DUP1 SLOAD DUP1 PUSH1 0x20 MUL PUSH1 0x20 ADD PUSH1 0x40 MLOAD SWAP1 DUP2 ADD PUSH1 0x40 MSTORE DUP1 SWAP3 SWAP2 SWAP1 DUP2 DUP2 MSTORE PUSH1 0x20 ADD DUP3 DUP1 SLOAD DUP1 ISZERO PUSH2 0xE0B JUMPI PUSH1 0x20 MUL DUP3 ADD SWAP2 SWAP1 PUSH0 MSTORE PUSH1 0x20 PUSH0 KECCAK256 SWAP1 PUSH0 SWAP1 JUMPDEST DUP3 DUP3 SWAP1 SLOAD SWAP1 PUSH2 0x100 EXP SWAP1 DIV PUSH2 0xFFFF AND PUSH2 0xFFFF AND DUP2 MSTORE PUSH1 0x20 ADD SWAP1 PUSH1 0x2 ADD SWAP1 PUSH1 0x20 DUP3 PUSH1 0x1 ADD DIV SWAP3 DUP4 ADD SWAP3 PUSH1 0x1 SUB DUP3 MUL SWAP2 POP DUP1 DUP5 GT PUSH2 0xDD2 JUMPI SWAP1 POP JUMPDEST POP POP POP POP POP DUP2 MSTORE PUSH1 0x20 ADD PUSH1 0x5 DUP3 ADD PUSH0 SWAP1 SLOAD SWAP1 PUSH2 0x100 EXP SWAP1 DIV PUSH20 0xFFFFFFFFFFFFFFFFFFFFFFFFFFFFFFFFFFFFFFFF AND PUSH20 0xFFFFFFFFFFFFFFFFFFFFFFFFFFFFFFFFFFFFFFFF AND PUSH20 0xFFFFFFFFFFFFFFFFFFFFFFFFFFFFFFFFFFFFFFFF AND DUP2 MSTORE POP POP DUP2 MSTORE PUSH1 0x20 ADD SWAP1 PUSH1 0x1 ADD SWAP1 PUSH2 0xBC2 JUMP JUMPDEST POP POP POP POP SWAP1 POP PUSH2 0x1434 JUMP JUMPDEST PUSH0 DUP1 PUSH1 0x2 PUSH0 CALLER PUSH20 0xFFFFFFFFFFFFFFFFFFFFFFFFFFFFFFFFFFFFFFFF AND PUSH20 0xFFFFFFFFFFFFFFFFFFFFFFFFFFFFFFFFFFFFFFFF AND DUP2 MSTORE PUSH1 0x20 ADD SWAP1 DUP2 MSTORE PUSH1 0x20 ADD PUSH0 KECCAK256 PUSH0 SWAP1 SLOAD SWAP1 PUSH2 0x100 EXP SWAP1 DIV PUSH2 0xFFFF AND PUSH2 0xFFFF AND EQ PUSH2 0xF5C JUMPI PUSH1 0x1 DUP1 PUSH1 0x2 PUSH0 CALLER PUSH20 0xFFFFFFFFFFFFFFFFFFFFFFFFFFFFFFFFFFFFFFFF AND PUSH20 0xFFFFFFFFFFFFFFFFFFFFFFFFFFFFFFFFFFFFFFFF AND DUP2 MSTORE PUSH1 0x20 ADD SWAP1 DUP2 MSTORE PUSH1 0x20 ADD PUSH0 KECCAK256 PUSH0 SWAP1 SLOAD SWAP1 PUSH2 0x100 EXP SWAP1 DIV PUSH2 0xFFFF AND PUSH2 0xF31 SWAP2 SWAP1 PUSH2 0x3D41 JUMP JUMPDEST PUSH2 0xFFFF AND DUP2 SLOAD DUP2 LT PUSH2 0xF46 JUMPI PUSH2 0xF45 PUSH2 0x3D76 JUMP JUMPDEST JUMPDEST SWAP1 PUSH0 MSTORE PUSH1 0x20 PUSH0 KECCAK256 SWAP1 PUSH1 0x5 MUL ADD PUSH1 0x4 ADD SWAP1 POP PUSH2 0x1092 JUMP JUMPDEST PUSH0 PUSH1 0x4 PUSH0 CALLER PUSH20 0xFFFFFFFFFFFFFFFFFFFFFFFFFFFFFFFFFFFFFFFF AND PUSH20 0xFFFFFFFFFFFFFFFFFFFFFFFFFFFFFFFFFFFFFFFF AND DUP2 MSTORE PUSH1 0x20 ADD SWAP1 DUP2 MSTORE PUSH1 0x20 ADD PUSH0 KECCAK256 PUSH0 SWAP1 SLOAD SWAP1 PUSH2 0x100 EXP SWAP1 DIV PUSH2 0xFFFF AND PUSH2 0xFFFF AND EQ PUSH2 0x1035 JUMPI PUSH1 0x3 PUSH1 0x1 PUSH1 0x4 PUSH0 CALLER PUSH20 0xFFFFFFFFFFFFFFFFFFFFFFFFFFFFFFFFFFFFFFFF AND PUSH20 0xFFFFFFFFFFFFFFFFFFFFFFFFFFFFFFFFFFFFFFFF AND DUP2 MSTORE PUSH1 0x20 ADD SWAP1 DUP2 MSTORE PUSH1 0x20 ADD PUSH0 KECCAK256 PUSH0 SWAP1 SLOAD SWAP1 PUSH2 0x100 EXP SWAP1 DIV PUSH2 0xFFFF AND PUSH2 0x100A SWAP2 SWAP1 PUSH2 0x3D41 JUMP JUMPDEST PUSH2 0xFFFF AND DUP2 SLOAD DUP2 LT PUSH2 0x101F JUMPI PUSH2 0x101E PUSH2 0x3D76 JUMP JUMPDEST JUMPDEST SWAP1 PUSH0 MSTORE PUSH1 0x20 PUSH0 KECCAK256 SWAP1 PUSH1 0x4 MUL ADD PUSH1 0x3 ADD SWAP1 POP PUSH2 0x1091 JUMP JUMPDEST PUSH0 PUSH8 0xFFFFFFFFFFFFFFFF DUP2 GT ISZERO PUSH2 0x104F JUMPI PUSH2 0x104E PUSH2 0x3CE7 JUMP JUMPDEST JUMPDEST PUSH1 0x40 MLOAD SWAP1 DUP1 DUP3 MSTORE DUP1 PUSH1 0x20 MUL PUSH1 0x20 ADD DUP3 ADD PUSH1 0x40 MSTORE DUP1 ISZERO PUSH2 0x1088 JUMPI DUP2 PUSH1 0x20 ADD JUMPDEST PUSH2 0x1075 PUSH2 0x2DD4 JUMP JUMPDEST DUP2 MSTORE PUSH1 0x20 ADD SWAP1 PUSH1 0x1 SWAP1 SUB SWAP1 DUP2 PUSH2 0x106D JUMPI SWAP1 POP JUMPDEST POP SWAP2 POP POP PUSH2 0x1434 JUMP JUMPDEST JUMPDEST PUSH0 DUP2 DUP1 SLOAD SWAP1 POP PUSH8 0xFFFFFFFFFFFFFFFF DUP2 GT ISZERO PUSH2 0x10B1 JUMPI PUSH2 0x10B0 PUSH2 0x3CE7 JUMP JUMPDEST JUMPDEST PUSH1 0x40 MLOAD SWAP1 DUP1 DUP3 MSTORE DUP1 PUSH1 0x20 MUL PUSH1 0x20 ADD DUP3 ADD PUSH1 0x40 MSTORE DUP1 ISZERO PUSH2 0x10EA JUMPI DUP2 PUSH1 0x20 ADD JUMPDEST PUSH2 0x10D7 PUSH2 0x2DD4 JUMP JUMPDEST DUP2 MSTORE PUSH1 0x20 ADD SWAP1 PUSH1 0x1 SWAP1 SUB SWAP1 DUP2 PUSH2 0x10CF JUMPI SWAP1 POP JUMPDEST POP SWAP1 POP PUSH0 JUMPDEST DUP3 DUP1 SLOAD SWAP1 POP DUP2 PUSH2 0xFFFF AND LT ISZERO PUSH2 0x142D JUMPI PUSH1 0x5 PUSH1 0x1 DUP5 DUP4 PUSH2 0xFFFF AND DUP2 SLOAD DUP2 LT PUSH2 0x111A JUMPI PUSH2 0x1119 PUSH2 0x3D76 JUMP JUMPDEST JUMPDEST SWAP1 PUSH0 MSTORE PUSH1 0x20 PUSH0 KECCAK256 SWAP1 PUSH1 0x10 SWAP2 DUP3 DUP3 DIV ADD SWAP2 SWAP1 MOD PUSH1 0x2 MUL SWAP1 SLOAD SWAP1 PUSH2 0x100 EXP SWAP1 DIV PUSH2 0xFFFF AND PUSH2 0x1146 SWAP2 SWAP1 PUSH2 0x3D41 JUMP JUMPDEST PUSH2 0xFFFF AND DUP2 SLOAD DUP2 LT PUSH2 0x115B JUMPI PUSH2 0x115A PUSH2 0x3D76 JUMP JUMPDEST JUMPDEST SWAP1 PUSH0 MSTORE PUSH1 0x20 PUSH0 KECCAK256 SWAP1 PUSH1 0x6 MUL ADD PUSH1 0x40 MLOAD DUP1 PUSH2 0x140 ADD PUSH1 0x40 MSTORE SWAP1 DUP2 PUSH0 DUP3 ADD PUSH0 SWAP1 SLOAD SWAP1 PUSH2 0x100 EXP SWAP1 DIV PUSH2 0xFFFF AND PUSH2 0xFFFF AND PUSH2 0xFFFF AND DUP2 MSTORE PUSH1 0x20 ADD PUSH0 DUP3 ADD PUSH1 0x2 SWAP1 SLOAD SWAP1 PUSH2 0x100 EXP SWAP1 DIV PUSH1 0x60 SHL PUSH12 0xFFFFFFFFFFFFFFFFFFFFFFFF NOT AND PUSH12 0xFFFFFFFFFFFFFFFFFFFFFFFF NOT AND DUP2 MSTORE PUSH1 0x20 ADD PUSH1 0x1 DUP3 ADD PUSH0 SWAP1 SLOAD SWAP1 PUSH2 0x100 EXP SWAP1 DIV PUSH1 0x10 SHL PUSH2 0xFFFF NOT AND PUSH2 0xFFFF NOT AND DUP2 MSTORE PUSH1 0x20 ADD PUSH1 0x1 DUP3 ADD PUSH1 0x1E SWAP1 SLOAD SWAP1 PUSH2 0x100 EXP SWAP1 DIV PUSH1 0xFF AND PUSH1 0x4 DUP2 GT ISZERO PUSH2 0x120A JUMPI PUSH2 0x1209 PUSH2 0x31A3 JUMP JUMPDEST JUMPDEST PUSH1 0x4 DUP2 GT ISZERO PUSH2 0x121C JUMPI PUSH2 0x121B PUSH2 0x31A3 JUMP JUMPDEST JUMPDEST DUP2 MSTORE PUSH1 0x20 ADD PUSH1 0x2 DUP3 ADD PUSH0 SWAP1 SLOAD SWAP1 PUSH2 0x100 EXP SWAP1 DIV PUSH8 0xFFFFFFFFFFFFFFFF AND PUSH8 0xFFFFFFFFFFFFFFFF AND PUSH8 0xFFFFFFFFFFFFFFFF AND DUP2 MSTORE PUSH1 0x20 ADD PUSH1 0x2 DUP3 ADD PUSH1 0x8 SWAP1 SLOAD SWAP1 PUSH2 0x100 EXP SWAP1 DIV PUSH8 0xFFFFFFFFFFFFFFFF AND PUSH8 0xFFFFFFFFFFFFFFFF AND PUSH8 0xFFFFFFFFFFFFFFFF AND DUP2 MSTORE PUSH1 0x20 ADD PUSH1 0x2 DUP3 ADD PUSH1 0x10 SWAP1 SLOAD SWAP1 PUSH2 0x100 EXP SWAP1 DIV PUSH4 0xFFFFFFFF AND PUSH4 0xFFFFFFFF AND PUSH4 0xFFFFFFFF AND DUP2 MSTORE PUSH1 0x20 ADD PUSH1 0x3 DUP3 ADD DUP1 SLOAD DUP1 PUSH1 0x20 MUL PUSH1 0x20 ADD PUSH1 0x40 MLOAD SWAP1 DUP2 ADD PUSH1 0x40 MSTORE DUP1 SWAP3 SWAP2 SWAP1 DUP2 DUP2 MSTORE PUSH1 0x20 ADD DUP3 DUP1 SLOAD DUP1 ISZERO PUSH2 0x131D JUMPI PUSH1 0x20 MUL DUP3 ADD SWAP2 SWAP1 PUSH0 MSTORE PUSH1 0x20 PUSH0 KECCAK256 SWAP1 PUSH0 SWAP1 JUMPDEST DUP3 DUP3 SWAP1 SLOAD SWAP1 PUSH2 0x100 EXP SWAP1 DIV PUSH2 0xFFFF AND PUSH2 0xFFFF AND DUP2 MSTORE PUSH1 0x20 ADD SWAP1 PUSH1 0x2 ADD SWAP1 PUSH1 0x20 DUP3 PUSH1 0x1 ADD DIV SWAP3 DUP4 ADD SWAP3 PUSH1 0x1 SUB DUP3 MUL SWAP2 POP DUP1 DUP5 GT PUSH2 0x12E4 JUMPI SWAP1 POP JUMPDEST POP POP POP POP POP DUP2 MSTORE PUSH1 0x20 ADD PUSH1 0x4 DUP3 ADD DUP1 SLOAD DUP1 PUSH1 0x20 MUL PUSH1 0x20 ADD PUSH1 0x40 MLOAD SWAP1 DUP2 ADD PUSH1 0x40 MSTORE DUP1 SWAP3 SWAP2 SWAP1 DUP2 DUP2 MSTORE PUSH1 0x20 ADD DUP3 DUP1 SLOAD DUP1 ISZERO PUSH2 0x139A JUMPI PUSH1 0x20 MUL DUP3 ADD SWAP2 SWAP1 PUSH0 MSTORE PUSH1 0x20 PUSH0 KECCAK256 SWAP1 PUSH0 SWAP1 JUMPDEST DUP3 DUP3 SWAP1 SLOAD SWAP1 PUSH2 0x100 EXP SWAP1 DIV PUSH2 0xFFFF AND PUSH2 0xFFFF AND DUP2 MSTORE PUSH1 0x20 ADD SWAP1 PUSH1 0x2 ADD SWAP1 PUSH1 0x20 DUP3 PUSH1 0x1 ADD DIV SWAP3 DUP4 ADD SWAP3 PUSH1 0x1 SUB DUP3 MUL SWAP2 POP DUP1 DUP5 GT PUSH2 0x1361 JUMPI SWAP1 POP JUMPDEST POP POP POP POP POP DUP2 MSTORE PUSH1 0x20 ADD PUSH1 0x5 DUP3 ADD PUSH0 SWAP1 SLOAD SWAP1 PUSH2 0x100 EXP SWAP1 DIV PUSH20 0xFFFFFFFFFFFFFFFFFFFFFFFFFFFFFFFFFFFFFFFF AND PUSH20 0xFFFFFFFFFFFFFFFFFFFFFFFFFFFFFFFFFFFFFFFF AND PUSH20 0xFFFFFFFFFFFFFFFFFFFFFFFFFFFFFFFFFFFFFFFF AND DUP2 MSTORE POP POP DUP3 DUP3 PUSH2 0xFFFF AND DUP2 MLOAD DUP2 LT PUSH2 0x140F JUMPI PUSH2 0x140E PUSH2 0x3D76 JUMP JUMPDEST JUMPDEST PUSH1 0x20 MUL PUSH1 0x20 ADD ADD DUP2 SWAP1 MSTORE POP DUP1 DUP1 PUSH2 0x1425 SWAP1 PUSH2 0x3DA3 JUMP JUMPDEST SWAP2 POP POP PUSH2 0x10EF JUMP JUMPDEST POP DUP1 SWAP3 POP POP POP JUMPDEST SWAP2 SWAP1 POP JUMP JUMPDEST PUSH1 0x60 PUSH0 PUSH1 0x1 DUP1 SLOAD SWAP1 POP PUSH8 0xFFFFFFFFFFFFFFFF DUP2 GT ISZERO PUSH2 0x145B JUMPI PUSH2 0x145A PUSH2 0x3CE7 JUMP JUMPDEST JUMPDEST PUSH1 0x40 MLOAD SWAP1 DUP1 DUP3 MSTORE DUP1 PUSH1 0x20 MUL PUSH1 0x20 ADD DUP3 ADD PUSH1 0x40 MSTORE DUP1 ISZERO PUSH2 0x1494 JUMPI DUP2 PUSH1 0x20 ADD JUMPDEST PUSH2 0x1481 PUSH2 0x2E79 JUMP JUMPDEST DUP2 MSTORE PUSH1 0x20 ADD SWAP1 PUSH1 0x1 SWAP1 SUB SWAP1 DUP2 PUSH2 0x1479 JUMPI SWAP1 POP JUMPDEST POP SWAP1 POP PUSH0 JUMPDEST PUSH1 0x1 DUP1 SLOAD SWAP1 POP DUP2 PUSH2 0xFFFF AND LT ISZERO PUSH2 0x1574 JUMPI PUSH1 0x1 DUP2 PUSH2 0x14B7 SWAP2 SWAP1 PUSH2 0x3DCC JUMP JUMPDEST DUP3 DUP3 PUSH2 0xFFFF AND DUP2 MLOAD DUP2 LT PUSH2 0x14CE JUMPI PUSH2 0x14CD PUSH2 0x3D76 JUMP JUMPDEST JUMPDEST PUSH1 0x20 MUL PUSH1 0x20 ADD ADD MLOAD PUSH0 ADD SWAP1 PUSH2 0xFFFF AND SWAP1 DUP2 PUSH2 0xFFFF AND DUP2 MSTORE POP POP PUSH1 0x1 DUP2 PUSH2 0xFFFF AND DUP2 SLOAD DUP2 LT PUSH2 0x14FF JUMPI PUSH2 0x14FE PUSH2 0x3D76 JUMP JUMPDEST JUMPDEST SWAP1 PUSH0 MSTORE PUSH1 0x20 PUSH0 KECCAK256 SWAP1 PUSH1 0x5 MUL ADD PUSH0 ADD PUSH0 SWAP1 SLOAD SWAP1 PUSH2 0x100 EXP SWAP1 DIV PUSH1 0x60 SHL DUP3 DUP3 PUSH2 0xFFFF AND DUP2 MLOAD DUP2 LT PUSH2 0x1531 JUMPI PUSH2 0x1530 PUSH2 0x3D76 JUMP JUMPDEST JUMPDEST PUSH1 0x20 MUL PUSH1 0x20 ADD ADD MLOAD PUSH1 0x20 ADD SWAP1 PUSH12 0xFFFFFFFFFFFFFFFFFFFFFFFF NOT AND SWAP1 DUP2 PUSH12 0xFFFFFFFFFFFFFFFFFFFFFFFF NOT AND DUP2 MSTORE POP POP DUP1 DUP1 PUSH2 0x156C SWAP1 PUSH2 0x3DA3 JUMP JUMPDEST SWAP2 POP POP PUSH2 0x1499 JUMP JUMPDEST POP DUP1 SWAP2 POP POP SWAP1 JUMP JUMPDEST PUSH1 0x3 DUP2 DUP2 SLOAD DUP2 LT PUSH2 0x158B JUMPI PUSH0 DUP1 REVERT JUMPDEST SWAP1 PUSH0 MSTORE PUSH1 0x20 PUSH0 KECCAK256 SWAP1 PUSH1 0x4 MUL ADD PUSH0 SWAP2 POP SWAP1 POP DUP1 PUSH0 ADD PUSH0 SWAP1 SLOAD SWAP1 PUSH2 0x100 EXP SWAP1 DIV PUSH1 0x60 SHL SWAP1 DUP1 PUSH1 0x1 ADD PUSH0 SWAP1 SLOAD SWAP1 PUSH2 0x100 EXP SWAP1 DIV PUSH20 0xFFFFFFFFFFFFFFFFFFFFFFFFFFFFFFFFFFFFFFFF AND SWAP1 DUP1 PUSH1 0x2 ADD PUSH0 SWAP1 SLOAD SWAP1 PUSH2 0x100 EXP SWAP1 DIV PUSH1 0x60 SHL SWAP1 POP DUP4 JUMP JUMPDEST PUSH0 DUP1 PUSH1 0x4 PUSH0 CALLER PUSH20 0xFFFFFFFFFFFFFFFFFFFFFFFFFFFFFFFFFFFFFFFF AND PUSH20 0xFFFFFFFFFFFFFFFFFFFFFFFFFFFFFFFFFFFFFFFF AND DUP2 MSTORE PUSH1 0x20 ADD SWAP1 DUP2 MSTORE PUSH1 0x20 ADD PUSH0 KECCAK256 PUSH0 SWAP1 SLOAD SWAP1 PUSH2 0x100 EXP SWAP1 DIV PUSH2 0xFFFF AND PUSH2 0xFFFF AND EQ ISZERO DUP1 ISZERO PUSH2 0x1650 JUMPI POP PUSH1 0x5 DUP1 SLOAD SWAP1 POP DUP4 PUSH2 0xFFFF AND GT ISZERO JUMPDEST PUSH2 0x168F JUMPI PUSH1 0x40 MLOAD PUSH32 0x8C379A000000000000000000000000000000000000000000000000000000000 DUP2 MSTORE PUSH1 0x4 ADD PUSH2 0x1686 SWAP1 PUSH2 0x3E4B JUMP JUMPDEST PUSH1 0x40 MLOAD DUP1 SWAP2 SUB SWAP1 REVERT JUMPDEST PUSH0 PUSH1 0x5 PUSH1 0x1 DUP6 PUSH2 0x169F SWAP2 SWAP1 PUSH2 0x3D41 JUMP JUMPDEST PUSH2 0xFFFF AND DUP2 SLOAD DUP2 LT PUSH2 0x16B4 JUMPI PUSH2 0x16B3 PUSH2 0x3D76 JUMP JUMPDEST JUMPDEST SWAP1 PUSH0 MSTORE PUSH1 0x20 PUSH0 KECCAK256 SWAP1 PUSH1 0x6 MUL ADD SWAP1 POP PUSH1 0x1 PUSH1 0x4 DUP2 GT ISZERO PUSH2 0x16D6 JUMPI PUSH2 0x16D5 PUSH2 0x31A3 JUMP JUMPDEST JUMPDEST DUP2 PUSH1 0x1 ADD PUSH1 0x1E SWAP1 SLOAD SWAP1 PUSH2 0x100 EXP SWAP1 DIV PUSH1 0xFF AND PUSH1 0x4 DUP2 GT ISZERO PUSH2 0x16FA JUMPI PUSH2 0x16F9 PUSH2 0x31A3 JUMP JUMPDEST JUMPDEST EQ PUSH2 0x173A JUMPI PUSH1 0x40 MLOAD PUSH32 0x8C379A000000000000000000000000000000000000000000000000000000000 DUP2 MSTORE PUSH1 0x4 ADD PUSH2 0x1731 SWAP1 PUSH2 0x3EB3 JUMP JUMPDEST PUSH1 0x40 MLOAD DUP1 SWAP2 SUB SWAP1 REVERT JUMPDEST DUP3 PUSH8 0xFFFFFFFFFFFFFFFF AND DUP2 PUSH1 0x2 ADD PUSH1 0x8 SWAP1 SLOAD SWAP1 PUSH2 0x100 EXP SWAP1 DIV PUSH8 0xFFFFFFFFFFFFFFFF AND PUSH8 0xFFFFFFFFFFFFFFFF AND GT ISZERO PUSH2 0x17A9 JUMPI PUSH1 0x40 MLOAD PUSH32 0x8C379A000000000000000000000000000000000000000000000000000000000 DUP2 MSTORE PUSH1 0x4 ADD PUSH2 0x17A0 SWAP1 PUSH2 0x3F1B JUMP JUMPDEST PUSH1 0x40 MLOAD DUP1 SWAP2 SUB SWAP1 REVERT JUMPDEST PUSH1 0x4 DUP2 PUSH1 0x1 ADD PUSH1 0x1E PUSH2 0x100 EXP DUP2 SLOAD DUP2 PUSH1 0xFF MUL NOT AND SWAP1 DUP4 PUSH1 0x4 DUP2 GT ISZERO PUSH2 0x17D1 JUMPI PUSH2 0x17D0 PUSH2 0x31A3 JUMP JUMPDEST JUMPDEST MUL OR SWAP1 SSTORE POP DUP3 DUP2 PUSH1 0x2 ADD PUSH1 0x8 PUSH2 0x100 EXP DUP2 SLOAD DUP2 PUSH8 0xFFFFFFFFFFFFFFFF MUL NOT AND SWAP1 DUP4 PUSH8 0xFFFFFFFFFFFFFFFF AND MUL OR SWAP1 SSTORE POP PUSH1 0x2 SWAP2 POP POP SWAP3 SWAP2 POP POP JUMP JUMPDEST PUSH1 0x60 PUSH0 PUSH1 0x3 DUP1 SLOAD SWAP1 POP PUSH8 0xFFFFFFFFFFFFFFFF DUP2 GT ISZERO PUSH2 0x182E JUMPI PUSH2 0x182D PUSH2 0x3CE7 JUMP JUMPDEST JUMPDEST PUSH1 0x40 MLOAD SWAP1 DUP1 DUP3 MSTORE DUP1 PUSH1 0x20 MUL PUSH1 0x20 ADD DUP3 ADD PUSH1 0x40 MSTORE DUP1 ISZERO PUSH2 0x1867 JUMPI DUP2 PUSH1 0x20 ADD JUMPDEST PUSH2 0x1854 PUSH2 0x2EA4 JUMP JUMPDEST DUP2 MSTORE PUSH1 0x20 ADD SWAP1 PUSH1 0x1 SWAP1 SUB SWAP1 DUP2 PUSH2 0x184C JUMPI SWAP1 POP JUMPDEST POP SWAP1 POP PUSH0 JUMPDEST PUSH1 0x3 DUP1 SLOAD SWAP1 POP DUP2 PUSH2 0xFFFF AND LT ISZERO PUSH2 0x1947 JUMPI PUSH1 0x1 DUP2 PUSH2 0x188A SWAP2 SWAP1 PUSH2 0x3DCC JUMP JUMPDEST DUP3 DUP3 PUSH2 0xFFFF AND DUP2 MLOAD DUP2 LT PUSH2 0x18A1 JUMPI PUSH2 0x18A0 PUSH2 0x3D76 JUMP JUMPDEST JUMPDEST PUSH1 0x20 MUL PUSH1 0x20 ADD ADD MLOAD PUSH0 ADD SWAP1 PUSH2 0xFFFF AND SWAP1 DUP2 PUSH2 0xFFFF AND DUP2 MSTORE POP POP PUSH1 0x3 DUP2 PUSH2 0xFFFF AND DUP2 SLOAD DUP2 LT PUSH2 0x18D2 JUMPI PUSH2 0x18D1 PUSH2 0x3D76 JUMP JUMPDEST JUMPDEST SWAP1 PUSH0 MSTORE PUSH1 0x20 PUSH0 KECCAK256 SWAP1 PUSH1 0x4 MUL ADD PUSH0 ADD PUSH0 SWAP1 SLOAD SWAP1 PUSH2 0x100 EXP SWAP1 DIV PUSH1 0x60 SHL DUP3 DUP3 PUSH2 0xFFFF AND DUP2 MLOAD DUP2 LT PUSH2 0x1904 JUMPI PUSH2 0x1903 PUSH2 0x3D76 JUMP JUMPDEST JUMPDEST PUSH1 0x20 MUL PUSH1 0x20 ADD ADD MLOAD PUSH1 0x20 ADD SWAP1 PUSH12 0xFFFFFFFFFFFFFFFFFFFFFFFF NOT AND SWAP1 DUP2 PUSH12 0xFFFFFFFFFFFFFFFFFFFFFFFF NOT AND DUP2 MSTORE POP POP DUP1 DUP1 PUSH2 0x193F SWAP1 PUSH2 0x3DA3 JUMP JUMPDEST SWAP2 POP POP PUSH2 0x186C JUMP JUMPDEST POP DUP1 SWAP2 POP POP SWAP1 JUMP JUMPDEST PUSH0 DUP1 PUSH1 0x4 PUSH0 CALLER PUSH20 0xFFFFFFFFFFFFFFFFFFFFFFFFFFFFFFFFFFFFFFFF AND PUSH20 0xFFFFFFFFFFFFFFFFFFFFFFFFFFFFFFFFFFFFFFFF AND DUP2 MSTORE PUSH1 0x20 ADD SWAP1 DUP2 MSTORE PUSH1 0x20 ADD PUSH0 KECCAK256 PUSH0 SWAP1 SLOAD SWAP1 PUSH2 0x100 EXP SWAP1 DIV PUSH2 0xFFFF AND PUSH2 0xFFFF AND SUB PUSH2 0x19E0 JUMPI PUSH1 0x40 MLOAD PUSH32 0x8C379A000000000000000000000000000000000000000000000000000000000 DUP2 MSTORE PUSH1 0x4 ADD PUSH2 0x19D7 SWAP1 PUSH2 0x3F83 JUMP JUMPDEST PUSH1 0x40 MLOAD DUP1 SWAP2 SUB SWAP1 REVERT JUMPDEST DUP7 PUSH8 0xFFFFFFFFFFFFFFFF AND DUP9 PUSH8 0xFFFFFFFFFFFFFFFF AND GT ISZERO PUSH2 0x1A37 JUMPI PUSH1 0x40 MLOAD PUSH32 0x8C379A000000000000000000000000000000000000000000000000000000000 DUP2 MSTORE PUSH1 0x4 ADD PUSH2 0x1A2E SWAP1 PUSH2 0x3FEB JUMP JUMPDEST PUSH1 0x40 MLOAD DUP1 SWAP2 SUB SWAP1 REVERT JUMPDEST PUSH0 PUSH1 0x4 SWAP1 SLOAD SWAP1 PUSH2 0x100 EXP SWAP1 DIV PUSH4 0xFFFFFFFF AND PUSH4 0xFFFFFFFF AND PUSH1 0x5 DUP1 SLOAD SWAP1 POP LT PUSH2 0x1A95 JUMPI PUSH1 0x40 MLOAD PUSH32 0x8C379A000000000000000000000000000000000000000000000000000000000 DUP2 MSTORE PUSH1 0x4 ADD PUSH2 0x1A8C SWAP1 PUSH2 0x4079 JUMP JUMPDEST PUSH1 0x40 MLOAD DUP1 SWAP2 SUB SWAP1 REVERT JUMPDEST DUP3 DUP3 SWAP1 POP PUSH1 0x1 LT DUP1 ISZERO PUSH2 0x1AAC JUMPI POP PUSH1 0x4 DUP4 DUP4 SWAP1 POP GT ISZERO JUMPDEST DUP1 ISZERO PUSH2 0x1ABC JUMPI POP DUP5 DUP5 SWAP1 POP PUSH1 0x1 GT ISZERO JUMPDEST DUP1 ISZERO PUSH2 0x1ACC JUMPI POP PUSH1 0x4 DUP6 DUP6 SWAP1 POP GT ISZERO JUMPDEST PUSH2 0x1B0B JUMPI PUSH1 0x40 MLOAD PUSH32 0x8C379A000000000000000000000000000000000000000000000000000000000 DUP2 MSTORE PUSH1 0x4 ADD PUSH2 0x1B02 SWAP1 PUSH2 0x4107 JUMP JUMPDEST PUSH1 0x40 MLOAD DUP1 SWAP2 SUB SWAP1 REVERT JUMPDEST PUSH0 JUMPDEST DUP4 DUP4 SWAP1 POP DUP2 PUSH2 0xFFFF AND LT ISZERO PUSH2 0x1C34 JUMPI PUSH0 PUSH1 0x1 DUP6 DUP6 DUP5 PUSH2 0xFFFF AND DUP2 DUP2 LT PUSH2 0x1B36 JUMPI PUSH2 0x1B35 PUSH2 0x3D76 JUMP JUMPDEST JUMPDEST SWAP1 POP PUSH1 0x20 MUL ADD PUSH1 0x20 DUP2 ADD SWAP1 PUSH2 0x1B4B SWAP2 SWAP1 PUSH2 0x3B2A JUMP JUMPDEST PUSH2 0x1B55 SWAP2 SWAP1 PUSH2 0x3D41 JUMP JUMPDEST SWAP1 POP PUSH1 0x1 DUP1 SLOAD SWAP1 POP DUP2 PUSH2 0xFFFF AND LT PUSH2 0x1BA2 JUMPI PUSH1 0x40 MLOAD PUSH32 0x8C379A000000000000000000000000000000000000000000000000000000000 DUP2 MSTORE PUSH1 0x4 ADD PUSH2 0x1B99 SWAP1 PUSH2 0x416F JUMP JUMPDEST PUSH1 0x40 MLOAD DUP1 SWAP2 SUB SWAP1 REVERT JUMPDEST PUSH1 0x1 DUP2 PUSH2 0xFFFF AND DUP2 SLOAD DUP2 LT PUSH2 0x1BBA JUMPI PUSH2 0x1BB9 PUSH2 0x3D76 JUMP JUMPDEST JUMPDEST SWAP1 PUSH0 MSTORE PUSH1 0x20 PUSH0 KECCAK256 SWAP1 PUSH1 0x5 MUL ADD PUSH1 0x4 ADD PUSH1 0x1 PUSH1 0x5 DUP1 SLOAD SWAP1 POP PUSH2 0x1BDB SWAP2 SWAP1 PUSH2 0x418D JUMP JUMPDEST SWAP1 DUP1 PUSH1 0x1 DUP2 SLOAD ADD DUP1 DUP3 SSTORE DUP1 SWAP2 POP POP PUSH1 0x1 SWAP1 SUB SWAP1 PUSH0 MSTORE PUSH1 0x20 PUSH0 KECCAK256 SWAP1 PUSH1 0x10 SWAP2 DUP3 DUP3 DIV ADD SWAP2 SWAP1 MOD PUSH1 0x2 MUL SWAP1 SWAP2 SWAP1 SWAP2 SWAP1 SWAP2 PUSH2 0x100 EXP DUP2 SLOAD DUP2 PUSH2 0xFFFF MUL NOT AND SWAP1 DUP4 PUSH2 0xFFFF AND MUL OR SWAP1 SSTORE POP POP DUP1 DUP1 PUSH2 0x1C2C SWAP1 PUSH2 0x3DA3 JUMP JUMPDEST SWAP2 POP POP PUSH2 0x1B0D JUMP JUMPDEST POP PUSH0 JUMPDEST DUP6 DUP6 SWAP1 POP DUP2 PUSH2 0xFFFF AND LT ISZERO PUSH2 0x1D5E JUMPI PUSH0 PUSH1 0x1 DUP8 DUP8 DUP5 PUSH2 0xFFFF AND DUP2 DUP2 LT PUSH2 0x1C60 JUMPI PUSH2 0x1C5F PUSH2 0x3D76 JUMP JUMPDEST JUMPDEST SWAP1 POP PUSH1 0x20 MUL ADD PUSH1 0x20 DUP2 ADD SWAP1 PUSH2 0x1C75 SWAP2 SWAP1 PUSH2 0x3B2A JUMP JUMPDEST PUSH2 0x1C7F SWAP2 SWAP1 PUSH2 0x3D41 JUMP JUMPDEST SWAP1 POP PUSH1 0x3 DUP1 SLOAD SWAP1 POP DUP2 PUSH2 0xFFFF AND LT PUSH2 0x1CCC JUMPI PUSH1 0x40 MLOAD PUSH32 0x8C379A000000000000000000000000000000000000000000000000000000000 DUP2 MSTORE PUSH1 0x4 ADD PUSH2 0x1CC3 SWAP1 PUSH2 0x416F JUMP JUMPDEST PUSH1 0x40 MLOAD DUP1 SWAP2 SUB SWAP1 REVERT JUMPDEST PUSH1 0x3 DUP2 PUSH2 0xFFFF AND DUP2 SLOAD DUP2 LT PUSH2 0x1CE4 JUMPI PUSH2 0x1CE3 PUSH2 0x3D76 JUMP JUMPDEST JUMPDEST SWAP1 PUSH0 MSTORE PUSH1 0x20 PUSH0 KECCAK256 SWAP1 PUSH1 0x4 MUL ADD PUSH1 0x3 ADD PUSH1 0x1 PUSH1 0x5 DUP1 SLOAD SWAP1 POP PUSH2 0x1D05 SWAP2 SWAP1 PUSH2 0x418D JUMP JUMPDEST SWAP1 DUP1 PUSH1 0x1 DUP2 SLOAD ADD DUP1 DUP3 SSTORE DUP1 SWAP2 POP POP PUSH1 0x1 SWAP1 SUB SWAP1 PUSH0 MSTORE PUSH1 0x20 PUSH0 KECCAK256 SWAP1 PUSH1 0x10 SWAP2 DUP3 DUP3 DIV ADD SWAP2 SWAP1 MOD PUSH1 0x2 MUL SWAP1 SWAP2 SWAP1 SWAP2 SWAP1 SWAP2 PUSH2 0x100 EXP DUP2 SLOAD DUP2 PUSH2 0xFFFF MUL NOT AND SWAP1 DUP4 PUSH2 0xFFFF AND MUL OR SWAP1 SSTORE POP POP DUP1 DUP1 PUSH2 0x1D56 SWAP1 PUSH2 0x3DA3 JUMP JUMPDEST SWAP2 POP POP PUSH2 0x1C37 JUMP JUMPDEST POP PUSH1 0x5 PUSH1 0x40 MLOAD DUP1 PUSH2 0x140 ADD PUSH1 0x40 MSTORE DUP1 PUSH1 0x1 PUSH1 0x5 DUP1 SLOAD SWAP1 POP PUSH2 0x1D7F SWAP2 SWAP1 PUSH2 0x418D JUMP JUMPDEST PUSH2 0xFFFF AND DUP2 MSTORE PUSH1 0x20 ADD DUP15 DUP15 SWAP1 PUSH2 0x1D95 SWAP2 SWAP1 PUSH2 0x3C89 JUMP JUMPDEST PUSH12 0xFFFFFFFFFFFFFFFFFFFFFFFF NOT AND DUP2 MSTORE PUSH1 0x20 ADD DUP13 DUP13 SWAP1 PUSH2 0x1DB6 SWAP2 SWAP1 PUSH2 0x41C0 JUMP JUMPDEST PUSH2 0xFFFF NOT AND DUP2 MSTORE PUSH1 0x20 ADD PUSH0 PUSH1 0x4 DUP2 GT ISZERO PUSH2 0x1DD3 JUMPI PUSH2 0x1DD2 PUSH2 0x31A3 JUMP JUMPDEST JUMPDEST DUP2 MSTORE PUSH1 0x20 ADD DUP11 PUSH8 0xFFFFFFFFFFFFFFFF AND DUP2 MSTORE PUSH1 0x20 ADD DUP10 PUSH8 0xFFFFFFFFFFFFFFFF AND DUP2 MSTORE PUSH1 0x20 ADD DUP9 PUSH4 0xFFFFFFFF AND DUP2 MSTORE PUSH1 0x20 ADD DUP8 DUP8 DUP1 DUP1 PUSH1 0x20 MUL PUSH1 0x20 ADD PUSH1 0x40 MLOAD SWAP1 DUP2 ADD PUSH1 0x40 MSTORE DUP1 SWAP4 SWAP3 SWAP2 SWAP1 DUP2 DUP2 MSTORE PUSH1 0x20 ADD DUP4 DUP4 PUSH1 0x20 MUL DUP1 DUP3 DUP5 CALLDATACOPY PUSH0 DUP2 DUP5 ADD MSTORE PUSH1 0x1F NOT PUSH1 0x1F DUP3 ADD AND SWAP1 POP DUP1 DUP4 ADD SWAP3 POP POP POP POP POP POP POP DUP2 MSTORE PUSH1 0x20 ADD DUP6 DUP6 DUP1 DUP1 PUSH1 0x20 MUL PUSH1 0x20 ADD PUSH1 0x40 MLOAD SWAP1 DUP2 ADD PUSH1 0x40 MSTORE DUP1 SWAP4 SWAP3 SWAP2 SWAP1 DUP2 DUP2 MSTORE PUSH1 0x20 ADD DUP4 DUP4 PUSH1 0x20 MUL DUP1 DUP3 DUP5 CALLDATACOPY PUSH0 DUP2 DUP5 ADD MSTORE PUSH1 0x1F NOT PUSH1 0x1F DUP3 ADD AND SWAP1 POP DUP1 DUP4 ADD SWAP3 POP POP POP POP POP POP POP DUP2 MSTORE PUSH1 0x20 ADD PUSH0 PUSH20 0xFFFFFFFFFFFFFFFFFFFFFFFFFFFFFFFFFFFFFFFF AND DUP2 MSTORE POP SWAP1 DUP1 PUSH1 0x1 DUP2 SLOAD ADD DUP1 DUP3 SSTORE DUP1 SWAP2 POP POP PUSH1 0x1 SWAP1 SUB SWAP1 PUSH0 MSTORE PUSH1 0x20 PUSH0 KECCAK256 SWAP1 PUSH1 0x6 MUL ADD PUSH0 SWAP1 SWAP2 SWAP1 SWAP2 SWAP1 SWAP2 POP PUSH0 DUP3 ADD MLOAD DUP2 PUSH0 ADD PUSH0 PUSH2 0x100 EXP DUP2 SLOAD DUP2 PUSH2 0xFFFF MUL NOT AND SWAP1 DUP4 PUSH2 0xFFFF AND MUL OR SWAP1 SSTORE POP PUSH1 0x20 DUP3 ADD MLOAD DUP2 PUSH0 ADD PUSH1 0x2 PUSH2 0x100 EXP DUP2 SLOAD DUP2 PUSH20 0xFFFFFFFFFFFFFFFFFFFFFFFFFFFFFFFFFFFFFFFF MUL NOT AND SWAP1 DUP4 PUSH1 0x60 SHR MUL OR SWAP1 SSTORE POP PUSH1 0x40 DUP3 ADD MLOAD DUP2 PUSH1 0x1 ADD PUSH0 PUSH2 0x100 EXP DUP2 SLOAD DUP2 PUSH30 0xFFFFFFFFFFFFFFFFFFFFFFFFFFFFFFFFFFFFFFFFFFFFFFFFFFFFFFFFFFFF MUL NOT AND SWAP1 DUP4 PUSH1 0x10 SHR MUL OR SWAP1 SSTORE POP PUSH1 0x60 DUP3 ADD MLOAD DUP2 PUSH1 0x1 ADD PUSH1 0x1E PUSH2 0x100 EXP DUP2 SLOAD DUP2 PUSH1 0xFF MUL NOT AND SWAP1 DUP4 PUSH1 0x4 DUP2 GT ISZERO PUSH2 0x1F8B JUMPI PUSH2 0x1F8A PUSH2 0x31A3 JUMP JUMPDEST JUMPDEST MUL OR SWAP1 SSTORE POP PUSH1 0x80 DUP3 ADD MLOAD DUP2 PUSH1 0x2 ADD PUSH0 PUSH2 0x100 EXP DUP2 SLOAD DUP2 PUSH8 0xFFFFFFFFFFFFFFFF MUL NOT AND SWAP1 DUP4 PUSH8 0xFFFFFFFFFFFFFFFF AND MUL OR SWAP1 SSTORE POP PUSH1 0xA0 DUP3 ADD MLOAD DUP2 PUSH1 0x2 ADD PUSH1 0x8 PUSH2 0x100 EXP DUP2 SLOAD DUP2 PUSH8 0xFFFFFFFFFFFFFFFF MUL NOT AND SWAP1 DUP4 PUSH8 0xFFFFFFFFFFFFFFFF AND MUL OR SWAP1 SSTORE POP PUSH1 0xC0 DUP3 ADD MLOAD DUP2 PUSH1 0x2 ADD PUSH1 0x10 PUSH2 0x100 EXP DUP2 SLOAD DUP2 PUSH4 0xFFFFFFFF MUL NOT AND SWAP1 DUP4 PUSH4 0xFFFFFFFF AND MUL OR SWAP1 SSTORE POP PUSH1 0xE0 DUP3 ADD MLOAD DUP2 PUSH1 0x3 ADD SWAP1 DUP1 MLOAD SWAP1 PUSH1 0x20 ADD SWAP1 PUSH2 0x2030 SWAP3 SWAP2 SWAP1 PUSH2 0x2D2D JUMP JUMPDEST POP PUSH2 0x100 DUP3 ADD MLOAD DUP2 PUSH1 0x4 ADD SWAP1 DUP1 MLOAD SWAP1 PUSH1 0x20 ADD SWAP1 PUSH2 0x204E SWAP3 SWAP2 SWAP1 PUSH2 0x2D2D JUMP JUMPDEST POP PUSH2 0x120 DUP3 ADD MLOAD DUP2 PUSH1 0x5 ADD PUSH0 PUSH2 0x100 EXP DUP2 SLOAD DUP2 PUSH20 0xFFFFFFFFFFFFFFFFFFFFFFFFFFFFFFFFFFFFFFFF MUL NOT AND SWAP1 DUP4 PUSH20 0xFFFFFFFFFFFFFFFFFFFFFFFFFFFFFFFFFFFFFFFF AND MUL OR SWAP1 SSTORE POP POP POP PUSH1 0x5 PUSH1 0x1 PUSH1 0x5 DUP1 SLOAD SWAP1 POP PUSH2 0x20AC SWAP2 SWAP1 PUSH2 0x421E JUMP JUMPDEST DUP2 SLOAD DUP2 LT PUSH2 0x20BD JUMPI PUSH2 0x20BC PUSH2 0x3D76 JUMP JUMPDEST JUMPDEST SWAP1 PUSH0 MSTORE PUSH1 0x20 PUSH0 KECCAK256 SWAP1 PUSH1 0x6 MUL ADD PUSH1 0x3 ADD PUSH1 0x4 PUSH0 CALLER PUSH20 0xFFFFFFFFFFFFFFFFFFFFFFFFFFFFFFFFFFFFFFFF AND PUSH20 0xFFFFFFFFFFFFFFFFFFFFFFFFFFFFFFFFFFFFFFFF AND DUP2 MSTORE PUSH1 0x20 ADD SWAP1 DUP2 MSTORE PUSH1 0x20 ADD PUSH0 KECCAK256 PUSH0 SWAP1 SLOAD SWAP1 PUSH2 0x100 EXP SWAP1 DIV PUSH2 0xFFFF AND SWAP1 DUP1 PUSH1 0x1 DUP2 SLOAD ADD DUP1 DUP3 SSTORE DUP1 SWAP2 POP POP PUSH1 0x1 SWAP1 SUB SWAP1 PUSH0 MSTORE PUSH1 0x20 PUSH0 KECCAK256 SWAP1 PUSH1 0x10 SWAP2 DUP3 DUP3 DIV ADD SWAP2 SWAP1 MOD PUSH1 0x2 MUL SWAP1 SWAP2 SWAP1 SWAP2 SWAP1 SWAP2 PUSH2 0x100 EXP DUP2 SLOAD DUP2 PUSH2 0xFFFF MUL NOT AND SWAP1 DUP4 PUSH2 0xFFFF AND MUL OR SWAP1 SSTORE POP PUSH1 0x2 SWAP1 POP SWAP12 SWAP11 POP POP POP POP POP POP POP POP POP POP POP JUMP JUMPDEST PUSH0 DUP1 PUSH1 0x8 SWAP1 SLOAD SWAP1 PUSH2 0x100 EXP SWAP1 DIV PUSH20 0xFFFFFFFFFFFFFFFFFFFFFFFFFFFFFFFFFFFFFFFF AND PUSH20 0xFFFFFFFFFFFFFFFFFFFFFFFFFFFFFFFFFFFFFFFF AND CALLER PUSH20 0xFFFFFFFFFFFFFFFFFFFFFFFFFFFFFFFFFFFFFFFF AND SUB PUSH2 0x21CC JUMPI PUSH0 SWAP1 POP PUSH2 0x228D JUMP JUMPDEST PUSH0 PUSH1 0x2 PUSH0 CALLER PUSH20 0xFFFFFFFFFFFFFFFFFFFFFFFFFFFFFFFFFFFFFFFF AND PUSH20 0xFFFFFFFFFFFFFFFFFFFFFFFFFFFFFFFFFFFFFFFF AND DUP2 MSTORE PUSH1 0x20 ADD SWAP1 DUP2 MSTORE PUSH1 0x20 ADD PUSH0 KECCAK256 PUSH0 SWAP1 SLOAD SWAP1 PUSH2 0x100 EXP SWAP1 DIV PUSH2 0xFFFF AND PUSH2 0xFFFF AND EQ PUSH2 0x222A JUMPI PUSH1 0x1 SWAP1 POP PUSH2 0x228D JUMP JUMPDEST PUSH0 PUSH1 0x4 PUSH0 CALLER PUSH20 0xFFFFFFFFFFFFFFFFFFFFFFFFFFFFFFFFFFFFFFFF AND PUSH20 0xFFFFFFFFFFFFFFFFFFFFFFFFFFFFFFFFFFFFFFFF AND DUP2 MSTORE PUSH1 0x20 ADD SWAP1 DUP2 MSTORE PUSH1 0x20 ADD PUSH0 KECCAK256 PUSH0 SWAP1 SLOAD SWAP1 PUSH2 0x100 EXP SWAP1 DIV PUSH2 0xFFFF AND PUSH2 0xFFFF AND EQ PUSH2 0x2288 JUMPI PUSH1 0x2 SWAP1 POP PUSH2 0x228D JUMP JUMPDEST PUSH1 0x3 SWAP1 POP JUMPDEST SWAP1 JUMP JUMPDEST PUSH0 CALLER PUSH20 0xFFFFFFFFFFFFFFFFFFFFFFFFFFFFFFFFFFFFFFFF AND PUSH0 PUSH1 0x8 SWAP1 SLOAD SWAP1 PUSH2 0x100 EXP SWAP1 DIV PUSH20 0xFFFFFFFFFFFFFFFFFFFFFFFFFFFFFFFFFFFFFFFF AND PUSH20 0xFFFFFFFFFFFFFFFFFFFFFFFFFFFFFFFFFFFFFFFF AND EQ PUSH2 0x2320 JUMPI PUSH1 0x40 MLOAD PUSH32 0x8C379A000000000000000000000000000000000000000000000000000000000 DUP2 MSTORE PUSH1 0x4 ADD PUSH2 0x2317 SWAP1 PUSH2 0x429B JUMP JUMPDEST PUSH1 0x40 MLOAD DUP1 SWAP2 SUB SWAP1 REVERT JUMPDEST PUSH0 JUMPDEST PUSH1 0x5 DUP1 SLOAD SWAP1 POP DUP2 LT ISZERO PUSH2 0x25BD JUMPI PUSH0 PUSH1 0x5 DUP3 DUP2 SLOAD DUP2 LT PUSH2 0x2344 JUMPI PUSH2 0x2343 PUSH2 0x3D76 JUMP JUMPDEST JUMPDEST SWAP1 PUSH0 MSTORE PUSH1 0x20 PUSH0 KECCAK256 SWAP1 PUSH1 0x6 MUL ADD SWAP1 POP PUSH1 0x1 PUSH1 0x4 DUP2 GT ISZERO PUSH2 0x2366 JUMPI PUSH2 0x2365 PUSH2 0x31A3 JUMP JUMPDEST JUMPDEST DUP2 PUSH1 0x1 ADD PUSH1 0x1E SWAP1 SLOAD SWAP1 PUSH2 0x100 EXP SWAP1 DIV PUSH1 0xFF AND PUSH1 0x4 DUP2 GT ISZERO PUSH2 0x238A JUMPI PUSH2 0x2389 PUSH2 0x31A3 JUMP JUMPDEST JUMPDEST EQ DUP1 ISZERO PUSH2 0x23B9 JUMPI POP DUP1 PUSH1 0x2 ADD PUSH1 0x8 SWAP1 SLOAD SWAP1 PUSH2 0x100 EXP SWAP1 DIV PUSH8 0xFFFFFFFFFFFFFFFF AND PUSH8 0xFFFFFFFFFFFFFFFF AND TIMESTAMP LT ISZERO JUMPDEST ISZERO PUSH2 0x25AF JUMPI PUSH0 JUMPDEST DUP2 PUSH1 0x3 ADD DUP1 SLOAD SWAP1 POP DUP2 PUSH2 0xFFFF AND LT ISZERO PUSH2 0x2580 JUMPI DUP2 PUSH1 0x2 ADD PUSH1 0x10 SWAP1 SLOAD SWAP1 PUSH2 0x100 EXP SWAP1 DIV PUSH4 0xFFFFFFFF AND PUSH4 0xFFFFFFFF AND PUSH0 PUSH1 0x8 SWAP1 SLOAD SWAP1 PUSH2 0x100 EXP SWAP1 DIV PUSH20 0xFFFFFFFFFFFFFFFFFFFFFFFFFFFFFFFFFFFFFFFF AND PUSH20 0xFFFFFFFFFFFFFFFFFFFFFFFFFFFFFFFFFFFFFFFF AND BALANCE LT ISZERO PUSH2 0x2468 JUMPI PUSH1 0x40 MLOAD PUSH32 0x8C379A000000000000000000000000000000000000000000000000000000000 DUP2 MSTORE PUSH1 0x4 ADD PUSH2 0x245F SWAP1 PUSH2 0x4303 JUMP JUMPDEST PUSH1 0x40 MLOAD DUP1 SWAP2 SUB SWAP1 REVERT JUMPDEST PUSH0 PUSH1 0x3 PUSH1 0x1 DUP5 PUSH1 0x3 ADD DUP5 PUSH2 0xFFFF AND DUP2 SLOAD DUP2 LT PUSH2 0x2487 JUMPI PUSH2 0x2486 PUSH2 0x3D76 JUMP JUMPDEST JUMPDEST SWAP1 PUSH0 MSTORE PUSH1 0x20 PUSH0 KECCAK256 SWAP1 PUSH1 0x10 SWAP2 DUP3 DUP3 DIV ADD SWAP2 SWAP1 MOD PUSH1 0x2 MUL SWAP1 SLOAD SWAP1 PUSH2 0x100 EXP SWAP1 DIV PUSH2 0xFFFF AND PUSH2 0x24B3 SWAP2 SWAP1 PUSH2 0x3D41 JUMP JUMPDEST PUSH2 0xFFFF AND DUP2 SLOAD DUP2 LT PUSH2 0x24C8 JUMPI PUSH2 0x24C7 PUSH2 0x3D76 JUMP JUMPDEST JUMPDEST SWAP1 PUSH0 MSTORE PUSH1 0x20 PUSH0 KECCAK256 SWAP1 PUSH1 0x4 MUL ADD PUSH1 0x1 ADD PUSH0 SWAP1 SLOAD SWAP1 PUSH2 0x100 EXP SWAP1 DIV PUSH20 0xFFFFFFFFFFFFFFFFFFFFFFFFFFFFFFFFFFFFFFFF AND PUSH20 0xFFFFFFFFFFFFFFFFFFFFFFFFFFFFFFFFFFFFFFFF AND PUSH2 0x8FC CALLVALUE SWAP1 DUP2 ISZERO MUL SWAP1 PUSH1 0x40 MLOAD PUSH0 PUSH1 0x40 MLOAD DUP1 DUP4 SUB DUP2 DUP6 DUP9 DUP9 CALL SWAP4 POP POP POP POP SWAP1 POP DUP1 PUSH2 0x256C JUMPI PUSH1 0x40 MLOAD PUSH32 0x8C379A000000000000000000000000000000000000000000000000000000000 DUP2 MSTORE PUSH1 0x4 ADD PUSH2 0x2563 SWAP1 PUSH2 0x436B JUMP JUMPDEST PUSH1 0x40 MLOAD DUP1 SWAP2 SUB SWAP1 REVERT JUMPDEST POP DUP1 DUP1 PUSH2 0x2578 SWAP1 PUSH2 0x3DA3 JUMP JUMPDEST SWAP2 POP POP PUSH2 0x23C0 JUMP JUMPDEST POP PUSH1 0x3 DUP2 PUSH1 0x1 ADD PUSH1 0x1E PUSH2 0x100 EXP DUP2 SLOAD DUP2 PUSH1 0xFF MUL NOT AND SWAP1 DUP4 PUSH1 0x4 DUP2 GT ISZERO PUSH2 0x25A9 JUMPI PUSH2 0x25A8 PUSH2 0x31A3 JUMP JUMPDEST JUMPDEST MUL OR SWAP1 SSTORE POP JUMPDEST POP DUP1 DUP1 PUSH1 0x1 ADD SWAP2 POP POP PUSH2 0x2322 JUMP JUMPDEST POP PUSH1 0x2 SWAP1 POP SWAP1 JUMP JUMPDEST PUSH1 0x1 DUP2 DUP2 SLOAD DUP2 LT PUSH2 0x25D4 JUMPI PUSH0 DUP1 REVERT JUMPDEST SWAP1 PUSH0 MSTORE PUSH1 0x20 PUSH0 KECCAK256 SWAP1 PUSH1 0x5 MUL ADD PUSH0 SWAP2 POP SWAP1 POP DUP1 PUSH0 ADD PUSH0 SWAP1 SLOAD SWAP1 PUSH2 0x100 EXP SWAP1 DIV PUSH1 0x60 SHL SWAP1 DUP1 PUSH1 0x1 ADD PUSH0 SWAP1 SLOAD SWAP1 PUSH2 0x100 EXP SWAP1 DIV PUSH20 0xFFFFFFFFFFFFFFFFFFFFFFFFFFFFFFFFFFFFFFFF AND SWAP1 DUP1 PUSH1 0x2 ADD PUSH0 SWAP1 SLOAD SWAP1 PUSH2 0x100 EXP SWAP1 DIV PUSH1 0x60 SHL SWAP1 DUP1 PUSH1 0x3 ADD PUSH0 SWAP1 SLOAD SWAP1 PUSH2 0x100 EXP SWAP1 DIV PUSH1 0x60 SHL SWAP1 POP DUP5 JUMP JUMPDEST CALLER PUSH20 0xFFFFFFFFFFFFFFFFFFFFFFFFFFFFFFFFFFFFFFFF AND PUSH0 PUSH1 0x8 SWAP1 SLOAD SWAP1 PUSH2 0x100 EXP SWAP1 DIV PUSH20 0xFFFFFFFFFFFFFFFFFFFFFFFFFFFFFFFFFFFFFFFF AND PUSH20 0xFFFFFFFFFFFFFFFFFFFFFFFFFFFFFFFFFFFFFFFF AND EQ PUSH2 0x26D2 JUMPI PUSH1 0x40 MLOAD PUSH32 0x8C379A000000000000000000000000000000000000000000000000000000000 DUP2 MSTORE PUSH1 0x4 ADD PUSH2 0x26C9 SWAP1 PUSH2 0x429B JUMP JUMPDEST PUSH1 0x40 MLOAD DUP1 SWAP2 SUB SWAP1 REVERT JUMPDEST PUSH1 0x5 DUP1 SLOAD SWAP1 POP DUP2 PUSH2 0xFFFF AND GT ISZERO PUSH2 0x271E JUMPI PUSH1 0x40 MLOAD PUSH32 0x8C379A000000000000000000000000000000000000000000000000000000000 DUP2 MSTORE PUSH1 0x4 ADD PUSH2 0x2715 SWAP1 PUSH2 0x43D3 JUMP JUMPDEST PUSH1 0x40 MLOAD DUP1 SWAP2 SUB SWAP1 REVERT JUMPDEST PUSH0 PUSH1 0x5 PUSH1 0x1 DUP4 PUSH2 0x272E SWAP2 SWAP1 PUSH2 0x3D41 JUMP JUMPDEST PUSH2 0xFFFF AND DUP2 SLOAD DUP2 LT PUSH2 0x2743 JUMPI PUSH2 0x2742 PUSH2 0x3D76 JUMP JUMPDEST JUMPDEST SWAP1 PUSH0 MSTORE PUSH1 0x20 PUSH0 KECCAK256 SWAP1 PUSH1 0x6 MUL ADD SWAP1 POP PUSH1 0x1 PUSH1 0x4 DUP2 GT ISZERO PUSH2 0x2765 JUMPI PUSH2 0x2764 PUSH2 0x31A3 JUMP JUMPDEST JUMPDEST DUP2 PUSH1 0x1 ADD PUSH1 0x1E SWAP1 SLOAD SWAP1 PUSH2 0x100 EXP SWAP1 DIV PUSH1 0xFF AND PUSH1 0x4 DUP2 GT ISZERO PUSH2 0x2789 JUMPI PUSH2 0x2788 PUSH2 0x31A3 JUMP JUMPDEST JUMPDEST EQ PUSH2 0x27C9 JUMPI PUSH1 0x40 MLOAD PUSH32 0x8C379A000000000000000000000000000000000000000000000000000000000 DUP2 MSTORE PUSH1 0x4 ADD PUSH2 0x27C0 SWAP1 PUSH2 0x443B JUMP JUMPDEST PUSH1 0x40 MLOAD DUP1 SWAP2 SUB SWAP1 REVERT JUMPDEST DUP1 PUSH1 0x2 ADD PUSH1 0x8 SWAP1 SLOAD SWAP1 PUSH2 0x100 EXP SWAP1 DIV PUSH8 0xFFFFFFFFFFFFFFFF AND PUSH8 0xFFFFFFFFFFFFFFFF AND TIMESTAMP LT ISZERO PUSH2 0x282E JUMPI PUSH1 0x40 MLOAD PUSH32 0x8C379A000000000000000000000000000000000000000000000000000000000 DUP2 MSTORE PUSH1 0x4 ADD PUSH2 0x2825 SWAP1 PUSH2 0x44A3 JUMP JUMPDEST PUSH1 0x40 MLOAD DUP1 SWAP2 SUB SWAP1 REVERT JUMPDEST CALLVALUE DUP2 PUSH1 0x2 ADD PUSH1 0x10 SWAP1 SLOAD SWAP1 PUSH2 0x100 EXP SWAP1 DIV PUSH4 0xFFFFFFFF AND PUSH4 0xFFFFFFFF AND EQ PUSH2 0x288A JUMPI PUSH1 0x40 MLOAD PUSH32 0x8C379A000000000000000000000000000000000000000000000000000000000 DUP2 MSTORE PUSH1 0x4 ADD PUSH2 0x2881 SWAP1 PUSH2 0x450B JUMP JUMPDEST PUSH1 0x40 MLOAD DUP1 SWAP2 SUB SWAP1 REVERT JUMPDEST PUSH0 JUMPDEST DUP2 PUSH1 0x3 ADD DUP1 SLOAD SWAP1 POP DUP2 PUSH2 0xFFFF AND LT ISZERO PUSH2 0x2A32 JUMPI CALLVALUE PUSH0 PUSH1 0x8 SWAP1 SLOAD SWAP1 PUSH2 0x100 EXP SWAP1 DIV PUSH20 0xFFFFFFFFFFFFFFFFFFFFFFFFFFFFFFFFFFFFFFFF AND PUSH20 0xFFFFFFFFFFFFFFFFFFFFFFFFFFFFFFFFFFFFFFFF AND BALANCE LT ISZERO PUSH2 0x291A JUMPI PUSH1 0x40 MLOAD PUSH32 0x8C379A000000000000000000000000000000000000000000000000000000000 DUP2 MSTORE PUSH1 0x4 ADD PUSH2 0x2911 SWAP1 PUSH2 0x4573 JUMP JUMPDEST PUSH1 0x40 MLOAD DUP1 SWAP2 SUB SWAP1 REVERT JUMPDEST PUSH0 PUSH1 0x3 PUSH1 0x1 DUP5 PUSH1 0x3 ADD DUP5 PUSH2 0xFFFF AND DUP2 SLOAD DUP2 LT PUSH2 0x2939 JUMPI PUSH2 0x2938 PUSH2 0x3D76 JUMP JUMPDEST JUMPDEST SWAP1 PUSH0 MSTORE PUSH1 0x20 PUSH0 KECCAK256 SWAP1 PUSH1 0x10 SWAP2 DUP3 DUP3 DIV ADD SWAP2 SWAP1 MOD PUSH1 0x2 MUL SWAP1 SLOAD SWAP1 PUSH2 0x100 EXP SWAP1 DIV PUSH2 0xFFFF AND PUSH2 0x2965 SWAP2 SWAP1 PUSH2 0x3D41 JUMP JUMPDEST PUSH2 0xFFFF AND DUP2 SLOAD DUP2 LT PUSH2 0x297A JUMPI PUSH2 0x2979 PUSH2 0x3D76 JUMP JUMPDEST JUMPDEST SWAP1 PUSH0 MSTORE PUSH1 0x20 PUSH0 KECCAK256 SWAP1 PUSH1 0x4 MUL ADD PUSH1 0x1 ADD PUSH0 SWAP1 SLOAD SWAP1 PUSH2 0x100 EXP SWAP1 DIV PUSH20 0xFFFFFFFFFFFFFFFFFFFFFFFFFFFFFFFFFFFFFFFF AND PUSH20 0xFFFFFFFFFFFFFFFFFFFFFFFFFFFFFFFFFFFFFFFF AND PUSH2 0x8FC CALLVALUE SWAP1 DUP2 ISZERO MUL SWAP1 PUSH1 0x40 MLOAD PUSH0 PUSH1 0x40 MLOAD DUP1 DUP4 SUB DUP2 DUP6 DUP9 DUP9 CALL SWAP4 POP POP POP POP SWAP1 POP DUP1 PUSH2 0x2A1E JUMPI PUSH1 0x40 MLOAD PUSH32 0x8C379A000000000000000000000000000000000000000000000000000000000 DUP2 MSTORE PUSH1 0x4 ADD PUSH2 0x2A15 SWAP1 PUSH2 0x45DB JUMP JUMPDEST PUSH1 0x40 MLOAD DUP1 SWAP2 SUB SWAP1 REVERT JUMPDEST POP DUP1 DUP1 PUSH2 0x2A2A SWAP1 PUSH2 0x3DA3 JUMP JUMPDEST SWAP2 POP POP PUSH2 0x288C JUMP JUMPDEST POP POP POP JUMP JUMPDEST PUSH0 DUP1 PUSH1 0x2 PUSH0 CALLER PUSH20 0xFFFFFFFFFFFFFFFFFFFFFFFFFFFFFFFFFFFFFFFF AND PUSH20 0xFFFFFFFFFFFFFFFFFFFFFFFFFFFFFFFFFFFFFFFF AND DUP2 MSTORE PUSH1 0x20 ADD SWAP1 DUP2 MSTORE PUSH1 0x20 ADD PUSH0 KECCAK256 PUSH0 SWAP1 SLOAD SWAP1 PUSH2 0x100 EXP SWAP1 DIV PUSH2 0xFFFF AND PUSH2 0xFFFF AND EQ ISZERO DUP1 ISZERO PUSH2 0x2A9B JUMPI POP PUSH1 0x5 DUP1 SLOAD SWAP1 POP DUP4 GT ISZERO JUMPDEST PUSH2 0x2ADA JUMPI PUSH1 0x40 MLOAD PUSH32 0x8C379A000000000000000000000000000000000000000000000000000000000 DUP2 MSTORE PUSH1 0x4 ADD PUSH2 0x2AD1 SWAP1 PUSH2 0x4643 JUMP JUMPDEST PUSH1 0x40 MLOAD DUP1 SWAP2 SUB SWAP1 REVERT JUMPDEST PUSH0 PUSH1 0x5 PUSH1 0x1 DUP6 PUSH2 0x2AEA SWAP2 SWAP1 PUSH2 0x421E JUMP JUMPDEST DUP2 SLOAD DUP2 LT PUSH2 0x2AFB JUMPI PUSH2 0x2AFA PUSH2 0x3D76 JUMP JUMPDEST JUMPDEST SWAP1 PUSH0 MSTORE PUSH1 0x20 PUSH0 KECCAK256 SWAP1 PUSH1 0x6 MUL ADD SWAP1 POP PUSH0 PUSH1 0x4 DUP2 GT ISZERO PUSH2 0x2B1C JUMPI PUSH2 0x2B1B PUSH2 0x31A3 JUMP JUMPDEST JUMPDEST DUP2 PUSH1 0x1 ADD PUSH1 0x1E SWAP1 SLOAD SWAP1 PUSH2 0x100 EXP SWAP1 DIV PUSH1 0xFF AND PUSH1 0x4 DUP2 GT ISZERO PUSH2 0x2B40 JUMPI PUSH2 0x2B3F PUSH2 0x31A3 JUMP JUMPDEST JUMPDEST EQ DUP1 PUSH2 0x2B80 JUMPI POP PUSH1 0x4 DUP1 DUP2 GT ISZERO PUSH2 0x2B5A JUMPI PUSH2 0x2B59 PUSH2 0x31A3 JUMP JUMPDEST JUMPDEST DUP2 PUSH1 0x1 ADD PUSH1 0x1E SWAP1 SLOAD SWAP1 PUSH2 0x100 EXP SWAP1 DIV PUSH1 0xFF AND PUSH1 0x4 DUP2 GT ISZERO PUSH2 0x2B7E JUMPI PUSH2 0x2B7D PUSH2 0x31A3 JUMP JUMPDEST JUMPDEST EQ JUMPDEST PUSH2 0x2BBF JUMPI PUSH1 0x40 MLOAD PUSH32 0x8C379A000000000000000000000000000000000000000000000000000000000 DUP2 MSTORE PUSH1 0x4 ADD PUSH2 0x2BB6 SWAP1 PUSH2 0x46AB JUMP JUMPDEST PUSH1 0x40 MLOAD DUP1 SWAP2 SUB SWAP1 REVERT JUMPDEST PUSH0 JUMPDEST DUP2 PUSH1 0x4 ADD DUP1 SLOAD SWAP1 POP DUP2 LT ISZERO PUSH2 0x2D20 JUMPI PUSH1 0x2 PUSH0 CALLER PUSH20 0xFFFFFFFFFFFFFFFFFFFFFFFFFFFFFFFFFFFFFFFF AND PUSH20 0xFFFFFFFFFFFFFFFFFFFFFFFFFFFFFFFFFFFFFFFF AND DUP2 MSTORE PUSH1 0x20 ADD SWAP1 DUP2 MSTORE PUSH1 0x20 ADD PUSH0 KECCAK256 PUSH0 SWAP1 SLOAD SWAP1 PUSH2 0x100 EXP SWAP1 DIV PUSH2 0xFFFF AND PUSH2 0xFFFF AND DUP3 PUSH1 0x4 ADD DUP3 DUP2 SLOAD DUP2 LT PUSH2 0x2C35 JUMPI PUSH2 0x2C34 PUSH2 0x3D76 JUMP JUMPDEST JUMPDEST SWAP1 PUSH0 MSTORE PUSH1 0x20 PUSH0 KECCAK256 SWAP1 PUSH1 0x10 SWAP2 DUP3 DUP3 DIV ADD SWAP2 SWAP1 MOD PUSH1 0x2 MUL SWAP1 SLOAD SWAP1 PUSH2 0x100 EXP SWAP1 DIV PUSH2 0xFFFF AND PUSH2 0xFFFF AND SUB PUSH2 0x2D13 JUMPI CALLER DUP3 PUSH1 0x5 ADD PUSH0 PUSH2 0x100 EXP DUP2 SLOAD DUP2 PUSH20 0xFFFFFFFFFFFFFFFFFFFFFFFFFFFFFFFFFFFFFFFF MUL NOT AND SWAP1 DUP4 PUSH20 0xFFFFFFFFFFFFFFFFFFFFFFFFFFFFFFFFFFFFFFFF AND MUL OR SWAP1 SSTORE POP DUP4 ISZERO PUSH2 0x2CDA JUMPI PUSH1 0x1 DUP3 PUSH1 0x1 ADD PUSH1 0x1E PUSH2 0x100 EXP DUP2 SLOAD DUP2 PUSH1 0xFF MUL NOT AND SWAP1 DUP4 PUSH1 0x4 DUP2 GT ISZERO PUSH2 0x2CD0 JUMPI PUSH2 0x2CCF PUSH2 0x31A3 JUMP JUMPDEST JUMPDEST MUL OR SWAP1 SSTORE POP PUSH2 0x2D08 JUMP JUMPDEST PUSH1 0x2 DUP3 PUSH1 0x1 ADD PUSH1 0x1E PUSH2 0x100 EXP DUP2 SLOAD DUP2 PUSH1 0xFF MUL NOT AND SWAP1 DUP4 PUSH1 0x4 DUP2 GT ISZERO PUSH2 0x2D02 JUMPI PUSH2 0x2D01 PUSH2 0x31A3 JUMP JUMPDEST JUMPDEST MUL OR SWAP1 SSTORE POP JUMPDEST PUSH1 0x2 SWAP3 POP POP POP PUSH2 0x2D27 JUMP JUMPDEST DUP1 DUP1 PUSH1 0x1 ADD SWAP2 POP POP PUSH2 0x2BC1 JUMP JUMPDEST POP PUSH1 0x6 SWAP2 POP POP JUMPDEST SWAP3 SWAP2 POP POP JUMP JUMPDEST DUP3 DUP1 SLOAD DUP3 DUP3 SSTORE SWAP1 PUSH0 MSTORE PUSH1 0x20 PUSH0 KECCAK256 SWAP1 PUSH1 0xF ADD PUSH1 0x10 SWAP1 DIV DUP2 ADD SWAP3 DUP3 ISZERO PUSH2 0x2DC3 JUMPI SWAP2 PUSH1 0x20 MUL DUP3 ADD PUSH0 JUMPDEST DUP4 DUP3 GT ISZERO PUSH2 0x2D93 JUMPI DUP4 MLOAD DUP4 DUP3 PUSH2 0x100 EXP DUP2 SLOAD DUP2 PUSH2 0xFFFF MUL NOT AND SWAP1 DUP4 PUSH2 0xFFFF AND MUL OR SWAP1 SSTORE POP SWAP3 PUSH1 0x20 ADD SWAP3 PUSH1 0x2 ADD PUSH1 0x20 DUP2 PUSH1 0x1 ADD DIV SWAP3 DUP4 ADD SWAP3 PUSH1 0x1 SUB MUL PUSH2 0x2D53 JUMP JUMPDEST DUP1 ISZERO PUSH2 0x2DC1 JUMPI DUP3 DUP2 PUSH2 0x100 EXP DUP2 SLOAD SWAP1 PUSH2 0xFFFF MUL NOT AND SWAP1 SSTORE PUSH1 0x2 ADD PUSH1 0x20 DUP2 PUSH1 0x1 ADD DIV SWAP3 DUP4 ADD SWAP3 PUSH1 0x1 SUB MUL PUSH2 0x2D93 JUMP JUMPDEST POP JUMPDEST POP SWAP1 POP PUSH2 0x2DD0 SWAP2 SWAP1 PUSH2 0x2ECF JUMP JUMPDEST POP SWAP1 JUMP JUMPDEST PUSH1 0x40 MLOAD DUP1 PUSH2 0x140 ADD PUSH1 0x40 MSTORE DUP1 PUSH0 PUSH2 0xFFFF AND DUP2 MSTORE PUSH1 0x20 ADD PUSH0 PUSH12 0xFFFFFFFFFFFFFFFFFFFFFFFF NOT AND DUP2 MSTORE PUSH1 0x20 ADD PUSH0 PUSH2 0xFFFF NOT AND DUP2 MSTORE PUSH1 0x20 ADD PUSH0 PUSH1 0x4 DUP2 GT ISZERO PUSH2 0x2E1D JUMPI PUSH2 0x2E1C PUSH2 0x31A3 JUMP JUMPDEST JUMPDEST DUP2 MSTORE PUSH1 0x20 ADD PUSH0 PUSH8 0xFFFFFFFFFFFFFFFF AND DUP2 MSTORE PUSH1 0x20 ADD PUSH0 PUSH8 0xFFFFFFFFFFFFFFFF AND DUP2 MSTORE PUSH1 0x20 ADD PUSH0 PUSH4 0xFFFFFFFF AND DUP2 MSTORE PUSH1 0x20 ADD PUSH1 0x60 DUP2 MSTORE PUSH1 0x20 ADD PUSH1 0x60 DUP2 MSTORE PUSH1 0x20 ADD PUSH0 PUSH20 0xFFFFFFFFFFFFFFFFFFFFFFFFFFFFFFFFFFFFFFFF AND DUP2 MSTORE POP SWAP1 JUMP JUMPDEST PUSH1 0x40 MLOAD DUP1 PUSH1 0x40 ADD PUSH1 0x40 MSTORE DUP1 PUSH0 PUSH2 0xFFFF AND DUP2 MSTORE PUSH1 0x20 ADD PUSH0 PUSH12 0xFFFFFFFFFFFFFFFFFFFFFFFF NOT AND DUP2 MSTORE POP SWAP1 JUMP JUMPDEST PUSH1 0x40 MLOAD DUP1 PUSH1 0x40 ADD PUSH1 0x40 MSTORE DUP1 PUSH0 PUSH2 0xFFFF AND DUP2 MSTORE PUSH1 0x20 ADD PUSH0 PUSH12 0xFFFFFFFFFFFFFFFFFFFFFFFF NOT AND DUP2 MSTORE POP SWAP1 JUMP JUMPDEST JUMPDEST DUP1 DUP3 GT ISZERO PUSH2 0x2EE6 JUMPI PUSH0 DUP2 PUSH0 SWAP1 SSTORE POP PUSH1 0x1 ADD PUSH2 0x2ED0 JUMP JUMPDEST POP SWAP1 JUMP JUMPDEST PUSH0 DUP1 REVERT JUMPDEST PUSH0 DUP1 REVERT JUMPDEST PUSH0 DUP1 REVERT JUMPDEST PUSH0 DUP1 REVERT JUMPDEST PUSH0 DUP1 REVERT JUMPDEST PUSH0 DUP1 DUP4 PUSH1 0x1F DUP5 ADD SLT PUSH2 0x2F13 JUMPI PUSH2 0x2F12 PUSH2 0x2EF2 JUMP JUMPDEST JUMPDEST DUP3 CALLDATALOAD SWAP1 POP PUSH8 0xFFFFFFFFFFFFFFFF DUP2 GT ISZERO PUSH2 0x2F30 JUMPI PUSH2 0x2F2F PUSH2 0x2EF6 JUMP JUMPDEST JUMPDEST PUSH1 0x20 DUP4 ADD SWAP2 POP DUP4 PUSH1 0x1 DUP3 MUL DUP4 ADD GT ISZERO PUSH2 0x2F4C JUMPI PUSH2 0x2F4B PUSH2 0x2EFA JUMP JUMPDEST JUMPDEST SWAP3 POP SWAP3 SWAP1 POP JUMP JUMPDEST PUSH0 DUP1 PUSH0 DUP1 PUSH0 DUP1 PUSH1 0x60 DUP8 DUP10 SUB SLT ISZERO PUSH2 0x2F6D JUMPI PUSH2 0x2F6C PUSH2 0x2EEA JUMP JUMPDEST JUMPDEST PUSH0 DUP8 ADD CALLDATALOAD PUSH8 0xFFFFFFFFFFFFFFFF DUP2 GT ISZERO PUSH2 0x2F8A JUMPI PUSH2 0x2F89 PUSH2 0x2EEE JUMP JUMPDEST JUMPDEST PUSH2 0x2F96 DUP10 DUP3 DUP11 ADD PUSH2 0x2EFE JUMP JUMPDEST SWAP7 POP SWAP7 POP POP PUSH1 0x20 DUP8 ADD CALLDATALOAD PUSH8 0xFFFFFFFFFFFFFFFF DUP2 GT ISZERO PUSH2 0x2FB9 JUMPI PUSH2 0x2FB8 PUSH2 0x2EEE JUMP JUMPDEST JUMPDEST PUSH2 0x2FC5 DUP10 DUP3 DUP11 ADD PUSH2 0x2EFE JUMP JUMPDEST SWAP5 POP SWAP5 POP POP PUSH1 0x40 DUP8 ADD CALLDATALOAD PUSH8 0xFFFFFFFFFFFFFFFF DUP2 GT ISZERO PUSH2 0x2FE8 JUMPI PUSH2 0x2FE7 PUSH2 0x2EEE JUMP JUMPDEST JUMPDEST PUSH2 0x2FF4 DUP10 DUP3 DUP11 ADD PUSH2 0x2EFE JUMP JUMPDEST SWAP3 POP SWAP3 POP POP SWAP3 SWAP6 POP SWAP3 SWAP6 POP SWAP3 SWAP6 JUMP JUMPDEST PUSH0 PUSH1 0xFF DUP3 AND SWAP1 POP SWAP2 SWAP1 POP JUMP JUMPDEST PUSH2 0x3018 DUP2 PUSH2 0x3003 JUMP JUMPDEST DUP3 MSTORE POP POP JUMP JUMPDEST PUSH0 PUSH1 0x20 DUP3 ADD SWAP1 POP PUSH2 0x3031 PUSH0 DUP4 ADD DUP5 PUSH2 0x300F JUMP JUMPDEST SWAP3 SWAP2 POP POP JUMP JUMPDEST PUSH0 DUP1 PUSH0 DUP1 PUSH1 0x40 DUP6 DUP8 SUB SLT ISZERO PUSH2 0x304F JUMPI PUSH2 0x304E PUSH2 0x2EEA JUMP JUMPDEST JUMPDEST PUSH0 DUP6 ADD CALLDATALOAD PUSH8 0xFFFFFFFFFFFFFFFF DUP2 GT ISZERO PUSH2 0x306C JUMPI PUSH2 0x306B PUSH2 0x2EEE JUMP JUMPDEST JUMPDEST PUSH2 0x3078 DUP8 DUP3 DUP9 ADD PUSH2 0x2EFE JUMP JUMPDEST SWAP5 POP SWAP5 POP POP PUSH1 0x20 DUP6 ADD CALLDATALOAD PUSH8 0xFFFFFFFFFFFFFFFF DUP2 GT ISZERO PUSH2 0x309B JUMPI PUSH2 0x309A PUSH2 0x2EEE JUMP JUMPDEST JUMPDEST PUSH2 0x30A7 DUP8 DUP3 DUP9 ADD PUSH2 0x2EFE JUMP JUMPDEST SWAP3 POP SWAP3 POP POP SWAP3 SWAP6 SWAP2 SWAP5 POP SWAP3 POP JUMP JUMPDEST PUSH0 DUP2 SWAP1 POP SWAP2 SWAP1 POP JUMP JUMPDEST PUSH2 0x30C7 DUP2 PUSH2 0x30B5 JUMP JUMPDEST DUP2 EQ PUSH2 0x30D1 JUMPI PUSH0 DUP1 REVERT JUMPDEST POP JUMP JUMPDEST PUSH0 DUP2 CALLDATALOAD SWAP1 POP PUSH2 0x30E2 DUP2 PUSH2 0x30BE JUMP JUMPDEST SWAP3 SWAP2 POP POP JUMP JUMPDEST PUSH0 PUSH1 0x20 DUP3 DUP5 SUB SLT ISZERO PUSH2 0x30FD JUMPI PUSH2 0x30FC PUSH2 0x2EEA JUMP JUMPDEST JUMPDEST PUSH0 PUSH2 0x310A DUP5 DUP3 DUP6 ADD PUSH2 0x30D4 JUMP JUMPDEST SWAP2 POP POP SWAP3 SWAP2 POP POP JUMP JUMPDEST PUSH0 PUSH2 0xFFFF DUP3 AND SWAP1 POP SWAP2 SWAP1 POP JUMP JUMPDEST PUSH2 0x3129 DUP2 PUSH2 0x3113 JUMP JUMPDEST DUP3 MSTORE POP POP JUMP JUMPDEST PUSH0 PUSH32 0xFFFFFFFFFFFFFFFFFFFFFFFFFFFFFFFFFFFFFFFF000000000000000000000000 DUP3 AND SWAP1 POP SWAP2 SWAP1 POP JUMP JUMPDEST PUSH2 0x3163 DUP2 PUSH2 0x312F JUMP JUMPDEST DUP3 MSTORE POP POP JUMP JUMPDEST PUSH0 PUSH32 0xFFFFFFFFFFFFFFFFFFFFFFFFFFFFFFFFFFFFFFFFFFFFFFFFFFFFFFFFFFFF0000 DUP3 AND SWAP1 POP SWAP2 SWAP1 POP JUMP JUMPDEST PUSH2 0x319D DUP2 PUSH2 0x3169 JUMP JUMPDEST DUP3 MSTORE POP POP JUMP JUMPDEST PUSH32 0x4E487B7100000000000000000000000000000000000000000000000000000000 PUSH0 MSTORE PUSH1 0x21 PUSH1 0x4 MSTORE PUSH1 0x24 PUSH0 REVERT JUMPDEST PUSH1 0x5 DUP2 LT PUSH2 0x31E1 JUMPI PUSH2 0x31E0 PUSH2 0x31A3 JUMP JUMPDEST JUMPDEST POP JUMP JUMPDEST PUSH0 DUP2 SWAP1 POP PUSH2 0x31F1 DUP3 PUSH2 0x31D0 JUMP JUMPDEST SWAP2 SWAP1 POP JUMP JUMPDEST PUSH0 PUSH2 0x3200 DUP3 PUSH2 0x31E4 JUMP JUMPDEST SWAP1 POP SWAP2 SWAP1 POP JUMP JUMPDEST PUSH2 0x3210 DUP2 PUSH2 0x31F6 JUMP JUMPDEST DUP3 MSTORE POP POP JUMP JUMPDEST PUSH0 PUSH8 0xFFFFFFFFFFFFFFFF DUP3 AND SWAP1 POP SWAP2 SWAP1 POP JUMP JUMPDEST PUSH2 0x3232 DUP2 PUSH2 0x3216 JUMP JUMPDEST DUP3 MSTORE POP POP JUMP JUMPDEST PUSH0 PUSH4 0xFFFFFFFF DUP3 AND SWAP1 POP SWAP2 SWAP1 POP JUMP JUMPDEST PUSH2 0x3250 DUP2 PUSH2 0x3238 JUMP JUMPDEST DUP3 MSTORE POP POP JUMP JUMPDEST PUSH0 PUSH20 0xFFFFFFFFFFFFFFFFFFFFFFFFFFFFFFFFFFFFFFFF DUP3 AND SWAP1 POP SWAP2 SWAP1 POP JUMP JUMPDEST PUSH0 PUSH2 0x327F DUP3 PUSH2 0x3256 JUMP JUMPDEST SWAP1 POP SWAP2 SWAP1 POP JUMP JUMPDEST PUSH2 0x328F DUP2 PUSH2 0x3275 JUMP JUMPDEST DUP3 MSTORE POP POP JUMP JUMPDEST PUSH0 PUSH2 0x100 DUP3 ADD SWAP1 POP PUSH2 0x32A9 PUSH0 DUP4 ADD DUP12 PUSH2 0x3120 JUMP JUMPDEST PUSH2 0x32B6 PUSH1 0x20 DUP4 ADD DUP11 PUSH2 0x315A JUMP JUMPDEST PUSH2 0x32C3 PUSH1 0x40 DUP4 ADD DUP10 PUSH2 0x3194 JUMP JUMPDEST PUSH2 0x32D0 PUSH1 0x60 DUP4 ADD DUP9 PUSH2 0x3207 JUMP JUMPDEST PUSH2 0x32DD PUSH1 0x80 DUP4 ADD DUP8 PUSH2 0x3229 JUMP JUMPDEST PUSH2 0x32EA PUSH1 0xA0 DUP4 ADD DUP7 PUSH2 0x3229 JUMP JUMPDEST PUSH2 0x32F7 PUSH1 0xC0 DUP4 ADD DUP6 PUSH2 0x3247 JUMP JUMPDEST PUSH2 0x3304 PUSH1 0xE0 DUP4 ADD DUP5 PUSH2 0x3286 JUMP JUMPDEST SWAP10 SWAP9 POP POP POP POP POP POP POP POP POP JUMP JUMPDEST PUSH0 DUP2 ISZERO ISZERO SWAP1 POP SWAP2 SWAP1 POP JUMP JUMPDEST PUSH2 0x3325 DUP2 PUSH2 0x3311 JUMP JUMPDEST DUP2 EQ PUSH2 0x332F JUMPI PUSH0 DUP1 REVERT JUMPDEST POP JUMP JUMPDEST PUSH0 DUP2 CALLDATALOAD SWAP1 POP PUSH2 0x3340 DUP2 PUSH2 0x331C JUMP JUMPDEST SWAP3 SWAP2 POP POP JUMP JUMPDEST PUSH0 PUSH1 0x20 DUP3 DUP5 SUB SLT ISZERO PUSH2 0x335B JUMPI PUSH2 0x335A PUSH2 0x2EEA JUMP JUMPDEST JUMPDEST PUSH0 PUSH2 0x3368 DUP5 DUP3 DUP6 ADD PUSH2 0x3332 JUMP JUMPDEST SWAP2 POP POP SWAP3 SWAP2 POP POP JUMP JUMPDEST PUSH0 DUP2 MLOAD SWAP1 POP SWAP2 SWAP1 POP JUMP JUMPDEST PUSH0 DUP3 DUP3 MSTORE PUSH1 0x20 DUP3 ADD SWAP1 POP SWAP3 SWAP2 POP POP JUMP JUMPDEST PUSH0 DUP2 SWAP1 POP PUSH1 0x20 DUP3 ADD SWAP1 POP SWAP2 SWAP1 POP JUMP JUMPDEST PUSH2 0x33A3 DUP2 PUSH2 0x3113 JUMP JUMPDEST DUP3 MSTORE POP POP JUMP JUMPDEST PUSH2 0x33B2 DUP2 PUSH2 0x312F JUMP JUMPDEST DUP3 MSTORE POP POP JUMP JUMPDEST PUSH2 0x33C1 DUP2 PUSH2 0x3169 JUMP JUMPDEST DUP3 MSTORE POP POP JUMP JUMPDEST PUSH2 0x33D0 DUP2 PUSH2 0x31F6 JUMP JUMPDEST DUP3 MSTORE POP POP JUMP JUMPDEST PUSH2 0x33DF DUP2 PUSH2 0x3216 JUMP JUMPDEST DUP3 MSTORE POP POP JUMP JUMPDEST PUSH2 0x33EE DUP2 PUSH2 0x3238 JUMP JUMPDEST DUP3 MSTORE POP POP JUMP JUMPDEST PUSH0 DUP2 MLOAD SWAP1 POP SWAP2 SWAP1 POP JUMP JUMPDEST PUSH0 DUP3 DUP3 MSTORE PUSH1 0x20 DUP3 ADD SWAP1 POP SWAP3 SWAP2 POP POP JUMP JUMPDEST PUSH0 DUP2 SWAP1 POP PUSH1 0x20 DUP3 ADD SWAP1 POP SWAP2 SWAP1 POP JUMP JUMPDEST PUSH0 PUSH2 0x3428 DUP4 DUP4 PUSH2 0x339A JUMP JUMPDEST PUSH1 0x20 DUP4 ADD SWAP1 POP SWAP3 SWAP2 POP POP JUMP JUMPDEST PUSH0 PUSH1 0x20 DUP3 ADD SWAP1 POP SWAP2 SWAP1 POP JUMP JUMPDEST PUSH0 PUSH2 0x344A DUP3 PUSH2 0x33F4 JUMP JUMPDEST PUSH2 0x3454 DUP2 DUP6 PUSH2 0x33FE JUMP JUMPDEST SWAP4 POP PUSH2 0x345F DUP4 PUSH2 0x340E JUMP JUMPDEST DUP1 PUSH0 JUMPDEST DUP4 DUP2 LT ISZERO PUSH2 0x348F JUMPI DUP2 MLOAD PUSH2 0x3476 DUP9 DUP3 PUSH2 0x341D JUMP JUMPDEST SWAP8 POP PUSH2 0x3481 DUP4 PUSH2 0x3434 JUMP JUMPDEST SWAP3 POP POP PUSH1 0x1 DUP2 ADD SWAP1 POP PUSH2 0x3462 JUMP JUMPDEST POP DUP6 SWAP4 POP POP POP POP SWAP3 SWAP2 POP POP JUMP JUMPDEST PUSH2 0x34A5 DUP2 PUSH2 0x3275 JUMP JUMPDEST DUP3 MSTORE POP POP JUMP JUMPDEST PUSH0 PUSH2 0x140 DUP4 ADD PUSH0 DUP4 ADD MLOAD PUSH2 0x34C1 PUSH0 DUP7 ADD DUP3 PUSH2 0x339A JUMP JUMPDEST POP PUSH1 0x20 DUP4 ADD MLOAD PUSH2 0x34D4 PUSH1 0x20 DUP7 ADD DUP3 PUSH2 0x33A9 JUMP JUMPDEST POP PUSH1 0x40 DUP4 ADD MLOAD PUSH2 0x34E7 PUSH1 0x40 DUP7 ADD DUP3 PUSH2 0x33B8 JUMP JUMPDEST POP PUSH1 0x60 DUP4 ADD MLOAD PUSH2 0x34FA PUSH1 0x60 DUP7 ADD DUP3 PUSH2 0x33C7 JUMP JUMPDEST POP PUSH1 0x80 DUP4 ADD MLOAD PUSH2 0x350D PUSH1 0x80 DUP7 ADD DUP3 PUSH2 0x33D6 JUMP JUMPDEST POP PUSH1 0xA0 DUP4 ADD MLOAD PUSH2 0x3520 PUSH1 0xA0 DUP7 ADD DUP3 PUSH2 0x33D6 JUMP JUMPDEST POP PUSH1 0xC0 DUP4 ADD MLOAD PUSH2 0x3533 PUSH1 0xC0 DUP7 ADD DUP3 PUSH2 0x33E5 JUMP JUMPDEST POP PUSH1 0xE0 DUP4 ADD MLOAD DUP5 DUP3 SUB PUSH1 0xE0 DUP7 ADD MSTORE PUSH2 0x354B DUP3 DUP3 PUSH2 0x3440 JUMP JUMPDEST SWAP2 POP POP PUSH2 0x100 DUP4 ADD MLOAD DUP5 DUP3 SUB PUSH2 0x100 DUP7 ADD MSTORE PUSH2 0x3567 DUP3 DUP3 PUSH2 0x3440 JUMP JUMPDEST SWAP2 POP POP PUSH2 0x120 DUP4 ADD MLOAD PUSH2 0x357E PUSH2 0x120 DUP7 ADD DUP3 PUSH2 0x349C JUMP JUMPDEST POP DUP1 SWAP2 POP POP SWAP3 SWAP2 POP POP JUMP JUMPDEST PUSH0 PUSH2 0x3594 DUP4 DUP4 PUSH2 0x34AB JUMP JUMPDEST SWAP1 POP SWAP3 SWAP2 POP POP JUMP JUMPDEST PUSH0 PUSH1 0x20 DUP3 ADD SWAP1 POP SWAP2 SWAP1 POP JUMP JUMPDEST PUSH0 PUSH2 0x35B2 DUP3 PUSH2 0x3371 JUMP JUMPDEST PUSH2 0x35BC DUP2 DUP6 PUSH2 0x337B JUMP JUMPDEST SWAP4 POP DUP4 PUSH1 0x20 DUP3 MUL DUP6 ADD PUSH2 0x35CE DUP6 PUSH2 0x338B JUMP JUMPDEST DUP1 PUSH0 JUMPDEST DUP6 DUP2 LT ISZERO PUSH2 0x3609 JUMPI DUP5 DUP5 SUB DUP10 MSTORE DUP2 MLOAD PUSH2 0x35EA DUP6 DUP3 PUSH2 0x3589 JUMP JUMPDEST SWAP5 POP PUSH2 0x35F5 DUP4 PUSH2 0x359C JUMP JUMPDEST SWAP3 POP PUSH1 0x20 DUP11 ADD SWAP10 POP POP PUSH1 0x1 DUP2 ADD SWAP1 POP PUSH2 0x35D1 JUMP JUMPDEST POP DUP3 SWAP8 POP DUP8 SWAP6 POP POP POP POP POP POP SWAP3 SWAP2 POP POP JUMP JUMPDEST PUSH0 PUSH1 0x20 DUP3 ADD SWAP1 POP DUP2 DUP2 SUB PUSH0 DUP4 ADD MSTORE PUSH2 0x3633 DUP2 DUP5 PUSH2 0x35A8 JUMP JUMPDEST SWAP1 POP SWAP3 SWAP2 POP POP JUMP JUMPDEST PUSH0 DUP2 MLOAD SWAP1 POP SWAP2 SWAP1 POP JUMP JUMPDEST PUSH0 DUP3 DUP3 MSTORE PUSH1 0x20 DUP3 ADD SWAP1 POP SWAP3 SWAP2 POP POP JUMP JUMPDEST PUSH0 DUP2 SWAP1 POP PUSH1 0x20 DUP3 ADD SWAP1 POP SWAP2 SWAP1 POP JUMP JUMPDEST PUSH1 0x40 DUP3 ADD PUSH0 DUP3 ADD MLOAD PUSH2 0x3678 PUSH0 DUP6 ADD DUP3 PUSH2 0x339A JUMP JUMPDEST POP PUSH1 0x20 DUP3 ADD MLOAD PUSH2 0x368B PUSH1 0x20 DUP6 ADD DUP3 PUSH2 0x33A9 JUMP JUMPDEST POP POP POP POP JUMP JUMPDEST PUSH0 PUSH2 0x369C DUP4 DUP4 PUSH2 0x3664 JUMP JUMPDEST PUSH1 0x40 DUP4 ADD SWAP1 POP SWAP3 SWAP2 POP POP JUMP JUMPDEST PUSH0 PUSH1 0x20 DUP3 ADD SWAP1 POP SWAP2 SWAP1 POP JUMP JUMPDEST PUSH0 PUSH2 0x36BE DUP3 PUSH2 0x363B JUMP JUMPDEST PUSH2 0x36C8 DUP2 DUP6 PUSH2 0x3645 JUMP JUMPDEST SWAP4 POP PUSH2 0x36D3 DUP4 PUSH2 0x3655 JUMP JUMPDEST DUP1 PUSH0 JUMPDEST DUP4 DUP2 LT ISZERO PUSH2 0x3703 JUMPI DUP2 MLOAD PUSH2 0x36EA DUP9 DUP3 PUSH2 0x3691 JUMP JUMPDEST SWAP8 POP PUSH2 0x36F5 DUP4 PUSH2 0x36A8 JUMP JUMPDEST SWAP3 POP POP PUSH1 0x1 DUP2 ADD SWAP1 POP PUSH2 0x36D6 JUMP JUMPDEST POP DUP6 SWAP4 POP POP POP POP SWAP3 SWAP2 POP POP JUMP JUMPDEST PUSH0 PUSH1 0x20 DUP3 ADD SWAP1 POP DUP2 DUP2 SUB PUSH0 DUP4 ADD MSTORE PUSH2 0x3728 DUP2 DUP5 PUSH2 0x36B4 JUMP JUMPDEST SWAP1 POP SWAP3 SWAP2 POP POP JUMP JUMPDEST PUSH0 PUSH1 0x60 DUP3 ADD SWAP1 POP PUSH2 0x3743 PUSH0 DUP4 ADD DUP7 PUSH2 0x315A JUMP JUMPDEST PUSH2 0x3750 PUSH1 0x20 DUP4 ADD DUP6 PUSH2 0x3286 JUMP JUMPDEST PUSH2 0x375D PUSH1 0x40 DUP4 ADD DUP5 PUSH2 0x315A JUMP JUMPDEST SWAP5 SWAP4 POP POP POP POP JUMP JUMPDEST PUSH2 0x376E DUP2 PUSH2 0x3113 JUMP JUMPDEST DUP2 EQ PUSH2 0x3778 JUMPI PUSH0 DUP1 REVERT JUMPDEST POP JUMP JUMPDEST PUSH0 DUP2 CALLDATALOAD SWAP1 POP PUSH2 0x3789 DUP2 PUSH2 0x3765 JUMP JUMPDEST SWAP3 SWAP2 POP POP JUMP JUMPDEST PUSH2 0x3798 DUP2 PUSH2 0x3216 JUMP JUMPDEST DUP2 EQ PUSH2 0x37A2 JUMPI PUSH0 DUP1 REVERT JUMPDEST POP JUMP JUMPDEST PUSH0 DUP2 CALLDATALOAD SWAP1 POP PUSH2 0x37B3 DUP2 PUSH2 0x378F JUMP JUMPDEST SWAP3 SWAP2 POP POP JUMP JUMPDEST PUSH0 DUP1 PUSH1 0x40 DUP4 DUP6 SUB SLT ISZERO PUSH2 0x37CF JUMPI PUSH2 0x37CE PUSH2 0x2EEA JUMP JUMPDEST JUMPDEST PUSH0 PUSH2 0x37DC DUP6 DUP3 DUP7 ADD PUSH2 0x377B JUMP JUMPDEST SWAP3 POP POP PUSH1 0x20 PUSH2 0x37ED DUP6 DUP3 DUP7 ADD PUSH2 0x37A5 JUMP JUMPDEST SWAP2 POP POP SWAP3 POP SWAP3 SWAP1 POP JUMP JUMPDEST PUSH0 DUP2 MLOAD SWAP1 POP SWAP2 SWAP1 POP JUMP JUMPDEST PUSH0 DUP3 DUP3 MSTORE PUSH1 0x20 DUP3 ADD SWAP1 POP SWAP3 SWAP2 POP POP JUMP JUMPDEST PUSH0 DUP2 SWAP1 POP PUSH1 0x20 DUP3 ADD SWAP1 POP SWAP2 SWAP1 POP JUMP JUMPDEST PUSH1 0x40 DUP3 ADD PUSH0 DUP3 ADD MLOAD PUSH2 0x3834 PUSH0 DUP6 ADD DUP3 PUSH2 0x339A JUMP JUMPDEST POP PUSH1 0x20 DUP3 ADD MLOAD PUSH2 0x3847 PUSH1 0x20 DUP6 ADD DUP3 PUSH2 0x33A9 JUMP JUMPDEST POP POP POP POP JUMP JUMPDEST PUSH0 PUSH2 0x3858 DUP4 DUP4 PUSH2 0x3820 JUMP JUMPDEST PUSH1 0x40 DUP4 ADD SWAP1 POP SWAP3 SWAP2 POP POP JUMP JUMPDEST PUSH0 PUSH1 0x20 DUP3 ADD SWAP1 POP SWAP2 SWAP1 POP JUMP JUMPDEST PUSH0 PUSH2 0x387A DUP3 PUSH2 0x37F7 JUMP JUMPDEST PUSH2 0x3884 DUP2 DUP6 PUSH2 0x3801 JUMP JUMPDEST SWAP4 POP PUSH2 0x388F DUP4 PUSH2 0x3811 JUMP JUMPDEST DUP1 PUSH0 JUMPDEST DUP4 DUP2 LT ISZERO PUSH2 0x38BF JUMPI DUP2 MLOAD PUSH2 0x38A6 DUP9 DUP3 PUSH2 0x384D JUMP JUMPDEST SWAP8 POP PUSH2 0x38B1 DUP4 PUSH2 0x3864 JUMP JUMPDEST SWAP3 POP POP PUSH1 0x1 DUP2 ADD SWAP1 POP PUSH2 0x3892 JUMP JUMPDEST POP DUP6 SWAP4 POP POP POP POP SWAP3 SWAP2 POP POP JUMP JUMPDEST PUSH0 PUSH1 0x20 DUP3 ADD SWAP1 POP DUP2 DUP2 SUB PUSH0 DUP4 ADD MSTORE PUSH2 0x38E4 DUP2 DUP5 PUSH2 0x3870 JUMP JUMPDEST SWAP1 POP SWAP3 SWAP2 POP POP JUMP JUMPDEST PUSH2 0x38F5 DUP2 PUSH2 0x3238 JUMP JUMPDEST DUP2 EQ PUSH2 0x38FF JUMPI PUSH0 DUP1 REVERT JUMPDEST POP JUMP JUMPDEST PUSH0 DUP2 CALLDATALOAD SWAP1 POP PUSH2 0x3910 DUP2 PUSH2 0x38EC JUMP JUMPDEST SWAP3 SWAP2 POP POP JUMP JUMPDEST PUSH0 DUP1 DUP4 PUSH1 0x1F DUP5 ADD SLT PUSH2 0x392B JUMPI PUSH2 0x392A PUSH2 0x2EF2 JUMP JUMPDEST JUMPDEST DUP3 CALLDATALOAD SWAP1 POP PUSH8 0xFFFFFFFFFFFFFFFF DUP2 GT ISZERO PUSH2 0x3948 JUMPI PUSH2 0x3947 PUSH2 0x2EF6 JUMP JUMPDEST JUMPDEST PUSH1 0x20 DUP4 ADD SWAP2 POP DUP4 PUSH1 0x20 DUP3 MUL DUP4 ADD GT ISZERO PUSH2 0x3964 JUMPI PUSH2 0x3963 PUSH2 0x2EFA JUMP JUMPDEST JUMPDEST SWAP3 POP SWAP3 SWAP1 POP JUMP JUMPDEST PUSH0 DUP1 PUSH0 DUP1 PUSH0 DUP1 PUSH0 DUP1 PUSH0 DUP1 PUSH0 PUSH1 0xE0 DUP13 DUP15 SUB SLT ISZERO PUSH2 0x398A JUMPI PUSH2 0x3989 PUSH2 0x2EEA JUMP JUMPDEST JUMPDEST PUSH0 DUP13 ADD CALLDATALOAD PUSH8 0xFFFFFFFFFFFFFFFF DUP2 GT ISZERO PUSH2 0x39A7 JUMPI PUSH2 0x39A6 PUSH2 0x2EEE JUMP JUMPDEST JUMPDEST PUSH2 0x39B3 DUP15 DUP3 DUP16 ADD PUSH2 0x2EFE JUMP JUMPDEST SWAP12 POP SWAP12 POP POP PUSH1 0x20 DUP13 ADD CALLDATALOAD PUSH8 0xFFFFFFFFFFFFFFFF DUP2 GT ISZERO PUSH2 0x39D6 JUMPI PUSH2 0x39D5 PUSH2 0x2EEE JUMP JUMPDEST JUMPDEST PUSH2 0x39E2 DUP15 DUP3 DUP16 ADD PUSH2 0x2EFE JUMP JUMPDEST SWAP10 POP SWAP10 POP POP PUSH1 0x40 PUSH2 0x39F5 DUP15 DUP3 DUP16 ADD PUSH2 0x37A5 JUMP JUMPDEST SWAP8 POP POP PUSH1 0x60 PUSH2 0x3A06 DUP15 DUP3 DUP16 ADD PUSH2 0x37A5 JUMP JUMPDEST SWAP7 POP POP PUSH1 0x80 PUSH2 0x3A17 DUP15 DUP3 DUP16 ADD PUSH2 0x3902 JUMP JUMPDEST SWAP6 POP POP PUSH1 0xA0 DUP13 ADD CALLDATALOAD PUSH8 0xFFFFFFFFFFFFFFFF DUP2 GT ISZERO PUSH2 0x3A38 JUMPI PUSH2 0x3A37 PUSH2 0x2EEE JUMP JUMPDEST JUMPDEST PUSH2 0x3A44 DUP15 DUP3 DUP16 ADD PUSH2 0x3916 JUMP JUMPDEST SWAP5 POP SWAP5 POP POP PUSH1 0xC0 DUP13 ADD CALLDATALOAD PUSH8 0xFFFFFFFFFFFFFFFF DUP2 GT ISZERO PUSH2 0x3A67 JUMPI PUSH2 0x3A66 PUSH2 0x2EEE JUMP JUMPDEST JUMPDEST PUSH2 0x3A73 DUP15 DUP3 DUP16 ADD PUSH2 0x3916 JUMP JUMPDEST SWAP3 POP SWAP3 POP POP SWAP3 SWAP6 SWAP9 SWAP12 POP SWAP3 SWAP6 SWAP9 SWAP12 SWAP1 SWAP4 SWAP7 SWAP10 POP JUMP JUMPDEST PUSH1 0x4 DUP2 LT PUSH2 0x3A99 JUMPI PUSH2 0x3A98 PUSH2 0x31A3 JUMP JUMPDEST JUMPDEST POP JUMP JUMPDEST PUSH0 DUP2 SWAP1 POP PUSH2 0x3AA9 DUP3 PUSH2 0x3A88 JUMP JUMPDEST SWAP2 SWAP1 POP JUMP JUMPDEST PUSH0 PUSH2 0x3AB8 DUP3 PUSH2 0x3A9C JUMP JUMPDEST SWAP1 POP SWAP2 SWAP1 POP JUMP JUMPDEST PUSH2 0x3AC8 DUP2 PUSH2 0x3AAE JUMP JUMPDEST DUP3 MSTORE POP POP JUMP JUMPDEST PUSH0 PUSH1 0x20 DUP3 ADD SWAP1 POP PUSH2 0x3AE1 PUSH0 DUP4 ADD DUP5 PUSH2 0x3ABF JUMP JUMPDEST SWAP3 SWAP2 POP POP JUMP JUMPDEST PUSH0 PUSH1 0x80 DUP3 ADD SWAP1 POP PUSH2 0x3AFA PUSH0 DUP4 ADD DUP8 PUSH2 0x315A JUMP JUMPDEST PUSH2 0x3B07 PUSH1 0x20 DUP4 ADD DUP7 PUSH2 0x3286 JUMP JUMPDEST PUSH2 0x3B14 PUSH1 0x40 DUP4 ADD DUP6 PUSH2 0x315A JUMP JUMPDEST PUSH2 0x3B21 PUSH1 0x60 DUP4 ADD DUP5 PUSH2 0x315A JUMP JUMPDEST SWAP6 SWAP5 POP POP POP POP POP JUMP JUMPDEST PUSH0 PUSH1 0x20 DUP3 DUP5 SUB SLT ISZERO PUSH2 0x3B3F JUMPI PUSH2 0x3B3E PUSH2 0x2EEA JUMP JUMPDEST JUMPDEST PUSH0 PUSH2 0x3B4C DUP5 DUP3 DUP6 ADD PUSH2 0x377B JUMP JUMPDEST SWAP2 POP POP SWAP3 SWAP2 POP POP JUMP JUMPDEST PUSH0 DUP1 PUSH1 0x40 DUP4 DUP6 SUB SLT ISZERO PUSH2 0x3B6B JUMPI PUSH2 0x3B6A PUSH2 0x2EEA JUMP JUMPDEST JUMPDEST PUSH0 PUSH2 0x3B78 DUP6 DUP3 DUP7 ADD PUSH2 0x30D4 JUMP JUMPDEST SWAP3 POP POP PUSH1 0x20 PUSH2 0x3B89 DUP6 DUP3 DUP7 ADD PUSH2 0x3332 JUMP JUMPDEST SWAP2 POP POP SWAP3 POP SWAP3 SWAP1 POP JUMP JUMPDEST PUSH0 DUP3 DUP3 MSTORE PUSH1 0x20 DUP3 ADD SWAP1 POP SWAP3 SWAP2 POP POP JUMP JUMPDEST PUSH32 0x34203A207573657220616C726561647920657869737473000000000000000000 PUSH0 DUP3 ADD MSTORE POP JUMP JUMPDEST PUSH0 PUSH2 0x3BD7 PUSH1 0x17 DUP4 PUSH2 0x3B93 JUMP JUMPDEST SWAP2 POP PUSH2 0x3BE2 DUP3 PUSH2 0x3BA3 JUMP JUMPDEST PUSH1 0x20 DUP3 ADD SWAP1 POP SWAP2 SWAP1 POP JUMP JUMPDEST PUSH0 PUSH1 0x20 DUP3 ADD SWAP1 POP DUP2 DUP2 SUB PUSH0 DUP4 ADD MSTORE PUSH2 0x3C04 DUP2 PUSH2 0x3BCB JUMP JUMPDEST SWAP1 POP SWAP2 SWAP1 POP JUMP JUMPDEST PUSH32 0x35203A206D617820636170616369747920726561636865640000000000000000 PUSH0 DUP3 ADD MSTORE POP JUMP JUMPDEST PUSH0 PUSH2 0x3C3F PUSH1 0x18 DUP4 PUSH2 0x3B93 JUMP JUMPDEST SWAP2 POP PUSH2 0x3C4A DUP3 PUSH2 0x3C0B JUMP JUMPDEST PUSH1 0x20 DUP3 ADD SWAP1 POP SWAP2 SWAP1 POP JUMP JUMPDEST PUSH0 PUSH1 0x20 DUP3 ADD SWAP1 POP DUP2 DUP2 SUB PUSH0 DUP4 ADD MSTORE PUSH2 0x3C6C DUP2 PUSH2 0x3C33 JUMP JUMPDEST SWAP1 POP SWAP2 SWAP1 POP JUMP JUMPDEST PUSH0 DUP3 SWAP1 POP SWAP3 SWAP2 POP POP JUMP JUMPDEST PUSH0 DUP3 DUP3 SHL SWAP1 POP SWAP3 SWAP2 POP POP JUMP JUMPDEST PUSH0 PUSH2 0x3C94 DUP4 DUP4 PUSH2 0x3C73 JUMP JUMPDEST DUP3 PUSH2 0x3C9F DUP2 CALLDATALOAD PUSH2 0x312F JUMP JUMPDEST SWAP3 POP PUSH1 0x14 DUP3 LT ISZERO PUSH2 0x3CDF JUMPI PUSH2 0x3CDA PUSH32 0xFFFFFFFFFFFFFFFFFFFFFFFFFFFFFFFFFFFFFFFF000000000000000000000000 DUP4 PUSH1 0x14 SUB PUSH1 0x8 MUL PUSH2 0x3C7D JUMP JUMPDEST DUP4 AND SWAP3 POP JUMPDEST POP POP SWAP3 SWAP2 POP POP JUMP JUMPDEST PUSH32 0x4E487B7100000000000000000000000000000000000000000000000000000000 PUSH0 MSTORE PUSH1 0x41 PUSH1 0x4 MSTORE PUSH1 0x24 PUSH0 REVERT JUMPDEST PUSH32 0x4E487B7100000000000000000000000000000000000000000000000000000000 PUSH0 MSTORE PUSH1 0x11 PUSH1 0x4 MSTORE PUSH1 0x24 PUSH0 REVERT JUMPDEST PUSH0 PUSH2 0x3D4B DUP3 PUSH2 0x3113 JUMP JUMPDEST SWAP2 POP PUSH2 0x3D56 DUP4 PUSH2 0x3113 JUMP JUMPDEST SWAP3 POP DUP3 DUP3 SUB SWAP1 POP PUSH2 0xFFFF DUP2 GT ISZERO PUSH2 0x3D70 JUMPI PUSH2 0x3D6F PUSH2 0x3D14 JUMP JUMPDEST JUMPDEST SWAP3 SWAP2 POP POP JUMP JUMPDEST PUSH32 0x4E487B7100000000000000000000000000000000000000000000000000000000 PUSH0 MSTORE PUSH1 0x32 PUSH1 0x4 MSTORE PUSH1 0x24 PUSH0 REVERT JUMPDEST PUSH0 PUSH2 0x3DAD DUP3 PUSH2 0x3113 JUMP JUMPDEST SWAP2 POP PUSH2 0xFFFF DUP3 SUB PUSH2 0x3DC1 JUMPI PUSH2 0x3DC0 PUSH2 0x3D14 JUMP JUMPDEST JUMPDEST PUSH1 0x1 DUP3 ADD SWAP1 POP SWAP2 SWAP1 POP JUMP JUMPDEST PUSH0 PUSH2 0x3DD6 DUP3 PUSH2 0x3113 JUMP JUMPDEST SWAP2 POP PUSH2 0x3DE1 DUP4 PUSH2 0x3113 JUMP JUMPDEST SWAP3 POP DUP3 DUP3 ADD SWAP1 POP PUSH2 0xFFFF DUP2 GT ISZERO PUSH2 0x3DFB JUMPI PUSH2 0x3DFA PUSH2 0x3D14 JUMP JUMPDEST JUMPDEST SWAP3 SWAP2 POP POP JUMP JUMPDEST PUSH32 0x34203A20696E76616C6964207573657200000000000000000000000000000000 PUSH0 DUP3 ADD MSTORE POP JUMP JUMPDEST PUSH0 PUSH2 0x3E35 PUSH1 0x10 DUP4 PUSH2 0x3B93 JUMP JUMPDEST SWAP2 POP PUSH2 0x3E40 DUP3 PUSH2 0x3E01 JUMP JUMPDEST PUSH1 0x20 DUP3 ADD SWAP1 POP SWAP2 SWAP1 POP JUMP JUMPDEST PUSH0 PUSH1 0x20 DUP3 ADD SWAP1 POP DUP2 DUP2 SUB PUSH0 DUP4 ADD MSTORE PUSH2 0x3E62 DUP2 PUSH2 0x3E29 JUMP JUMPDEST SWAP1 POP SWAP2 SWAP1 POP JUMP JUMPDEST PUSH32 0x35203A2070726F6A656374206973206E6F7420617070726F7665640000000000 PUSH0 DUP3 ADD MSTORE POP JUMP JUMPDEST PUSH0 PUSH2 0x3E9D PUSH1 0x1B DUP4 PUSH2 0x3B93 JUMP JUMPDEST SWAP2 POP PUSH2 0x3EA8 DUP3 PUSH2 0x3E69 JUMP JUMPDEST PUSH1 0x20 DUP3 ADD SWAP1 POP SWAP2 SWAP1 POP JUMP JUMPDEST PUSH0 PUSH1 0x20 DUP3 ADD SWAP1 POP DUP2 DUP2 SUB PUSH0 DUP4 ADD MSTORE PUSH2 0x3ECA DUP2 PUSH2 0x3E91 JUMP JUMPDEST SWAP1 POP SWAP2 SWAP1 POP JUMP JUMPDEST PUSH32 0x35203A20696E76616C696420656E642064617465000000000000000000000000 PUSH0 DUP3 ADD MSTORE POP JUMP JUMPDEST PUSH0 PUSH2 0x3F05 PUSH1 0x14 DUP4 PUSH2 0x3B93 JUMP JUMPDEST SWAP2 POP PUSH2 0x3F10 DUP3 PUSH2 0x3ED1 JUMP JUMPDEST PUSH1 0x20 DUP3 ADD SWAP1 POP SWAP2 SWAP1 POP JUMP JUMPDEST PUSH0 PUSH1 0x20 DUP3 ADD SWAP1 POP DUP2 DUP2 SUB PUSH0 DUP4 ADD MSTORE PUSH2 0x3F32 DUP2 PUSH2 0x3EF9 JUMP JUMPDEST SWAP1 POP SWAP2 SWAP1 POP JUMP JUMPDEST PUSH32 0x34203A20496E76616C6964207573657200000000000000000000000000000000 PUSH0 DUP3 ADD MSTORE POP JUMP JUMPDEST PUSH0 PUSH2 0x3F6D PUSH1 0x10 DUP4 PUSH2 0x3B93 JUMP JUMPDEST SWAP2 POP PUSH2 0x3F78 DUP3 PUSH2 0x3F39 JUMP JUMPDEST PUSH1 0x20 DUP3 ADD SWAP1 POP SWAP2 SWAP1 POP JUMP JUMPDEST PUSH0 PUSH1 0x20 DUP3 ADD SWAP1 POP DUP2 DUP2 SUB PUSH0 DUP4 ADD MSTORE PUSH2 0x3F9A DUP2 PUSH2 0x3F61 JUMP JUMPDEST SWAP1 POP SWAP2 SWAP1 POP JUMP JUMPDEST PUSH32 0x37203A20696E76616C6964206461746573000000000000000000000000000000 PUSH0 DUP3 ADD MSTORE POP JUMP JUMPDEST PUSH0 PUSH2 0x3FD5 PUSH1 0x11 DUP4 PUSH2 0x3B93 JUMP JUMPDEST SWAP2 POP PUSH2 0x3FE0 DUP3 PUSH2 0x3FA1 JUMP JUMPDEST PUSH1 0x20 DUP3 ADD SWAP1 POP SWAP2 SWAP1 POP JUMP JUMPDEST PUSH0 PUSH1 0x20 DUP3 ADD SWAP1 POP DUP2 DUP2 SUB PUSH0 DUP4 ADD MSTORE PUSH2 0x4002 DUP2 PUSH2 0x3FC9 JUMP JUMPDEST SWAP1 POP SWAP2 SWAP1 POP JUMP JUMPDEST PUSH32 0x35203A206D6178206E756D626572206F662070726F6A65637473207265616368 PUSH0 DUP3 ADD MSTORE PUSH32 0x6564000000000000000000000000000000000000000000000000000000000000 PUSH1 0x20 DUP3 ADD MSTORE POP JUMP JUMPDEST PUSH0 PUSH2 0x4063 PUSH1 0x22 DUP4 PUSH2 0x3B93 JUMP JUMPDEST SWAP2 POP PUSH2 0x406E DUP3 PUSH2 0x4009 JUMP JUMPDEST PUSH1 0x40 DUP3 ADD SWAP1 POP SWAP2 SWAP1 POP JUMP JUMPDEST PUSH0 PUSH1 0x20 DUP3 ADD SWAP1 POP DUP2 DUP2 SUB PUSH0 DUP4 ADD MSTORE PUSH2 0x4090 DUP2 PUSH2 0x4057 JUMP JUMPDEST SWAP1 POP SWAP2 SWAP1 POP JUMP JUMPDEST PUSH32 0x35203A20646F6573206E6F74207361746973667920737461666620616E642066 PUSH0 DUP3 ADD MSTORE PUSH32 0x6163756C747920726571756972656D656E740000000000000000000000000000 PUSH1 0x20 DUP3 ADD MSTORE POP JUMP JUMPDEST PUSH0 PUSH2 0x40F1 PUSH1 0x32 DUP4 PUSH2 0x3B93 JUMP JUMPDEST SWAP2 POP PUSH2 0x40FC DUP3 PUSH2 0x4097 JUMP JUMPDEST PUSH1 0x40 DUP3 ADD SWAP1 POP SWAP2 SWAP1 POP JUMP JUMPDEST PUSH0 PUSH1 0x20 DUP3 ADD SWAP1 POP DUP2 DUP2 SUB PUSH0 DUP4 ADD MSTORE PUSH2 0x411E DUP2 PUSH2 0x40E5 JUMP JUMPDEST SWAP1 POP SWAP2 SWAP1 POP JUMP JUMPDEST PUSH32 0x36203A204E6F2069642065786973747300000000000000000000000000000000 PUSH0 DUP3 ADD MSTORE POP JUMP JUMPDEST PUSH0 PUSH2 0x4159 PUSH1 0x10 DUP4 PUSH2 0x3B93 JUMP JUMPDEST SWAP2 POP PUSH2 0x4164 DUP3 PUSH2 0x4125 JUMP JUMPDEST PUSH1 0x20 DUP3 ADD SWAP1 POP SWAP2 SWAP1 POP JUMP JUMPDEST PUSH0 PUSH1 0x20 DUP3 ADD SWAP1 POP DUP2 DUP2 SUB PUSH0 DUP4 ADD MSTORE PUSH2 0x4186 DUP2 PUSH2 0x414D JUMP JUMPDEST SWAP1 POP SWAP2 SWAP1 POP JUMP JUMPDEST PUSH0 PUSH2 0x4197 DUP3 PUSH2 0x30B5 JUMP JUMPDEST SWAP2 POP PUSH2 0x41A2 DUP4 PUSH2 0x30B5 JUMP JUMPDEST SWAP3 POP DUP3 DUP3 ADD SWAP1 POP DUP1 DUP3 GT ISZERO PUSH2 0x41BA JUMPI PUSH2 0x41B9 PUSH2 0x3D14 JUMP JUMPDEST JUMPDEST SWAP3 SWAP2 POP POP JUMP JUMPDEST PUSH0 PUSH2 0x41CB DUP4 DUP4 PUSH2 0x3C73 JUMP JUMPDEST DUP3 PUSH2 0x41D6 DUP2 CALLDATALOAD PUSH2 0x3169 JUMP JUMPDEST SWAP3 POP PUSH1 0x1E DUP3 LT ISZERO PUSH2 0x4216 JUMPI PUSH2 0x4211 PUSH32 0xFFFFFFFFFFFFFFFFFFFFFFFFFFFFFFFFFFFFFFFFFFFFFFFFFFFFFFFFFFFF0000 DUP4 PUSH1 0x1E SUB PUSH1 0x8 MUL PUSH2 0x3C7D JUMP JUMPDEST DUP4 AND SWAP3 POP JUMPDEST POP POP SWAP3 SWAP2 POP POP JUMP JUMPDEST PUSH0 PUSH2 0x4228 DUP3 PUSH2 0x30B5 JUMP JUMPDEST SWAP2 POP PUSH2 0x4233 DUP4 PUSH2 0x30B5 JUMP JUMPDEST SWAP3 POP DUP3 DUP3 SUB SWAP1 POP DUP2 DUP2 GT ISZERO PUSH2 0x424B JUMPI PUSH2 0x424A PUSH2 0x3D14 JUMP JUMPDEST JUMPDEST SWAP3 SWAP2 POP POP JUMP JUMPDEST PUSH32 0x34203A204E6F742061646D696E00000000000000000000000000000000000000 PUSH0 DUP3 ADD MSTORE POP JUMP JUMPDEST PUSH0 PUSH2 0x4285 PUSH1 0xD DUP4 PUSH2 0x3B93 JUMP JUMPDEST SWAP2 POP PUSH2 0x4290 DUP3 PUSH2 0x4251 JUMP JUMPDEST PUSH1 0x20 DUP3 ADD SWAP1 POP SWAP2 SWAP1 POP JUMP JUMPDEST PUSH0 PUSH1 0x20 DUP3 ADD SWAP1 POP DUP2 DUP2 SUB PUSH0 DUP4 ADD MSTORE PUSH2 0x42B2 DUP2 PUSH2 0x4279 JUMP JUMPDEST SWAP1 POP SWAP2 SWAP1 POP JUMP JUMPDEST PUSH32 0x35203A204E6F7420656E6F7567682062616C616E636500000000000000000000 PUSH0 DUP3 ADD MSTORE POP JUMP JUMPDEST PUSH0 PUSH2 0x42ED PUSH1 0x16 DUP4 PUSH2 0x3B93 JUMP JUMPDEST SWAP2 POP PUSH2 0x42F8 DUP3 PUSH2 0x42B9 JUMP JUMPDEST PUSH1 0x20 DUP3 ADD SWAP1 POP SWAP2 SWAP1 POP JUMP JUMPDEST PUSH0 PUSH1 0x20 DUP3 ADD SWAP1 POP DUP2 DUP2 SUB PUSH0 DUP4 ADD MSTORE PUSH2 0x431A DUP2 PUSH2 0x42E1 JUMP JUMPDEST SWAP1 POP SWAP2 SWAP1 POP JUMP JUMPDEST PUSH32 0x35203A205472616E73666572206661696C656400000000000000000000000000 PUSH0 DUP3 ADD MSTORE POP JUMP JUMPDEST PUSH0 PUSH2 0x4355 PUSH1 0x13 DUP4 PUSH2 0x3B93 JUMP JUMPDEST SWAP2 POP PUSH2 0x4360 DUP3 PUSH2 0x4321 JUMP JUMPDEST PUSH1 0x20 DUP3 ADD SWAP1 POP SWAP2 SWAP1 POP JUMP JUMPDEST PUSH0 PUSH1 0x20 DUP3 ADD SWAP1 POP DUP2 DUP2 SUB PUSH0 DUP4 ADD MSTORE PUSH2 0x4382 DUP2 PUSH2 0x4349 JUMP JUMPDEST SWAP1 POP SWAP2 SWAP1 POP JUMP JUMPDEST PUSH32 0x34203A2050726F6A65637420696420646F6573206E6F74206578697374730000 PUSH0 DUP3 ADD MSTORE POP JUMP JUMPDEST PUSH0 PUSH2 0x43BD PUSH1 0x1E DUP4 PUSH2 0x3B93 JUMP JUMPDEST SWAP2 POP PUSH2 0x43C8 DUP3 PUSH2 0x4389 JUMP JUMPDEST PUSH1 0x20 DUP3 ADD SWAP1 POP SWAP2 SWAP1 POP JUMP JUMPDEST PUSH0 PUSH1 0x20 DUP3 ADD SWAP1 POP DUP2 DUP2 SUB PUSH0 DUP4 ADD MSTORE PUSH2 0x43EA DUP2 PUSH2 0x43B1 JUMP JUMPDEST SWAP1 POP SWAP2 SWAP1 POP JUMP JUMPDEST PUSH32 0x34203A207468652070726F6A6563742069732070656E64696E67000000000000 PUSH0 DUP3 ADD MSTORE POP JUMP JUMPDEST PUSH0 PUSH2 0x4425 PUSH1 0x1A DUP4 PUSH2 0x3B93 JUMP JUMPDEST SWAP2 POP PUSH2 0x4430 DUP3 PUSH2 0x43F1 JUMP JUMPDEST PUSH1 0x20 DUP3 ADD SWAP1 POP SWAP2 SWAP1 POP JUMP JUMPDEST PUSH0 PUSH1 0x20 DUP3 ADD SWAP1 POP DUP2 DUP2 SUB PUSH0 DUP4 ADD MSTORE PUSH2 0x4452 DUP2 PUSH2 0x4419 JUMP JUMPDEST SWAP1 POP SWAP2 SWAP1 POP JUMP JUMPDEST PUSH32 0x35203A2050726F6A656374206973206E6F7420636F6D706C6574656400000000 PUSH0 DUP3 ADD MSTORE POP JUMP JUMPDEST PUSH0 PUSH2 0x448D PUSH1 0x1C DUP4 PUSH2 0x3B93 JUMP JUMPDEST SWAP2 POP PUSH2 0x4498 DUP3 PUSH2 0x4459 JUMP JUMPDEST PUSH1 0x20 DUP3 ADD SWAP1 POP SWAP2 SWAP1 POP JUMP JUMPDEST PUSH0 PUSH1 0x20 DUP3 ADD SWAP1 POP DUP2 DUP2 SUB PUSH0 DUP4 ADD MSTORE PUSH2 0x44BA DUP2 PUSH2 0x4481 JUMP JUMPDEST SWAP1 POP SWAP2 SWAP1 POP JUMP JUMPDEST PUSH32 0x35203A20696E636F727265637420616D6F756E7420746F207472616E73666572 PUSH0 DUP3 ADD MSTORE POP JUMP JUMPDEST PUSH0 PUSH2 0x44F5 PUSH1 0x20 DUP4 PUSH2 0x3B93 JUMP JUMPDEST SWAP2 POP PUSH2 0x4500 DUP3 PUSH2 0x44C1 JUMP JUMPDEST PUSH1 0x20 DUP3 ADD SWAP1 POP SWAP2 SWAP1 POP JUMP JUMPDEST PUSH0 PUSH1 0x20 DUP3 ADD SWAP1 POP DUP2 DUP2 SUB PUSH0 DUP4 ADD MSTORE PUSH2 0x4522 DUP2 PUSH2 0x44E9 JUMP JUMPDEST SWAP1 POP SWAP2 SWAP1 POP JUMP JUMPDEST PUSH32 0x35203A20696E73756666696369656E742062616C616E63650000000000000000 PUSH0 DUP3 ADD MSTORE POP JUMP JUMPDEST PUSH0 PUSH2 0x455D PUSH1 0x18 DUP4 PUSH2 0x3B93 JUMP JUMPDEST SWAP2 POP PUSH2 0x4568 DUP3 PUSH2 0x4529 JUMP JUMPDEST PUSH1 0x20 DUP3 ADD SWAP1 POP SWAP2 SWAP1 POP JUMP JUMPDEST PUSH0 PUSH1 0x20 DUP3 ADD SWAP1 POP DUP2 DUP2 SUB PUSH0 DUP4 ADD MSTORE PUSH2 0x458A DUP2 PUSH2 0x4551 JUMP JUMPDEST SWAP1 POP SWAP2 SWAP1 POP JUMP JUMPDEST PUSH32 0x35203A205061796D656E74206661696C65640000000000000000000000000000 PUSH0 DUP3 ADD MSTORE POP JUMP JUMPDEST PUSH0 PUSH2 0x45C5 PUSH1 0x12 DUP4 PUSH2 0x3B93 JUMP JUMPDEST SWAP2 POP PUSH2 0x45D0 DUP3 PUSH2 0x4591 JUMP JUMPDEST PUSH1 0x20 DUP3 ADD SWAP1 POP SWAP2 SWAP1 POP JUMP JUMPDEST PUSH0 PUSH1 0x20 DUP3 ADD SWAP1 POP DUP2 DUP2 SUB PUSH0 DUP4 ADD MSTORE PUSH2 0x45F2 DUP2 PUSH2 0x45B9 JUMP JUMPDEST SWAP1 POP SWAP2 SWAP1 POP JUMP JUMPDEST PUSH32 0x34203A20496E76616C69642075736572206F722070726F6A6563740000000000 PUSH0 DUP3 ADD MSTORE POP JUMP JUMPDEST PUSH0 PUSH2 0x462D PUSH1 0x1B DUP4 PUSH2 0x3B93 JUMP JUMPDEST SWAP2 POP PUSH2 0x4638 DUP3 PUSH2 0x45F9 JUMP JUMPDEST PUSH1 0x20 DUP3 ADD SWAP1 POP SWAP2 SWAP1 POP JUMP JUMPDEST PUSH0 PUSH1 0x20 DUP3 ADD SWAP1 POP DUP2 DUP2 SUB PUSH0 DUP4 ADD MSTORE PUSH2 0x465A DUP2 PUSH2 0x4621 JUMP JUMPDEST SWAP1 POP SWAP2 SWAP1 POP JUMP JUMPDEST PUSH32 0x35203A2070726F6A656374206973206E6F742070656E64696E67000000000000 PUSH0 DUP3 ADD MSTORE POP JUMP JUMPDEST PUSH0 PUSH2 0x4695 PUSH1 0x1A DUP4 PUSH2 0x3B93 JUMP JUMPDEST SWAP2 POP PUSH2 0x46A0 DUP3 PUSH2 0x4661 JUMP JUMPDEST PUSH1 0x20 DUP3 ADD SWAP1 POP SWAP2 SWAP1 POP JUMP JUMPDEST PUSH0 PUSH1 0x20 DUP3 ADD SWAP1 POP DUP2 DUP2 SUB PUSH0 DUP4 ADD MSTORE PUSH2 0x46C2 DUP2 PUSH2 0x4689 JUMP JUMPDEST SWAP1 POP SWAP2 SWAP1 POP JUMP INVALID LOG2 PUSH5 0x6970667358 0x22 SLT KECCAK256 DUP12 POP 0xED BASEFEE PUSH28 0x85554CE71F0177B449DB233095218A1D9DCF144FB6DD2FB414AF2264 PUSH20 0x6F6C634300081900330000000000000000000000 "
		},
		"gasEstimates": {
			"creation": {
				"codeDepositCost": "3635000",
				"executionCost": "76960",
				"totalCost": "3711960"
			},
			"external": {
				"addProject(string,string,uint64,uint64,uint32,uint16[],uint16[])": "infinite",
				"approveProject(uint256,bool)": "infinite",
				"faculties(uint256)": "infinite",
				"getAllFaculties()": "infinite",
				"getAllProjectStaffs()": "infinite",
				"getAllProjects(bool)": "infinite",
				"getExtendedPeriod(uint16,uint64)": "infinite",
				"login()": "7224",
				"makePayments()": "infinite",
				"projectStaffs(uint256)": "infinite",
				"projects(uint256)": "infinite",
				"registerFaculty(string,string,string)": "infinite",
				"registerProjectStaff(string,string)": "infinite",
				"salaryTransfer(uint16)": "infinite"
			}
		},
		"methodIdentifiers": {
			"addProject(string,string,uint64,uint64,uint32,uint16[],uint16[])": "9d98f1c6",
			"approveProject(uint256,bool)": "cecccf7c",
			"faculties(uint256)": "ca26e03a",
			"getAllFaculties()": "70330e07",
			"getAllProjectStaffs()": "9c17d712",
			"getAllProjects(bool)": "4208066e",
			"getExtendedPeriod(uint16,uint64)": "8ac52d7f",
			"login()": "b34e97e8",
			"makePayments()": "bff57555",
			"projectStaffs(uint256)": "873a4ad6",
			"projects(uint256)": "107046bd",
			"registerFaculty(string,string,string)": "0635950f",
			"registerProjectStaff(string,string)": "082e0894",
			"salaryTransfer(uint16)": "ca91da62"
		}
	},
	"abi": [
		{
			"inputs": [],
			"stateMutability": "payable",
			"type": "constructor"
		},
		{
			"inputs": [
				{
					"internalType": "string",
					"name": "_title",
					"type": "string"
				},
				{
					"internalType": "string",
					"name": "_description",
					"type": "string"
				},
				{
					"internalType": "uint64",
					"name": "_startDate",
					"type": "uint64"
				},
				{
					"internalType": "uint64",
					"name": "_endDate",
					"type": "uint64"
				},
				{
					"internalType": "uint32",
					"name": "_salary",
					"type": "uint32"
				},
				{
					"internalType": "uint16[]",
					"name": "_projectStaffIds",
					"type": "uint16[]"
				},
				{
					"internalType": "uint16[]",
					"name": "_facultyIds",
					"type": "uint16[]"
				}
			],
			"name": "addProject",
			"outputs": [
				{
					"internalType": "uint8",
					"name": "",
					"type": "uint8"
				}
			],
			"stateMutability": "nonpayable",
			"type": "function"
		},
		{
			"inputs": [
				{
					"internalType": "uint256",
					"name": "_projectId",
					"type": "uint256"
				},
				{
					"internalType": "bool",
					"name": "_approval",
					"type": "bool"
				}
			],
			"name": "approveProject",
			"outputs": [
				{
					"internalType": "uint8",
					"name": "",
					"type": "uint8"
				}
			],
			"stateMutability": "nonpayable",
			"type": "function"
		},
		{
			"inputs": [
				{
					"internalType": "uint256",
					"name": "",
					"type": "uint256"
				}
			],
			"name": "faculties",
			"outputs": [
				{
					"internalType": "bytes20",
					"name": "name",
					"type": "bytes20"
				},
				{
					"internalType": "address payable",
					"name": "facultyAddress",
					"type": "address"
				},
				{
					"internalType": "bytes20",
					"name": "department",
					"type": "bytes20"
				},
				{
					"internalType": "bytes20",
					"name": "email",
					"type": "bytes20"
				}
			],
			"stateMutability": "view",
			"type": "function"
		},
		{
			"inputs": [],
			"name": "getAllFaculties",
			"outputs": [
				{
					"components": [
						{
							"internalType": "uint16",
							"name": "id",
							"type": "uint16"
						},
						{
							"internalType": "bytes20",
							"name": "name",
							"type": "bytes20"
						}
					],
					"internalType": "struct projectStaffContractIITM.ShowFaculty[]",
					"name": "",
					"type": "tuple[]"
				}
			],
			"stateMutability": "view",
			"type": "function"
		},
		{
			"inputs": [],
			"name": "getAllProjectStaffs",
			"outputs": [
				{
					"components": [
						{
							"internalType": "uint16",
							"name": "id",
							"type": "uint16"
						},
						{
							"internalType": "bytes20",
							"name": "name",
							"type": "bytes20"
						}
					],
					"internalType": "struct projectStaffContractIITM.ShowStaff[]",
					"name": "",
					"type": "tuple[]"
				}
			],
			"stateMutability": "view",
			"type": "function"
		},
		{
			"inputs": [
				{
					"internalType": "bool",
					"name": "needAll",
					"type": "bool"
				}
			],
			"name": "getAllProjects",
			"outputs": [
				{
					"components": [
						{
							"internalType": "uint16",
							"name": "id",
							"type": "uint16"
						},
						{
							"internalType": "bytes20",
							"name": "title",
							"type": "bytes20"
						},
						{
							"internalType": "bytes30",
							"name": "description",
							"type": "bytes30"
						},
						{
							"internalType": "enum projectStaffContractIITM.ProjectStatus",
							"name": "status",
							"type": "uint8"
						},
						{
							"internalType": "uint64",
							"name": "startDate",
							"type": "uint64"
						},
						{
							"internalType": "uint64",
							"name": "endDate",
							"type": "uint64"
						},
						{
							"internalType": "uint32",
							"name": "salary",
							"type": "uint32"
						},
						{
							"internalType": "uint16[]",
							"name": "projectStaffs",
							"type": "uint16[]"
						},
						{
							"internalType": "uint16[]",
							"name": "faculties",
							"type": "uint16[]"
						},
						{
							"internalType": "address payable",
							"name": "currentApprover",
							"type": "address"
						}
					],
					"internalType": "struct projectStaffContractIITM.Project[]",
					"name": "",
					"type": "tuple[]"
				}
			],
			"stateMutability": "view",
			"type": "function"
		},
		{
			"inputs": [
				{
					"internalType": "uint16",
					"name": "_projectId",
					"type": "uint16"
				},
				{
					"internalType": "uint64",
					"name": "_newEndDate",
					"type": "uint64"
				}
			],
			"name": "getExtendedPeriod",
			"outputs": [
				{
					"internalType": "uint8",
					"name": "",
					"type": "uint8"
				}
			],
			"stateMutability": "nonpayable",
			"type": "function"
		},
		{
			"inputs": [],
			"name": "login",
			"outputs": [
				{
					"internalType": "enum projectStaffContractIITM.UserType",
					"name": "",
					"type": "uint8"
				}
			],
			"stateMutability": "nonpayable",
			"type": "function"
		},
		{
			"inputs": [],
			"name": "makePayments",
			"outputs": [
				{
					"internalType": "uint8",
					"name": "",
					"type": "uint8"
				}
			],
			"stateMutability": "payable",
			"type": "function"
		},
		{
			"inputs": [
				{
					"internalType": "uint256",
					"name": "",
					"type": "uint256"
				}
			],
			"name": "projectStaffs",
			"outputs": [
				{
					"internalType": "bytes20",
					"name": "name",
					"type": "bytes20"
				},
				{
					"internalType": "address payable",
					"name": "staffAddress",
					"type": "address"
				},
				{
					"internalType": "bytes20",
					"name": "email",
					"type": "bytes20"
				}
			],
			"stateMutability": "view",
			"type": "function"
		},
		{
			"inputs": [
				{
					"internalType": "uint256",
					"name": "",
					"type": "uint256"
				}
			],
			"name": "projects",
			"outputs": [
				{
					"internalType": "uint16",
					"name": "id",
					"type": "uint16"
				},
				{
					"internalType": "bytes20",
					"name": "title",
					"type": "bytes20"
				},
				{
					"internalType": "bytes30",
					"name": "description",
					"type": "bytes30"
				},
				{
					"internalType": "enum projectStaffContractIITM.ProjectStatus",
					"name": "status",
					"type": "uint8"
				},
				{
					"internalType": "uint64",
					"name": "startDate",
					"type": "uint64"
				},
				{
					"internalType": "uint64",
					"name": "endDate",
					"type": "uint64"
				},
				{
					"internalType": "uint32",
					"name": "salary",
					"type": "uint32"
				},
				{
					"internalType": "address payable",
					"name": "currentApprover",
					"type": "address"
				}
			],
			"stateMutability": "view",
			"type": "function"
		},
		{
			"inputs": [
				{
					"internalType": "string",
					"name": "_name",
					"type": "string"
				},
				{
					"internalType": "string",
					"name": "_department",
					"type": "string"
				},
				{
					"internalType": "string",
					"name": "_email",
					"type": "string"
				}
			],
			"name": "registerFaculty",
			"outputs": [
				{
					"internalType": "uint8",
					"name": "",
					"type": "uint8"
				}
			],
			"stateMutability": "nonpayable",
			"type": "function"
		},
		{
			"inputs": [
				{
					"internalType": "string",
					"name": "_name",
					"type": "string"
				},
				{
					"internalType": "string",
					"name": "_email",
					"type": "string"
				}
			],
			"name": "registerProjectStaff",
			"outputs": [
				{
					"internalType": "uint8",
					"name": "",
					"type": "uint8"
				}
			],
			"stateMutability": "nonpayable",
			"type": "function"
		},
		{
			"inputs": [
				{
					"internalType": "uint16",
					"name": "projectId",
					"type": "uint16"
				}
			],
			"name": "salaryTransfer",
			"outputs": [],
			"stateMutability": "payable",
			"type": "function"
		}
	]
}